{
  "_format": "hh-sol-artifact-1",
  "contractName": "Timelock",
  "sourceName": "contracts/Governance/Timelock.sol",
  "abi": [
    {
      "inputs": [
        {
          "internalType": "address",
          "name": "admin_",
          "type": "address"
        },
        {
          "internalType": "uint256",
          "name": "delay_",
          "type": "uint256"
        }
      ],
      "stateMutability": "nonpayable",
      "type": "constructor"
    },
    {
      "anonymous": false,
      "inputs": [
        {
          "indexed": true,
          "internalType": "bytes32",
          "name": "txHash",
          "type": "bytes32"
        },
        {
          "indexed": true,
          "internalType": "address",
          "name": "target",
          "type": "address"
        },
        {
          "indexed": false,
          "internalType": "uint256",
          "name": "value",
          "type": "uint256"
        },
        {
          "indexed": false,
          "internalType": "string",
          "name": "signature",
          "type": "string"
        },
        {
          "indexed": false,
          "internalType": "bytes",
          "name": "data",
          "type": "bytes"
        },
        {
          "indexed": false,
          "internalType": "uint256",
          "name": "eta",
          "type": "uint256"
        }
      ],
      "name": "CancelTransaction",
      "type": "event"
    },
    {
      "anonymous": false,
      "inputs": [
        {
          "indexed": true,
          "internalType": "bytes32",
          "name": "txHash",
          "type": "bytes32"
        },
        {
          "indexed": true,
          "internalType": "address",
          "name": "target",
          "type": "address"
        },
        {
          "indexed": false,
          "internalType": "uint256",
          "name": "value",
          "type": "uint256"
        },
        {
          "indexed": false,
          "internalType": "string",
          "name": "signature",
          "type": "string"
        },
        {
          "indexed": false,
          "internalType": "bytes",
          "name": "data",
          "type": "bytes"
        },
        {
          "indexed": false,
          "internalType": "uint256",
          "name": "eta",
          "type": "uint256"
        }
      ],
      "name": "ExecuteTransaction",
      "type": "event"
    },
    {
      "anonymous": false,
      "inputs": [
        {
          "indexed": true,
          "internalType": "address",
          "name": "newAdmin",
          "type": "address"
        }
      ],
      "name": "NewAdmin",
      "type": "event"
    },
    {
      "anonymous": false,
      "inputs": [
        {
          "indexed": true,
          "internalType": "uint256",
          "name": "newDelay",
          "type": "uint256"
        }
      ],
      "name": "NewDelay",
      "type": "event"
    },
    {
      "anonymous": false,
      "inputs": [
        {
          "indexed": true,
          "internalType": "address",
          "name": "newPendingAdmin",
          "type": "address"
        }
      ],
      "name": "NewPendingAdmin",
      "type": "event"
    },
    {
      "anonymous": false,
      "inputs": [
        {
          "indexed": true,
          "internalType": "bytes32",
          "name": "txHash",
          "type": "bytes32"
        },
        {
          "indexed": true,
          "internalType": "address",
          "name": "target",
          "type": "address"
        },
        {
          "indexed": false,
          "internalType": "uint256",
          "name": "value",
          "type": "uint256"
        },
        {
          "indexed": false,
          "internalType": "string",
          "name": "signature",
          "type": "string"
        },
        {
          "indexed": false,
          "internalType": "bytes",
          "name": "data",
          "type": "bytes"
        },
        {
          "indexed": false,
          "internalType": "uint256",
          "name": "eta",
          "type": "uint256"
        }
      ],
      "name": "QueueTransaction",
      "type": "event"
    },
    {
      "inputs": [],
      "name": "GRACE_PERIOD",
      "outputs": [
        {
          "internalType": "uint256",
          "name": "",
          "type": "uint256"
        }
      ],
      "stateMutability": "view",
      "type": "function"
    },
    {
      "inputs": [],
      "name": "MAXIMUM_DELAY",
      "outputs": [
        {
          "internalType": "uint256",
          "name": "",
          "type": "uint256"
        }
      ],
      "stateMutability": "view",
      "type": "function"
    },
    {
      "inputs": [],
      "name": "MINIMUM_DELAY",
      "outputs": [
        {
          "internalType": "uint256",
          "name": "",
          "type": "uint256"
        }
      ],
      "stateMutability": "view",
      "type": "function"
    },
    {
      "inputs": [],
      "name": "acceptAdmin",
      "outputs": [],
      "stateMutability": "nonpayable",
      "type": "function"
    },
    {
      "inputs": [],
      "name": "admin",
      "outputs": [
        {
          "internalType": "address",
          "name": "",
          "type": "address"
        }
      ],
      "stateMutability": "view",
      "type": "function"
    },
    {
      "inputs": [
        {
          "internalType": "address",
          "name": "target",
          "type": "address"
        },
        {
          "internalType": "uint256",
          "name": "value",
          "type": "uint256"
        },
        {
          "internalType": "string",
          "name": "signature",
          "type": "string"
        },
        {
          "internalType": "bytes",
          "name": "data",
          "type": "bytes"
        },
        {
          "internalType": "uint256",
          "name": "eta",
          "type": "uint256"
        }
      ],
      "name": "cancelTransaction",
      "outputs": [],
      "stateMutability": "nonpayable",
      "type": "function"
    },
    {
      "inputs": [],
      "name": "delay",
      "outputs": [
        {
          "internalType": "uint256",
          "name": "",
          "type": "uint256"
        }
      ],
      "stateMutability": "view",
      "type": "function"
    },
    {
      "inputs": [
        {
          "internalType": "address",
          "name": "target",
          "type": "address"
        },
        {
          "internalType": "uint256",
          "name": "value",
          "type": "uint256"
        },
        {
          "internalType": "string",
          "name": "signature",
          "type": "string"
        },
        {
          "internalType": "bytes",
          "name": "data",
          "type": "bytes"
        },
        {
          "internalType": "uint256",
          "name": "eta",
          "type": "uint256"
        }
      ],
      "name": "executeTransaction",
      "outputs": [
        {
          "internalType": "bytes",
          "name": "",
          "type": "bytes"
        }
      ],
      "stateMutability": "payable",
      "type": "function"
    },
    {
      "inputs": [],
      "name": "pendingAdmin",
      "outputs": [
        {
          "internalType": "address",
          "name": "",
          "type": "address"
        }
      ],
      "stateMutability": "view",
      "type": "function"
    },
    {
      "inputs": [
        {
          "internalType": "address",
          "name": "target",
          "type": "address"
        },
        {
          "internalType": "uint256",
          "name": "value",
          "type": "uint256"
        },
        {
          "internalType": "string",
          "name": "signature",
          "type": "string"
        },
        {
          "internalType": "bytes",
          "name": "data",
          "type": "bytes"
        },
        {
          "internalType": "uint256",
          "name": "eta",
          "type": "uint256"
        }
      ],
      "name": "queueTransaction",
      "outputs": [
        {
          "internalType": "bytes32",
          "name": "",
          "type": "bytes32"
        }
      ],
      "stateMutability": "nonpayable",
      "type": "function"
    },
    {
      "inputs": [
        {
          "internalType": "bytes32",
          "name": "",
          "type": "bytes32"
        }
      ],
      "name": "queuedTransactions",
      "outputs": [
        {
          "internalType": "bool",
          "name": "",
          "type": "bool"
        }
      ],
      "stateMutability": "view",
      "type": "function"
    },
    {
      "inputs": [
        {
          "internalType": "uint256",
          "name": "delay_",
          "type": "uint256"
        }
      ],
      "name": "setDelay",
      "outputs": [],
      "stateMutability": "nonpayable",
      "type": "function"
    },
    {
      "inputs": [
        {
          "internalType": "address",
          "name": "pendingAdmin_",
          "type": "address"
        }
      ],
      "name": "setPendingAdmin",
      "outputs": [],
      "stateMutability": "nonpayable",
      "type": "function"
    },
    {
      "stateMutability": "payable",
      "type": "receive"
    }
  ],
  "bytecode": "0x608060405234801561001057600080fd5b5060405161113c38038061113c83398101604081905261002f91610058565b600080546001600160a01b0319166001600160a01b039390931692909217909155600255610090565b6000806040838503121561006a578182fd5b82516001600160a01b0381168114610080578283fd5b6020939093015192949293505050565b61109d8061009f6000396000f3fe6080604052600436106100d65760003560e01c80636a42b8f81161007f578063c1a287e211610059578063c1a287e2146101f0578063e177246e14610205578063f2b0653714610225578063f851a44014610252576100dd565b80636a42b8f8146101b15780637d645fab146101c6578063b1b43ae5146101db576100dd565b80633a66f901116100b05780633a66f901146101445780634dd18bf514610171578063591fcdfe14610191576100dd565b80630825f38f146100e25780630e18b6811461010b5780632678224714610122576100dd565b366100dd57005b600080fd5b6100f56100f03660046108df565b610267565b6040516101029190610aa8565b60405180910390f35b34801561011757600080fd5b50610120610480565b005b34801561012e57600080fd5b5061013761050a565b6040516101029190610a33565b34801561015057600080fd5b5061016461015f3660046108df565b610519565b6040516101029190610a9f565b34801561017d57600080fd5b5061012061018c3660046108be565b610617565b34801561019d57600080fd5b506101206101ac3660046108df565b610693565b3480156101bd57600080fd5b50610164610757565b3480156101d257600080fd5b5061016461075d565b3480156101e757600080fd5b50610164610764565b3480156101fc57600080fd5b5061016461076b565b34801561021157600080fd5b5061012061022036600461098b565b610772565b34801561023157600080fd5b5061024561024036600461098b565b61080a565b6040516101029190610a94565b34801561025e57600080fd5b5061013761081f565b6000546060906001600160a01b0316331461029d5760405162461bcd60e51b815260040161029490610abb565b60405180910390fd5b600086868686866040516020016102b8959493929190610a47565b60408051601f1981840301815291815281516020928301206000818152600390935291205490915060ff166102ff5760405162461bcd60e51b815260040161029490610d0f565b8261030861082e565b10156103265760405162461bcd60e51b815260040161029490610bd2565b6103336212750084610ffd565b61033b61082e565b11156103595760405162461bcd60e51b815260040161029490610b75565b6000818152600360205260409020805460ff19169055845160609061037f5750836103ab565b8580519060200120856040516020016103999291906109cf565b60405160208183030381529060405290505b600080896001600160a01b031689846040516103c79190610a17565b60006040518083038185875af1925050503d8060008114610404576040519150601f19603f3d011682016040523d82523d6000602084013e610409565b606091505b50915091508161042b5760405162461bcd60e51b815260040161029490610e83565b896001600160a01b0316847fa560e3198060a2f10670c1ec5b403077ea6ae93ca8de1c32b451dc1a943cd6e78b8b8b8b60405161046b9493929190610fc0565b60405180910390a39998505050505050505050565b6001546001600160a01b031633146104aa5760405162461bcd60e51b815260040161029490610d6c565b600080543373ffffffffffffffffffffffffffffffffffffffff1991821617808355600180549092169091556040516001600160a01b03909116917f71614071b88dee5e0b2ae578a9dd7b2ebbe9ae832ba419dc0242cd065a290b6c91a2565b6001546001600160a01b031681565b600080546001600160a01b031633146105445760405162461bcd60e51b815260040161029490610e26565b60025461054f61082e565b6105599190610ffd565b8210156105785760405162461bcd60e51b815260040161029490610ee0565b60008686868686604051602001610593959493929190610a47565b60408051601f19818403018152828252805160209182012060008181526003909252919020805460ff1916600117905591506001600160a01b0388169082907f76e2796dc3a81d57b0e8504b647febcbeeb5f4af818e164f11eef8131a6a763f90610605908a908a908a908a90610fc0565b60405180910390a39695505050505050565b3330146106365760405162461bcd60e51b815260040161029490610dc9565b6001805473ffffffffffffffffffffffffffffffffffffffff19166001600160a01b0383811691909117918290556040519116907f69d78e38a01985fbb1462961809b4b2d65531bc93b2b94037f3334b82ca4a75690600090a250565b6000546001600160a01b031633146106bd5760405162461bcd60e51b815260040161029490610b18565b600085858585856040516020016106d8959493929190610a47565b60408051601f19818403018152828252805160209182012060008181526003909252919020805460ff1916905591506001600160a01b0387169082907f2fffc091a501fd91bfbff27141450d3acb40fb8e6d8382b243ec7a812a3aaf8790610747908990899089908990610fc0565b60405180910390a3505050505050565b60025481565b62278d0081565b6202a30081565b6212750081565b3330146107915760405162461bcd60e51b815260040161029490610f63565b6202a3008110156107b45760405162461bcd60e51b815260040161029490610c55565b62278d008111156107d75760405162461bcd60e51b815260040161029490610cb2565b600281905560405181907f948b1f6a42ee138b7e34058ba85a37f716d55ff25ff05a763f15bed6a04c8d2c90600090a250565b60036020526000908152604090205460ff1681565b6000546001600160a01b031681565b4290565b600067ffffffffffffffff8084111561084d5761084d611051565b604051601f8501601f19168101602001828111828210171561087157610871611051565b60405284815291508183850186101561088957600080fd5b8484602083013760006020868301015250509392505050565b80356001600160a01b03811681146108b957600080fd5b919050565b6000602082840312156108cf578081fd5b6108d8826108a2565b9392505050565b600080600080600060a086880312156108f6578081fd5b6108ff866108a2565b945060208601359350604086013567ffffffffffffffff80821115610922578283fd5b818801915088601f830112610935578283fd5b61094489833560208501610832565b94506060880135915080821115610959578283fd5b508601601f8101881361096a578182fd5b61097988823560208401610832565b95989497509295608001359392505050565b60006020828403121561099c578081fd5b5035919050565b600081518084526109bb816020860160208601611021565b601f01601f19169290920160200192915050565b60007fffffffff00000000000000000000000000000000000000000000000000000000841682528251610a09816004850160208701611021565b919091016004019392505050565b60008251610a29818460208701611021565b9190910192915050565b6001600160a01b0391909116815260200190565b60006001600160a01b038716825285602083015260a06040830152610a6f60a08301866109a3565b8281036060840152610a8181866109a3565b9150508260808301529695505050505050565b901515815260200190565b90815260200190565b6000602082526108d860208301846109a3565b60208082526038908201527f54696d656c6f636b3a3a657865637574655472616e73616374696f6e3a20436160408201527f6c6c206d75737420636f6d652066726f6d2061646d696e2e0000000000000000606082015260800190565b60208082526037908201527f54696d656c6f636b3a3a63616e63656c5472616e73616374696f6e3a2043616c60408201527f6c206d75737420636f6d652066726f6d2061646d696e2e000000000000000000606082015260800190565b60208082526033908201527f54696d656c6f636b3a3a657865637574655472616e73616374696f6e3a20547260408201527f616e73616374696f6e206973207374616c652e00000000000000000000000000606082015260800190565b60208082526045908201527f54696d656c6f636b3a3a657865637574655472616e73616374696f6e3a20547260408201527f616e73616374696f6e206861736e2774207375727061737365642074696d652060608201527f6c6f636b2e000000000000000000000000000000000000000000000000000000608082015260a00190565b60208082526034908201527f54696d656c6f636b3a3a73657444656c61793a2044656c6179206d757374206560408201527f7863656564206d696e696d756d2064656c61792e000000000000000000000000606082015260800190565b60208082526038908201527f54696d656c6f636b3a3a73657444656c61793a2044656c6179206d757374206e60408201527f6f7420657863656564206d6178696d756d2064656c61792e0000000000000000606082015260800190565b6020808252603d908201527f54696d656c6f636b3a3a657865637574655472616e73616374696f6e3a20547260408201527f616e73616374696f6e206861736e2774206265656e207175657565642e000000606082015260800190565b60208082526038908201527f54696d656c6f636b3a3a61636365707441646d696e3a2043616c6c206d75737460408201527f20636f6d652066726f6d2070656e64696e6741646d696e2e0000000000000000606082015260800190565b60208082526038908201527f54696d656c6f636b3a3a73657450656e64696e6741646d696e3a2043616c6c2060408201527f6d75737420636f6d652066726f6d2054696d656c6f636b2e0000000000000000606082015260800190565b60208082526036908201527f54696d656c6f636b3a3a71756575655472616e73616374696f6e3a2043616c6c60408201527f206d75737420636f6d652066726f6d2061646d696e2e00000000000000000000606082015260800190565b6020808252603d908201527f54696d656c6f636b3a3a657865637574655472616e73616374696f6e3a20547260408201527f616e73616374696f6e20657865637574696f6e2072657665727465642e000000606082015260800190565b60208082526049908201527f54696d656c6f636b3a3a71756575655472616e73616374696f6e3a204573746960408201527f6d6174656420657865637574696f6e20626c6f636b206d75737420736174697360608201527f66792064656c61792e0000000000000000000000000000000000000000000000608082015260a00190565b60208082526031908201527f54696d656c6f636b3a3a73657444656c61793a2043616c6c206d75737420636f60408201527f6d652066726f6d2054696d656c6f636b2e000000000000000000000000000000606082015260800190565b600085825260806020830152610fd960808301866109a3565b8281036040840152610feb81866109a3565b91505082606083015295945050505050565b6000821982111561101c57634e487b7160e01b81526011600452602481fd5b500190565b60005b8381101561103c578181015183820152602001611024565b8381111561104b576000848401525b50505050565b634e487b7160e01b600052604160045260246000fdfea2646970667358221220f00831508f08904cd443baf85c95a8ffd97edc04901ef3e0d60ca3b14a31178d64736f6c63430008000033",
  "linkReferences": {},
  "deployedLinkReferences": {}
}