{
  "_format": "hh-sol-artifact-1",
  "contractName": "Comptroller",
  "sourceName": "contracts/Comptroller/Comptroller.sol",
  "abi": [
    {
      "inputs": [],
      "stateMutability": "nonpayable",
      "type": "constructor"
    },
    {
      "anonymous": false,
      "inputs": [
        {
          "indexed": false,
          "internalType": "string",
          "name": "action",
          "type": "string"
        },
        {
          "indexed": false,
          "internalType": "bool",
          "name": "pauseState",
          "type": "bool"
        }
      ],
      "name": "ActionPaused",
      "type": "event"
    },
    {
      "anonymous": false,
      "inputs": [
        {
          "indexed": false,
          "internalType": "contract CToken",
          "name": "cToken",
          "type": "address"
        },
        {
          "indexed": false,
          "internalType": "string",
          "name": "action",
          "type": "string"
        },
        {
          "indexed": false,
          "internalType": "bool",
          "name": "pauseState",
          "type": "bool"
        }
      ],
      "name": "ActionPaused",
      "type": "event"
    },
    {
      "anonymous": false,
      "inputs": [
        {
          "indexed": true,
          "internalType": "address",
          "name": "user",
          "type": "address"
        },
        {
          "indexed": false,
          "internalType": "uint256",
          "name": "oldCompAccrued",
          "type": "uint256"
        },
        {
          "indexed": false,
          "internalType": "uint256",
          "name": "newCompAccrued",
          "type": "uint256"
        }
      ],
      "name": "CompAccruedAdjusted",
      "type": "event"
    },
    {
      "anonymous": false,
      "inputs": [
        {
          "indexed": true,
          "internalType": "contract CToken",
          "name": "cToken",
          "type": "address"
        },
        {
          "indexed": false,
          "internalType": "uint256",
          "name": "newSpeed",
          "type": "uint256"
        }
      ],
      "name": "CompBorrowSpeedUpdated",
      "type": "event"
    },
    {
      "anonymous": false,
      "inputs": [
        {
          "indexed": false,
          "internalType": "address",
          "name": "recipient",
          "type": "address"
        },
        {
          "indexed": false,
          "internalType": "uint256",
          "name": "amount",
          "type": "uint256"
        }
      ],
      "name": "CompGranted",
      "type": "event"
    },
    {
      "anonymous": false,
      "inputs": [
        {
          "indexed": true,
          "internalType": "address",
          "name": "user",
          "type": "address"
        },
        {
          "indexed": false,
          "internalType": "uint256",
          "name": "oldCompReceivable",
          "type": "uint256"
        },
        {
          "indexed": false,
          "internalType": "uint256",
          "name": "newCompReceivable",
          "type": "uint256"
        }
      ],
      "name": "CompReceivableUpdated",
      "type": "event"
    },
    {
      "anonymous": false,
      "inputs": [
        {
          "indexed": true,
          "internalType": "contract CToken",
          "name": "cToken",
          "type": "address"
        },
        {
          "indexed": false,
          "internalType": "uint256",
          "name": "newSpeed",
          "type": "uint256"
        }
      ],
      "name": "CompSupplySpeedUpdated",
      "type": "event"
    },
    {
      "anonymous": false,
      "inputs": [
        {
          "indexed": true,
          "internalType": "address",
          "name": "contributor",
          "type": "address"
        },
        {
          "indexed": false,
          "internalType": "uint256",
          "name": "newSpeed",
          "type": "uint256"
        }
      ],
      "name": "ContributorCompSpeedUpdated",
      "type": "event"
    },
    {
      "anonymous": false,
      "inputs": [
        {
          "indexed": true,
          "internalType": "contract CToken",
          "name": "cToken",
          "type": "address"
        },
        {
          "indexed": true,
          "internalType": "address",
          "name": "borrower",
          "type": "address"
        },
        {
          "indexed": false,
          "internalType": "uint256",
          "name": "compDelta",
          "type": "uint256"
        },
        {
          "indexed": false,
          "internalType": "uint256",
          "name": "compBorrowIndex",
          "type": "uint256"
        }
      ],
      "name": "DistributedBorrowerComp",
      "type": "event"
    },
    {
      "anonymous": false,
      "inputs": [
        {
          "indexed": true,
          "internalType": "contract CToken",
          "name": "cToken",
          "type": "address"
        },
        {
          "indexed": true,
          "internalType": "address",
          "name": "supplier",
          "type": "address"
        },
        {
          "indexed": false,
          "internalType": "uint256",
          "name": "compDelta",
          "type": "uint256"
        },
        {
          "indexed": false,
          "internalType": "uint256",
          "name": "compSupplyIndex",
          "type": "uint256"
        }
      ],
      "name": "DistributedSupplierComp",
      "type": "event"
    },
    {
      "anonymous": false,
      "inputs": [
        {
          "indexed": false,
          "internalType": "uint256",
          "name": "error",
          "type": "uint256"
        },
        {
          "indexed": false,
          "internalType": "uint256",
          "name": "info",
          "type": "uint256"
        },
        {
          "indexed": false,
          "internalType": "uint256",
          "name": "detail",
          "type": "uint256"
        }
      ],
      "name": "Failure",
      "type": "event"
    },
    {
      "anonymous": false,
      "inputs": [
        {
          "indexed": false,
          "internalType": "contract CToken",
          "name": "cToken",
          "type": "address"
        },
        {
          "indexed": false,
          "internalType": "address",
          "name": "account",
          "type": "address"
        }
      ],
      "name": "MarketEntered",
      "type": "event"
    },
    {
      "anonymous": false,
      "inputs": [
        {
          "indexed": false,
          "internalType": "contract CToken",
          "name": "cToken",
          "type": "address"
        },
        {
          "indexed": false,
          "internalType": "address",
          "name": "account",
          "type": "address"
        }
      ],
      "name": "MarketExited",
      "type": "event"
    },
    {
      "anonymous": false,
      "inputs": [
        {
          "indexed": false,
          "internalType": "contract CToken",
          "name": "cToken",
          "type": "address"
        }
      ],
      "name": "MarketListed",
      "type": "event"
    },
    {
      "anonymous": false,
      "inputs": [
        {
          "indexed": true,
          "internalType": "contract CToken",
          "name": "cToken",
          "type": "address"
        },
        {
          "indexed": false,
          "internalType": "uint256",
          "name": "newBorrowCap",
          "type": "uint256"
        }
      ],
      "name": "NewBorrowCap",
      "type": "event"
    },
    {
      "anonymous": false,
      "inputs": [
        {
          "indexed": false,
          "internalType": "address",
          "name": "oldBorrowCapGuardian",
          "type": "address"
        },
        {
          "indexed": false,
          "internalType": "address",
          "name": "newBorrowCapGuardian",
          "type": "address"
        }
      ],
      "name": "NewBorrowCapGuardian",
      "type": "event"
    },
    {
      "anonymous": false,
      "inputs": [
        {
          "indexed": false,
          "internalType": "uint256",
          "name": "oldCloseFactorMantissa",
          "type": "uint256"
        },
        {
          "indexed": false,
          "internalType": "uint256",
          "name": "newCloseFactorMantissa",
          "type": "uint256"
        }
      ],
      "name": "NewCloseFactor",
      "type": "event"
    },
    {
      "anonymous": false,
      "inputs": [
        {
          "indexed": false,
          "internalType": "contract CToken",
          "name": "cToken",
          "type": "address"
        },
        {
          "indexed": false,
          "internalType": "uint256",
          "name": "oldCollateralFactorMantissa",
          "type": "uint256"
        },
        {
          "indexed": false,
          "internalType": "uint256",
          "name": "newCollateralFactorMantissa",
          "type": "uint256"
        }
      ],
      "name": "NewCollateralFactor",
      "type": "event"
    },
    {
      "anonymous": false,
      "inputs": [
        {
          "indexed": false,
          "internalType": "uint256",
          "name": "oldLiquidationIncentiveMantissa",
          "type": "uint256"
        },
        {
          "indexed": false,
          "internalType": "uint256",
          "name": "newLiquidationIncentiveMantissa",
          "type": "uint256"
        }
      ],
      "name": "NewLiquidationIncentive",
      "type": "event"
    },
    {
      "anonymous": false,
      "inputs": [
        {
          "indexed": false,
          "internalType": "address",
          "name": "oldPauseGuardian",
          "type": "address"
        },
        {
          "indexed": false,
          "internalType": "address",
          "name": "newPauseGuardian",
          "type": "address"
        }
      ],
      "name": "NewPauseGuardian",
      "type": "event"
    },
    {
      "anonymous": false,
      "inputs": [
        {
          "indexed": false,
          "internalType": "contract PriceOracle",
          "name": "oldPriceOracle",
          "type": "address"
        },
        {
          "indexed": false,
          "internalType": "contract PriceOracle",
          "name": "newPriceOracle",
          "type": "address"
        }
      ],
      "name": "NewPriceOracle",
      "type": "event"
    },
    {
      "inputs": [
        {
          "internalType": "contract Unitroller",
          "name": "unitroller",
          "type": "address"
        }
      ],
      "name": "_become",
      "outputs": [],
      "stateMutability": "nonpayable",
      "type": "function"
    },
    {
      "inputs": [],
      "name": "_borrowGuardianPaused",
      "outputs": [
        {
          "internalType": "bool",
          "name": "",
          "type": "bool"
        }
      ],
      "stateMutability": "view",
      "type": "function"
    },
    {
      "inputs": [
        {
          "internalType": "address",
          "name": "recipient",
          "type": "address"
        },
        {
          "internalType": "uint256",
          "name": "amount",
          "type": "uint256"
        }
      ],
      "name": "_grantComp",
      "outputs": [],
      "stateMutability": "nonpayable",
      "type": "function"
    },
    {
      "inputs": [],
      "name": "_mintGuardianPaused",
      "outputs": [
        {
          "internalType": "bool",
          "name": "",
          "type": "bool"
        }
      ],
      "stateMutability": "view",
      "type": "function"
    },
    {
      "inputs": [
        {
          "internalType": "address",
          "name": "newBorrowCapGuardian",
          "type": "address"
        }
      ],
      "name": "_setBorrowCapGuardian",
      "outputs": [],
      "stateMutability": "nonpayable",
      "type": "function"
    },
    {
      "inputs": [
        {
          "internalType": "contract CToken",
          "name": "cToken",
          "type": "address"
        },
        {
          "internalType": "bool",
          "name": "state",
          "type": "bool"
        }
      ],
      "name": "_setBorrowPaused",
      "outputs": [
        {
          "internalType": "bool",
          "name": "",
          "type": "bool"
        }
      ],
      "stateMutability": "nonpayable",
      "type": "function"
    },
    {
      "inputs": [
        {
          "internalType": "uint256",
          "name": "newCloseFactorMantissa",
          "type": "uint256"
        }
      ],
      "name": "_setCloseFactor",
      "outputs": [
        {
          "internalType": "uint256",
          "name": "",
          "type": "uint256"
        }
      ],
      "stateMutability": "nonpayable",
      "type": "function"
    },
    {
      "inputs": [
        {
          "internalType": "contract CToken",
          "name": "cToken",
          "type": "address"
        },
        {
          "internalType": "uint256",
          "name": "newCollateralFactorMantissa",
          "type": "uint256"
        }
      ],
      "name": "_setCollateralFactor",
      "outputs": [
        {
          "internalType": "uint256",
          "name": "",
          "type": "uint256"
        }
      ],
      "stateMutability": "nonpayable",
      "type": "function"
    },
    {
      "inputs": [
        {
          "internalType": "contract CToken[]",
          "name": "cTokens",
          "type": "address[]"
        },
        {
          "internalType": "uint256[]",
          "name": "supplySpeeds",
          "type": "uint256[]"
        },
        {
          "internalType": "uint256[]",
          "name": "borrowSpeeds",
          "type": "uint256[]"
        }
      ],
      "name": "_setCompSpeeds",
      "outputs": [],
      "stateMutability": "nonpayable",
      "type": "function"
    },
    {
      "inputs": [
        {
          "internalType": "address",
          "name": "contributor",
          "type": "address"
        },
        {
          "internalType": "uint256",
          "name": "compSpeed",
          "type": "uint256"
        }
      ],
      "name": "_setContributorCompSpeed",
      "outputs": [],
      "stateMutability": "nonpayable",
      "type": "function"
    },
    {
      "inputs": [
        {
          "internalType": "uint256",
          "name": "newLiquidationIncentiveMantissa",
          "type": "uint256"
        }
      ],
      "name": "_setLiquidationIncentive",
      "outputs": [
        {
          "internalType": "uint256",
          "name": "",
          "type": "uint256"
        }
      ],
      "stateMutability": "nonpayable",
      "type": "function"
    },
    {
      "inputs": [
        {
          "internalType": "contract CToken[]",
          "name": "cTokens",
          "type": "address[]"
        },
        {
          "internalType": "uint256[]",
          "name": "newBorrowCaps",
          "type": "uint256[]"
        }
      ],
      "name": "_setMarketBorrowCaps",
      "outputs": [],
      "stateMutability": "nonpayable",
      "type": "function"
    },
    {
      "inputs": [
        {
          "internalType": "contract CToken",
          "name": "cToken",
          "type": "address"
        },
        {
          "internalType": "bool",
          "name": "state",
          "type": "bool"
        }
      ],
      "name": "_setMintPaused",
      "outputs": [
        {
          "internalType": "bool",
          "name": "",
          "type": "bool"
        }
      ],
      "stateMutability": "nonpayable",
      "type": "function"
    },
    {
      "inputs": [
        {
          "internalType": "address",
          "name": "newPauseGuardian",
          "type": "address"
        }
      ],
      "name": "_setPauseGuardian",
      "outputs": [
        {
          "internalType": "uint256",
          "name": "",
          "type": "uint256"
        }
      ],
      "stateMutability": "nonpayable",
      "type": "function"
    },
    {
      "inputs": [
        {
          "internalType": "contract PriceOracle",
          "name": "newOracle",
          "type": "address"
        }
      ],
      "name": "_setPriceOracle",
      "outputs": [
        {
          "internalType": "uint256",
          "name": "",
          "type": "uint256"
        }
      ],
      "stateMutability": "nonpayable",
      "type": "function"
    },
    {
      "inputs": [
        {
          "internalType": "bool",
          "name": "state",
          "type": "bool"
        }
      ],
      "name": "_setSeizePaused",
      "outputs": [
        {
          "internalType": "bool",
          "name": "",
          "type": "bool"
        }
      ],
      "stateMutability": "nonpayable",
      "type": "function"
    },
    {
      "inputs": [
        {
          "internalType": "bool",
          "name": "state",
          "type": "bool"
        }
      ],
      "name": "_setTransferPaused",
      "outputs": [
        {
          "internalType": "bool",
          "name": "",
          "type": "bool"
        }
      ],
      "stateMutability": "nonpayable",
      "type": "function"
    },
    {
      "inputs": [
        {
          "internalType": "contract CToken",
          "name": "cToken",
          "type": "address"
        }
      ],
      "name": "_supportMarket",
      "outputs": [
        {
          "internalType": "uint256",
          "name": "",
          "type": "uint256"
        }
      ],
      "stateMutability": "nonpayable",
      "type": "function"
    },
    {
      "inputs": [
        {
          "internalType": "address",
          "name": "",
          "type": "address"
        },
        {
          "internalType": "uint256",
          "name": "",
          "type": "uint256"
        }
      ],
      "name": "accountAssets",
      "outputs": [
        {
          "internalType": "contract CToken",
          "name": "",
          "type": "address"
        }
      ],
      "stateMutability": "view",
      "type": "function"
    },
    {
      "inputs": [],
      "name": "admin",
      "outputs": [
        {
          "internalType": "address",
          "name": "",
          "type": "address"
        }
      ],
      "stateMutability": "view",
      "type": "function"
    },
    {
      "inputs": [
        {
          "internalType": "uint256",
          "name": "",
          "type": "uint256"
        }
      ],
      "name": "allMarkets",
      "outputs": [
        {
          "internalType": "contract CToken",
          "name": "",
          "type": "address"
        }
      ],
      "stateMutability": "view",
      "type": "function"
    },
    {
      "inputs": [
        {
          "internalType": "address",
          "name": "cToken",
          "type": "address"
        },
        {
          "internalType": "address",
          "name": "borrower",
          "type": "address"
        },
        {
          "internalType": "uint256",
          "name": "borrowAmount",
          "type": "uint256"
        }
      ],
      "name": "borrowAllowed",
      "outputs": [
        {
          "internalType": "uint256",
          "name": "",
          "type": "uint256"
        }
      ],
      "stateMutability": "nonpayable",
      "type": "function"
    },
    {
      "inputs": [],
      "name": "borrowCapGuardian",
      "outputs": [
        {
          "internalType": "address",
          "name": "",
          "type": "address"
        }
      ],
      "stateMutability": "view",
      "type": "function"
    },
    {
      "inputs": [
        {
          "internalType": "address",
          "name": "",
          "type": "address"
        }
      ],
      "name": "borrowCaps",
      "outputs": [
        {
          "internalType": "uint256",
          "name": "",
          "type": "uint256"
        }
      ],
      "stateMutability": "view",
      "type": "function"
    },
    {
      "inputs": [
        {
          "internalType": "address",
          "name": "",
          "type": "address"
        }
      ],
      "name": "borrowGuardianPaused",
      "outputs": [
        {
          "internalType": "bool",
          "name": "",
          "type": "bool"
        }
      ],
      "stateMutability": "view",
      "type": "function"
    },
    {
      "inputs": [
        {
          "internalType": "address",
          "name": "cToken",
          "type": "address"
        },
        {
          "internalType": "address",
          "name": "borrower",
          "type": "address"
        },
        {
          "internalType": "uint256",
          "name": "borrowAmount",
          "type": "uint256"
        }
      ],
      "name": "borrowVerify",
      "outputs": [],
      "stateMutability": "nonpayable",
      "type": "function"
    },
    {
      "inputs": [
        {
          "internalType": "address",
          "name": "account",
          "type": "address"
        },
        {
          "internalType": "contract CToken",
          "name": "cToken",
          "type": "address"
        }
      ],
      "name": "checkMembership",
      "outputs": [
        {
          "internalType": "bool",
          "name": "",
          "type": "bool"
        }
      ],
      "stateMutability": "view",
      "type": "function"
    },
    {
      "inputs": [
        {
          "internalType": "address",
          "name": "holder",
          "type": "address"
        },
        {
          "internalType": "contract CToken[]",
          "name": "cTokens",
          "type": "address[]"
        }
      ],
      "name": "claimComp",
      "outputs": [],
      "stateMutability": "nonpayable",
      "type": "function"
    },
    {
      "inputs": [
        {
          "internalType": "address[]",
          "name": "holders",
          "type": "address[]"
        },
        {
          "internalType": "contract CToken[]",
          "name": "cTokens",
          "type": "address[]"
        },
        {
          "internalType": "bool",
          "name": "borrowers",
          "type": "bool"
        },
        {
          "internalType": "bool",
          "name": "suppliers",
          "type": "bool"
        }
      ],
      "name": "claimComp",
      "outputs": [],
      "stateMutability": "nonpayable",
      "type": "function"
    },
    {
      "inputs": [
        {
          "internalType": "address",
          "name": "holder",
          "type": "address"
        }
      ],
      "name": "claimComp",
      "outputs": [],
      "stateMutability": "nonpayable",
      "type": "function"
    },
    {
      "inputs": [],
      "name": "closeFactorMantissa",
      "outputs": [
        {
          "internalType": "uint256",
          "name": "",
          "type": "uint256"
        }
      ],
      "stateMutability": "view",
      "type": "function"
    },
    {
      "inputs": [
        {
          "internalType": "address",
          "name": "",
          "type": "address"
        }
      ],
      "name": "compAccrued",
      "outputs": [
        {
          "internalType": "uint256",
          "name": "",
          "type": "uint256"
        }
      ],
      "stateMutability": "view",
      "type": "function"
    },
    {
      "inputs": [],
      "name": "compAddress",
      "outputs": [
        {
          "internalType": "address",
          "name": "",
          "type": "address"
        }
      ],
      "stateMutability": "view",
      "type": "function"
    },
    {
      "inputs": [
        {
          "internalType": "address",
          "name": "",
          "type": "address"
        }
      ],
      "name": "compBorrowSpeeds",
      "outputs": [
        {
          "internalType": "uint256",
          "name": "",
          "type": "uint256"
        }
      ],
      "stateMutability": "view",
      "type": "function"
    },
    {
      "inputs": [
        {
          "internalType": "address",
          "name": "",
          "type": "address"
        }
      ],
      "name": "compBorrowState",
      "outputs": [
        {
          "internalType": "uint224",
          "name": "index",
          "type": "uint224"
        },
        {
          "internalType": "uint32",
          "name": "block",
          "type": "uint32"
        }
      ],
      "stateMutability": "view",
      "type": "function"
    },
    {
      "inputs": [
        {
          "internalType": "address",
          "name": "",
          "type": "address"
        },
        {
          "internalType": "address",
          "name": "",
          "type": "address"
        }
      ],
      "name": "compBorrowerIndex",
      "outputs": [
        {
          "internalType": "uint256",
          "name": "",
          "type": "uint256"
        }
      ],
      "stateMutability": "view",
      "type": "function"
    },
    {
      "inputs": [
        {
          "internalType": "address",
          "name": "",
          "type": "address"
        }
      ],
      "name": "compContributorSpeeds",
      "outputs": [
        {
          "internalType": "uint256",
          "name": "",
          "type": "uint256"
        }
      ],
      "stateMutability": "view",
      "type": "function"
    },
    {
      "inputs": [],
      "name": "compInitialIndex",
      "outputs": [
        {
          "internalType": "uint224",
          "name": "",
          "type": "uint224"
        }
      ],
      "stateMutability": "view",
      "type": "function"
    },
    {
      "inputs": [],
      "name": "compRate",
      "outputs": [
        {
          "internalType": "uint256",
          "name": "",
          "type": "uint256"
        }
      ],
      "stateMutability": "view",
      "type": "function"
    },
    {
      "inputs": [
        {
          "internalType": "address",
          "name": "",
          "type": "address"
        }
      ],
      "name": "compReceivable",
      "outputs": [
        {
          "internalType": "uint256",
          "name": "",
          "type": "uint256"
        }
      ],
      "stateMutability": "view",
      "type": "function"
    },
    {
      "inputs": [
        {
          "internalType": "address",
          "name": "",
          "type": "address"
        }
      ],
      "name": "compSpeeds",
      "outputs": [
        {
          "internalType": "uint256",
          "name": "",
          "type": "uint256"
        }
      ],
      "stateMutability": "view",
      "type": "function"
    },
    {
      "inputs": [
        {
          "internalType": "address",
          "name": "",
          "type": "address"
        },
        {
          "internalType": "address",
          "name": "",
          "type": "address"
        }
      ],
      "name": "compSupplierIndex",
      "outputs": [
        {
          "internalType": "uint256",
          "name": "",
          "type": "uint256"
        }
      ],
      "stateMutability": "view",
      "type": "function"
    },
    {
      "inputs": [
        {
          "internalType": "address",
          "name": "",
          "type": "address"
        }
      ],
      "name": "compSupplySpeeds",
      "outputs": [
        {
          "internalType": "uint256",
          "name": "",
          "type": "uint256"
        }
      ],
      "stateMutability": "view",
      "type": "function"
    },
    {
      "inputs": [
        {
          "internalType": "address",
          "name": "",
          "type": "address"
        }
      ],
      "name": "compSupplyState",
      "outputs": [
        {
          "internalType": "uint224",
          "name": "index",
          "type": "uint224"
        },
        {
          "internalType": "uint32",
          "name": "block",
          "type": "uint32"
        }
      ],
      "stateMutability": "view",
      "type": "function"
    },
    {
      "inputs": [],
      "name": "comptrollerImplementation",
      "outputs": [
        {
          "internalType": "address",
          "name": "",
          "type": "address"
        }
      ],
      "stateMutability": "view",
      "type": "function"
    },
    {
      "inputs": [
        {
          "internalType": "address[]",
          "name": "cTokens",
          "type": "address[]"
        }
      ],
      "name": "enterMarkets",
      "outputs": [
        {
          "internalType": "uint256[]",
          "name": "",
          "type": "uint256[]"
        }
      ],
      "stateMutability": "nonpayable",
      "type": "function"
    },
    {
      "inputs": [
        {
          "internalType": "address",
          "name": "cTokenAddress",
          "type": "address"
        }
      ],
      "name": "exitMarket",
      "outputs": [
        {
          "internalType": "uint256",
          "name": "",
          "type": "uint256"
        }
      ],
      "stateMutability": "nonpayable",
      "type": "function"
    },
    {
      "inputs": [
        {
          "internalType": "address[]",
          "name": "affectedUsers",
          "type": "address[]"
        },
        {
          "internalType": "uint256[]",
          "name": "amounts",
          "type": "uint256[]"
        }
      ],
      "name": "fixBadAccruals",
      "outputs": [],
      "stateMutability": "nonpayable",
      "type": "function"
    },
    {
      "inputs": [
        {
          "internalType": "address",
          "name": "account",
          "type": "address"
        }
      ],
      "name": "getAccountLiquidity",
      "outputs": [
        {
          "internalType": "uint256",
          "name": "",
          "type": "uint256"
        },
        {
          "internalType": "uint256",
          "name": "",
          "type": "uint256"
        },
        {
          "internalType": "uint256",
          "name": "",
          "type": "uint256"
        }
      ],
      "stateMutability": "view",
      "type": "function"
    },
    {
      "inputs": [],
      "name": "getAllMarkets",
      "outputs": [
        {
          "internalType": "contract CToken[]",
          "name": "",
          "type": "address[]"
        }
      ],
      "stateMutability": "view",
      "type": "function"
    },
    {
      "inputs": [
        {
          "internalType": "address",
          "name": "account",
          "type": "address"
        }
      ],
      "name": "getAssetsIn",
      "outputs": [
        {
          "internalType": "contract CToken[]",
          "name": "",
          "type": "address[]"
        }
      ],
      "stateMutability": "view",
      "type": "function"
    },
    {
      "inputs": [],
      "name": "getBlockNumber",
      "outputs": [
        {
          "internalType": "uint256",
          "name": "",
          "type": "uint256"
        }
      ],
      "stateMutability": "view",
      "type": "function"
    },
    {
      "inputs": [],
      "name": "getCompAddress",
      "outputs": [
        {
          "internalType": "address",
          "name": "",
          "type": "address"
        }
      ],
      "stateMutability": "view",
      "type": "function"
    },
    {
      "inputs": [
        {
          "internalType": "address",
          "name": "account",
          "type": "address"
        },
        {
          "internalType": "address",
          "name": "cTokenModify",
          "type": "address"
        },
        {
          "internalType": "uint256",
          "name": "redeemTokens",
          "type": "uint256"
        },
        {
          "internalType": "uint256",
          "name": "borrowAmount",
          "type": "uint256"
        }
      ],
      "name": "getHypotheticalAccountLiquidity",
      "outputs": [
        {
          "internalType": "uint256",
          "name": "",
          "type": "uint256"
        },
        {
          "internalType": "uint256",
          "name": "",
          "type": "uint256"
        },
        {
          "internalType": "uint256",
          "name": "",
          "type": "uint256"
        }
      ],
      "stateMutability": "view",
      "type": "function"
    },
    {
      "inputs": [],
      "name": "isComptroller",
      "outputs": [
        {
          "internalType": "bool",
          "name": "",
          "type": "bool"
        }
      ],
      "stateMutability": "view",
      "type": "function"
    },
    {
      "inputs": [
        {
          "internalType": "contract CToken",
          "name": "cToken",
          "type": "address"
        }
      ],
      "name": "isDeprecated",
      "outputs": [
        {
          "internalType": "bool",
          "name": "",
          "type": "bool"
        }
      ],
      "stateMutability": "view",
      "type": "function"
    },
    {
      "inputs": [
        {
          "internalType": "address",
          "name": "",
          "type": "address"
        }
      ],
      "name": "lastContributorBlock",
      "outputs": [
        {
          "internalType": "uint256",
          "name": "",
          "type": "uint256"
        }
      ],
      "stateMutability": "view",
      "type": "function"
    },
    {
      "inputs": [
        {
          "internalType": "address",
          "name": "cTokenBorrowed",
          "type": "address"
        },
        {
          "internalType": "address",
          "name": "cTokenCollateral",
          "type": "address"
        },
        {
          "internalType": "address",
          "name": "liquidator",
          "type": "address"
        },
        {
          "internalType": "address",
          "name": "borrower",
          "type": "address"
        },
        {
          "internalType": "uint256",
          "name": "repayAmount",
          "type": "uint256"
        }
      ],
      "name": "liquidateBorrowAllowed",
      "outputs": [
        {
          "internalType": "uint256",
          "name": "",
          "type": "uint256"
        }
      ],
      "stateMutability": "view",
      "type": "function"
    },
    {
      "inputs": [
        {
          "internalType": "address",
          "name": "cTokenBorrowed",
          "type": "address"
        },
        {
          "internalType": "address",
          "name": "cTokenCollateral",
          "type": "address"
        },
        {
          "internalType": "address",
          "name": "liquidator",
          "type": "address"
        },
        {
          "internalType": "address",
          "name": "borrower",
          "type": "address"
        },
        {
          "internalType": "uint256",
          "name": "actualRepayAmount",
          "type": "uint256"
        },
        {
          "internalType": "uint256",
          "name": "seizeTokens",
          "type": "uint256"
        }
      ],
      "name": "liquidateBorrowVerify",
      "outputs": [],
      "stateMutability": "nonpayable",
      "type": "function"
    },
    {
      "inputs": [
        {
          "internalType": "address",
          "name": "cTokenBorrowed",
          "type": "address"
        },
        {
          "internalType": "address",
          "name": "cTokenCollateral",
          "type": "address"
        },
        {
          "internalType": "uint256",
          "name": "actualRepayAmount",
          "type": "uint256"
        }
      ],
      "name": "liquidateCalculateSeizeTokens",
      "outputs": [
        {
          "internalType": "uint256",
          "name": "",
          "type": "uint256"
        },
        {
          "internalType": "uint256",
          "name": "",
          "type": "uint256"
        }
      ],
      "stateMutability": "view",
      "type": "function"
    },
    {
      "inputs": [],
      "name": "liquidationIncentiveMantissa",
      "outputs": [
        {
          "internalType": "uint256",
          "name": "",
          "type": "uint256"
        }
      ],
      "stateMutability": "view",
      "type": "function"
    },
    {
      "inputs": [
        {
          "internalType": "address",
          "name": "",
          "type": "address"
        }
      ],
      "name": "markets",
      "outputs": [
        {
          "internalType": "bool",
          "name": "isListed",
          "type": "bool"
        },
        {
          "internalType": "uint256",
          "name": "collateralFactorMantissa",
          "type": "uint256"
        },
        {
          "internalType": "bool",
          "name": "isComped",
          "type": "bool"
        }
      ],
      "stateMutability": "view",
      "type": "function"
    },
    {
      "inputs": [],
      "name": "maxAssets",
      "outputs": [
        {
          "internalType": "uint256",
          "name": "",
          "type": "uint256"
        }
      ],
      "stateMutability": "view",
      "type": "function"
    },
    {
      "inputs": [
        {
          "internalType": "address",
          "name": "cToken",
          "type": "address"
        },
        {
          "internalType": "address",
          "name": "minter",
          "type": "address"
        },
        {
          "internalType": "uint256",
          "name": "mintAmount",
          "type": "uint256"
        }
      ],
      "name": "mintAllowed",
      "outputs": [
        {
          "internalType": "uint256",
          "name": "",
          "type": "uint256"
        }
      ],
      "stateMutability": "nonpayable",
      "type": "function"
    },
    {
      "inputs": [
        {
          "internalType": "address",
          "name": "",
          "type": "address"
        }
      ],
      "name": "mintGuardianPaused",
      "outputs": [
        {
          "internalType": "bool",
          "name": "",
          "type": "bool"
        }
      ],
      "stateMutability": "view",
      "type": "function"
    },
    {
      "inputs": [
        {
          "internalType": "address",
          "name": "cToken",
          "type": "address"
        },
        {
          "internalType": "address",
          "name": "minter",
          "type": "address"
        },
        {
          "internalType": "uint256",
          "name": "actualMintAmount",
          "type": "uint256"
        },
        {
          "internalType": "uint256",
          "name": "mintTokens",
          "type": "uint256"
        }
      ],
      "name": "mintVerify",
      "outputs": [],
      "stateMutability": "nonpayable",
      "type": "function"
    },
    {
      "inputs": [],
      "name": "oracle",
      "outputs": [
        {
          "internalType": "contract PriceOracle",
          "name": "",
          "type": "address"
        }
      ],
      "stateMutability": "view",
      "type": "function"
    },
    {
      "inputs": [],
      "name": "pauseGuardian",
      "outputs": [
        {
          "internalType": "address",
          "name": "",
          "type": "address"
        }
      ],
      "stateMutability": "view",
      "type": "function"
    },
    {
      "inputs": [],
      "name": "pendingAdmin",
      "outputs": [
        {
          "internalType": "address",
          "name": "",
          "type": "address"
        }
      ],
      "stateMutability": "view",
      "type": "function"
    },
    {
      "inputs": [],
      "name": "pendingComptrollerImplementation",
      "outputs": [
        {
          "internalType": "address",
          "name": "",
          "type": "address"
        }
      ],
      "stateMutability": "view",
      "type": "function"
    },
    {
      "inputs": [],
      "name": "proposal65FixExecuted",
      "outputs": [
        {
          "internalType": "bool",
          "name": "",
          "type": "bool"
        }
      ],
      "stateMutability": "view",
      "type": "function"
    },
    {
      "inputs": [
        {
          "internalType": "address",
          "name": "cToken",
          "type": "address"
        },
        {
          "internalType": "address",
          "name": "redeemer",
          "type": "address"
        },
        {
          "internalType": "uint256",
          "name": "redeemTokens",
          "type": "uint256"
        }
      ],
      "name": "redeemAllowed",
      "outputs": [
        {
          "internalType": "uint256",
          "name": "",
          "type": "uint256"
        }
      ],
      "stateMutability": "nonpayable",
      "type": "function"
    },
    {
      "inputs": [
        {
          "internalType": "address",
          "name": "cToken",
          "type": "address"
        },
        {
          "internalType": "address",
          "name": "redeemer",
          "type": "address"
        },
        {
          "internalType": "uint256",
          "name": "redeemAmount",
          "type": "uint256"
        },
        {
          "internalType": "uint256",
          "name": "redeemTokens",
          "type": "uint256"
        }
      ],
      "name": "redeemVerify",
      "outputs": [],
      "stateMutability": "nonpayable",
      "type": "function"
    },
    {
      "inputs": [
        {
          "internalType": "address",
          "name": "cToken",
          "type": "address"
        },
        {
          "internalType": "address",
          "name": "payer",
          "type": "address"
        },
        {
          "internalType": "address",
          "name": "borrower",
          "type": "address"
        },
        {
          "internalType": "uint256",
          "name": "repayAmount",
          "type": "uint256"
        }
      ],
      "name": "repayBorrowAllowed",
      "outputs": [
        {
          "internalType": "uint256",
          "name": "",
          "type": "uint256"
        }
      ],
      "stateMutability": "nonpayable",
      "type": "function"
    },
    {
      "inputs": [
        {
          "internalType": "address",
          "name": "cToken",
          "type": "address"
        },
        {
          "internalType": "address",
          "name": "payer",
          "type": "address"
        },
        {
          "internalType": "address",
          "name": "borrower",
          "type": "address"
        },
        {
          "internalType": "uint256",
          "name": "actualRepayAmount",
          "type": "uint256"
        },
        {
          "internalType": "uint256",
          "name": "borrowerIndex",
          "type": "uint256"
        }
      ],
      "name": "repayBorrowVerify",
      "outputs": [],
      "stateMutability": "nonpayable",
      "type": "function"
    },
    {
      "inputs": [
        {
          "internalType": "address",
          "name": "cTokenCollateral",
          "type": "address"
        },
        {
          "internalType": "address",
          "name": "cTokenBorrowed",
          "type": "address"
        },
        {
          "internalType": "address",
          "name": "liquidator",
          "type": "address"
        },
        {
          "internalType": "address",
          "name": "borrower",
          "type": "address"
        },
        {
          "internalType": "uint256",
          "name": "seizeTokens",
          "type": "uint256"
        }
      ],
      "name": "seizeAllowed",
      "outputs": [
        {
          "internalType": "uint256",
          "name": "",
          "type": "uint256"
        }
      ],
      "stateMutability": "nonpayable",
      "type": "function"
    },
    {
      "inputs": [],
      "name": "seizeGuardianPaused",
      "outputs": [
        {
          "internalType": "bool",
          "name": "",
          "type": "bool"
        }
      ],
      "stateMutability": "view",
      "type": "function"
    },
    {
      "inputs": [
        {
          "internalType": "address",
          "name": "cTokenCollateral",
          "type": "address"
        },
        {
          "internalType": "address",
          "name": "cTokenBorrowed",
          "type": "address"
        },
        {
          "internalType": "address",
          "name": "liquidator",
          "type": "address"
        },
        {
          "internalType": "address",
          "name": "borrower",
          "type": "address"
        },
        {
          "internalType": "uint256",
          "name": "seizeTokens",
          "type": "uint256"
        }
      ],
      "name": "seizeVerify",
      "outputs": [],
      "stateMutability": "nonpayable",
      "type": "function"
    },
    {
      "inputs": [
        {
          "internalType": "address",
          "name": "cToken",
          "type": "address"
        },
        {
          "internalType": "address",
          "name": "src",
          "type": "address"
        },
        {
          "internalType": "address",
          "name": "dst",
          "type": "address"
        },
        {
          "internalType": "uint256",
          "name": "transferTokens",
          "type": "uint256"
        }
      ],
      "name": "transferAllowed",
      "outputs": [
        {
          "internalType": "uint256",
          "name": "",
          "type": "uint256"
        }
      ],
      "stateMutability": "nonpayable",
      "type": "function"
    },
    {
      "inputs": [],
      "name": "transferGuardianPaused",
      "outputs": [
        {
          "internalType": "bool",
          "name": "",
          "type": "bool"
        }
      ],
      "stateMutability": "view",
      "type": "function"
    },
    {
      "inputs": [
        {
          "internalType": "address",
          "name": "cToken",
          "type": "address"
        },
        {
          "internalType": "address",
          "name": "src",
          "type": "address"
        },
        {
          "internalType": "address",
          "name": "dst",
          "type": "address"
        },
        {
          "internalType": "uint256",
          "name": "transferTokens",
          "type": "uint256"
        }
      ],
      "name": "transferVerify",
      "outputs": [],
      "stateMutability": "nonpayable",
      "type": "function"
    },
    {
      "inputs": [
        {
          "internalType": "address",
          "name": "contributor",
          "type": "address"
        }
      ],
      "name": "updateContributorRewards",
      "outputs": [],
      "stateMutability": "nonpayable",
      "type": "function"
    }
  ],
  "bytecode": "0x608060405234801561001057600080fd5b50600080546001600160a01b03191633179055615e9c80620000336000396000f3fe608060405234801561001057600080fd5b50600436106105955760003560e01c8063741b2525116102e2578063b21be7fd11610191578063dce15449116100ee578063e9af0292116100a2578063f00a7a921161007c578063f00a7a9214610b24578063f4a433c014610b2c578063f851a44014610b3f57610595565b8063e9af029214610aeb578063eabe7d9114610afe578063ede4edd014610b1157610595565b8063e4028eee116100d3578063e4028eee14610ac8578063e6653f3d14610adb578063e875544614610ae357610595565b8063dce1544914610aad578063dcfbc0c714610ac057610595565b8063c488847b11610145578063cc7ebdc41161012a578063cc7ebdc414610a74578063d02f735114610a87578063da3d454c14610a9a57610595565b8063c488847b14610a40578063ca0af04314610a6157610595565b8063bdcdc25811610176578063bdcdc258146109fa578063bea6b8b814610a0d578063c299823814610a2057610595565b8063b21be7fd146109df578063bb82aa5e146109f257610595565b806394b2294b1161023f578063a8b43948116101f3578063abfceffc116101d8578063abfceffc146109af578063ac0b0bb7146109cf578063b0772d0b146109d757610595565b8063a8b4394814610994578063aa900754146109a757610595565b80639d1b5a0a116102245780639d1b5a0a14610964578063a76b3fda1461096c578063a7f0e2311461097f57610595565b806394b2294b14610949578063986ab8381461095157610595565b80638c57804e116102965780638ebf63641161027b5780638ebf636414610910578063929fe9a11461092357806394543c151461093657610595565b80638c57804e146108db5780638e8f294b146108ee57610595565b80637dc0d1d0116102c75780637dc0d1d0146108b857806385b7beb8146108c057806387f76303146108d357610595565b8063741b25251461089d5780637d3ab61a146108b057610595565b80634a584432116104495780635ec88c79116103a65780636a56947e1161035a5780636d154ea5116103345780636d154ea5146108695780636d35bf911461087c578063731f0c2b1461088a57610595565b80636a56947e146108275780636aa875b5146108355780636b79c38d1461084857610595565b80635fc7e71e1161038b5780635fc7e71e146107ee578063607ef6c1146108015780636810dfa61461081457610595565b80635ec88c79146107c85780635f5af1aa146107db57610595565b806351dff989116103fd57806355ee1fe1116103e257806355ee1fe11461078f578063598ee1cb146107a25780635c778605146107b557610595565b806351dff9891461076957806352d84d1e1461077c57610595565b80634e79238f1161042e5780634e79238f146107215780634ef4c3e1146107435780634fd42e171461075657610595565b80634a584432146107065780634ada90af1461071957610595565b806326782247116104f75780633bcf7ec1116104ab57806341c728b91161049057806341c728b9146106d857806342cbb15c146106eb57806347ef3b3b146106f357610595565b80633bcf7ec1146106bd5780633c94786f146106d057610595565b80632d70db78116104dc5780632d70db7814610684578063317b0b7714610697578063391957d7146106aa57610595565b8063267822471461066957806327efe3cb1461067157610595565b80631d7b33d71161054e57806321af45691161053357806321af45691461063957806324008a621461064e57806324a3d6221461066157610595565b80631d7b33d7146106065780631ededc911461062657610595565b806318c882a51161057f57806318c882a5146105cd5780631c3db2e0146105e05780631d504dc6146105f357610595565b80627e3dd21461059a57806316b95e8f146105b8575b600080fd5b6105a2610b47565b6040516105af91906153a9565b60405180910390f35b6105cb6105c636600461506d565b610b4c565b005b6105a26105db36600461524b565b610d7a565b6105cb6105ee366004614fe2565b610e8f565b6105cb610601366004614d73565b610f05565b610619610614366004614d73565b611039565b6040516105af9190615d13565b6105cb610634366004614f03565b61104b565b610641611052565b6040516105af91906152dd565b61061961065c366004614eb3565b611061565b61064161112e565b61064161113d565b6105cb61067f366004615042565b61114c565b6105a2610692366004615213565b6111da565b6106196106a5366004615278565b6112c5565b6105cb6106b8366004614d73565b61133b565b6105a26106cb36600461524b565b6113c4565b6105a26114c8565b6105cb6106e6366004614f9d565b6114e9565b6106196114ef565b6105cb610701366004614e46565b6114f3565b610619610714366004614d73565b6114fb565b61061961150d565b61073461072f366004614f9d565b611513565b6040516105af93929190615d2a565b610619610751366004614f5d565b611561565b610619610764366004615278565b6115e4565b6105cb610777366004614f9d565b611644565b61064161078a366004615278565b61166f565b61061961079d366004614d73565b611699565b6105cb6107b0366004615042565b61170b565b6105cb6107c3366004614f5d565b6117d4565b6107346107d6366004614d73565b6117d9565b6106196107e9366004614d73565b611822565b6106196107fc366004614de3565b611896565b6105cb61080f36600461506d565b611a6a565b6105cb610822366004615109565b611c10565b6105cb6106e6366004614eb3565b610619610843366004614d73565b611ed5565b61085b610856366004614d73565b611ee7565b6040516105af929190615cf4565b6105a2610877366004614d73565b611f11565b6105cb610634366004614de3565b6105a2610898366004614d73565b611f26565b6105cb6108ab366004614d73565b611f3b565b610641611ffe565b61064161200d565b6106196108ce366004614d73565b61201c565b6105a261202e565b61085b6108e9366004614d73565b61203e565b6109016108fc366004614d73565b612068565b6040516105af939291906153b4565b6105a261091e366004615213565b61208e565b6105a2610931366004615030565b612169565b6105a2610944366004614d73565b61219c565b61061961226a565b61061961095f366004614d73565b612270565b610641612282565b61061961097a366004614d73565b612291565b6109876123d3565b6040516105af9190615ce0565b6105cb6109a236600461518f565b6123e6565b6106196124d3565b6109c26109bd366004614d73565b6124d9565b6040516105af9190615324565b6105a261254f565b6109c261255f565b6106196109ed366004614dab565b6125c1565b6106416125de565b610619610a08366004614eb3565b6125ed565b610619610a1b366004614d73565b612653565b610a33610a2e3660046150d6565b612665565b6040516105af9190615371565b610a53610a4e366004614f5d565b612765565b6040516105af929190615d1c565b610619610a6f366004614dab565b61299e565b610619610a82366004614d73565b6129bb565b610619610a95366004614de3565b6129cd565b610619610aa8366004614f5d565b612b70565b610641610abb366004615042565b612f39565b610641612f71565b610619610ad6366004615042565b612f80565b6105a2613112565b610619613134565b6105cb610af9366004614d73565b61313a565b610619610b0c366004614f5d565b61319e565b610619610b1f366004614d73565b6131d9565b6105a261354b565b610619610b3a366004614d73565b613554565b610641613566565b600181565b6000546001600160a01b03163314610b7f5760405162461bcd60e51b8152600401610b7690615b1c565b60405180910390fd5b601c5460ff1615610ba25760405162461bcd60e51b8152600401610b7690615641565b828114610bc15760405162461bcd60e51b8152600401610b76906158aa565b60008060008060005b87811015610d6257888882818110610bf257634e487b7160e01b600052603260045260246000fd5b9050602002016020810190610c079190614d73565b6001600160a01b0381166000908152601560205260409020549095509350868682818110610c4557634e487b7160e01b600052603260045260246000fd5b90506020020135925083831115610ce8576000610c628585615de5565b6001600160a01b0387166000908152601d6020526040812054919250610c888284613575565b6001600160a01b0389166000818152601d60205260409081902083905551919250907f17fea09d9a7ca41b2f9f9118f18f44848a62e9c70d55dd4385131eb2cf1b7e4790610cd99085908590615d1c565b60405180910390a28695505050505b8215610d5257610cf884846135b7565b6001600160a01b0386166000818152601560205260409081902083905551919350907f4a5c134e28b537a76546993ea37f3b60d9190476df7356d3842aa40902e20f0490610d499087908690615d1c565b60405180910390a25b610d5b81615dfc565b9050610bca565b5050601c805460ff1916600117905550505050505050565b6001600160a01b0382166000908152600a602052604081205460ff16610db25760405162461bcd60e51b8152600401610b7690615519565b600b546001600160a01b0316331480610dd557506000546001600160a01b031633145b610df15760405162461bcd60e51b8152600401610b7690615782565b6000546001600160a01b0316331480610e0c57506001821515145b610e285760405162461bcd60e51b8152600401610b769061570c565b6001600160a01b0383166000908152600d602052604090819020805460ff1916841515179055517f71aec636243f9709bb0007ae15e9afb8150ab01716d75fd7573be5cc096e03b090610e7e908590859061541e565b60405180910390a150805b92915050565b604080516001808252818301909252600091602080830190803683370190505090508281600081518110610ed357634e487b7160e01b600052603260045260246000fd5b60200260200101906001600160a01b031690816001600160a01b031681525050610f008183600180611c10565b505050565b806001600160a01b031663f851a4406040518163ffffffff1660e01b815260040160206040518083038186803b158015610f3e57600080fd5b505afa158015610f52573d6000803e3d6000fd5b505050506040513d601f19601f82011682018060405250810190610f769190614d8f565b6001600160a01b0316336001600160a01b031614610fa65760405162461bcd60e51b8152600401610b7690615c4c565b806001600160a01b031663c1e803346040518163ffffffff1660e01b8152600401602060405180830381600087803b158015610fe157600080fd5b505af1158015610ff5573d6000803e3d6000fd5b505050506040513d601f19601f820116820180604052508101906110199190615290565b156110365760405162461bcd60e51b8152600401610b76906159e3565b50565b60106020526000908152604090205481565b5050505050565b6016546001600160a01b031681565b6001600160a01b0384166000908152600a602052604081205460ff1661108957506009611126565b60006040518060200160405280876001600160a01b031663aa5af0fd6040518163ffffffff1660e01b815260040160206040518083038186803b1580156110cf57600080fd5b505afa1580156110e3573d6000803e3d6000fd5b505050506040513d601f19601f820116820180604052508101906111079190615290565b9052905061111586826135f9565b611120868583613811565b60009150505b949350505050565b600b546001600160a01b031681565b6001546001600160a01b031681565b61115461398d565b6111705760405162461bcd60e51b8152600401610b76906155ad565b600061117c83836139b6565b9050801561119c5760405162461bcd60e51b8152600401610b7690615576565b7f98b2f82a3a07f223a0be64b3d0f47711c64dccd1feafb94aa28156b38cd9695c83836040516111cd92919061530b565b60405180910390a1505050565b600b546000906001600160a01b031633148061120057506000546001600160a01b031633145b61121c5760405162461bcd60e51b8152600401610b7690615782565b6000546001600160a01b031633148061123757506001821515145b6112535760405162461bcd60e51b8152600401610b769061570c565b600b80547fffffffffffffffff00ffffffffffffffffffffffffffffffffffffffffffffff16600160b81b841515021790556040517fef159d9a32b2472e32b098f954f3ce62d232939f1c207070b584df1814de2de0906112b5908490615743565b60405180910390a150805b919050565b600080546001600160a01b031633146112f05760405162461bcd60e51b8152600401610b76906156d5565b60068054908390556040517f3b9670cf975d26958e754b57098eaa2ac914d8d2a31b83257997b9f346110fd99061132a9083908690615d1c565b60405180910390a160009392505050565b6000546001600160a01b031633146113655760405162461bcd60e51b8152600401610b76906157df565b601680546001600160a01b038381166001600160a01b03198316179092556040519116907feda98690e518e9a05f8ec6837663e188211b2da8f4906648b323f2c1d4434e29906113b890839085906152f1565b60405180910390a15050565b6001600160a01b0382166000908152600a602052604081205460ff166113fc5760405162461bcd60e51b8152600401610b7690615519565b600b546001600160a01b031633148061141f57506000546001600160a01b031633145b61143b5760405162461bcd60e51b8152600401610b7690615782565b6000546001600160a01b031633148061145657506001821515145b6114725760405162461bcd60e51b8152600401610b769061570c565b6001600160a01b0383166000908152600c602052604090819020805460ff1916841515179055517f71aec636243f9709bb0007ae15e9afb8150ab01716d75fd7573be5cc096e03b090610e7e90859085906153ce565b600b5474010000000000000000000000000000000000000000900460ff1681565b50505050565b4390565b505050505050565b60176020526000908152604090205481565b60075481565b6000806000806000806115288a8a8a8a613b06565b92509250925082601181111561154e57634e487b7160e01b600052602160045260246000fd5b95509093509150505b9450945094915050565b6001600160a01b0383166000908152600c602052604081205460ff161561159a5760405162461bcd60e51b8152600401610b7690615c15565b6001600160a01b0384166000908152600a602052604090205460ff166115c45760095b90506115dd565b6115cd84613e5f565b6115d78484613ff8565b60005b90505b9392505050565b600080546001600160a01b0316331461160a576116036001600b6141c2565b90506112c0565b60078054908390556040517faeba5a6c40a8ac138134bff1aaa65debf25971188a58804bad717f82f0ec13169061132a9083908690615d1c565b801580156116525750600082115b156114e95760405162461bcd60e51b8152600401610b7690615918565b600e818154811061167f57600080fd5b6000918252602090912001546001600160a01b0316905081565b600080546001600160a01b031633146116b857611603600160106141c2565b600580546001600160a01b038481166001600160a01b03198316179092556040519116907fd52b2b9b7e9ee655fcb95d2e5b9e0c9f69e7ef2b8e9d2d0ea78402d576d22e229061132a90839086906152f1565b61171361398d565b61172f5760405162461bcd60e51b8152600401610b769061569e565b61173882611f3b565b8061175b576001600160a01b03821660009081526019602052604081205561177d565b6117636114ef565b6001600160a01b0383166000908152601960205260409020555b6001600160a01b03821660008181526018602052604090819020839055517f386537fa92edc3319af95f1f904dcf1900021e4f3f4e08169a577a09076e66b3906117c8908490615d13565b60405180910390a25050565b610f00565b6000806000806000806117f0876000806000613b06565b92509250925082601181111561181657634e487b7160e01b600052602160045260246000fd5b97919650945092505050565b600080546001600160a01b0316331461184157611603600160136141c2565b600b80546001600160a01b038481166001600160a01b031983161792839055604051918116927f0613b6ee6a04f0d09f390e4d9318894b9f6ac7fd83897cd8d18896ba579c401e9261132a92859216906152f1565b6001600160a01b0385166000908152600a602052604081205460ff1615806118d757506001600160a01b0385166000908152600a602052604090205460ff16155b156118e65760095b9050611a61565b6040517f95dd91930000000000000000000000000000000000000000000000000000000081526000906001600160a01b038816906395dd91939061192e9087906004016152dd565b60206040518083038186803b15801561194657600080fd5b505afa15801561195a573d6000803e3d6000fd5b505050506040513d601f19601f8201168201806040525081019061197e9190615290565b90506119898761219c565b156119b357828110156119ae5760405162461bcd60e51b8152600401610b76906155e4565b611a5b565b6000806119bf8661425e565b919350909150600090508260118111156119e957634e487b7160e01b600052602160045260246000fd5b14611a1857816011811115611a0e57634e487b7160e01b600052602160045260246000fd5b9350505050611a61565b80611a24576003611a0e565b6000611a4060405180602001604052806006548152508561427e565b905080861115611a57576011945050505050611a61565b5050505b60009150505b95945050505050565b6000546001600160a01b0316331480611a8d57506016546001600160a01b031633145b611aa95760405162461bcd60e51b8152600401610b769061594f565b82818115801590611ab957508082145b611ad55760405162461bcd60e51b8152600401610b7690615ae5565b60005b82811015611c0757848482818110611b0057634e487b7160e01b600052603260045260246000fd5b9050602002013560176000898985818110611b2b57634e487b7160e01b600052603260045260246000fd5b9050602002016020810190611b409190614d73565b6001600160a01b03168152602081019190915260400160002055868682818110611b7a57634e487b7160e01b600052603260045260246000fd5b9050602002016020810190611b8f9190614d73565b6001600160a01b03167f6f1951b2aad10f3fc81b86d91105b413a5b3f847a34bbc5ce1904201b14438f6868684818110611bd957634e487b7160e01b600052603260045260246000fd5b90506020020135604051611bed9190615d13565b60405180910390a280611bff81615dfc565b915050611ad8565b50505050505050565b60005b8351811015611de8576000848281518110611c3e57634e487b7160e01b600052603260045260246000fd5b6020908102919091018101516001600160a01b0381166000908152600a90925260409091205490915060ff16611c865760405162461bcd60e51b8152600401610b769061583c565b60018415151415611d705760006040518060200160405280836001600160a01b031663aa5af0fd6040518163ffffffff1660e01b815260040160206040518083038186803b158015611cd757600080fd5b505afa158015611ceb573d6000803e3d6000fd5b505050506040513d601f19601f82011682018060405250810190611d0f9190615290565b90529050611d1d82826135f9565b60005b8751811015611d6d57611d5b83898381518110611d4d57634e487b7160e01b600052603260045260246000fd5b602002602001015184613811565b80611d6581615dfc565b915050611d20565b50505b60018315151415611dd557611d8481613e5f565b60005b8651811015611dd357611dc182888381518110611db457634e487b7160e01b600052603260045260246000fd5b6020026020010151613ff8565b80611dcb81615dfc565b915050611d87565b505b5080611de081615dfc565b915050611c13565b5060005b845181101561104b57611e72858281518110611e1857634e487b7160e01b600052603260045260246000fd5b602002602001015160156000888581518110611e4457634e487b7160e01b600052603260045260246000fd5b60200260200101516001600160a01b03166001600160a01b03168152602001908152602001600020546139b6565b60156000878481518110611e9657634e487b7160e01b600052603260045260246000fd5b60200260200101516001600160a01b03166001600160a01b03168152602001908152602001600020819055508080611ecd90615dfc565b915050611dec565b601b6020526000908152604090205481565b6011602052600090815260409020546001600160e01b03811690600160e01b900463ffffffff1682565b600d6020526000908152604090205460ff1681565b600c6020526000908152604090205460ff1681565b6001600160a01b03811660009081526018602052604081205490611f5d6114ef565b6001600160a01b03841660009081526019602052604081205491925090611f859083906135b7565b9050600081118015611f975750600083115b156114e9576000611fa88285614296565b6001600160a01b03861660009081526015602052604081205491925090611fcf9083613575565b6001600160a01b0387166000908152601560209081526040808320939093556019905220849055505050505050565b6004546001600160a01b031681565b6005546001600160a01b031681565b601d6020526000908152604090205481565b600b54600160b01b900460ff1681565b6012602052600090815260409020546001600160e01b03811690600160e01b900463ffffffff1682565b600a6020526000908152604090208054600182015460039092015460ff91821692911683565b600b546000906001600160a01b03163314806120b457506000546001600160a01b031633145b6120d05760405162461bcd60e51b8152600401610b7690615782565b6000546001600160a01b03163314806120eb57506001821515145b6121075760405162461bcd60e51b8152600401610b769061570c565b600b80547fffffffffffffffffff00ffffffffffffffffffffffffffffffffffffffffffff16600160b01b841515021790556040517fef159d9a32b2472e32b098f954f3ce62d232939f1c207070b584df1814de2de0906112b5908490615bd6565b6001600160a01b038082166000908152600a60209081526040808320938616835260029093019052205460ff1692915050565b6001600160a01b0381166000908152600a60205260408120600101541580156121e257506001600160a01b0382166000908152600d602052604090205460ff1615156001145b8015610e895750816001600160a01b031663173b99046040518163ffffffff1660e01b815260040160206040518083038186803b15801561222257600080fd5b505afa158015612236573d6000803e3d6000fd5b505050506040513d601f19601f8201168201806040525081019061225a9190615290565b670de0b6b3a76400001492915050565b60085481565b60186020526000908152604090205481565b6004546001600160a01b031690565b600080546001600160a01b031633146122b057611603600160126141c2565b6001600160a01b0382166000908152600a602052604090205460ff16156122dd57611603600a60116141c2565b816001600160a01b031663fe9c44ae6040518163ffffffff1660e01b815260040160206040518083038186803b15801561231657600080fd5b505afa15801561232a573d6000803e3d6000fd5b505050506040513d601f19601f8201168201806040525081019061234e919061522f565b506001600160a01b0382166000908152600a602052604081208054600160ff1991821681178355600383018054909216909155015561238c826142d8565b612395826143a8565b7fcf583bb0c569eb967f806b11601c4cb93c10310485c67add5f8362c2f212321f826040516123c491906152dd565b60405180910390a16000610e89565b6ec097ce7bc90715b34b9f100000000081565b6123ee61398d565b61240a5760405162461bcd60e51b8152600401610b769061569e565b825182518114801561241c5750815181145b6124385760405162461bcd60e51b8152600401610b7690615b79565b60005b8181101561104b576124c385828151811061246657634e487b7160e01b600052603260045260246000fd5b602002602001015185838151811061248e57634e487b7160e01b600052603260045260246000fd5b60200260200101518584815181106124b657634e487b7160e01b600052603260045260246000fd5b6020026020010151614468565b6124cc81615dfc565b905061243b565b600f5481565b6001600160a01b038116600090815260096020908152604080832080548251818502810185019093528083526060949383018282801561254257602002820191906000526020600020905b81546001600160a01b03168152600190910190602001808311612524575b5093979650505050505050565b600b54600160b81b900460ff1681565b6060600e8054806020026020016040519081016040528092919081815260200182805480156125b757602002820191906000526020600020905b81546001600160a01b03168152600190910190602001808311612599575b5050505050905090565b601360209081526000928352604080842090915290825290205481565b6002546001600160a01b031681565b600b54600090600160b01b900460ff161561261a5760405162461bcd60e51b8152600401610b76906158e1565b6000612627868685614622565b90508015612636579050611126565b61263f86613e5f565b6126498686613ff8565b6111208685613ff8565b60196020526000908152604090205481565b805160609060008167ffffffffffffffff81111561269357634e487b7160e01b600052604160045260246000fd5b6040519080825280602002602001820160405280156126bc578160200160208202803683370190505b50905060005b8281101561275d5760008582815181106126ec57634e487b7160e01b600052603260045260246000fd5b6020026020010151905061270081336146f6565b601181111561271f57634e487b7160e01b600052602160045260246000fd5b83838151811061273f57634e487b7160e01b600052603260045260246000fd5b6020908102919091010152508061275581615dfc565b9150506126c2565b509392505050565b60055460405163fc57d4df60e01b8152600091829182916001600160a01b03169063fc57d4df9061279a9089906004016152dd565b60206040518083038186803b1580156127b257600080fd5b505afa1580156127c6573d6000803e3d6000fd5b505050506040513d601f19601f820116820180604052508101906127ea9190615290565b60055460405163fc57d4df60e01b81529192506000916001600160a01b039091169063fc57d4df906128209089906004016152dd565b60206040518083038186803b15801561283857600080fd5b505afa15801561284c573d6000803e3d6000fd5b505050506040513d601f19601f820116820180604052508101906128709190615290565b905081158061287d575080155b1561289157600d6000935093505050612996565b6000866001600160a01b031663182df0f56040518163ffffffff1660e01b815260040160206040518083038186803b1580156128cc57600080fd5b505afa1580156128e0573d6000803e3d6000fd5b505050506040513d601f19601f820116820180604052508101906129049190615290565b90506000612910614b7b565b612918614b7b565b612920614b7b565b612948604051806020016040528060075481525060405180602001604052808a8152506147ed565b92506129706040518060200160405280888152506040518060200160405280888152506147ed565b915061297c838361482e565b9050612988818b61427e565b600099509750505050505050505b935093915050565b601460209081526000928352604080842090915290825290205481565b60156020526000908152604090205481565b600b54600090600160b81b900460ff16156129fa5760405162461bcd60e51b8152600401610b7690615aae565b6001600160a01b0386166000908152600a602052604090205460ff161580612a3b57506001600160a01b0385166000908152600a602052604090205460ff16155b15612a475760096118df565b846001600160a01b0316635fe3b5676040518163ffffffff1660e01b815260040160206040518083038186803b158015612a8057600080fd5b505afa158015612a94573d6000803e3d6000fd5b505050506040513d601f19601f82011682018060405250810190612ab89190614d8f565b6001600160a01b0316866001600160a01b0316635fe3b5676040518163ffffffff1660e01b815260040160206040518083038186803b158015612afa57600080fd5b505afa158015612b0e573d6000803e3d6000fd5b505050506040513d601f19601f82011682018060405250810190612b329190614d8f565b6001600160a01b031614612b475760026118df565b612b5086613e5f565b612b5a8684613ff8565b612b648685613ff8565b60009695505050505050565b6001600160a01b0383166000908152600d602052604081205460ff1615612ba95760405162461bcd60e51b8152600401610b7690615ca9565b6001600160a01b0384166000908152600a602052604090205460ff16612bd05760096115bd565b6001600160a01b038085166000908152600a60209081526040808320938716835260029093019052205460ff16612ccf57336001600160a01b03851614612c295760405162461bcd60e51b8152600401610b76906159ac565b6000612c3533856146f6565b90506000816011811115612c5957634e487b7160e01b600052602160045260246000fd5b14612c8657806011811115612c7e57634e487b7160e01b600052602160045260246000fd5b9150506115dd565b6001600160a01b038086166000908152600a60209081526040808320938816835260029093019052205460ff16612ccd57634e487b7160e01b600052600160045260246000fd5b505b60055460405163fc57d4df60e01b81526001600160a01b039091169063fc57d4df90612cff9087906004016152dd565b60206040518083038186803b158015612d1757600080fd5b505afa158015612d2b573d6000803e3d6000fd5b505050506040513d601f19601f82011682018060405250810190612d4f9190615290565b612d5a57600d6115bd565b6001600160a01b0384166000908152601760205260409020548015612e1e576000856001600160a01b03166347bd37186040518163ffffffff1660e01b815260040160206040518083038186803b158015612db457600080fd5b505afa158015612dc8573d6000803e3d6000fd5b505050506040513d601f19601f82011682018060405250810190612dec9190615290565b90506000612dfa8286613575565b9050828110612e1b5760405162461bcd60e51b8152600401610b7690615a77565b50505b600080612e2e8688600088613b06565b91935090915060009050826011811115612e5857634e487b7160e01b600052602160045260246000fd5b14612e8757816011811115612e7d57634e487b7160e01b600052602160045260246000fd5b93505050506115dd565b8015612e94576004612e7d565b60006040518060200160405280896001600160a01b031663aa5af0fd6040518163ffffffff1660e01b815260040160206040518083038186803b158015612eda57600080fd5b505afa158015612eee573d6000803e3d6000fd5b505050506040513d601f19601f82011682018060405250810190612f129190615290565b90529050612f2088826135f9565b612f2b888883613811565b600098975050505050505050565b60096020528160005260406000208181548110612f5557600080fd5b6000918252602090912001546001600160a01b03169150829050565b6003546001600160a01b031681565b600080546001600160a01b03163314612fa657612f9f600160066141c2565b9050610e89565b6001600160a01b0383166000908152600a60205260409020805460ff16612fdb57612fd3600960076141c2565b915050610e89565b60408051602080820183528582528251908101909252670c7d713b49da00008252906130078183614861565b1561302257613018600660086141c2565b9350505050610e89565b84158015906130ae575060055460405163fc57d4df60e01b81526001600160a01b039091169063fc57d4df9061305c9089906004016152dd565b60206040518083038186803b15801561307457600080fd5b505afa158015613088573d6000803e3d6000fd5b505050506040513d601f19601f820116820180604052508101906130ac9190615290565b155b156130bf57613018600d60096141c2565b600183018054908690556040517f70483e6592cd5182d45ac970e05bc62cdcc90e9d8ef2c2dbe686cf383bcd7fc5906130fd90899084908a9061546e565b60405180910390a16000979650505050505050565b600b547501000000000000000000000000000000000000000000900460ff1681565b60065481565b61103681600e80548060200260200160405190810160405280929190818152602001828054801561319457602002820191906000526020600020905b81546001600160a01b03168152600190910190602001808311613176575b5050505050610e8f565b6000806131ac858585614622565b905080156131bb5790506115dd565b6131c485613e5f565b6131ce8585613ff8565b600095945050505050565b6000808290506000806000836001600160a01b031663c37f68e2336040518263ffffffff1660e01b815260040161321091906152dd565b60806040518083038186803b15801561322857600080fd5b505afa15801561323c573d6000803e3d6000fd5b505050506040513d601f19601f8201168201806040525081019061326091906152a8565b50925092509250826000146132875760405162461bcd60e51b8152600401610b7690615a1a565b80156132a457613299600c60026141c2565b9450505050506112c0565b60006132b1873385614622565b905080156132d2576132c6600e600383614868565b955050505050506112c0565b6001600160a01b0385166000908152600a60209081526040808320338452600281019092529091205460ff1661331157600096505050505050506112c0565b3360009081526002820160209081526040808320805460ff19169055600982528083208054825181850281018501909352808352919290919083018282801561338357602002820191906000526020600020905b81546001600160a01b03168152600190910190602001808311613365575b5050835193945083925060009150505b828110156133f657896001600160a01b03168482815181106133c557634e487b7160e01b600052603260045260246000fd5b60200260200101516001600160a01b031614156133e4578091506133f6565b806133ee81615dfc565b915050613393565b5081811061341457634e487b7160e01b600052600160045260246000fd5b3360009081526009602052604090208054819061343390600190615de5565b8154811061345157634e487b7160e01b600052603260045260246000fd5b9060005260206000200160009054906101000a90046001600160a01b031681838154811061348f57634e487b7160e01b600052603260045260246000fd5b600091825260209091200180546001600160a01b0319166001600160a01b0392909216919091179055805481906134c890600190615de5565b815481106134e657634e487b7160e01b600052603260045260246000fd5b600091825260209091200180546001600160a01b03191690556040517fe699a64c18b07ac5b7301aa273f36a2287239eb9501d81950672794afba29a0d90613531908c9033906152f1565b60405180910390a160009c9b505050505050505050505050565b601c5460ff1681565b601a6020526000908152604090205481565b6000546001600160a01b031681565b60006115dd83836040518060400160405280601181526020017f6164646974696f6e206f766572666c6f77000000000000000000000000000000815250614903565b60006115dd83836040518060400160405280601581526020017f7375627472616374696f6e20756e646572666c6f77000000000000000000000081525061493d565b6001600160a01b0382166000908152601260209081526040808320601a90925282205490916136646136296114ef565b6040518060400160405280601c81526020017f626c6f636b206e756d626572206578636565647320333220626974730000000081525061496c565b83549091506000906136869063ffffffff80851691600160e01b9004166135b7565b90506000811180156136985750600083115b156137e6576000613719876001600160a01b03166347bd37186040518163ffffffff1660e01b815260040160206040518083038186803b1580156136db57600080fd5b505afa1580156136ef573d6000803e3d6000fd5b505050506040513d601f19601f820116820180604052508101906137139190615290565b8761499c565b905060006137278386614296565b905060008083116137475760405180602001604052806000815250613751565b61375182846149ba565b604080516020810190915288546001600160e01b031681529091506137b49061377a90836149ef565b5160408051808201909152601a81527f6e657720696e64657820657863656564732032323420626974730000000000006020820152614a14565b87546001600160e01b0319166001600160e01b039182161716600160e01b63ffffffff871602178755506114f3915050565b80156114f357835463ffffffff8316600160e01b026001600160e01b03909116178455505050505050565b6001600160a01b03838116600090815260126020908152604080832080546014845282852095881685529490925290912080546001600160e01b039093169081905590918015801561387257506ec097ce7bc90715b34b9f10000000008210155b1561388957506ec097ce7bc90715b34b9f10000000005b600060405180602001604052806138a085856135b7565b815250905060006138ee886001600160a01b03166395dd9193896040518263ffffffff1660e01b81526004016138d691906152dd565b60206040518083038186803b1580156136db57600080fd5b905060006138fc8284614a3b565b6001600160a01b038916600090815260156020526040812054919250906139239083613575565b6001600160a01b03808b16600081815260156020526040908190208490555192935091908c16907f1fc3ecc087d8d2d15e23d0032af5a47059c3892d003d8e139fdcb6bb327c99a6906139799086908b90615d1c565b60405180910390a350505050505050505050565b600080546001600160a01b03163314806139b157506002546001600160a01b031633145b905090565b6000806139c1612282565b90506000816001600160a01b03166370a08231306040518263ffffffff1660e01b81526004016139f191906152dd565b60206040518083038186803b158015613a0957600080fd5b505afa158015613a1d573d6000803e3d6000fd5b505050506040513d601f19601f82011682018060405250810190613a419190615290565b9050600084118015613a535750808411155b15613afd576040517fa9059cbb0000000000000000000000000000000000000000000000000000000081526001600160a01b0383169063a9059cbb90613a9f908890889060040161530b565b602060405180830381600087803b158015613ab957600080fd5b505af1158015613acd573d6000803e3d6000fd5b505050506040513d601f19601f82011682018060405250810190613af1919061522f565b50600092505050610e89565b50919392505050565b6000806000613b13614b8e565b6001600160a01b038816600090815260096020908152604080832080548251818502810185019093528083528493830182828015613b7a57602002820191906000526020600020905b81546001600160a01b03168152600190910190602001808311613b5c575b5050505050905060005b8151811015613e09576000828281518110613baf57634e487b7160e01b600052603260045260246000fd5b60200260200101519050806001600160a01b031663c37f68e28d6040518263ffffffff1660e01b8152600401613be591906152dd565b60806040518083038186803b158015613bfd57600080fd5b505afa158015613c11573d6000803e3d6000fd5b505050506040513d601f19601f82011682018060405250810190613c3591906152a8565b60808901526060880152604087015293508315613c6157600f6000809750975097505050505050611557565b60408051602080820183526001600160a01b038085166000908152600a835284902060010154835260c0890192909252825190810183526080880151815260e0880152600554915163fc57d4df60e01b815291169063fc57d4df90613cca9084906004016152dd565b60206040518083038186803b158015613ce257600080fd5b505afa158015613cf6573d6000803e3d6000fd5b505050506040513d601f19601f82011682018060405250810190613d1a9190615290565b60a08601819052613d3a57600d6000809750975097505050505050611557565b604080516020810190915260a0860151815261010086015260c085015160e0860151613d7491613d69916147ed565b8661010001516147ed565b610120860181905260408601518651613d8e929190614a65565b855261010085015160608601516020870151613dab929190614a65565b60208601526001600160a01b03818116908c161415613df657613dd88561012001518b8760200151614a65565b60208601819052610100860151613df0918b90614a65565b60208601525b5080613e0181615dfc565b915050613b84565b50602083015183511115613e3a5760208301518351600091613e2a91615de5565b6000955095509550505050611557565b60008084600001518560200151613e519190615de5565b955095509550505050611557565b6001600160a01b0381166000908152601160209081526040808320601b9092528220549091613e8f6136296114ef565b8354909150600090613eb19063ffffffff80851691600160e01b9004166135b7565b9050600081118015613ec35750600083115b15613fce576000856001600160a01b03166318160ddd6040518163ffffffff1660e01b815260040160206040518083038186803b158015613f0357600080fd5b505afa158015613f17573d6000803e3d6000fd5b505050506040513d601f19601f82011682018060405250810190613f3b9190615290565b90506000613f498386614296565b90506000808311613f695760405180602001604052806000815250613f73565b613f7382846149ba565b604080516020810190915288546001600160e01b03168152909150613f9c9061377a90836149ef565b87546001600160e01b0319166001600160e01b039182161716600160e01b63ffffffff8716021787555061104b915050565b801561104b57835463ffffffff8316600160e01b026001600160e01b039091161784555050505050565b6001600160a01b03828116600090815260116020908152604080832080546013845282852095871685529490925290912080546001600160e01b039093169081905590918015801561405957506ec097ce7bc90715b34b9f10000000008210155b1561407057506ec097ce7bc90715b34b9f10000000005b6000604051806020016040528061408785856135b7565b90526040517f70a082310000000000000000000000000000000000000000000000000000000081529091506000906001600160a01b038816906370a08231906140d49089906004016152dd565b60206040518083038186803b1580156140ec57600080fd5b505afa158015614100573d6000803e3d6000fd5b505050506040513d601f19601f820116820180604052508101906141249190615290565b905060006141328284614a3b565b6001600160a01b038816600090815260156020526040812054919250906141599083613575565b6001600160a01b03808a16600081815260156020526040908190208490555192935091908b16907f2caecd17d02f56fa897705dcc740da2d237c373f70686f4e0d9bd3bf0400ea7a906141af9086908b90615d1c565b60405180910390a3505050505050505050565b60007f45b96fe442630264581b197e84bbada861235052c5a1aadfff9ea4e40a969aa083601181111561420557634e487b7160e01b600052602160045260246000fd5b83601381111561422557634e487b7160e01b600052602160045260246000fd5b600060405161423693929190615d2a565b60405180910390a18260118111156115dd57634e487b7160e01b600052602160045260246000fd5b6000806000614271846000806000613b06565b9250925092509193909250565b60008061428b8484614a86565b905061112681614aa7565b60006115dd83836040518060400160405280601781526020017f6d756c7469706c69636174696f6e206f766572666c6f77000000000000000000815250614abf565b60005b600e5481101561435557816001600160a01b0316600e828154811061431057634e487b7160e01b600052603260045260246000fd5b6000918252602090912001546001600160a01b031614156143435760405162461bcd60e51b8152600401610b76906154e2565b8061434d81615dfc565b9150506142db565b50600e80546001810182556000919091527fbb7b4a454dc3493923482f07822329ed19e8244eff582cc204f8554c3620c3fd0180546001600160a01b0319166001600160a01b0392909216919091179055565b60006143b56136296114ef565b6001600160a01b03831660009081526011602090815260408083206012909252909120815492935090916001600160e01b031661440c5781546001600160e01b0319166ec097ce7bc90715b34b9f10000000001782555b80546001600160e01b031661443b5780546001600160e01b0319166ec097ce7bc90715b34b9f10000000001781555b805463ffffffff909316600160e01b026001600160e01b0393841681179091558154909216909117905550565b6001600160a01b0383166000908152600a60205260409020805460ff166144a15760405162461bcd60e51b8152600401610b7690615873565b6001600160a01b0384166000908152601b6020526040902054831461451d576144c984613e5f565b6001600160a01b0384166000818152601b602052604090819020859055517fdeafccd0c0b768b2529f7dcbbe58e155d6023059150b7490ed4535cc3744b92d90614514908690615d13565b60405180910390a25b6001600160a01b0384166000908152601a602052604090205482146114e95760006040518060200160405280866001600160a01b031663aa5af0fd6040518163ffffffff1660e01b815260040160206040518083038186803b15801561458257600080fd5b505afa158015614596573d6000803e3d6000fd5b505050506040513d601f19601f820116820180604052508101906145ba9190615290565b905290506145c885826135f9565b6001600160a01b0385166000818152601a602052604090819020859055517f20af8e791cc98f74b2d7a391c80980ca8e5aebf3d4060bf581997b6acae2e53790614613908690615d13565b60405180910390a25050505050565b6001600160a01b0383166000908152600a602052604081205460ff166146495760096115bd565b6001600160a01b038085166000908152600a60209081526040808320938716835260029093019052205460ff166146815760006115bd565b6000806146918587866000613b06565b919350909150600090508260118111156146bb57634e487b7160e01b600052602160045260246000fd5b146146e9578160118111156146e057634e487b7160e01b600052602160045260246000fd5b925050506115dd565b8015612b645760046146e0565b6001600160a01b0382166000908152600a60205260408120805460ff16614721576009915050610e89565b6001600160a01b038316600090815260028201602052604090205460ff16151560011415614753576000915050610e89565b6001600160a01b03838116600090815260028301602090815260408083208054600160ff19909116811790915560098352818420805491820181558452919092200180546001600160a01b03191692871692909217909155517f3ab23ab0d51cccc0c3085aec51f99228625aa1a922b3a8ca89a26b0f2027a1a5906147db90869086906152f1565b60405180910390a15060009392505050565b6147f5614b7b565b6040518060200160405280670de0b6b3a764000061481b86600001518660000151614296565b6148259190615da6565b90529392505050565b614836614b7b565b604051806020016040528061482561485a8660000151670de0b6b3a7640000614296565b8551614b12565b5190511090565b60007f45b96fe442630264581b197e84bbada861235052c5a1aadfff9ea4e40a969aa08460118111156148ab57634e487b7160e01b600052602160045260246000fd5b8460138111156148cb57634e487b7160e01b600052602160045260246000fd5b846040516148db93929190615d2a565b60405180910390a18360118111156115da57634e487b7160e01b600052602160045260246000fd5b6000806149108486615d8e565b905082858210156149345760405162461bcd60e51b8152600401610b76919061548f565b50949350505050565b600081848411156149615760405162461bcd60e51b8152600401610b76919061548f565b506115da8385615de5565b60008164010000000084106149945760405162461bcd60e51b8152600401610b76919061548f565b509192915050565b60006115dd6149b384670de0b6b3a7640000614296565b8351614b12565b6149c2614b7b565b60405180602001604052806148256149e9866ec097ce7bc90715b34b9f1000000000614296565b85614b12565b6149f7614b7b565b604051806020016040528061482585600001518560000151613575565b600081600160e01b84106149945760405162461bcd60e51b8152600401610b76919061548f565b60006ec097ce7bc90715b34b9f1000000000614a5b848460000151614296565b6115dd9190615da6565b600080614a728585614a86565b9050611a61614a8082614aa7565b84613575565b614a8e614b7b565b6040518060200160405280614825856000015185614296565b8051600090610e8990670de0b6b3a764000090615da6565b6000831580614acc575082155b15614ad9575060006115dd565b6000614ae58486615dc6565b905083614af28683615da6565b1483906149345760405162461bcd60e51b8152600401610b76919061548f565b60006115dd83836040518060400160405280600e81526020017f646976696465206279207a65726f00000000000000000000000000000000000081525060008183614b705760405162461bcd60e51b8152600401610b76919061548f565b506115da8385615da6565b6040518060200160405280600081525090565b604051806101400160405280600081526020016000815260200160008152602001600081526020016000815260200160008152602001614bcc614b7b565b8152602001614bd9614b7b565b8152602001614be6614b7b565b8152602001614bf3614b7b565b905290565b60008083601f840112614c09578182fd5b50813567ffffffffffffffff811115614c20578182fd5b6020830191508360208083028501011115614c3a57600080fd5b9250929050565b600082601f830112614c51578081fd5b81356020614c66614c6183615d6a565b615d40565b8281528181019085830183850287018401881015614c82578586fd5b855b85811015614ca9578135614c9781615e43565b84529284019290840190600101614c84565b5090979650505050505050565b600082601f830112614cc6578081fd5b81356020614cd6614c6183615d6a565b8281528181019085830183850287018401881015614cf2578586fd5b855b85811015614ca9578135614d0781615e43565b84529284019290840190600101614cf4565b600082601f830112614d29578081fd5b81356020614d39614c6183615d6a565b8281528181019085830183850287018401881015614d55578586fd5b855b85811015614ca957813584529284019290840190600101614d57565b600060208284031215614d84578081fd5b81356115dd81615e43565b600060208284031215614da0578081fd5b81516115dd81615e43565b60008060408385031215614dbd578081fd5b8235614dc881615e43565b91506020830135614dd881615e43565b809150509250929050565b600080600080600060a08688031215614dfa578081fd5b8535614e0581615e43565b94506020860135614e1581615e43565b93506040860135614e2581615e43565b92506060860135614e3581615e43565b949793965091946080013592915050565b60008060008060008060c08789031215614e5e578081fd5b8635614e6981615e43565b95506020870135614e7981615e43565b94506040870135614e8981615e43565b93506060870135614e9981615e43565b9598949750929560808101359460a0909101359350915050565b60008060008060808587031215614ec8578182fd5b8435614ed381615e43565b93506020850135614ee381615e43565b92506040850135614ef381615e43565b9396929550929360600135925050565b600080600080600060a08688031215614f1a578283fd5b8535614f2581615e43565b94506020860135614f3581615e43565b93506040860135614f4581615e43565b94979396509394606081013594506080013592915050565b600080600060608486031215614f71578081fd5b8335614f7c81615e43565b92506020840135614f8c81615e43565b929592945050506040919091013590565b60008060008060808587031215614fb2578182fd5b8435614fbd81615e43565b93506020850135614fcd81615e43565b93969395505050506040820135916060013590565b60008060408385031215614ff4578182fd5b8235614fff81615e43565b9150602083013567ffffffffffffffff81111561501a578182fd5b61502685828601614cb6565b9150509250929050565b60008060408385031215614dbd578182fd5b60008060408385031215615054578182fd5b823561505f81615e43565b946020939093013593505050565b60008060008060408587031215615082578182fd5b843567ffffffffffffffff80821115615099578384fd5b6150a588838901614bf8565b909650945060208701359150808211156150bd578384fd5b506150ca87828801614bf8565b95989497509550505050565b6000602082840312156150e7578081fd5b813567ffffffffffffffff8111156150fd578182fd5b61112684828501614c41565b6000806000806080858703121561511e578182fd5b843567ffffffffffffffff80821115615135578384fd5b61514188838901614c41565b95506020870135915080821115615156578384fd5b5061516387828801614cb6565b935050604085013561517481615e58565b9150606085013561518481615e58565b939692955090935050565b6000806000606084860312156151a3578081fd5b833567ffffffffffffffff808211156151ba578283fd5b6151c687838801614cb6565b945060208601359150808211156151db578283fd5b6151e787838801614d19565b935060408601359150808211156151fc578283fd5b5061520986828701614d19565b9150509250925092565b600060208284031215615224578081fd5b81356115dd81615e58565b600060208284031215615240578081fd5b81516115dd81615e58565b6000806040838503121561525d578182fd5b823561526881615e43565b91506020830135614dd881615e58565b600060208284031215615289578081fd5b5035919050565b6000602082840312156152a1578081fd5b5051919050565b600080600080608085870312156152bd578182fd5b505082516020840151604085015160609095015191969095509092509050565b6001600160a01b0391909116815260200190565b6001600160a01b0392831681529116602082015260400190565b6001600160a01b03929092168252602082015260400190565b6020808252825182820181905260009190848201906040850190845b818110156153655783516001600160a01b031683529284019291840191600101615340565b50909695505050505050565b6020808252825182820181905260009190848201906040850190845b818110156153655783518352928401929184019160010161538d565b901515815260200190565b921515835260208301919091521515604082015260600190565b6001600160a01b039290921682526060602083018190526004908301527f4d696e740000000000000000000000000000000000000000000000000000000060808301521515604082015260a00190565b6001600160a01b039290921682526060602083018190526006908301527f426f72726f77000000000000000000000000000000000000000000000000000060808301521515604082015260a00190565b6001600160a01b039390931683526020830191909152604082015260600190565b6000602080835283518082850152825b818110156154bb5785810183015185820160400152820161549f565b818111156154cc5783604083870101525b50601f01601f1916929092016040019392505050565b60208082526014908201527f6d61726b657420616c7265616479206164646564000000000000000000000000604082015260600190565b60208082526028908201527f63616e6e6f742070617573652061206d61726b65742074686174206973206e6f60408201527f74206c6973746564000000000000000000000000000000000000000000000000606082015260800190565b6020808252601b908201527f696e73756666696369656e7420636f6d7020666f72206772616e740000000000604082015260600190565b60208082526019908201527f6f6e6c792061646d696e2063616e206772616e7420636f6d7000000000000000604082015260600190565b60208082526028908201527f43616e206e6f74207265706179206d6f7265207468616e2074686520746f746160408201527f6c20626f72726f77000000000000000000000000000000000000000000000000606082015260800190565b60208082526026908201527f416c72656164792065786563757465642074686973206f6e652d6f666620667560408201527f6e6374696f6e0000000000000000000000000000000000000000000000000000606082015260800190565b6020808252601d908201527f6f6e6c792061646d696e2063616e2073657420636f6d70207370656564000000604082015260600190565b6020808252601f908201527f6f6e6c792061646d696e2063616e2073657420636c6f736520666163746f7200604082015260600190565b60208082526016908201527f6f6e6c792061646d696e2063616e20756e706175736500000000000000000000604082015260600190565b60408082526005908201527f5365697a650000000000000000000000000000000000000000000000000000006060820152901515602082015260800190565b60208082526027908201527f6f6e6c7920706175736520677561726469616e20616e642061646d696e20636160408201527f6e20706175736500000000000000000000000000000000000000000000000000606082015260800190565b60208082526026908201527f6f6e6c792061646d696e2063616e2073657420626f72726f772063617020677560408201527f61726469616e0000000000000000000000000000000000000000000000000000606082015260800190565b60208082526015908201527f6d61726b6574206d757374206265206c69737465640000000000000000000000604082015260600190565b60208082526019908201527f636f6d70206d61726b6574206973206e6f74206c697374656400000000000000604082015260600190565b6020808252600d908201527f496e76616c696420696e70757400000000000000000000000000000000000000604082015260600190565b60208082526012908201527f7472616e73666572206973207061757365640000000000000000000000000000604082015260600190565b60208082526011908201527f72656465656d546f6b656e73207a65726f000000000000000000000000000000604082015260600190565b60208082526035908201527f6f6e6c792061646d696e206f7220626f72726f7720636170206775617264696160408201527f6e2063616e2073657420626f72726f7720636170730000000000000000000000606082015260800190565b60208082526015908201527f73656e646572206d7573742062652063546f6b656e0000000000000000000000604082015260600190565b60208082526015908201527f6368616e6765206e6f7420617574686f72697a65640000000000000000000000604082015260600190565b60208082526025908201527f657869744d61726b65743a206765744163636f756e74536e617073686f74206660408201527f61696c6564000000000000000000000000000000000000000000000000000000606082015260800190565b60208082526019908201527f6d61726b657420626f72726f7720636170207265616368656400000000000000604082015260600190565b6020808252600f908201527f7365697a65206973207061757365640000000000000000000000000000000000604082015260600190565b6020808252600d908201527f696e76616c696420696e70757400000000000000000000000000000000000000604082015260600190565b60208082526021908201527f4f6e6c792061646d696e2063616e2063616c6c20746869732066756e6374696f60408201527f6e00000000000000000000000000000000000000000000000000000000000000606082015260800190565b60208082526029908201527f436f6d7074726f6c6c65723a3a5f736574436f6d7053706565647320696e766160408201527f6c696420696e7075740000000000000000000000000000000000000000000000606082015260800190565b60408082526008908201527f5472616e736665720000000000000000000000000000000000000000000000006060820152901515602082015260800190565b6020808252600e908201527f6d696e7420697320706175736564000000000000000000000000000000000000604082015260600190565b60208082526027908201527f6f6e6c7920756e6974726f6c6c65722061646d696e2063616e206368616e676560408201527f20627261696e7300000000000000000000000000000000000000000000000000606082015260800190565b60208082526010908201527f626f72726f772069732070617573656400000000000000000000000000000000604082015260600190565b6001600160e01b0391909116815260200190565b6001600160e01b0392909216825263ffffffff16602082015260400190565b90815260200190565b918252602082015260400190565b9283526020830191909152604082015260600190565b60405181810167ffffffffffffffff81118282101715615d6257615d62615e2d565b604052919050565b600067ffffffffffffffff821115615d8457615d84615e2d565b5060209081020190565b60008219821115615da157615da1615e17565b500190565b600082615dc157634e487b7160e01b81526012600452602481fd5b500490565b6000816000190483118215151615615de057615de0615e17565b500290565b600082821015615df757615df7615e17565b500390565b6000600019821415615e1057615e10615e17565b5060010190565b634e487b7160e01b600052601160045260246000fd5b634e487b7160e01b600052604160045260246000fd5b6001600160a01b038116811461103657600080fd5b801515811461103657600080fdfea2646970667358221220a0dc6d5c42cdf8f801242882e9804af6939b267f588138aaf3b7c97c604300bd64736f6c63430008000033",
  "linkReferences": {},
  "deployedLinkReferences": {}
}