{
  "_format": "hh-sol-artifact-1",
  "contractName": "Setup",
  "sourceName": "contracts/Setup.sol",
  "abi": [
    {
      "inputs": [
        {
          "internalType": "address",
          "name": "tt1_",
          "type": "address"
        }
      ],
      "stateMutability": "nonpayable",
      "type": "constructor"
    },
    {
      "inputs": [],
      "name": "TT1",
      "outputs": [
        {
          "internalType": "address",
          "name": "",
          "type": "address"
        }
      ],
      "stateMutability": "view",
      "type": "function"
    },
    {
      "inputs": [],
      "name": "cTT1",
      "outputs": [
        {
          "internalType": "contract CErc20Delegator",
          "name": "",
          "type": "address"
        }
      ],
      "stateMutability": "view",
      "type": "function"
    },
    {
      "inputs": [],
      "name": "cTT1Delegate",
      "outputs": [
        {
          "internalType": "contract CErc20Delegate",
          "name": "",
          "type": "address"
        }
      ],
      "stateMutability": "view",
      "type": "function"
    },
    {
      "inputs": [],
      "name": "comp",
      "outputs": [
        {
          "internalType": "contract Comp",
          "name": "",
          "type": "address"
        }
      ],
      "stateMutability": "view",
      "type": "function"
    },
    {
      "inputs": [],
      "name": "comptrollerImpl",
      "outputs": [
        {
          "internalType": "contract Comptroller",
          "name": "",
          "type": "address"
        }
      ],
      "stateMutability": "view",
      "type": "function"
    },
    {
      "inputs": [],
      "name": "interestRateModel",
      "outputs": [
        {
          "internalType": "contract JumpRateModelV2",
          "name": "",
          "type": "address"
        }
      ],
      "stateMutability": "view",
      "type": "function"
    },
    {
      "inputs": [],
      "name": "priceOracle",
      "outputs": [
        {
          "internalType": "contract SimplePriceOracle",
          "name": "",
          "type": "address"
        }
      ],
      "stateMutability": "view",
      "type": "function"
    },
    {
      "inputs": [],
      "name": "timelock",
      "outputs": [
        {
          "internalType": "contract Timelock",
          "name": "",
          "type": "address"
        }
      ],
      "stateMutability": "view",
      "type": "function"
    },
    {
      "inputs": [],
      "name": "unitrollerProxy",
      "outputs": [
        {
          "internalType": "contract Unitroller",
          "name": "",
          "type": "address"
        }
      ],
      "stateMutability": "view",
      "type": "function"
    },
    {
      "inputs": [],
      "name": "unitrollerProxyToImpl",
      "outputs": [
        {
          "internalType": "contract Comptroller",
          "name": "",
          "type": "address"
        }
      ],
      "stateMutability": "view",
      "type": "function"
    }
  ],
  "bytecode": "0x60806040523480156200001157600080fd5b50604051620138e2380380620138e2833981016040819052620000349162000ad6565b600080546001600160a01b0319166001600160a01b0383161790556040513390600190620000629062000a66565b6200006f92919062000cc9565b604051809103906000f0801580156200008c573d6000803e3d6000fd5b50600980546001600160a01b0319166001600160a01b03929092169190911790556040513390620000bd9062000a74565b620000c9919062000bf7565b604051809103906000f080158015620000e6573d6000803e3d6000fd5b50600180546001600160a01b0319166001600160a01b0392909216919091179055604051620001159062000a82565b604051809103906000f08015801562000132573d6000803e3d6000fd5b50600880546001600160a01b0319166001600160a01b0392831617905560095460405166b1a2bc2ec50000926701aa535d3d0c000092670354a6ba7a18000092670b1a2bc2ec5000009291909116906200018c9062000a90565b6200019c95949392919062000d66565b604051809103906000f080158015620001b9573d6000803e3d6000fd5b50600780546001600160a01b0319166001600160a01b0392909216919091179055604051620001e89062000a9e565b604051809103906000f08015801562000205573d6000803e3d6000fd5b50600480546001600160a01b0319166001600160a01b0392909216919091179055604051620002349062000aac565b604051809103906000f08015801562000251573d6000803e3d6000fd5b50600580546001600160a01b039283166001600160a01b03199182161791829055600480546006805490931690851690811790925560405163e992a04160e01b8152919363e992a04193620002aa939116910162000bf7565b602060405180830381600087803b158015620002c557600080fd5b505af1158015620002da573d6000803e3d6000fd5b505050506040513d601f19601f8201168201806040525081019062000300919062000b06565b5060055460048054604051630ea826e360e11b81526001600160a01b0393841693631d504dc6936200033793909116910162000bf7565b600060405180830381600087803b1580156200035257600080fd5b505af115801562000367573d6000803e3d6000fd5b50506006546008546040516355ee1fe160e01b81526001600160a01b0392831694506355ee1fe19350620003a2929091169060040162000bf7565b602060405180830381600087803b158015620003bd57600080fd5b505af1158015620003d2573d6000803e3d6000fd5b505050506040513d601f19601f82011682018060405250810190620003f8919062000b06565b5060065460405163317b0b7760e01b81526001600160a01b039091169063317b0b779062000433906706f05b59d3b200009060040162000d5d565b602060405180830381600087803b1580156200044e57600080fd5b505af115801562000463573d6000803e3d6000fd5b505050506040513d601f19601f8201168201806040525081019062000489919062000b06565b50600654604051634fd42e1760e01b81526001600160a01b0390911690634fd42e1790620004c490670efcee47256c00009060040162000d5d565b602060405180830381600087803b158015620004df57600080fd5b505af1158015620004f4573d6000803e3d6000fd5b505050506040513d601f19601f820116820180604052508101906200051a919062000b06565b50604051620005299062000aba565b604051809103906000f08015801562000546573d6000803e3d6000fd5b50600380546001600160a01b0319166001600160a01b03928316179081905560408051600080825260208201928390525460045460075492959182169490821693928216926aa56fa5b99019a5c80000009260089230929116908890620005ad9062000ac8565b620005c098979695949392919062000c0b565b604051809103906000f080158015620005dd573d6000803e3d6000fd5b50600280546001600160a01b0319166001600160a01b03928316179081905560405163fca7820b60e01b815291169063fca7820b906200062a906703782dace9d900009060040162000d5d565b602060405180830381600087803b1580156200064557600080fd5b505af11580156200065a573d6000803e3d6000fd5b505050506040513d601f19601f8201168201806040525081019062000680919062000b06565b506008546002546040516293ffed60e51b81526001600160a01b039283169263127ffda092620006c092911690670de0b6b3a76400009060040162000cc9565b600060405180830381600087803b158015620006db57600080fd5b505af1158015620006f0573d6000803e3d6000fd5b50506006546002546040516353b59fed60e11b81526001600160a01b03928316945063a76b3fda93506200072b929091169060040162000bf7565b602060405180830381600087803b1580156200074657600080fd5b505af11580156200075b573d6000803e3d6000fd5b505050506040513d601f19601f8201168201806040525081019062000781919062000b06565b50600654600254604051637201477760e11b81526001600160a01b039283169263e4028eee92620007c292911690670853a0d2313c00009060040162000cc9565b602060405180830381600087803b158015620007dd57600080fd5b505af1158015620007f2573d6000803e3d6000fd5b505050506040513d601f19601f8201168201806040525081019062000818919062000b06565b5060408051600180825281830190925260009160208083019080368337505060025482519293506001600160a01b0316918391506000906200086a57634e487b7160e01b600052603260045260246000fd5b6001600160a01b039290921660209283029190910190910152604080516001808252818301909252600091816020016020820280368337019050509050600081600081518110620008cb57634e487b7160e01b600052603260045260246000fd5b602090810291909101015260408051600180825281830190925260009181602001602082028036833701905050905066ee08251ff38000816000815181106200092457634e487b7160e01b600052603260045260246000fd5b602090810291909101015260408051600180825281830190925260009181602001602082028036833701905050905066ee08251ff38000816000815181106200097d57634e487b7160e01b600052603260045260246000fd5b602090810291909101015260065460405163607ef6c160e01b81526001600160a01b039091169063607ef6c190620009bc908790879060040162000ce2565b600060405180830381600087803b158015620009d757600080fd5b505af1158015620009ec573d6000803e3d6000fd5b5050600654604051631516872960e31b81526001600160a01b03909116925063a8b43948915062000a269087908690869060040162000d14565b600060405180830381600087803b15801562000a4157600080fd5b505af115801562000a56573d6000803e3d6000fd5b5050505050505050505062000d92565b61113c8062000fab83390190565b611b3b80620020e783390190565b6106108062003c2283390190565b610bd5806200423283390190565b6106e28062004e0783390190565b615ecf80620054e983390190565b615f23806200b3b883390190565b61260780620112db83390190565b60006020828403121562000ae8578081fd5b81516001600160a01b038116811462000aff578182fd5b9392505050565b60006020828403121562000b18578081fd5b5051919050565b6001600160a01b03169052565b6000815180845260208085019450808401835b8381101562000b665781516001600160a01b03168752958201959082019060010162000b3f565b509495945050505050565b6000815180845260208085019450808401835b8381101562000b665781518752958201959082019060010162000b84565b60008151808452815b8181101562000bc95760208185018101518683018201520162000bab565b8181111562000bdb5782602083870101525b50601f01601f19169290920160200192915050565b60ff169052565b6001600160a01b0391909116815260200190565b6001600160a01b0389811682528881166020830152871660408201526060810186905261014060808201819052600c908201526b436f6d706f756e642054543160a01b61016082015261018060a08201819052600490820152636354543160e01b6101a082015260006101c062000c8660c084018862000bf0565b62000c9560e084018762000b1f565b62000ca561010084018662000b1f565b8061012084015262000cba8184018562000ba2565b9b9a5050505050505050505050565b6001600160a01b03929092168252602082015260400190565b60006040825262000cf7604083018562000b2c565b828103602084015262000d0b818562000b71565b95945050505050565b60006060825262000d29606083018662000b2c565b828103602084015262000d3d818662000b71565b9050828103604084015262000d53818562000b71565b9695505050505050565b90815260200190565b9485526020850193909352604084019190915260608301526001600160a01b0316608082015260a00190565b6102098062000da26000396000f3fe608060405234801561001057600080fd5b50600436106100be5760003560e01c8063a93324e111610076578063d33219b41161005b578063d33219b414610111578063f33bf91e14610119578063f3fdb15a14610121576100be565b8063a93324e114610101578063befd85a114610109576100be565b806338d170d0116100a757806338d170d0146100e957806388b3b756146100f1578063890e0cf7146100f9576100be565b8063109d0af8146100c35780632630c12f146100e1575b600080fd5b6100cb610129565b6040516100d891906101bf565b60405180910390f35b6100cb610138565b6100cb610147565b6100cb610156565b6100cb610165565b6100cb610174565b6100cb610183565b6100cb610192565b6100cb6101a1565b6100cb6101b0565b6001546001600160a01b031681565b6008546001600160a01b031681565b6005546001600160a01b031681565b6006546001600160a01b031681565b6004546001600160a01b031681565b6000546001600160a01b031681565b6002546001600160a01b031681565b6009546001600160a01b031681565b6003546001600160a01b031681565b6007546001600160a01b031681565b6001600160a01b039190911681526020019056fea2646970667358221220b515c5fbac3b06a6b8fe38b8b968f15ac1ebba671db74b4996a067b10128cd2364736f6c63430008000033608060405234801561001057600080fd5b5060405161113c38038061113c83398101604081905261002f91610058565b600080546001600160a01b0319166001600160a01b039390931692909217909155600255610090565b6000806040838503121561006a578182fd5b82516001600160a01b0381168114610080578283fd5b6020939093015192949293505050565b61109d8061009f6000396000f3fe6080604052600436106100d65760003560e01c80636a42b8f81161007f578063c1a287e211610059578063c1a287e2146101f0578063e177246e14610205578063f2b0653714610225578063f851a44014610252576100dd565b80636a42b8f8146101b15780637d645fab146101c6578063b1b43ae5146101db576100dd565b80633a66f901116100b05780633a66f901146101445780634dd18bf514610171578063591fcdfe14610191576100dd565b80630825f38f146100e25780630e18b6811461010b5780632678224714610122576100dd565b366100dd57005b600080fd5b6100f56100f03660046108df565b610267565b6040516101029190610aa8565b60405180910390f35b34801561011757600080fd5b50610120610480565b005b34801561012e57600080fd5b5061013761050a565b6040516101029190610a33565b34801561015057600080fd5b5061016461015f3660046108df565b610519565b6040516101029190610a9f565b34801561017d57600080fd5b5061012061018c3660046108be565b610617565b34801561019d57600080fd5b506101206101ac3660046108df565b610693565b3480156101bd57600080fd5b50610164610757565b3480156101d257600080fd5b5061016461075d565b3480156101e757600080fd5b50610164610764565b3480156101fc57600080fd5b5061016461076b565b34801561021157600080fd5b5061012061022036600461098b565b610772565b34801561023157600080fd5b5061024561024036600461098b565b61080a565b6040516101029190610a94565b34801561025e57600080fd5b5061013761081f565b6000546060906001600160a01b0316331461029d5760405162461bcd60e51b815260040161029490610abb565b60405180910390fd5b600086868686866040516020016102b8959493929190610a47565b60408051601f1981840301815291815281516020928301206000818152600390935291205490915060ff166102ff5760405162461bcd60e51b815260040161029490610d0f565b8261030861082e565b10156103265760405162461bcd60e51b815260040161029490610bd2565b6103336212750084610ffd565b61033b61082e565b11156103595760405162461bcd60e51b815260040161029490610b75565b6000818152600360205260409020805460ff19169055845160609061037f5750836103ab565b8580519060200120856040516020016103999291906109cf565b60405160208183030381529060405290505b600080896001600160a01b031689846040516103c79190610a17565b60006040518083038185875af1925050503d8060008114610404576040519150601f19603f3d011682016040523d82523d6000602084013e610409565b606091505b50915091508161042b5760405162461bcd60e51b815260040161029490610e83565b896001600160a01b0316847fa560e3198060a2f10670c1ec5b403077ea6ae93ca8de1c32b451dc1a943cd6e78b8b8b8b60405161046b9493929190610fc0565b60405180910390a39998505050505050505050565b6001546001600160a01b031633146104aa5760405162461bcd60e51b815260040161029490610d6c565b600080543373ffffffffffffffffffffffffffffffffffffffff1991821617808355600180549092169091556040516001600160a01b03909116917f71614071b88dee5e0b2ae578a9dd7b2ebbe9ae832ba419dc0242cd065a290b6c91a2565b6001546001600160a01b031681565b600080546001600160a01b031633146105445760405162461bcd60e51b815260040161029490610e26565b60025461054f61082e565b6105599190610ffd565b8210156105785760405162461bcd60e51b815260040161029490610ee0565b60008686868686604051602001610593959493929190610a47565b60408051601f19818403018152828252805160209182012060008181526003909252919020805460ff1916600117905591506001600160a01b0388169082907f76e2796dc3a81d57b0e8504b647febcbeeb5f4af818e164f11eef8131a6a763f90610605908a908a908a908a90610fc0565b60405180910390a39695505050505050565b3330146106365760405162461bcd60e51b815260040161029490610dc9565b6001805473ffffffffffffffffffffffffffffffffffffffff19166001600160a01b0383811691909117918290556040519116907f69d78e38a01985fbb1462961809b4b2d65531bc93b2b94037f3334b82ca4a75690600090a250565b6000546001600160a01b031633146106bd5760405162461bcd60e51b815260040161029490610b18565b600085858585856040516020016106d8959493929190610a47565b60408051601f19818403018152828252805160209182012060008181526003909252919020805460ff1916905591506001600160a01b0387169082907f2fffc091a501fd91bfbff27141450d3acb40fb8e6d8382b243ec7a812a3aaf8790610747908990899089908990610fc0565b60405180910390a3505050505050565b60025481565b62278d0081565b6202a30081565b6212750081565b3330146107915760405162461bcd60e51b815260040161029490610f63565b6202a3008110156107b45760405162461bcd60e51b815260040161029490610c55565b62278d008111156107d75760405162461bcd60e51b815260040161029490610cb2565b600281905560405181907f948b1f6a42ee138b7e34058ba85a37f716d55ff25ff05a763f15bed6a04c8d2c90600090a250565b60036020526000908152604090205460ff1681565b6000546001600160a01b031681565b4290565b600067ffffffffffffffff8084111561084d5761084d611051565b604051601f8501601f19168101602001828111828210171561087157610871611051565b60405284815291508183850186101561088957600080fd5b8484602083013760006020868301015250509392505050565b80356001600160a01b03811681146108b957600080fd5b919050565b6000602082840312156108cf578081fd5b6108d8826108a2565b9392505050565b600080600080600060a086880312156108f6578081fd5b6108ff866108a2565b945060208601359350604086013567ffffffffffffffff80821115610922578283fd5b818801915088601f830112610935578283fd5b61094489833560208501610832565b94506060880135915080821115610959578283fd5b508601601f8101881361096a578182fd5b61097988823560208401610832565b95989497509295608001359392505050565b60006020828403121561099c578081fd5b5035919050565b600081518084526109bb816020860160208601611021565b601f01601f19169290920160200192915050565b60007fffffffff00000000000000000000000000000000000000000000000000000000841682528251610a09816004850160208701611021565b919091016004019392505050565b60008251610a29818460208701611021565b9190910192915050565b6001600160a01b0391909116815260200190565b60006001600160a01b038716825285602083015260a06040830152610a6f60a08301866109a3565b8281036060840152610a8181866109a3565b9150508260808301529695505050505050565b901515815260200190565b90815260200190565b6000602082526108d860208301846109a3565b60208082526038908201527f54696d656c6f636b3a3a657865637574655472616e73616374696f6e3a20436160408201527f6c6c206d75737420636f6d652066726f6d2061646d696e2e0000000000000000606082015260800190565b60208082526037908201527f54696d656c6f636b3a3a63616e63656c5472616e73616374696f6e3a2043616c60408201527f6c206d75737420636f6d652066726f6d2061646d696e2e000000000000000000606082015260800190565b60208082526033908201527f54696d656c6f636b3a3a657865637574655472616e73616374696f6e3a20547260408201527f616e73616374696f6e206973207374616c652e00000000000000000000000000606082015260800190565b60208082526045908201527f54696d656c6f636b3a3a657865637574655472616e73616374696f6e3a20547260408201527f616e73616374696f6e206861736e2774207375727061737365642074696d652060608201527f6c6f636b2e000000000000000000000000000000000000000000000000000000608082015260a00190565b60208082526034908201527f54696d656c6f636b3a3a73657444656c61793a2044656c6179206d757374206560408201527f7863656564206d696e696d756d2064656c61792e000000000000000000000000606082015260800190565b60208082526038908201527f54696d656c6f636b3a3a73657444656c61793a2044656c6179206d757374206e60408201527f6f7420657863656564206d6178696d756d2064656c61792e0000000000000000606082015260800190565b6020808252603d908201527f54696d656c6f636b3a3a657865637574655472616e73616374696f6e3a20547260408201527f616e73616374696f6e206861736e2774206265656e207175657565642e000000606082015260800190565b60208082526038908201527f54696d656c6f636b3a3a61636365707441646d696e3a2043616c6c206d75737460408201527f20636f6d652066726f6d2070656e64696e6741646d696e2e0000000000000000606082015260800190565b60208082526038908201527f54696d656c6f636b3a3a73657450656e64696e6741646d696e3a2043616c6c2060408201527f6d75737420636f6d652066726f6d2054696d656c6f636b2e0000000000000000606082015260800190565b60208082526036908201527f54696d656c6f636b3a3a71756575655472616e73616374696f6e3a2043616c6c60408201527f206d75737420636f6d652066726f6d2061646d696e2e00000000000000000000606082015260800190565b6020808252603d908201527f54696d656c6f636b3a3a657865637574655472616e73616374696f6e3a20547260408201527f616e73616374696f6e20657865637574696f6e2072657665727465642e000000606082015260800190565b60208082526049908201527f54696d656c6f636b3a3a71756575655472616e73616374696f6e3a204573746960408201527f6d6174656420657865637574696f6e20626c6f636b206d75737420736174697360608201527f66792064656c61792e0000000000000000000000000000000000000000000000608082015260a00190565b60208082526031908201527f54696d656c6f636b3a3a73657444656c61793a2043616c6c206d75737420636f60408201527f6d652066726f6d2054696d656c6f636b2e000000000000000000000000000000606082015260800190565b600085825260806020830152610fd960808301866109a3565b8281036040840152610feb81866109a3565b91505082606083015295945050505050565b6000821982111561101c57634e487b7160e01b81526011600452602481fd5b500190565b60005b8381101561103c578181015183820152602001611024565b8381111561104b576000848401525b50505050565b634e487b7160e01b600052604160045260246000fdfea2646970667358221220f00831508f08904cd443baf85c95a8ffd97edc04901ef3e0d60ca3b14a31178d64736f6c63430008000033608060405234801561001057600080fd5b50604051611b3b380380611b3b83398101604081905261002f916100a1565b6001600160a01b03811660008181526001602052604080822080546001600160601b0319166a084595161401484a00000090811790915590517fddf252ad1be2c89b69c2b068fc378daa952ba7f163c4a11628f55a4df523b3ef91610093916100cf565b60405180910390a3506100d8565b6000602082840312156100b2578081fd5b81516001600160a01b03811681146100c8578182fd5b9392505050565b90815260200190565b611a54806100e76000396000f3fe608060405234801561001057600080fd5b50600436106101515760003560e01c806370a08231116100cd578063b4b5ea5711610081578063dd62ed3e11610066578063dd62ed3e146102b5578063e7a324dc146102c8578063f1127ed8146102d057610151565b8063b4b5ea571461028f578063c3cda520146102a257610151565b80637ecebe00116100b25780637ecebe001461026157806395d89b4114610274578063a9059cbb1461027c57610151565b806370a082311461022e578063782d6fe11461024157610151565b806323b872dd11610124578063587cde1e11610109578063587cde1e146101d95780635c19a95c146101f95780636fcfff451461020e57610151565b806323b872dd146101b1578063313ce567146101c457610151565b806306fdde0314610156578063095ea7b31461017457806318160ddd1461019457806320606b70146101a9575b600080fd5b61015e6102f1565b60405161016b91906114d1565b60405180910390f35b610187610182366004611348565b610315565b60405161016b9190611457565b61019c6103d7565b60405161016b9190611462565b61019c6103e6565b6101876101bf36600461130d565b61040a565b6101cc610552565b60405161016b9190611782565b6101ec6101e73660046112c1565b610557565b60405161016b9190611443565b61020c6102073660046112c1565b610572565b005b61022161021c3660046112c1565b61057f565b60405161016b9190611752565b61019c61023c3660046112c1565b610597565b61025461024f366004611348565b6105bf565b60405161016b9190611790565b61019c61026f3660046112c1565b610812565b61015e610824565b61018761028a366004611348565b61085d565b61025461029d3660046112c1565b610899565b61020c6102b0366004611371565b610918565b61019c6102c33660046112db565b610b25565b61019c610b57565b6102e36102de3660046113cf565b610b7b565b60405161016b929190611763565b6040518060400160405280600881526020016710dbdb5c1bdd5b9960c21b81525081565b60008060001983141561032b5750600019610350565b61034d836040518060600160405280602581526020016118e460259139610bb1565b90505b336000818152602081815260408083206001600160a01b03891680855292529182902080546bffffffffffffffffffffffff19166001600160601b03861617905590519091907f8c5be1e5ebec7d5bd14f71427d1e84f3dd0314c0f7b2291e5b200ac8c7c3b925906103c3908590611790565b60405180910390a360019150505b92915050565b6a084595161401484a00000081565b7f8cad95687ba82c2ce50e74f7b754645e5117c3a5bec8151c0726d5857980a86681565b6001600160a01b0383166000908152602081815260408083203380855290835281842054825160608101909352602580845291936001600160601b0390911692859261046092889291906118e490830139610bb1565b9050866001600160a01b0316836001600160a01b03161415801561048d57506001600160601b0382811614155b1561053a5760006104b783836040518060600160405280603d81526020016119bb603d9139610be9565b6001600160a01b03898116600081815260208181526040808320948a16808452949091529081902080546bffffffffffffffffffffffff19166001600160601b0386161790555192935090917f8c5be1e5ebec7d5bd14f71427d1e84f3dd0314c0f7b2291e5b200ac8c7c3b92590610530908590611790565b60405180910390a3505b610545878783610c33565b5060019695505050505050565b601281565b6002602052600090815260409020546001600160a01b031681565b61057c3382610de8565b50565b60046020526000908152604090205463ffffffff1681565b6001600160a01b0381166000908152600160205260409020546001600160601b03165b919050565b60004382106105e95760405162461bcd60e51b81526004016105e0906115de565b60405180910390fd5b6001600160a01b03831660009081526004602052604090205463ffffffff16806106175760009150506103d1565b6001600160a01b0384166000908152600360205260408120849161063c600185611837565b63ffffffff908116825260208201929092526040016000205416116106b0576001600160a01b03841660009081526003602052604081209061067f600184611837565b63ffffffff16815260208101919091526040016000205464010000000090046001600160601b031691506103d19050565b6001600160a01b038416600090815260036020908152604080832083805290915290205463ffffffff168310156106eb5760009150506103d1565b6000806106f9600184611837565b90505b8163ffffffff168163ffffffff1611156107cc576000600261071e8484611837565b6107289190611808565b6107329083611837565b6001600160a01b038816600090815260036020908152604080832063ffffffff8581168552908352928190208151808301909252549283168082526401000000009093046001600160601b0316918101919091529192508714156107a0576020015194506103d19350505050565b805163ffffffff168711156107b7578193506107c5565b6107c2600183611837565b92505b50506106fc565b506001600160a01b038516600090815260036020908152604080832063ffffffff909416835292905220546001600160601b036401000000009091041691505092915050565b60056020526000908152604090205481565b6040518060400160405280600481526020017f434f4d500000000000000000000000000000000000000000000000000000000081525081565b6000806108828360405180606001604052806026815260200161190960269139610bb1565b905061088f338583610c33565b5060019392505050565b6001600160a01b03811660009081526004602052604081205463ffffffff16806108c4576000610911565b6001600160a01b0383166000908152600360205260408120906108e8600184611837565b63ffffffff16815260208101919091526040016000205464010000000090046001600160601b03165b9392505050565b60408051808201909152600881526710dbdb5c1bdd5b9960c21b60209091015260007f8cad95687ba82c2ce50e74f7b754645e5117c3a5bec8151c0726d5857980a8667f561ca898cce9f021c15a441ef41899706e923541cee724530075d1a1144761c7610984610e8a565b30604051602001610998949392919061148f565b60405160208183030381529060405280519060200120905060007fe48329057bfd03d55e49b547132e39cffd9c1820ad7b9d4c5307691425d15adf8888886040516020016109e9949392919061146b565b60405160208183030381529060405280519060200120905060008282604051602001610a1692919061140d565b604051602081830303815290604052805190602001209050600060018288888860405160008152602001604052604051610a5394939291906114b3565b6020604051602081039080840390855afa158015610a75573d6000803e3d6000fd5b5050604051601f1901519150506001600160a01b038116610aa85760405162461bcd60e51b81526004016105e090611524565b6001600160a01b0381166000908152600560205260408120805491610acc8361187c565b919050558914610aee5760405162461bcd60e51b81526004016105e09061163b565b87421115610b0e5760405162461bcd60e51b81526004016105e090611581565b610b18818b610de8565b505050505b505050505050565b6001600160a01b039182166000908152602081815260408083209390941682529190915220546001600160601b031690565b7fe48329057bfd03d55e49b547132e39cffd9c1820ad7b9d4c5307691425d15adf81565b600360209081526000928352604080842090915290825290205463ffffffff81169064010000000090046001600160601b031682565b6000816c010000000000000000000000008410610be15760405162461bcd60e51b81526004016105e091906114d1565b509192915050565b6000836001600160601b0316836001600160601b031611158290610c205760405162461bcd60e51b81526004016105e091906114d1565b50610c2b838561185c565b949350505050565b6001600160a01b038316610c595760405162461bcd60e51b81526004016105e0906116f5565b6001600160a01b038216610c7f5760405162461bcd60e51b81526004016105e090611698565b6001600160a01b038316600090815260016020908152604091829020548251606081019093526036808452610cca936001600160601b0390921692859291906118ae90830139610be9565b6001600160a01b03848116600090815260016020908152604080832080546bffffffffffffffffffffffff19166001600160601b03968716179055928616825290829020548251606081019093526030808452610d37949190911692859290919061198b90830139610e8e565b6001600160a01b038381166000818152600160205260409081902080546bffffffffffffffffffffffff19166001600160601b0395909516949094179093559151908516907fddf252ad1be2c89b69c2b068fc378daa952ba7f163c4a11628f55a4df523b3ef90610da9908590611790565b60405180910390a36001600160a01b03808416600090815260026020526040808220548584168352912054610de392918216911683610edb565b505050565b6001600160a01b03808316600081815260026020818152604080842080546001845282862054949093528787167fffffffffffffffffffffffff000000000000000000000000000000000000000084168117909155905191909516946001600160601b039092169391928592917f3134e8a2e6d97e929a7e54011ea5485d7d196dd5f0ba4d4ef95803e8e3fc257f9190a4610e84828483610edb565b50505050565b4690565b600080610e9b84866117e6565b9050846001600160601b0316816001600160601b031610158390610ed25760405162461bcd60e51b81526004016105e091906114d1565b50949350505050565b816001600160a01b0316836001600160a01b031614158015610f0657506000816001600160601b0316115b15610de3576001600160a01b03831615610fcc576001600160a01b03831660009081526004602052604081205463ffffffff169081610f46576000610f93565b6001600160a01b038516600090815260036020526040812090610f6a600185611837565b63ffffffff16815260208101919091526040016000205464010000000090046001600160601b03165b90506000610fba828560405180606001604052806028815260200161196360289139610be9565b9050610fc886848484611085565b5050505b6001600160a01b03821615610de3576001600160a01b03821660009081526004602052604081205463ffffffff169081611007576000611054565b6001600160a01b03841660009081526003602052604081209061102b600185611837565b63ffffffff16815260208101919091526040016000205464010000000090046001600160601b03165b9050600061107b82856040518060600160405280602781526020016119f860279139610e8e565b9050610b1d858484845b60006110a94360405180606001604052806034815260200161192f60349139611282565b905060008463ffffffff1611801561110357506001600160a01b038516600090815260036020526040812063ffffffff8316916110e7600188611837565b63ffffffff908116825260208201929092526040016000205416145b15611178576001600160a01b0385166000908152600360205260408120839161112d600188611837565b63ffffffff168152602081019190915260400160002080546001600160601b0392909216640100000000026fffffffffffffffffffffffff0000000019909216919091179055611238565b60408051808201825263ffffffff83811682526001600160601b0385811660208085019182526001600160a01b038b166000908152600382528681208b861682529091529490942092518354945163ffffffff199095169216919091176fffffffffffffffffffffffff00000000191664010000000093909116929092029190911790556112078460016117be565b6001600160a01b0386166000908152600460205260409020805463ffffffff191663ffffffff929092169190911790555b846001600160a01b03167fdec2bacdd2f05b59de34da9b523dff8be42e5e38e818c82fdb0bae774387a72484846040516112739291906117a4565b60405180910390a25050505050565b6000816401000000008410610be15760405162461bcd60e51b81526004016105e091906114d1565b80356001600160a01b03811681146105ba57600080fd5b6000602082840312156112d2578081fd5b610911826112aa565b600080604083850312156112ed578081fd5b6112f6836112aa565b9150611304602084016112aa565b90509250929050565b600080600060608486031215611321578081fd5b61132a846112aa565b9250611338602085016112aa565b9150604084013590509250925092565b6000806040838503121561135a578182fd5b611363836112aa565b946020939093013593505050565b60008060008060008060c08789031215611389578182fd5b611392876112aa565b95506020870135945060408701359350606087013560ff811681146113b5578283fd5b9598949750929560808101359460a0909101359350915050565b600080604083850312156113e1578182fd5b6113ea836112aa565b9150602083013563ffffffff81168114611402578182fd5b809150509250929050565b7f190100000000000000000000000000000000000000000000000000000000000081526002810192909252602282015260420190565b6001600160a01b0391909116815260200190565b901515815260200190565b90815260200190565b9384526001600160a01b039290921660208401526040830152606082015260800190565b938452602084019290925260408301526001600160a01b0316606082015260800190565b93845260ff9290921660208401526040830152606082015260800190565b6000602080835283518082850152825b818110156114fd578581018301518582016040015282016114e1565b8181111561150e5783604083870101525b50601f01601f1916929092016040019392505050565b60208082526026908201527f436f6d703a3a64656c656761746542795369673a20696e76616c69642073696760408201527f6e61747572650000000000000000000000000000000000000000000000000000606082015260800190565b60208082526026908201527f436f6d703a3a64656c656761746542795369673a207369676e6174757265206560408201527f7870697265640000000000000000000000000000000000000000000000000000606082015260800190565b60208082526027908201527f436f6d703a3a6765745072696f72566f7465733a206e6f74207965742064657460408201527f65726d696e656400000000000000000000000000000000000000000000000000606082015260800190565b60208082526022908201527f436f6d703a3a64656c656761746542795369673a20696e76616c6964206e6f6e60408201527f6365000000000000000000000000000000000000000000000000000000000000606082015260800190565b6020808252603a908201527f436f6d703a3a5f7472616e73666572546f6b656e733a2063616e6e6f7420747260408201527f616e7366657220746f20746865207a65726f2061646472657373000000000000606082015260800190565b6020808252603c908201527f436f6d703a3a5f7472616e73666572546f6b656e733a2063616e6e6f7420747260408201527f616e736665722066726f6d20746865207a65726f206164647265737300000000606082015260800190565b63ffffffff91909116815260200190565b63ffffffff9290921682526001600160601b0316602082015260400190565b60ff91909116815260200190565b6001600160601b0391909116815260200190565b6001600160601b0392831681529116602082015260400190565b600063ffffffff8083168185168083038211156117dd576117dd611897565b01949350505050565b60006001600160601b038083168185168083038211156117dd576117dd611897565b600063ffffffff8084168061182b57634e487b7160e01b83526012600452602483fd5b92169190910492915050565b600063ffffffff8381169083168181101561185457611854611897565b039392505050565b60006001600160601b038381169083168181101561185457611854611897565b600060001982141561189057611890611897565b5060010190565b634e487b7160e01b600052601160045260246000fdfe436f6d703a3a5f7472616e73666572546f6b656e733a207472616e7366657220616d6f756e7420657863656564732062616c616e6365436f6d703a3a617070726f76653a20616d6f756e7420657863656564732039362062697473436f6d703a3a7472616e736665723a20616d6f756e7420657863656564732039362062697473436f6d703a3a5f7772697465436865636b706f696e743a20626c6f636b206e756d62657220657863656564732033322062697473436f6d703a3a5f6d6f7665566f7465733a20766f746520616d6f756e7420756e646572666c6f7773436f6d703a3a5f7472616e73666572546f6b656e733a207472616e7366657220616d6f756e74206f766572666c6f7773436f6d703a3a7472616e7366657246726f6d3a207472616e7366657220616d6f756e742065786365656473207370656e64657220616c6c6f77616e6365436f6d703a3a5f6d6f7665566f7465733a20766f746520616d6f756e74206f766572666c6f7773a264697066735822122001dc7d43a4021645f0e79cce653a829f5b0fd9b417251fb2b8ab0a21a11a5fbd64736f6c63430008000033608060405234801561001057600080fd5b506105f0806100206000396000f3fe608060405234801561001057600080fd5b50600436106100675760003560e01c80635e9a523c116100505780635e9a523c1461009457806366331bba146100bd578063fc57d4df146100d257610067565b806309a8acb01461006c578063127ffda014610081575b600080fd5b61007f61007a36600461040d565b6100e5565b005b61007f61008f366004610438565b610158565b6100a76100a23660046103ce565b6101d7565b6040516100b4919061053a565b60405180910390f35b6100c56101f2565b6040516100b4919061052f565b6100a76100e03660046103ce565b6101f7565b6001600160a01b038216600090815260208190526040908190205490517fdd71a1d19fcba687442a1d5c58578f1e409af71a79d10fd95a4d66efd8fa9ae7916101349185919085908190610509565b60405180910390a16001600160a01b03909116600090815260208190526040902055565b600061016383610225565b6001600160a01b038116600090815260208190526040908190205490519192507fdd71a1d19fcba687442a1d5c58578f1e409af71a79d10fd95a4d66efd8fa9ae7916101b491849186908190610509565b60405180910390a16001600160a01b031660009081526020819052604090205550565b6001600160a01b031660009081526020819052604090205490565b600181565b600080600061020584610225565b6001600160a01b0316815260208101919091526040016000205492915050565b6000806102db836001600160a01b03166395d89b416040518163ffffffff1660e01b815260040160006040518083038186803b15801561026457600080fd5b505afa158015610278573d6000803e3d6000fd5b505050506040513d6000823e601f3d908101601f191682016040526102a0919081019061044a565b6040518060400160405280600481526020017f6345544800000000000000000000000000000000000000000000000000000000815250610375565b156102fb575073eeeeeeeeeeeeeeeeeeeeeeeeeeeeeeeeeeeeeeee61036f565b826001600160a01b0316636f307dc36040518163ffffffff1660e01b815260040160206040518083038186803b15801561033457600080fd5b505afa158015610348573d6000803e3d6000fd5b505050506040513d601f19601f8201168201806040525081019061036c91906103f1565b90505b92915050565b60008160405160200161038891906104ed565b60405160208183030381529060405280519060200120836040516020016103af91906104ed565b6040516020818303038152906040528051906020012014905092915050565b6000602082840312156103df578081fd5b81356103ea816105a2565b9392505050565b600060208284031215610402578081fd5b81516103ea816105a2565b6000806040838503121561041f578081fd5b823561042a816105a2565b946020939093013593505050565b6000806040838503121561041f578182fd5b60006020828403121561045b578081fd5b815167ffffffffffffffff80821115610472578283fd5b818401915084601f830112610485578283fd5b81518181111561049757610497610573565b604051601f8201601f1916810160200183811182821017156104bb576104bb610573565b6040528181528382016020018710156104d2578485fd5b6104e3826020830160208701610543565b9695505050505050565b600082516104ff818460208701610543565b9190910192915050565b6001600160a01b0394909416845260208401929092526040830152606082015260800190565b901515815260200190565b90815260200190565b60005b8381101561055e578181015183820152602001610546565b8381111561056d576000848401525b50505050565b7f4e487b7100000000000000000000000000000000000000000000000000000000600052604160045260246000fd5b6001600160a01b03811681146105b757600080fd5b5056fea2646970667358221220c581f1faf40fb5e2999fcf56a4bbea3f37c67c9ffaf8d3c9425e3da01a1a4bae64736f6c6343000800003360806040523480156200001157600080fd5b5060405162000bd538038062000bd583398101604081905262000034916200023d565b600080546001600160a01b0319166001600160a01b0383161790558484848484620000628585858562000072565b5050505050505050505062000397565b6200008f62201480856200015760201b620002d81790919060201c565b600255620000e7620000b16220148083620001aa602090811b6200032317901c565b620000d3670de0b6b3a764000086620001aa60201b620003231790919060201c565b6200015760201b620002d81790919060201c565b60015562000105826220148062000157602090811b620002d817901c565b600381905560048290556002546001546040517f6960ab234c7ef4b0c9197100f5393cfcde7c453ac910a27bd2000aa1dd4c068d936200014993929186906200032f565b60405180910390a150505050565b6000620001a183836040518060400160405280601a81526020017f536166654d6174683a206469766973696f6e206279207a65726f0000000000008152506200020160201b60201c565b90505b92915050565b600082620001bb57506000620001a4565b6000620001c983856200036b565b905082620001d885836200034a565b14620001a15760405162461bcd60e51b8152600401620001f890620002ee565b60405180910390fd5b60008183620002255760405162461bcd60e51b8152600401620001f8919062000298565b5060006200023484866200034a565b95945050505050565b600080600080600060a0868803121562000255578081fd5b855160208701516040880151606089015160808a0151939850919650945092506001600160a01b03811681146200028a578182fd5b809150509295509295909350565b6000602080835283518082850152825b81811015620002c657858101830151858201604001528201620002a8565b81811115620002d85783604083870101525b50601f01601f1916929092016040019392505050565b60208082526021908201527f536166654d6174683a206d756c7469706c69636174696f6e206f766572666c6f6040820152607760f81b606082015260800190565b93845260208401929092526040830152606082015260800190565b6000826200036657634e487b7160e01b81526012600452602481fd5b500490565b60008160001904831182151516156200039257634e487b7160e01b81526011600452602481fd5b500290565b61082e80620003a76000396000f3fe608060405234801561001057600080fd5b50600436106100c95760003560e01c80638da5cb5b11610081578063b9f9850a1161005b578063b9f9850a1461016c578063f14039de14610174578063fd2da3391461017c576100c9565b80638da5cb5b1461013c578063a385fb9614610151578063b816881614610159576100c9565b80632191f92a116100b25780632191f92a1461010c5780636e71e2d8146101215780638726bb8914610134576100c9565b806315f24053146100ce5780632037f3e7146100f7575b600080fd5b6100e16100dc366004610584565b610184565b6040516100ee9190610750565b60405180910390f35b61010a6101053660046105af565b61019b565b005b6101146101ed565b6040516100ee9190610601565b6100e161012f366004610584565b6101f2565b6100e1610230565b610144610236565b6040516100ee91906105e0565b6100e1610252565b6100e16101673660046105af565b610259565b6100e16102c6565b6100e16102cc565b6100e16102d2565b6000610191848484610368565b90505b9392505050565b60005473ffffffffffffffffffffffffffffffffffffffff1633146101db5760405162461bcd60e51b81526004016101d2906106f3565b60405180910390fd5b6101e78484848461042b565b50505050565b600181565b60008261020157506000610194565b6101916102188361021287876104ab565b906104da565b61022a85670de0b6b3a7640000610323565b906102d8565b60015481565b60005473ffffffffffffffffffffffffffffffffffffffff1681565b6220148081565b60008061026e670de0b6b3a7640000846104da565b9050600061027d878787610368565b90506000610297670de0b6b3a764000061022a8486610323565b90506102ba670de0b6b3a764000061022a836102b48c8c8c6101f2565b90610323565b98975050505050505050565b60035481565b60025481565b60045481565b600061031a83836040518060400160405280601a81526020017f536166654d6174683a206469766973696f6e206279207a65726f00000000000081525061051c565b90505b92915050565b6000826103325750600061031d565b600061033e83856107ac565b90508261034b858361078c565b1461031a5760405162461bcd60e51b81526004016101d290610696565b6000806103768585856101f2565b905060045481116103b6576103ae6002546103a8670de0b6b3a764000061022a6001548661032390919063ffffffff16565b906104ab565b915050610194565b60006103e16002546103a8670de0b6b3a764000061022a60015460045461032390919063ffffffff16565b905060006103fa600454846104da90919063ffffffff16565b9050610421826103a8670de0b6b3a764000061022a6003548661032390919063ffffffff16565b9350505050610194565b61043884622014806102d8565b60025561044b6102186220148083610323565b60015561045b82622014806102d8565b600381905560048290556002546001546040517f6960ab234c7ef4b0c9197100f5393cfcde7c453ac910a27bd2000aa1dd4c068d9361049d9392918690610759565b60405180910390a150505050565b6000806104b88385610774565b90508381101561031a5760405162461bcd60e51b81526004016101d29061065f565b600061031a83836040518060400160405280601f81526020017f536166654d6174683a207375627472616374696f6e20756e646572666c6f7700815250610553565b6000818361053d5760405162461bcd60e51b81526004016101d2919061060c565b50600061054a848661078c565b95945050505050565b600081848411156105775760405162461bcd60e51b81526004016101d2919061060c565b50600061054a84866107cb565b600080600060608486031215610598578283fd5b505081359360208301359350604090920135919050565b600080600080608085870312156105c4578081fd5b5050823594602084013594506040840135936060013592509050565b73ffffffffffffffffffffffffffffffffffffffff91909116815260200190565b901515815260200190565b6000602080835283518082850152825b818110156106385785810183015185820160400152820161061c565b818111156106495783604083870101525b50601f01601f1916929092016040019392505050565b6020808252601b908201527f536166654d6174683a206164646974696f6e206f766572666c6f770000000000604082015260600190565b60208082526021908201527f536166654d6174683a206d756c7469706c69636174696f6e206f766572666c6f60408201527f7700000000000000000000000000000000000000000000000000000000000000606082015260800190565b60208082526026908201527f6f6e6c7920746865206f776e6572206d61792063616c6c20746869732066756e60408201527f6374696f6e2e0000000000000000000000000000000000000000000000000000606082015260800190565b90815260200190565b93845260208401929092526040830152606082015260800190565b60008219821115610787576107876107e2565b500190565b6000826107a757634e487b7160e01b81526012600452602481fd5b500490565b60008160001904831182151516156107c6576107c66107e2565b500290565b6000828210156107dd576107dd6107e2565b500390565b634e487b7160e01b600052601160045260246000fdfea2646970667358221220202572e55c7c6d4c7191e348f288ecc54f229eed83224448e7b3f1bda7b266ca64736f6c63430008000033608060405234801561001057600080fd5b50600080546001600160a01b031916331790556106b0806100326000396000f3fe6080604052600436106100965760003560e01c8063c1e8033411610069578063e992a0411161004e578063e992a041146101bd578063e9c714f2146101dd578063f851a440146101f257610096565b8063c1e8033414610193578063dcfbc0c7146101a857610096565b806326782247146101115780637d3ab61a1461013c578063b71d1a0c14610151578063bb82aa5e1461017e575b6002546040516000916001600160a01b0316906100b6908390369061061d565b600060405180830381855af49150503d80600081146100f1576040519150601f19603f3d011682016040523d82523d6000602084013e6100f6565b606091505b505090506040513d6000823e81801561010d573d82f35b3d82fd5b34801561011d57600080fd5b50610126610207565b604051610133919061062d565b60405180910390f35b34801561014857600080fd5b50610126610216565b34801561015d57600080fd5b5061017161016c3660046105f6565b610225565b604051610133919061065b565b34801561018a57600080fd5b506101266102be565b34801561019f57600080fd5b506101716102cd565b3480156101b457600080fd5b506101266103d2565b3480156101c957600080fd5b506101716101d83660046105f6565b6103e1565b3480156101e957600080fd5b50610171610462565b3480156101fe57600080fd5b50610126610544565b6001546001600160a01b031681565b6004546001600160a01b031681565b600080546001600160a01b0316331461024b576102446001600e610553565b90506102b9565b600180546001600160a01b0384811673ffffffffffffffffffffffffffffffffffffffff198316179092556040519116907fca4f2f25d0898edd99413412fb94012f9e54ec8142f9b093e7720646a95b16a9906102ab9083908690610641565b60405180910390a160009150505b919050565b6002546001600160a01b031681565b6003546000906001600160a01b0316331415806102f357506003546001600160a01b0316155b1561030a57610303600180610553565b90506103cf565b60028054600380546001600160a01b0380821673ffffffffffffffffffffffffffffffffffffffff198086168217968790559092169092556040519282169390927fd604de94d45953f9138079ec1b82d533cb2160c906d1076d1f7ed54befbca97a9261037b928692911690610641565b60405180910390a16003546040517fe945ccee5d701fc83f9b8aa8ca94ea4219ec1fcbd4f4cab4f0ea57c5c3e1d815916103c09184916001600160a01b031690610641565b60405180910390a16000925050505b90565b6003546001600160a01b031681565b600080546001600160a01b03163314610400576102446001600f610553565b600380546001600160a01b0384811673ffffffffffffffffffffffffffffffffffffffff1983161792839055604051918116927fe945ccee5d701fc83f9b8aa8ca94ea4219ec1fcbd4f4cab4f0ea57c5c3e1d815926102ab9285921690610641565b6001546000906001600160a01b03163314158061047d575033155b1561048e5761030360016000610553565b60008054600180546001600160a01b0380821673ffffffffffffffffffffffffffffffffffffffff198086168217968790559092169092556040519282169390927ff9ffabca9c8276e99321725bcb43fb076a6c66a54b7f21c4e8146d8519b417dc926104ff928692911690610641565b60405180910390a16001546040517fca4f2f25d0898edd99413412fb94012f9e54ec8142f9b093e7720646a95b16a9916103c09184916001600160a01b031690610641565b6000546001600160a01b031681565b60007f45b96fe442630264581b197e84bbada861235052c5a1aadfff9ea4e40a969aa083601181111561059657634e487b7160e01b600052602160045260246000fd5b8360138111156105b657634e487b7160e01b600052602160045260246000fd5b60006040516105c793929190610664565b60405180910390a18260118111156105ef57634e487b7160e01b600052602160045260246000fd5b9392505050565b600060208284031215610607578081fd5b81356001600160a01b03811681146105ef578182fd5b6000828483379101908152919050565b6001600160a01b0391909116815260200190565b6001600160a01b0392831681529116602082015260400190565b90815260200190565b928352602083019190915260408201526060019056fea26469706673582212209d3d3e6ae6fa90c49aad91abfc80d01f4dd25ef528dab0a67fe52761238ad6c564736f6c63430008000033608060405234801561001057600080fd5b50600080546001600160a01b03191633179055615e9c80620000336000396000f3fe608060405234801561001057600080fd5b50600436106105955760003560e01c8063741b2525116102e2578063b21be7fd11610191578063dce15449116100ee578063e9af0292116100a2578063f00a7a921161007c578063f00a7a9214610b24578063f4a433c014610b2c578063f851a44014610b3f57610595565b8063e9af029214610aeb578063eabe7d9114610afe578063ede4edd014610b1157610595565b8063e4028eee116100d3578063e4028eee14610ac8578063e6653f3d14610adb578063e875544614610ae357610595565b8063dce1544914610aad578063dcfbc0c714610ac057610595565b8063c488847b11610145578063cc7ebdc41161012a578063cc7ebdc414610a74578063d02f735114610a87578063da3d454c14610a9a57610595565b8063c488847b14610a40578063ca0af04314610a6157610595565b8063bdcdc25811610176578063bdcdc258146109fa578063bea6b8b814610a0d578063c299823814610a2057610595565b8063b21be7fd146109df578063bb82aa5e146109f257610595565b806394b2294b1161023f578063a8b43948116101f3578063abfceffc116101d8578063abfceffc146109af578063ac0b0bb7146109cf578063b0772d0b146109d757610595565b8063a8b4394814610994578063aa900754146109a757610595565b80639d1b5a0a116102245780639d1b5a0a14610964578063a76b3fda1461096c578063a7f0e2311461097f57610595565b806394b2294b14610949578063986ab8381461095157610595565b80638c57804e116102965780638ebf63641161027b5780638ebf636414610910578063929fe9a11461092357806394543c151461093657610595565b80638c57804e146108db5780638e8f294b146108ee57610595565b80637dc0d1d0116102c75780637dc0d1d0146108b857806385b7beb8146108c057806387f76303146108d357610595565b8063741b25251461089d5780637d3ab61a146108b057610595565b80634a584432116104495780635ec88c79116103a65780636a56947e1161035a5780636d154ea5116103345780636d154ea5146108695780636d35bf911461087c578063731f0c2b1461088a57610595565b80636a56947e146108275780636aa875b5146108355780636b79c38d1461084857610595565b80635fc7e71e1161038b5780635fc7e71e146107ee578063607ef6c1146108015780636810dfa61461081457610595565b80635ec88c79146107c85780635f5af1aa146107db57610595565b806351dff989116103fd57806355ee1fe1116103e257806355ee1fe11461078f578063598ee1cb146107a25780635c778605146107b557610595565b806351dff9891461076957806352d84d1e1461077c57610595565b80634e79238f1161042e5780634e79238f146107215780634ef4c3e1146107435780634fd42e171461075657610595565b80634a584432146107065780634ada90af1461071957610595565b806326782247116104f75780633bcf7ec1116104ab57806341c728b91161049057806341c728b9146106d857806342cbb15c146106eb57806347ef3b3b146106f357610595565b80633bcf7ec1146106bd5780633c94786f146106d057610595565b80632d70db78116104dc5780632d70db7814610684578063317b0b7714610697578063391957d7146106aa57610595565b8063267822471461066957806327efe3cb1461067157610595565b80631d7b33d71161054e57806321af45691161053357806321af45691461063957806324008a621461064e57806324a3d6221461066157610595565b80631d7b33d7146106065780631ededc911461062657610595565b806318c882a51161057f57806318c882a5146105cd5780631c3db2e0146105e05780631d504dc6146105f357610595565b80627e3dd21461059a57806316b95e8f146105b8575b600080fd5b6105a2610b47565b6040516105af91906153a9565b60405180910390f35b6105cb6105c636600461506d565b610b4c565b005b6105a26105db36600461524b565b610d7a565b6105cb6105ee366004614fe2565b610e8f565b6105cb610601366004614d73565b610f05565b610619610614366004614d73565b611039565b6040516105af9190615d13565b6105cb610634366004614f03565b61104b565b610641611052565b6040516105af91906152dd565b61061961065c366004614eb3565b611061565b61064161112e565b61064161113d565b6105cb61067f366004615042565b61114c565b6105a2610692366004615213565b6111da565b6106196106a5366004615278565b6112c5565b6105cb6106b8366004614d73565b61133b565b6105a26106cb36600461524b565b6113c4565b6105a26114c8565b6105cb6106e6366004614f9d565b6114e9565b6106196114ef565b6105cb610701366004614e46565b6114f3565b610619610714366004614d73565b6114fb565b61061961150d565b61073461072f366004614f9d565b611513565b6040516105af93929190615d2a565b610619610751366004614f5d565b611561565b610619610764366004615278565b6115e4565b6105cb610777366004614f9d565b611644565b61064161078a366004615278565b61166f565b61061961079d366004614d73565b611699565b6105cb6107b0366004615042565b61170b565b6105cb6107c3366004614f5d565b6117d4565b6107346107d6366004614d73565b6117d9565b6106196107e9366004614d73565b611822565b6106196107fc366004614de3565b611896565b6105cb61080f36600461506d565b611a6a565b6105cb610822366004615109565b611c10565b6105cb6106e6366004614eb3565b610619610843366004614d73565b611ed5565b61085b610856366004614d73565b611ee7565b6040516105af929190615cf4565b6105a2610877366004614d73565b611f11565b6105cb610634366004614de3565b6105a2610898366004614d73565b611f26565b6105cb6108ab366004614d73565b611f3b565b610641611ffe565b61064161200d565b6106196108ce366004614d73565b61201c565b6105a261202e565b61085b6108e9366004614d73565b61203e565b6109016108fc366004614d73565b612068565b6040516105af939291906153b4565b6105a261091e366004615213565b61208e565b6105a2610931366004615030565b612169565b6105a2610944366004614d73565b61219c565b61061961226a565b61061961095f366004614d73565b612270565b610641612282565b61061961097a366004614d73565b612291565b6109876123d3565b6040516105af9190615ce0565b6105cb6109a236600461518f565b6123e6565b6106196124d3565b6109c26109bd366004614d73565b6124d9565b6040516105af9190615324565b6105a261254f565b6109c261255f565b6106196109ed366004614dab565b6125c1565b6106416125de565b610619610a08366004614eb3565b6125ed565b610619610a1b366004614d73565b612653565b610a33610a2e3660046150d6565b612665565b6040516105af9190615371565b610a53610a4e366004614f5d565b612765565b6040516105af929190615d1c565b610619610a6f366004614dab565b61299e565b610619610a82366004614d73565b6129bb565b610619610a95366004614de3565b6129cd565b610619610aa8366004614f5d565b612b70565b610641610abb366004615042565b612f39565b610641612f71565b610619610ad6366004615042565b612f80565b6105a2613112565b610619613134565b6105cb610af9366004614d73565b61313a565b610619610b0c366004614f5d565b61319e565b610619610b1f366004614d73565b6131d9565b6105a261354b565b610619610b3a366004614d73565b613554565b610641613566565b600181565b6000546001600160a01b03163314610b7f5760405162461bcd60e51b8152600401610b7690615b1c565b60405180910390fd5b601c5460ff1615610ba25760405162461bcd60e51b8152600401610b7690615641565b828114610bc15760405162461bcd60e51b8152600401610b76906158aa565b60008060008060005b87811015610d6257888882818110610bf257634e487b7160e01b600052603260045260246000fd5b9050602002016020810190610c079190614d73565b6001600160a01b0381166000908152601560205260409020549095509350868682818110610c4557634e487b7160e01b600052603260045260246000fd5b90506020020135925083831115610ce8576000610c628585615de5565b6001600160a01b0387166000908152601d6020526040812054919250610c888284613575565b6001600160a01b0389166000818152601d60205260409081902083905551919250907f17fea09d9a7ca41b2f9f9118f18f44848a62e9c70d55dd4385131eb2cf1b7e4790610cd99085908590615d1c565b60405180910390a28695505050505b8215610d5257610cf884846135b7565b6001600160a01b0386166000818152601560205260409081902083905551919350907f4a5c134e28b537a76546993ea37f3b60d9190476df7356d3842aa40902e20f0490610d499087908690615d1c565b60405180910390a25b610d5b81615dfc565b9050610bca565b5050601c805460ff1916600117905550505050505050565b6001600160a01b0382166000908152600a602052604081205460ff16610db25760405162461bcd60e51b8152600401610b7690615519565b600b546001600160a01b0316331480610dd557506000546001600160a01b031633145b610df15760405162461bcd60e51b8152600401610b7690615782565b6000546001600160a01b0316331480610e0c57506001821515145b610e285760405162461bcd60e51b8152600401610b769061570c565b6001600160a01b0383166000908152600d602052604090819020805460ff1916841515179055517f71aec636243f9709bb0007ae15e9afb8150ab01716d75fd7573be5cc096e03b090610e7e908590859061541e565b60405180910390a150805b92915050565b604080516001808252818301909252600091602080830190803683370190505090508281600081518110610ed357634e487b7160e01b600052603260045260246000fd5b60200260200101906001600160a01b031690816001600160a01b031681525050610f008183600180611c10565b505050565b806001600160a01b031663f851a4406040518163ffffffff1660e01b815260040160206040518083038186803b158015610f3e57600080fd5b505afa158015610f52573d6000803e3d6000fd5b505050506040513d601f19601f82011682018060405250810190610f769190614d8f565b6001600160a01b0316336001600160a01b031614610fa65760405162461bcd60e51b8152600401610b7690615c4c565b806001600160a01b031663c1e803346040518163ffffffff1660e01b8152600401602060405180830381600087803b158015610fe157600080fd5b505af1158015610ff5573d6000803e3d6000fd5b505050506040513d601f19601f820116820180604052508101906110199190615290565b156110365760405162461bcd60e51b8152600401610b76906159e3565b50565b60106020526000908152604090205481565b5050505050565b6016546001600160a01b031681565b6001600160a01b0384166000908152600a602052604081205460ff1661108957506009611126565b60006040518060200160405280876001600160a01b031663aa5af0fd6040518163ffffffff1660e01b815260040160206040518083038186803b1580156110cf57600080fd5b505afa1580156110e3573d6000803e3d6000fd5b505050506040513d601f19601f820116820180604052508101906111079190615290565b9052905061111586826135f9565b611120868583613811565b60009150505b949350505050565b600b546001600160a01b031681565b6001546001600160a01b031681565b61115461398d565b6111705760405162461bcd60e51b8152600401610b76906155ad565b600061117c83836139b6565b9050801561119c5760405162461bcd60e51b8152600401610b7690615576565b7f98b2f82a3a07f223a0be64b3d0f47711c64dccd1feafb94aa28156b38cd9695c83836040516111cd92919061530b565b60405180910390a1505050565b600b546000906001600160a01b031633148061120057506000546001600160a01b031633145b61121c5760405162461bcd60e51b8152600401610b7690615782565b6000546001600160a01b031633148061123757506001821515145b6112535760405162461bcd60e51b8152600401610b769061570c565b600b80547fffffffffffffffff00ffffffffffffffffffffffffffffffffffffffffffffff16600160b81b841515021790556040517fef159d9a32b2472e32b098f954f3ce62d232939f1c207070b584df1814de2de0906112b5908490615743565b60405180910390a150805b919050565b600080546001600160a01b031633146112f05760405162461bcd60e51b8152600401610b76906156d5565b60068054908390556040517f3b9670cf975d26958e754b57098eaa2ac914d8d2a31b83257997b9f346110fd99061132a9083908690615d1c565b60405180910390a160009392505050565b6000546001600160a01b031633146113655760405162461bcd60e51b8152600401610b76906157df565b601680546001600160a01b038381166001600160a01b03198316179092556040519116907feda98690e518e9a05f8ec6837663e188211b2da8f4906648b323f2c1d4434e29906113b890839085906152f1565b60405180910390a15050565b6001600160a01b0382166000908152600a602052604081205460ff166113fc5760405162461bcd60e51b8152600401610b7690615519565b600b546001600160a01b031633148061141f57506000546001600160a01b031633145b61143b5760405162461bcd60e51b8152600401610b7690615782565b6000546001600160a01b031633148061145657506001821515145b6114725760405162461bcd60e51b8152600401610b769061570c565b6001600160a01b0383166000908152600c602052604090819020805460ff1916841515179055517f71aec636243f9709bb0007ae15e9afb8150ab01716d75fd7573be5cc096e03b090610e7e90859085906153ce565b600b5474010000000000000000000000000000000000000000900460ff1681565b50505050565b4390565b505050505050565b60176020526000908152604090205481565b60075481565b6000806000806000806115288a8a8a8a613b06565b92509250925082601181111561154e57634e487b7160e01b600052602160045260246000fd5b95509093509150505b9450945094915050565b6001600160a01b0383166000908152600c602052604081205460ff161561159a5760405162461bcd60e51b8152600401610b7690615c15565b6001600160a01b0384166000908152600a602052604090205460ff166115c45760095b90506115dd565b6115cd84613e5f565b6115d78484613ff8565b60005b90505b9392505050565b600080546001600160a01b0316331461160a576116036001600b6141c2565b90506112c0565b60078054908390556040517faeba5a6c40a8ac138134bff1aaa65debf25971188a58804bad717f82f0ec13169061132a9083908690615d1c565b801580156116525750600082115b156114e95760405162461bcd60e51b8152600401610b7690615918565b600e818154811061167f57600080fd5b6000918252602090912001546001600160a01b0316905081565b600080546001600160a01b031633146116b857611603600160106141c2565b600580546001600160a01b038481166001600160a01b03198316179092556040519116907fd52b2b9b7e9ee655fcb95d2e5b9e0c9f69e7ef2b8e9d2d0ea78402d576d22e229061132a90839086906152f1565b61171361398d565b61172f5760405162461bcd60e51b8152600401610b769061569e565b61173882611f3b565b8061175b576001600160a01b03821660009081526019602052604081205561177d565b6117636114ef565b6001600160a01b0383166000908152601960205260409020555b6001600160a01b03821660008181526018602052604090819020839055517f386537fa92edc3319af95f1f904dcf1900021e4f3f4e08169a577a09076e66b3906117c8908490615d13565b60405180910390a25050565b610f00565b6000806000806000806117f0876000806000613b06565b92509250925082601181111561181657634e487b7160e01b600052602160045260246000fd5b97919650945092505050565b600080546001600160a01b0316331461184157611603600160136141c2565b600b80546001600160a01b038481166001600160a01b031983161792839055604051918116927f0613b6ee6a04f0d09f390e4d9318894b9f6ac7fd83897cd8d18896ba579c401e9261132a92859216906152f1565b6001600160a01b0385166000908152600a602052604081205460ff1615806118d757506001600160a01b0385166000908152600a602052604090205460ff16155b156118e65760095b9050611a61565b6040517f95dd91930000000000000000000000000000000000000000000000000000000081526000906001600160a01b038816906395dd91939061192e9087906004016152dd565b60206040518083038186803b15801561194657600080fd5b505afa15801561195a573d6000803e3d6000fd5b505050506040513d601f19601f8201168201806040525081019061197e9190615290565b90506119898761219c565b156119b357828110156119ae5760405162461bcd60e51b8152600401610b76906155e4565b611a5b565b6000806119bf8661425e565b919350909150600090508260118111156119e957634e487b7160e01b600052602160045260246000fd5b14611a1857816011811115611a0e57634e487b7160e01b600052602160045260246000fd5b9350505050611a61565b80611a24576003611a0e565b6000611a4060405180602001604052806006548152508561427e565b905080861115611a57576011945050505050611a61565b5050505b60009150505b95945050505050565b6000546001600160a01b0316331480611a8d57506016546001600160a01b031633145b611aa95760405162461bcd60e51b8152600401610b769061594f565b82818115801590611ab957508082145b611ad55760405162461bcd60e51b8152600401610b7690615ae5565b60005b82811015611c0757848482818110611b0057634e487b7160e01b600052603260045260246000fd5b9050602002013560176000898985818110611b2b57634e487b7160e01b600052603260045260246000fd5b9050602002016020810190611b409190614d73565b6001600160a01b03168152602081019190915260400160002055868682818110611b7a57634e487b7160e01b600052603260045260246000fd5b9050602002016020810190611b8f9190614d73565b6001600160a01b03167f6f1951b2aad10f3fc81b86d91105b413a5b3f847a34bbc5ce1904201b14438f6868684818110611bd957634e487b7160e01b600052603260045260246000fd5b90506020020135604051611bed9190615d13565b60405180910390a280611bff81615dfc565b915050611ad8565b50505050505050565b60005b8351811015611de8576000848281518110611c3e57634e487b7160e01b600052603260045260246000fd5b6020908102919091018101516001600160a01b0381166000908152600a90925260409091205490915060ff16611c865760405162461bcd60e51b8152600401610b769061583c565b60018415151415611d705760006040518060200160405280836001600160a01b031663aa5af0fd6040518163ffffffff1660e01b815260040160206040518083038186803b158015611cd757600080fd5b505afa158015611ceb573d6000803e3d6000fd5b505050506040513d601f19601f82011682018060405250810190611d0f9190615290565b90529050611d1d82826135f9565b60005b8751811015611d6d57611d5b83898381518110611d4d57634e487b7160e01b600052603260045260246000fd5b602002602001015184613811565b80611d6581615dfc565b915050611d20565b50505b60018315151415611dd557611d8481613e5f565b60005b8651811015611dd357611dc182888381518110611db457634e487b7160e01b600052603260045260246000fd5b6020026020010151613ff8565b80611dcb81615dfc565b915050611d87565b505b5080611de081615dfc565b915050611c13565b5060005b845181101561104b57611e72858281518110611e1857634e487b7160e01b600052603260045260246000fd5b602002602001015160156000888581518110611e4457634e487b7160e01b600052603260045260246000fd5b60200260200101516001600160a01b03166001600160a01b03168152602001908152602001600020546139b6565b60156000878481518110611e9657634e487b7160e01b600052603260045260246000fd5b60200260200101516001600160a01b03166001600160a01b03168152602001908152602001600020819055508080611ecd90615dfc565b915050611dec565b601b6020526000908152604090205481565b6011602052600090815260409020546001600160e01b03811690600160e01b900463ffffffff1682565b600d6020526000908152604090205460ff1681565b600c6020526000908152604090205460ff1681565b6001600160a01b03811660009081526018602052604081205490611f5d6114ef565b6001600160a01b03841660009081526019602052604081205491925090611f859083906135b7565b9050600081118015611f975750600083115b156114e9576000611fa88285614296565b6001600160a01b03861660009081526015602052604081205491925090611fcf9083613575565b6001600160a01b0387166000908152601560209081526040808320939093556019905220849055505050505050565b6004546001600160a01b031681565b6005546001600160a01b031681565b601d6020526000908152604090205481565b600b54600160b01b900460ff1681565b6012602052600090815260409020546001600160e01b03811690600160e01b900463ffffffff1682565b600a6020526000908152604090208054600182015460039092015460ff91821692911683565b600b546000906001600160a01b03163314806120b457506000546001600160a01b031633145b6120d05760405162461bcd60e51b8152600401610b7690615782565b6000546001600160a01b03163314806120eb57506001821515145b6121075760405162461bcd60e51b8152600401610b769061570c565b600b80547fffffffffffffffffff00ffffffffffffffffffffffffffffffffffffffffffff16600160b01b841515021790556040517fef159d9a32b2472e32b098f954f3ce62d232939f1c207070b584df1814de2de0906112b5908490615bd6565b6001600160a01b038082166000908152600a60209081526040808320938616835260029093019052205460ff1692915050565b6001600160a01b0381166000908152600a60205260408120600101541580156121e257506001600160a01b0382166000908152600d602052604090205460ff1615156001145b8015610e895750816001600160a01b031663173b99046040518163ffffffff1660e01b815260040160206040518083038186803b15801561222257600080fd5b505afa158015612236573d6000803e3d6000fd5b505050506040513d601f19601f8201168201806040525081019061225a9190615290565b670de0b6b3a76400001492915050565b60085481565b60186020526000908152604090205481565b6004546001600160a01b031690565b600080546001600160a01b031633146122b057611603600160126141c2565b6001600160a01b0382166000908152600a602052604090205460ff16156122dd57611603600a60116141c2565b816001600160a01b031663fe9c44ae6040518163ffffffff1660e01b815260040160206040518083038186803b15801561231657600080fd5b505afa15801561232a573d6000803e3d6000fd5b505050506040513d601f19601f8201168201806040525081019061234e919061522f565b506001600160a01b0382166000908152600a602052604081208054600160ff1991821681178355600383018054909216909155015561238c826142d8565b612395826143a8565b7fcf583bb0c569eb967f806b11601c4cb93c10310485c67add5f8362c2f212321f826040516123c491906152dd565b60405180910390a16000610e89565b6ec097ce7bc90715b34b9f100000000081565b6123ee61398d565b61240a5760405162461bcd60e51b8152600401610b769061569e565b825182518114801561241c5750815181145b6124385760405162461bcd60e51b8152600401610b7690615b79565b60005b8181101561104b576124c385828151811061246657634e487b7160e01b600052603260045260246000fd5b602002602001015185838151811061248e57634e487b7160e01b600052603260045260246000fd5b60200260200101518584815181106124b657634e487b7160e01b600052603260045260246000fd5b6020026020010151614468565b6124cc81615dfc565b905061243b565b600f5481565b6001600160a01b038116600090815260096020908152604080832080548251818502810185019093528083526060949383018282801561254257602002820191906000526020600020905b81546001600160a01b03168152600190910190602001808311612524575b5093979650505050505050565b600b54600160b81b900460ff1681565b6060600e8054806020026020016040519081016040528092919081815260200182805480156125b757602002820191906000526020600020905b81546001600160a01b03168152600190910190602001808311612599575b5050505050905090565b601360209081526000928352604080842090915290825290205481565b6002546001600160a01b031681565b600b54600090600160b01b900460ff161561261a5760405162461bcd60e51b8152600401610b76906158e1565b6000612627868685614622565b90508015612636579050611126565b61263f86613e5f565b6126498686613ff8565b6111208685613ff8565b60196020526000908152604090205481565b805160609060008167ffffffffffffffff81111561269357634e487b7160e01b600052604160045260246000fd5b6040519080825280602002602001820160405280156126bc578160200160208202803683370190505b50905060005b8281101561275d5760008582815181106126ec57634e487b7160e01b600052603260045260246000fd5b6020026020010151905061270081336146f6565b601181111561271f57634e487b7160e01b600052602160045260246000fd5b83838151811061273f57634e487b7160e01b600052603260045260246000fd5b6020908102919091010152508061275581615dfc565b9150506126c2565b509392505050565b60055460405163fc57d4df60e01b8152600091829182916001600160a01b03169063fc57d4df9061279a9089906004016152dd565b60206040518083038186803b1580156127b257600080fd5b505afa1580156127c6573d6000803e3d6000fd5b505050506040513d601f19601f820116820180604052508101906127ea9190615290565b60055460405163fc57d4df60e01b81529192506000916001600160a01b039091169063fc57d4df906128209089906004016152dd565b60206040518083038186803b15801561283857600080fd5b505afa15801561284c573d6000803e3d6000fd5b505050506040513d601f19601f820116820180604052508101906128709190615290565b905081158061287d575080155b1561289157600d6000935093505050612996565b6000866001600160a01b031663182df0f56040518163ffffffff1660e01b815260040160206040518083038186803b1580156128cc57600080fd5b505afa1580156128e0573d6000803e3d6000fd5b505050506040513d601f19601f820116820180604052508101906129049190615290565b90506000612910614b7b565b612918614b7b565b612920614b7b565b612948604051806020016040528060075481525060405180602001604052808a8152506147ed565b92506129706040518060200160405280888152506040518060200160405280888152506147ed565b915061297c838361482e565b9050612988818b61427e565b600099509750505050505050505b935093915050565b601460209081526000928352604080842090915290825290205481565b60156020526000908152604090205481565b600b54600090600160b81b900460ff16156129fa5760405162461bcd60e51b8152600401610b7690615aae565b6001600160a01b0386166000908152600a602052604090205460ff161580612a3b57506001600160a01b0385166000908152600a602052604090205460ff16155b15612a475760096118df565b846001600160a01b0316635fe3b5676040518163ffffffff1660e01b815260040160206040518083038186803b158015612a8057600080fd5b505afa158015612a94573d6000803e3d6000fd5b505050506040513d601f19601f82011682018060405250810190612ab89190614d8f565b6001600160a01b0316866001600160a01b0316635fe3b5676040518163ffffffff1660e01b815260040160206040518083038186803b158015612afa57600080fd5b505afa158015612b0e573d6000803e3d6000fd5b505050506040513d601f19601f82011682018060405250810190612b329190614d8f565b6001600160a01b031614612b475760026118df565b612b5086613e5f565b612b5a8684613ff8565b612b648685613ff8565b60009695505050505050565b6001600160a01b0383166000908152600d602052604081205460ff1615612ba95760405162461bcd60e51b8152600401610b7690615ca9565b6001600160a01b0384166000908152600a602052604090205460ff16612bd05760096115bd565b6001600160a01b038085166000908152600a60209081526040808320938716835260029093019052205460ff16612ccf57336001600160a01b03851614612c295760405162461bcd60e51b8152600401610b76906159ac565b6000612c3533856146f6565b90506000816011811115612c5957634e487b7160e01b600052602160045260246000fd5b14612c8657806011811115612c7e57634e487b7160e01b600052602160045260246000fd5b9150506115dd565b6001600160a01b038086166000908152600a60209081526040808320938816835260029093019052205460ff16612ccd57634e487b7160e01b600052600160045260246000fd5b505b60055460405163fc57d4df60e01b81526001600160a01b039091169063fc57d4df90612cff9087906004016152dd565b60206040518083038186803b158015612d1757600080fd5b505afa158015612d2b573d6000803e3d6000fd5b505050506040513d601f19601f82011682018060405250810190612d4f9190615290565b612d5a57600d6115bd565b6001600160a01b0384166000908152601760205260409020548015612e1e576000856001600160a01b03166347bd37186040518163ffffffff1660e01b815260040160206040518083038186803b158015612db457600080fd5b505afa158015612dc8573d6000803e3d6000fd5b505050506040513d601f19601f82011682018060405250810190612dec9190615290565b90506000612dfa8286613575565b9050828110612e1b5760405162461bcd60e51b8152600401610b7690615a77565b50505b600080612e2e8688600088613b06565b91935090915060009050826011811115612e5857634e487b7160e01b600052602160045260246000fd5b14612e8757816011811115612e7d57634e487b7160e01b600052602160045260246000fd5b93505050506115dd565b8015612e94576004612e7d565b60006040518060200160405280896001600160a01b031663aa5af0fd6040518163ffffffff1660e01b815260040160206040518083038186803b158015612eda57600080fd5b505afa158015612eee573d6000803e3d6000fd5b505050506040513d601f19601f82011682018060405250810190612f129190615290565b90529050612f2088826135f9565b612f2b888883613811565b600098975050505050505050565b60096020528160005260406000208181548110612f5557600080fd5b6000918252602090912001546001600160a01b03169150829050565b6003546001600160a01b031681565b600080546001600160a01b03163314612fa657612f9f600160066141c2565b9050610e89565b6001600160a01b0383166000908152600a60205260409020805460ff16612fdb57612fd3600960076141c2565b915050610e89565b60408051602080820183528582528251908101909252670c7d713b49da00008252906130078183614861565b1561302257613018600660086141c2565b9350505050610e89565b84158015906130ae575060055460405163fc57d4df60e01b81526001600160a01b039091169063fc57d4df9061305c9089906004016152dd565b60206040518083038186803b15801561307457600080fd5b505afa158015613088573d6000803e3d6000fd5b505050506040513d601f19601f820116820180604052508101906130ac9190615290565b155b156130bf57613018600d60096141c2565b600183018054908690556040517f70483e6592cd5182d45ac970e05bc62cdcc90e9d8ef2c2dbe686cf383bcd7fc5906130fd90899084908a9061546e565b60405180910390a16000979650505050505050565b600b547501000000000000000000000000000000000000000000900460ff1681565b60065481565b61103681600e80548060200260200160405190810160405280929190818152602001828054801561319457602002820191906000526020600020905b81546001600160a01b03168152600190910190602001808311613176575b5050505050610e8f565b6000806131ac858585614622565b905080156131bb5790506115dd565b6131c485613e5f565b6131ce8585613ff8565b600095945050505050565b6000808290506000806000836001600160a01b031663c37f68e2336040518263ffffffff1660e01b815260040161321091906152dd565b60806040518083038186803b15801561322857600080fd5b505afa15801561323c573d6000803e3d6000fd5b505050506040513d601f19601f8201168201806040525081019061326091906152a8565b50925092509250826000146132875760405162461bcd60e51b8152600401610b7690615a1a565b80156132a457613299600c60026141c2565b9450505050506112c0565b60006132b1873385614622565b905080156132d2576132c6600e600383614868565b955050505050506112c0565b6001600160a01b0385166000908152600a60209081526040808320338452600281019092529091205460ff1661331157600096505050505050506112c0565b3360009081526002820160209081526040808320805460ff19169055600982528083208054825181850281018501909352808352919290919083018282801561338357602002820191906000526020600020905b81546001600160a01b03168152600190910190602001808311613365575b5050835193945083925060009150505b828110156133f657896001600160a01b03168482815181106133c557634e487b7160e01b600052603260045260246000fd5b60200260200101516001600160a01b031614156133e4578091506133f6565b806133ee81615dfc565b915050613393565b5081811061341457634e487b7160e01b600052600160045260246000fd5b3360009081526009602052604090208054819061343390600190615de5565b8154811061345157634e487b7160e01b600052603260045260246000fd5b9060005260206000200160009054906101000a90046001600160a01b031681838154811061348f57634e487b7160e01b600052603260045260246000fd5b600091825260209091200180546001600160a01b0319166001600160a01b0392909216919091179055805481906134c890600190615de5565b815481106134e657634e487b7160e01b600052603260045260246000fd5b600091825260209091200180546001600160a01b03191690556040517fe699a64c18b07ac5b7301aa273f36a2287239eb9501d81950672794afba29a0d90613531908c9033906152f1565b60405180910390a160009c9b505050505050505050505050565b601c5460ff1681565b601a6020526000908152604090205481565b6000546001600160a01b031681565b60006115dd83836040518060400160405280601181526020017f6164646974696f6e206f766572666c6f77000000000000000000000000000000815250614903565b60006115dd83836040518060400160405280601581526020017f7375627472616374696f6e20756e646572666c6f77000000000000000000000081525061493d565b6001600160a01b0382166000908152601260209081526040808320601a90925282205490916136646136296114ef565b6040518060400160405280601c81526020017f626c6f636b206e756d626572206578636565647320333220626974730000000081525061496c565b83549091506000906136869063ffffffff80851691600160e01b9004166135b7565b90506000811180156136985750600083115b156137e6576000613719876001600160a01b03166347bd37186040518163ffffffff1660e01b815260040160206040518083038186803b1580156136db57600080fd5b505afa1580156136ef573d6000803e3d6000fd5b505050506040513d601f19601f820116820180604052508101906137139190615290565b8761499c565b905060006137278386614296565b905060008083116137475760405180602001604052806000815250613751565b61375182846149ba565b604080516020810190915288546001600160e01b031681529091506137b49061377a90836149ef565b5160408051808201909152601a81527f6e657720696e64657820657863656564732032323420626974730000000000006020820152614a14565b87546001600160e01b0319166001600160e01b039182161716600160e01b63ffffffff871602178755506114f3915050565b80156114f357835463ffffffff8316600160e01b026001600160e01b03909116178455505050505050565b6001600160a01b03838116600090815260126020908152604080832080546014845282852095881685529490925290912080546001600160e01b039093169081905590918015801561387257506ec097ce7bc90715b34b9f10000000008210155b1561388957506ec097ce7bc90715b34b9f10000000005b600060405180602001604052806138a085856135b7565b815250905060006138ee886001600160a01b03166395dd9193896040518263ffffffff1660e01b81526004016138d691906152dd565b60206040518083038186803b1580156136db57600080fd5b905060006138fc8284614a3b565b6001600160a01b038916600090815260156020526040812054919250906139239083613575565b6001600160a01b03808b16600081815260156020526040908190208490555192935091908c16907f1fc3ecc087d8d2d15e23d0032af5a47059c3892d003d8e139fdcb6bb327c99a6906139799086908b90615d1c565b60405180910390a350505050505050505050565b600080546001600160a01b03163314806139b157506002546001600160a01b031633145b905090565b6000806139c1612282565b90506000816001600160a01b03166370a08231306040518263ffffffff1660e01b81526004016139f191906152dd565b60206040518083038186803b158015613a0957600080fd5b505afa158015613a1d573d6000803e3d6000fd5b505050506040513d601f19601f82011682018060405250810190613a419190615290565b9050600084118015613a535750808411155b15613afd576040517fa9059cbb0000000000000000000000000000000000000000000000000000000081526001600160a01b0383169063a9059cbb90613a9f908890889060040161530b565b602060405180830381600087803b158015613ab957600080fd5b505af1158015613acd573d6000803e3d6000fd5b505050506040513d601f19601f82011682018060405250810190613af1919061522f565b50600092505050610e89565b50919392505050565b6000806000613b13614b8e565b6001600160a01b038816600090815260096020908152604080832080548251818502810185019093528083528493830182828015613b7a57602002820191906000526020600020905b81546001600160a01b03168152600190910190602001808311613b5c575b5050505050905060005b8151811015613e09576000828281518110613baf57634e487b7160e01b600052603260045260246000fd5b60200260200101519050806001600160a01b031663c37f68e28d6040518263ffffffff1660e01b8152600401613be591906152dd565b60806040518083038186803b158015613bfd57600080fd5b505afa158015613c11573d6000803e3d6000fd5b505050506040513d601f19601f82011682018060405250810190613c3591906152a8565b60808901526060880152604087015293508315613c6157600f6000809750975097505050505050611557565b60408051602080820183526001600160a01b038085166000908152600a835284902060010154835260c0890192909252825190810183526080880151815260e0880152600554915163fc57d4df60e01b815291169063fc57d4df90613cca9084906004016152dd565b60206040518083038186803b158015613ce257600080fd5b505afa158015613cf6573d6000803e3d6000fd5b505050506040513d601f19601f82011682018060405250810190613d1a9190615290565b60a08601819052613d3a57600d6000809750975097505050505050611557565b604080516020810190915260a0860151815261010086015260c085015160e0860151613d7491613d69916147ed565b8661010001516147ed565b610120860181905260408601518651613d8e929190614a65565b855261010085015160608601516020870151613dab929190614a65565b60208601526001600160a01b03818116908c161415613df657613dd88561012001518b8760200151614a65565b60208601819052610100860151613df0918b90614a65565b60208601525b5080613e0181615dfc565b915050613b84565b50602083015183511115613e3a5760208301518351600091613e2a91615de5565b6000955095509550505050611557565b60008084600001518560200151613e519190615de5565b955095509550505050611557565b6001600160a01b0381166000908152601160209081526040808320601b9092528220549091613e8f6136296114ef565b8354909150600090613eb19063ffffffff80851691600160e01b9004166135b7565b9050600081118015613ec35750600083115b15613fce576000856001600160a01b03166318160ddd6040518163ffffffff1660e01b815260040160206040518083038186803b158015613f0357600080fd5b505afa158015613f17573d6000803e3d6000fd5b505050506040513d601f19601f82011682018060405250810190613f3b9190615290565b90506000613f498386614296565b90506000808311613f695760405180602001604052806000815250613f73565b613f7382846149ba565b604080516020810190915288546001600160e01b03168152909150613f9c9061377a90836149ef565b87546001600160e01b0319166001600160e01b039182161716600160e01b63ffffffff8716021787555061104b915050565b801561104b57835463ffffffff8316600160e01b026001600160e01b039091161784555050505050565b6001600160a01b03828116600090815260116020908152604080832080546013845282852095871685529490925290912080546001600160e01b039093169081905590918015801561405957506ec097ce7bc90715b34b9f10000000008210155b1561407057506ec097ce7bc90715b34b9f10000000005b6000604051806020016040528061408785856135b7565b90526040517f70a082310000000000000000000000000000000000000000000000000000000081529091506000906001600160a01b038816906370a08231906140d49089906004016152dd565b60206040518083038186803b1580156140ec57600080fd5b505afa158015614100573d6000803e3d6000fd5b505050506040513d601f19601f820116820180604052508101906141249190615290565b905060006141328284614a3b565b6001600160a01b038816600090815260156020526040812054919250906141599083613575565b6001600160a01b03808a16600081815260156020526040908190208490555192935091908b16907f2caecd17d02f56fa897705dcc740da2d237c373f70686f4e0d9bd3bf0400ea7a906141af9086908b90615d1c565b60405180910390a3505050505050505050565b60007f45b96fe442630264581b197e84bbada861235052c5a1aadfff9ea4e40a969aa083601181111561420557634e487b7160e01b600052602160045260246000fd5b83601381111561422557634e487b7160e01b600052602160045260246000fd5b600060405161423693929190615d2a565b60405180910390a18260118111156115dd57634e487b7160e01b600052602160045260246000fd5b6000806000614271846000806000613b06565b9250925092509193909250565b60008061428b8484614a86565b905061112681614aa7565b60006115dd83836040518060400160405280601781526020017f6d756c7469706c69636174696f6e206f766572666c6f77000000000000000000815250614abf565b60005b600e5481101561435557816001600160a01b0316600e828154811061431057634e487b7160e01b600052603260045260246000fd5b6000918252602090912001546001600160a01b031614156143435760405162461bcd60e51b8152600401610b76906154e2565b8061434d81615dfc565b9150506142db565b50600e80546001810182556000919091527fbb7b4a454dc3493923482f07822329ed19e8244eff582cc204f8554c3620c3fd0180546001600160a01b0319166001600160a01b0392909216919091179055565b60006143b56136296114ef565b6001600160a01b03831660009081526011602090815260408083206012909252909120815492935090916001600160e01b031661440c5781546001600160e01b0319166ec097ce7bc90715b34b9f10000000001782555b80546001600160e01b031661443b5780546001600160e01b0319166ec097ce7bc90715b34b9f10000000001781555b805463ffffffff909316600160e01b026001600160e01b0393841681179091558154909216909117905550565b6001600160a01b0383166000908152600a60205260409020805460ff166144a15760405162461bcd60e51b8152600401610b7690615873565b6001600160a01b0384166000908152601b6020526040902054831461451d576144c984613e5f565b6001600160a01b0384166000818152601b602052604090819020859055517fdeafccd0c0b768b2529f7dcbbe58e155d6023059150b7490ed4535cc3744b92d90614514908690615d13565b60405180910390a25b6001600160a01b0384166000908152601a602052604090205482146114e95760006040518060200160405280866001600160a01b031663aa5af0fd6040518163ffffffff1660e01b815260040160206040518083038186803b15801561458257600080fd5b505afa158015614596573d6000803e3d6000fd5b505050506040513d601f19601f820116820180604052508101906145ba9190615290565b905290506145c885826135f9565b6001600160a01b0385166000818152601a602052604090819020859055517f20af8e791cc98f74b2d7a391c80980ca8e5aebf3d4060bf581997b6acae2e53790614613908690615d13565b60405180910390a25050505050565b6001600160a01b0383166000908152600a602052604081205460ff166146495760096115bd565b6001600160a01b038085166000908152600a60209081526040808320938716835260029093019052205460ff166146815760006115bd565b6000806146918587866000613b06565b919350909150600090508260118111156146bb57634e487b7160e01b600052602160045260246000fd5b146146e9578160118111156146e057634e487b7160e01b600052602160045260246000fd5b925050506115dd565b8015612b645760046146e0565b6001600160a01b0382166000908152600a60205260408120805460ff16614721576009915050610e89565b6001600160a01b038316600090815260028201602052604090205460ff16151560011415614753576000915050610e89565b6001600160a01b03838116600090815260028301602090815260408083208054600160ff19909116811790915560098352818420805491820181558452919092200180546001600160a01b03191692871692909217909155517f3ab23ab0d51cccc0c3085aec51f99228625aa1a922b3a8ca89a26b0f2027a1a5906147db90869086906152f1565b60405180910390a15060009392505050565b6147f5614b7b565b6040518060200160405280670de0b6b3a764000061481b86600001518660000151614296565b6148259190615da6565b90529392505050565b614836614b7b565b604051806020016040528061482561485a8660000151670de0b6b3a7640000614296565b8551614b12565b5190511090565b60007f45b96fe442630264581b197e84bbada861235052c5a1aadfff9ea4e40a969aa08460118111156148ab57634e487b7160e01b600052602160045260246000fd5b8460138111156148cb57634e487b7160e01b600052602160045260246000fd5b846040516148db93929190615d2a565b60405180910390a18360118111156115da57634e487b7160e01b600052602160045260246000fd5b6000806149108486615d8e565b905082858210156149345760405162461bcd60e51b8152600401610b76919061548f565b50949350505050565b600081848411156149615760405162461bcd60e51b8152600401610b76919061548f565b506115da8385615de5565b60008164010000000084106149945760405162461bcd60e51b8152600401610b76919061548f565b509192915050565b60006115dd6149b384670de0b6b3a7640000614296565b8351614b12565b6149c2614b7b565b60405180602001604052806148256149e9866ec097ce7bc90715b34b9f1000000000614296565b85614b12565b6149f7614b7b565b604051806020016040528061482585600001518560000151613575565b600081600160e01b84106149945760405162461bcd60e51b8152600401610b76919061548f565b60006ec097ce7bc90715b34b9f1000000000614a5b848460000151614296565b6115dd9190615da6565b600080614a728585614a86565b9050611a61614a8082614aa7565b84613575565b614a8e614b7b565b6040518060200160405280614825856000015185614296565b8051600090610e8990670de0b6b3a764000090615da6565b6000831580614acc575082155b15614ad9575060006115dd565b6000614ae58486615dc6565b905083614af28683615da6565b1483906149345760405162461bcd60e51b8152600401610b76919061548f565b60006115dd83836040518060400160405280600e81526020017f646976696465206279207a65726f00000000000000000000000000000000000081525060008183614b705760405162461bcd60e51b8152600401610b76919061548f565b506115da8385615da6565b6040518060200160405280600081525090565b604051806101400160405280600081526020016000815260200160008152602001600081526020016000815260200160008152602001614bcc614b7b565b8152602001614bd9614b7b565b8152602001614be6614b7b565b8152602001614bf3614b7b565b905290565b60008083601f840112614c09578182fd5b50813567ffffffffffffffff811115614c20578182fd5b6020830191508360208083028501011115614c3a57600080fd5b9250929050565b600082601f830112614c51578081fd5b81356020614c66614c6183615d6a565b615d40565b8281528181019085830183850287018401881015614c82578586fd5b855b85811015614ca9578135614c9781615e43565b84529284019290840190600101614c84565b5090979650505050505050565b600082601f830112614cc6578081fd5b81356020614cd6614c6183615d6a565b8281528181019085830183850287018401881015614cf2578586fd5b855b85811015614ca9578135614d0781615e43565b84529284019290840190600101614cf4565b600082601f830112614d29578081fd5b81356020614d39614c6183615d6a565b8281528181019085830183850287018401881015614d55578586fd5b855b85811015614ca957813584529284019290840190600101614d57565b600060208284031215614d84578081fd5b81356115dd81615e43565b600060208284031215614da0578081fd5b81516115dd81615e43565b60008060408385031215614dbd578081fd5b8235614dc881615e43565b91506020830135614dd881615e43565b809150509250929050565b600080600080600060a08688031215614dfa578081fd5b8535614e0581615e43565b94506020860135614e1581615e43565b93506040860135614e2581615e43565b92506060860135614e3581615e43565b949793965091946080013592915050565b60008060008060008060c08789031215614e5e578081fd5b8635614e6981615e43565b95506020870135614e7981615e43565b94506040870135614e8981615e43565b93506060870135614e9981615e43565b9598949750929560808101359460a0909101359350915050565b60008060008060808587031215614ec8578182fd5b8435614ed381615e43565b93506020850135614ee381615e43565b92506040850135614ef381615e43565b9396929550929360600135925050565b600080600080600060a08688031215614f1a578283fd5b8535614f2581615e43565b94506020860135614f3581615e43565b93506040860135614f4581615e43565b94979396509394606081013594506080013592915050565b600080600060608486031215614f71578081fd5b8335614f7c81615e43565b92506020840135614f8c81615e43565b929592945050506040919091013590565b60008060008060808587031215614fb2578182fd5b8435614fbd81615e43565b93506020850135614fcd81615e43565b93969395505050506040820135916060013590565b60008060408385031215614ff4578182fd5b8235614fff81615e43565b9150602083013567ffffffffffffffff81111561501a578182fd5b61502685828601614cb6565b9150509250929050565b60008060408385031215614dbd578182fd5b60008060408385031215615054578182fd5b823561505f81615e43565b946020939093013593505050565b60008060008060408587031215615082578182fd5b843567ffffffffffffffff80821115615099578384fd5b6150a588838901614bf8565b909650945060208701359150808211156150bd578384fd5b506150ca87828801614bf8565b95989497509550505050565b6000602082840312156150e7578081fd5b813567ffffffffffffffff8111156150fd578182fd5b61112684828501614c41565b6000806000806080858703121561511e578182fd5b843567ffffffffffffffff80821115615135578384fd5b61514188838901614c41565b95506020870135915080821115615156578384fd5b5061516387828801614cb6565b935050604085013561517481615e58565b9150606085013561518481615e58565b939692955090935050565b6000806000606084860312156151a3578081fd5b833567ffffffffffffffff808211156151ba578283fd5b6151c687838801614cb6565b945060208601359150808211156151db578283fd5b6151e787838801614d19565b935060408601359150808211156151fc578283fd5b5061520986828701614d19565b9150509250925092565b600060208284031215615224578081fd5b81356115dd81615e58565b600060208284031215615240578081fd5b81516115dd81615e58565b6000806040838503121561525d578182fd5b823561526881615e43565b91506020830135614dd881615e58565b600060208284031215615289578081fd5b5035919050565b6000602082840312156152a1578081fd5b5051919050565b600080600080608085870312156152bd578182fd5b505082516020840151604085015160609095015191969095509092509050565b6001600160a01b0391909116815260200190565b6001600160a01b0392831681529116602082015260400190565b6001600160a01b03929092168252602082015260400190565b6020808252825182820181905260009190848201906040850190845b818110156153655783516001600160a01b031683529284019291840191600101615340565b50909695505050505050565b6020808252825182820181905260009190848201906040850190845b818110156153655783518352928401929184019160010161538d565b901515815260200190565b921515835260208301919091521515604082015260600190565b6001600160a01b039290921682526060602083018190526004908301527f4d696e740000000000000000000000000000000000000000000000000000000060808301521515604082015260a00190565b6001600160a01b039290921682526060602083018190526006908301527f426f72726f77000000000000000000000000000000000000000000000000000060808301521515604082015260a00190565b6001600160a01b039390931683526020830191909152604082015260600190565b6000602080835283518082850152825b818110156154bb5785810183015185820160400152820161549f565b818111156154cc5783604083870101525b50601f01601f1916929092016040019392505050565b60208082526014908201527f6d61726b657420616c7265616479206164646564000000000000000000000000604082015260600190565b60208082526028908201527f63616e6e6f742070617573652061206d61726b65742074686174206973206e6f60408201527f74206c6973746564000000000000000000000000000000000000000000000000606082015260800190565b6020808252601b908201527f696e73756666696369656e7420636f6d7020666f72206772616e740000000000604082015260600190565b60208082526019908201527f6f6e6c792061646d696e2063616e206772616e7420636f6d7000000000000000604082015260600190565b60208082526028908201527f43616e206e6f74207265706179206d6f7265207468616e2074686520746f746160408201527f6c20626f72726f77000000000000000000000000000000000000000000000000606082015260800190565b60208082526026908201527f416c72656164792065786563757465642074686973206f6e652d6f666620667560408201527f6e6374696f6e0000000000000000000000000000000000000000000000000000606082015260800190565b6020808252601d908201527f6f6e6c792061646d696e2063616e2073657420636f6d70207370656564000000604082015260600190565b6020808252601f908201527f6f6e6c792061646d696e2063616e2073657420636c6f736520666163746f7200604082015260600190565b60208082526016908201527f6f6e6c792061646d696e2063616e20756e706175736500000000000000000000604082015260600190565b60408082526005908201527f5365697a650000000000000000000000000000000000000000000000000000006060820152901515602082015260800190565b60208082526027908201527f6f6e6c7920706175736520677561726469616e20616e642061646d696e20636160408201527f6e20706175736500000000000000000000000000000000000000000000000000606082015260800190565b60208082526026908201527f6f6e6c792061646d696e2063616e2073657420626f72726f772063617020677560408201527f61726469616e0000000000000000000000000000000000000000000000000000606082015260800190565b60208082526015908201527f6d61726b6574206d757374206265206c69737465640000000000000000000000604082015260600190565b60208082526019908201527f636f6d70206d61726b6574206973206e6f74206c697374656400000000000000604082015260600190565b6020808252600d908201527f496e76616c696420696e70757400000000000000000000000000000000000000604082015260600190565b60208082526012908201527f7472616e73666572206973207061757365640000000000000000000000000000604082015260600190565b60208082526011908201527f72656465656d546f6b656e73207a65726f000000000000000000000000000000604082015260600190565b60208082526035908201527f6f6e6c792061646d696e206f7220626f72726f7720636170206775617264696160408201527f6e2063616e2073657420626f72726f7720636170730000000000000000000000606082015260800190565b60208082526015908201527f73656e646572206d7573742062652063546f6b656e0000000000000000000000604082015260600190565b60208082526015908201527f6368616e6765206e6f7420617574686f72697a65640000000000000000000000604082015260600190565b60208082526025908201527f657869744d61726b65743a206765744163636f756e74536e617073686f74206660408201527f61696c6564000000000000000000000000000000000000000000000000000000606082015260800190565b60208082526019908201527f6d61726b657420626f72726f7720636170207265616368656400000000000000604082015260600190565b6020808252600f908201527f7365697a65206973207061757365640000000000000000000000000000000000604082015260600190565b6020808252600d908201527f696e76616c696420696e70757400000000000000000000000000000000000000604082015260600190565b60208082526021908201527f4f6e6c792061646d696e2063616e2063616c6c20746869732066756e6374696f60408201527f6e00000000000000000000000000000000000000000000000000000000000000606082015260800190565b60208082526029908201527f436f6d7074726f6c6c65723a3a5f736574436f6d7053706565647320696e766160408201527f6c696420696e7075740000000000000000000000000000000000000000000000606082015260800190565b60408082526008908201527f5472616e736665720000000000000000000000000000000000000000000000006060820152901515602082015260800190565b6020808252600e908201527f6d696e7420697320706175736564000000000000000000000000000000000000604082015260600190565b60208082526027908201527f6f6e6c7920756e6974726f6c6c65722061646d696e2063616e206368616e676560408201527f20627261696e7300000000000000000000000000000000000000000000000000606082015260800190565b60208082526010908201527f626f72726f772069732070617573656400000000000000000000000000000000604082015260600190565b6001600160e01b0391909116815260200190565b6001600160e01b0392909216825263ffffffff16602082015260400190565b90815260200190565b918252602082015260400190565b9283526020830191909152604082015260600190565b60405181810167ffffffffffffffff81118282101715615d6257615d62615e2d565b604052919050565b600067ffffffffffffffff821115615d8457615d84615e2d565b5060209081020190565b60008219821115615da157615da1615e17565b500190565b600082615dc157634e487b7160e01b81526012600452602481fd5b500490565b6000816000190483118215151615615de057615de0615e17565b500290565b600082821015615df757615df7615e17565b500390565b6000600019821415615e1057615e10615e17565b5060010190565b634e487b7160e01b600052601160045260246000fd5b634e487b7160e01b600052604160045260246000fd5b6001600160a01b038116811461103657600080fd5b801515811461103657600080fdfea2646970667358221220a0dc6d5c42cdf8f801242882e9804af6939b267f588138aaf3b7c97c604300bd64736f6c63430008000033608060405234801561001057600080fd5b50615f0280620000216000396000f3fe608060405234801561001057600080fd5b50600436106103625760003560e01c806373acee98116101c8578063b71d1a0c11610104578063f2b3abbd116100a2578063f851a4401161007c578063f851a4401461067c578063f8f9da2814610684578063fca7820b1461068c578063fe9c44ae1461069f57610362565b8063f2b3abbd1461064e578063f3fdb15a14610661578063f5e3c4621461066957610362565b8063c5ebeaec116100de578063c5ebeaec1461060d578063db006a7514610620578063dd62ed3e14610633578063e9c714f21461064657610362565b8063b71d1a0c146105cf578063bd6d894d146105e2578063c37f68e2146105ea57610362565b806399d8c1b411610171578063a9059cbb1161014b578063a9059cbb14610599578063aa5af0fd146105ac578063ae9d70b0146105b4578063b2a02ff1146105bc57610362565b806399d8c1b41461056b578063a0712d681461057e578063a6afed951461059157610362565b80638f840ddd116101a25780638f840ddd1461054857806395d89b411461055057806395dd91931461055857610362565b806373acee981461051a5780637f1e06be14610522578063852a12e31461053557610362565b8063313ce567116102a25780635c60da1b116102405780636752e7021161021a5780636752e702146104ef5780636c540baf146104f75780636f307dc3146104ff57806370a082311461050757610362565b80635c60da1b146104cc5780635fe3b567146104d4578063601a0bf1146104dc57610362565b80633e9410101161027c5780633e9410101461048b5780634576b5db1461049e57806347bd3718146104b157806356e67728146104b957610362565b8063313ce5671461045b5780633af9e669146104705780633b1d21a21461048357610362565b806318160ddd1161030f5780631be19560116102e95780631be195601461040d57806323b872dd146104205780632608f81814610433578063267822471461044657610362565b806318160ddd146103ea578063182df0f5146103f25780631a31d465146103fa57610362565b8063153ab50511610340578063153ab505146103c5578063173b9904146103cf57806317bfdfbc146103d757610362565b806306fdde0314610367578063095ea7b3146103855780630e752702146103a5575b600080fd5b61036f6106a7565b60405161037c91906153f7565b60405180910390f35b61039861039336600461508c565b610735565b60405161037c91906153ec565b6103b86103b33660046151fd565b6107a3565b60405161037c9190615d8c565b6103cd6107b9565b005b6103b86107f3565b6103b86103e5366004614f45565b6107f9565b6103b8610869565b6103b861086f565b6103cd610408366004614fd9565b6108c7565b6103cd61041b366004614f45565b61098c565b61039861042e366004614f99565b610aaa565b6103b861044136600461508c565b610afa565b61044e610b10565b60405161037c9190615250565b610463610b1f565b60405161037c9190615dd4565b6103b861047e366004614f45565b610b28565b6103b8610bb6565b6103b86104993660046151fd565b610bc5565b6103b86104ac366004614f45565b610bd0565b6103b8610d0e565b6103cd6104c7366004615118565b610d14565b61044e610d46565b61044e610d55565b6103b86104ea3660046151fd565b610d64565b6103b8610df1565b6103b8610dfc565b61044e610e02565b6103b8610515366004614f45565b610e11565b6103b8610e2c565b6103cd610530366004614f45565b610e92565b6103b86105433660046151fd565b610f3f565b6103b8610f4a565b61036f610f50565b6103b8610566366004614f45565b610f5d565b6103cd61057936600461515e565b610faf565b6103b861058c3660046151fd565b6110e5565b6103b86110f1565b6103986105a736600461508c565b6114c8565b6103b8611517565b6103b861151d565b6103b86105ca366004614f99565b6115b1565b6103b86105dd366004614f45565b611600565b6103b8611679565b6105fd6105f8366004614f45565b6116e5565b60405161037c9493929190615db9565b6103b861061b3660046151fd565b6117a2565b6103b861062e3660046151fd565b6117ad565b6103b8610641366004614f61565b6117b8565b6103b86117e3565b6103b861065c366004614f45565b6118f9565b61044e611947565b6103b86106773660046150b7565b611956565b61044e61196e565b6103b8611982565b6103b861069a3660046151fd565b6119c2565b610398611a32565b600180546106b490615e50565b80601f01602080910402602001604051908101604052809291908181526020018280546106e090615e50565b801561072d5780601f106107025761010080835404028352916020019161072d565b820191906000526020600020905b81548152906001019060200180831161071057829003601f168201915b505050505081565b336000818152600f602090815260408083206001600160a01b03871680855292528083208590555191929182907f8c5be1e5ebec7d5bd14f71427d1e84f3dd0314c0f7b2291e5b200ac8c7c3b9259061078f908790615d8c565b60405180910390a360019150505b92915050565b6000806107af83611a37565b509150505b919050565b60035461010090046001600160a01b031633146107f15760405162461bcd60e51b81526004016107e8906157c0565b60405180910390fd5b565b60085481565b6000805460ff1661081c5760405162461bcd60e51b81526004016107e8906158fe565b6000805460ff1916815561082e6110f1565b1461084b5760405162461bcd60e51b81526004016107e89061544a565b61085482610f5d565b90505b6000805460ff19166001179055919050565b600d5481565b600080600061087c611ad1565b909250905060008260038111156108a357634e487b7160e01b600052602160045260246000fd5b146108c05760405162461bcd60e51b81526004016107e890615b5d565b9150505b90565b6108d5868686868686610faf565b601180546001600160a01b0319166001600160a01b038981169190911791829055604080517f18160ddd000000000000000000000000000000000000000000000000000000008152905192909116916318160ddd91600480820192602092909190829003018186803b15801561094a57600080fd5b505afa15801561095e573d6000803e3d6000fd5b505050506040513d601f19601f820116820180604052508101906109829190615215565b5050505050505050565b6011546001600160a01b03828116911614156109ba5760405162461bcd60e51b81526004016107e8906155a9565b6040516370a0823160e01b81526000906001600160a01b038316906370a08231906109e9903090600401615250565b60206040518083038186803b158015610a0157600080fd5b505afa158015610a15573d6000803e3d6000fd5b505050506040513d601f19601f82011682018060405250810190610a399190615215565b60035460405163a9059cbb60e01b81529192506001600160a01b038085169263a9059cbb92610a74926101009091041690859060040161538c565b600060405180830381600087803b158015610a8e57600080fd5b505af1158015610aa2573d6000803e3d6000fd5b505050505050565b6000805460ff16610acd5760405162461bcd60e51b81526004016107e8906158fe565b6000805460ff19168155610ae333868686611ba8565b1490506000805460ff191660011790559392505050565b600080610b078484611e9d565b50949350505050565b6004546001600160a01b031681565b60035460ff1681565b6000806040518060200160405280610b3e611679565b90526001600160a01b0384166000908152600e6020526040812054919250908190610b6a908490611f39565b90925090506000826003811115610b9157634e487b7160e01b600052602160045260246000fd5b14610bae5760405162461bcd60e51b81526004016107e890615515565b949350505050565b6000610bc0611f9a565b905090565b600061079d8261201d565b60035460009061010090046001600160a01b03163314610bfd57610bf66001603f6120a3565b90506107b4565b600554604080517e7e3dd200000000000000000000000000000000000000000000000000000000815290516001600160a01b0392831692851691627e3dd2916004808301926020929190829003018186803b158015610c5b57600080fd5b505afa158015610c6f573d6000803e3d6000fd5b505050506040513d601f19601f82011682018060405250810190610c9391906150f8565b610caf5760405162461bcd60e51b81526004016107e89061580d565b600580546001600160a01b0319166001600160a01b0385161790556040517f7ac369dbd14fa5ea3f473ed67cc9d598964a77501540ba6751eb0b3decf5870d90610cfc9083908690615264565b60405180910390a160005b9392505050565b600b5481565b60035461010090046001600160a01b03163314610d435760405162461bcd60e51b81526004016107e890615d3f565b50565b6012546001600160a01b031681565b6005546001600160a01b031681565b6000805460ff16610d875760405162461bcd60e51b81526004016107e8906158fe565b6000805460ff19168155610d996110f1565b90508015610dd357610dcb816010811115610dc457634e487b7160e01b600052602160045260246000fd5b60306120a3565b915050610857565b610ddc8361213f565b9150506000805460ff19166001179055919050565b666379da05b6000081565b60095481565b6011546001600160a01b031681565b6001600160a01b03166000908152600e602052604090205490565b6000805460ff16610e4f5760405162461bcd60e51b81526004016107e8906158fe565b6000805460ff19168155610e616110f1565b14610e7e5760405162461bcd60e51b81526004016107e89061544a565b50600b546000805460ff1916600117905590565b60035461010090046001600160a01b03163314610ec15760405162461bcd60e51b81526004016107e890615706565b6011546040517f5c19a95c0000000000000000000000000000000000000000000000000000000081526001600160a01b0390911690635c19a95c90610f0a908490600401615250565b600060405180830381600087803b158015610f2457600080fd5b505af1158015610f38573d6000803e3d6000fd5b5050505050565b600061079d8261224e565b600c5481565b600280546106b490615e50565b6000806000610f6b846122c1565b90925090506000826003811115610f9257634e487b7160e01b600052602160045260246000fd5b14610d075760405162461bcd60e51b81526004016107e8906158a1565b60035461010090046001600160a01b03163314610fde5760405162461bcd60e51b81526004016107e890615481565b600954158015610fee5750600a54155b61100a5760405162461bcd60e51b81526004016107e89061554c565b60078490558361102c5760405162461bcd60e51b81526004016107e8906156a9565b600061103787610bd0565b905080156110575760405162461bcd60e51b81526004016107e890615aba565b61105f61239c565b600955670de0b6b3a7640000600a55611077866123a0565b905080156110975760405162461bcd60e51b81526004016107e890615763565b83516110aa906001906020870190614cff565b5082516110be906002906020860190614cff565b50506003805460ff90921660ff199283161790556000805490911660011790555050505050565b6000806107af836124d6565b6000806110fc61239c565b60095490915080821415611115576000925050506108c4565b600061111f611f9a565b600b54600c54600a546006546040517f15f240530000000000000000000000000000000000000000000000000000000081529495509293919290916000916001600160a01b0316906315f240539061117f90889088908890600401615da3565b60206040518083038186803b15801561119757600080fd5b505afa1580156111ab573d6000803e3d6000fd5b505050506040513d601f19601f820116820180604052508101906111cf9190615215565b905065048c273950008111156111f75760405162461bcd60e51b81526004016107e890615935565b6000806112048989612549565b9092509050600082600381111561122b57634e487b7160e01b600052602160045260246000fd5b146112485760405162461bcd60e51b81526004016107e8906159c9565b611250614d83565b60008060008061126e60405180602001604052808a81525087612574565b9097509450600087600381111561129557634e487b7160e01b600052602160045260246000fd5b146112db576112c6600960068960038111156112c157634e487b7160e01b600052602160045260246000fd5b6125f0565b9e5050505050505050505050505050506108c4565b6112e5858c611f39565b9097509350600087600381111561130c57634e487b7160e01b600052602160045260246000fd5b14611338576112c6600960018960038111156112c157634e487b7160e01b600052602160045260246000fd5b611342848c61268b565b9097509250600087600381111561136957634e487b7160e01b600052602160045260246000fd5b14611395576112c6600960048960038111156112c157634e487b7160e01b600052602160045260246000fd5b6113b06040518060200160405280600854815250858c6126bb565b909750915060008760038111156113d757634e487b7160e01b600052602160045260246000fd5b14611403576112c6600960058960038111156112c157634e487b7160e01b600052602160045260246000fd5b61140e858a8b6126bb565b9097509050600087600381111561143557634e487b7160e01b600052602160045260246000fd5b14611461576112c6600960038960038111156112c157634e487b7160e01b600052602160045260246000fd5b60098e9055600a819055600b839055600c8290556040517f4dec04e750ca11537cabcd8a9eab06494de08da3735bc8871cd41250e190bc04906114ab908e90879085908890615db9565b60405180910390a160009e50505050505050505050505050505090565b6000805460ff166114eb5760405162461bcd60e51b81526004016107e8906158fe565b6000805460ff1916815561150133338686611ba8565b1490506000805460ff1916600117905592915050565b600a5481565b6006546000906001600160a01b031663b8168816611539611f9a565b600b54600c546008546040518563ffffffff1660e01b81526004016115619493929190615db9565b60206040518083038186803b15801561157957600080fd5b505afa15801561158d573d6000803e3d6000fd5b505050506040513d601f19601f82011682018060405250810190610bc09190615215565b6000805460ff166115d45760405162461bcd60e51b81526004016107e8906158fe565b6000805460ff191690556115ea33858585612724565b90506000805460ff191660011790559392505050565b60035460009061010090046001600160a01b0316331461162657610bf6600160456120a3565b600480546001600160a01b038481166001600160a01b03198316179092556040519116907fca4f2f25d0898edd99413412fb94012f9e54ec8142f9b093e7720646a95b16a990610cfc9083908690615264565b6000805460ff1661169c5760405162461bcd60e51b81526004016107e8906158fe565b6000805460ff191681556116ae6110f1565b146116cb5760405162461bcd60e51b81526004016107e89061544a565b6116d361086f565b90506000805460ff1916600117905590565b6001600160a01b0381166000908152600e6020526040812054819081908190818080611710896122c1565b93509050600081600381111561173657634e487b7160e01b600052602160045260246000fd5b146117545760095b600080600097509750975097505050505061179b565b61175c611ad1565b92509050600081600381111561178257634e487b7160e01b600052602160045260246000fd5b1461178e57600961173e565b5060009650919450925090505b9193509193565b600061079d82612bdd565b600061079d82612c4e565b6001600160a01b039182166000908152600f6020908152604080832093909416825291909152205490565b6004546000906001600160a01b0316331415806117fe575033155b156118165761180f600160006120a3565b90506108c4565b60038054600480546001600160a01b038181166101008181027fffffffffffffffffffffff0000000000000000000000000000000000000000ff871617968790556001600160a01b03199093169093556040519382900481169492937ff9ffabca9c8276e99321725bcb43fb076a6c66a54b7f21c4e8146d8519b417dc936118a393879391041690615264565b60405180910390a16004546040517fca4f2f25d0898edd99413412fb94012f9e54ec8142f9b093e7720646a95b16a9916118e89184916001600160a01b031690615264565b60405180910390a160009250505090565b6000806119046110f1565b9050801561193e5761193681601081111561192f57634e487b7160e01b600052602160045260246000fd5b60406120a3565b9150506107b4565b610d07836123a0565b6006546001600160a01b031681565b600080611964858585612cba565b5095945050505050565b60035461010090046001600160a01b031681565b6006546000906001600160a01b03166315f2405361199e611f9a565b600b54600c546040518463ffffffff1660e01b815260040161156193929190615da3565b6000805460ff166119e55760405162461bcd60e51b81526004016107e8906158fe565b6000805460ff191681556119f76110f1565b90508015611a2957610dcb816010811115611a2257634e487b7160e01b600052602160045260246000fd5b60466120a3565b610ddc83612dfd565b600181565b60008054819060ff16611a5c5760405162461bcd60e51b81526004016107e8906158fe565b6000805460ff19168155611a6e6110f1565b90508015611aac57611aa0816010811115611a9957634e487b7160e01b600052602160045260246000fd5b60366120a3565b60009250925050611abd565b611ab7333386612e95565b92509250505b6000805460ff191660011790559092909150565b600d54600090819080611aec57505060075460009150611ba4565b6000611af6611f9a565b90506000611b02614d83565b6000611b1384600b54600c5461325f565b935090506000816003811115611b3957634e487b7160e01b600052602160045260246000fd5b14611b4e57955060009450611ba49350505050565b611b5883866132b1565b925090506000816003811115611b7e57634e487b7160e01b600052602160045260246000fd5b14611b9357955060009450611ba49350505050565b5051600095509350611ba492505050565b9091565b6005546040517fbdcdc25800000000000000000000000000000000000000000000000000000000815260009182916001600160a01b039091169063bdcdc25890611bfc9030908990899089906004016152b1565b602060405180830381600087803b158015611c1657600080fd5b505af1158015611c2a573d6000803e3d6000fd5b505050506040513d601f19601f82011682018060405250810190611c4e9190615215565b90508015611c6b57611c636003604a836125f0565b915050610bae565b836001600160a01b0316856001600160a01b03161415611c9157611c636002604b6120a3565b6000856001600160a01b0316876001600160a01b03161415611cb65750600019611cde565b506001600160a01b038086166000908152600f60209081526040808320938a16835292905220545b600080600080611cee8589612549565b90945092506000846003811115611d1557634e487b7160e01b600052602160045260246000fd5b14611d3357611d266009604b6120a3565b9650505050505050610bae565b6001600160a01b038a166000908152600e6020526040902054611d569089612549565b90945091506000846003811115611d7d57634e487b7160e01b600052602160045260246000fd5b14611d8e57611d266009604c6120a3565b6001600160a01b0389166000908152600e6020526040902054611db1908961268b565b90945090506000846003811115611dd857634e487b7160e01b600052602160045260246000fd5b14611de957611d266009604d6120a3565b6001600160a01b03808b166000908152600e6020526040808220859055918b168152208190556000198514611e41576001600160a01b03808b166000908152600f60209081526040808320938f168352929052208390555b886001600160a01b03168a6001600160a01b03167fddf252ad1be2c89b69c2b068fc378daa952ba7f163c4a11628f55a4df523b3ef8a604051611e849190615d8c565b60405180910390a35060009a9950505050505050505050565b60008054819060ff16611ec25760405162461bcd60e51b81526004016107e8906158fe565b6000805460ff19168155611ed46110f1565b90508015611f1257611f06816010811115611eff57634e487b7160e01b600052602160045260246000fd5b60356120a3565b60009250925050611f23565b611f1d338686612e95565b92509250505b6000805460ff1916600117905590939092509050565b600080600080611f498686612574565b90925090506000826003811115611f7057634e487b7160e01b600052602160045260246000fd5b14611f815750915060009050611f93565b6000611f8c8261338a565b9350935050505b9250929050565b6011546040516370a0823160e01b81526000916001600160a01b03169081906370a0823190611fcd903090600401615250565b60206040518083038186803b158015611fe557600080fd5b505afa158015611ff9573d6000803e3d6000fd5b505050506040513d601f19601f820116820180604052508101906108c09190615215565b6000805460ff166120405760405162461bcd60e51b81526004016107e8906158fe565b6000805460ff191681556120526110f1565b9050801561208457610dcb81601081111561207d57634e487b7160e01b600052602160045260246000fd5b604e6120a3565b61208d836133a2565b509150506000805460ff19166001179055919050565b60007f45b96fe442630264581b197e84bbada861235052c5a1aadfff9ea4e40a969aa08360108111156120e657634e487b7160e01b600052602160045260246000fd5b83605081111561210657634e487b7160e01b600052602160045260246000fd5b600060405161211793929190615da3565b60405180910390a1826010811115610d0757634e487b7160e01b600052602160045260246000fd5b600354600090819061010090046001600160a01b0316331461216757611936600160316120a3565b61216f61239c565b6009541461218357611936600a60336120a3565b8261218c611f9a565b101561219e57611936600e60326120a3565b600c548311156121b457611936600260346120a3565b82600c546121c29190615e39565b9050600c548111156121e65760405162461bcd60e51b81526004016107e890615c74565b600c8190556003546122069061010090046001600160a01b03168461345a565b7f3bad0c59cf2f06e7314077049f48a93578cd16f5ef92329f1dab1420a99c177e600360019054906101000a90046001600160a01b03168483604051610cfc939291906153a5565b6000805460ff166122715760405162461bcd60e51b81526004016107e8906158fe565b6000805460ff191681556122836110f1565b905080156122b557610dcb8160108111156122ae57634e487b7160e01b600052602160045260246000fd5b60276120a3565b610ddc33600085613512565b6001600160a01b0381166000908152601060205260408120805482918291829182916122f7576000809550955050505050612397565b6123078160000154600a54613b65565b9094509250600084600381111561232e57634e487b7160e01b600052602160045260246000fd5b14612343578360009550955050505050612397565b612351838260010154613baf565b9094509150600084600381111561237857634e487b7160e01b600052602160045260246000fd5b1461238d578360009550955050505050612397565b5060009450925050505b915091565b4390565b600354600090819061010090046001600160a01b031633146123c857611936600160426120a3565b6123d061239c565b600954146123e457611936600a60416120a3565b600660009054906101000a90046001600160a01b03169050826001600160a01b0316632191f92a6040518163ffffffff1660e01b815260040160206040518083038186803b15801561243557600080fd5b505afa158015612449573d6000803e3d6000fd5b505050506040513d601f19601f8201168201806040525081019061246d91906150f8565b6124895760405162461bcd60e51b81526004016107e89061580d565b600680546001600160a01b0319166001600160a01b0385161790556040517fedffc32e068c7c95dfd4bdfd5c4d939a084d6b11c4199eac8436ed234d72f92690610cfc9083908690615264565b60008054819060ff166124fb5760405162461bcd60e51b81526004016107e8906158fe565b6000805460ff1916815561250d6110f1565b9050801561253f57611aa081601081111561253857634e487b7160e01b600052602160045260246000fd5b601e6120a3565b611ab73385613bda565b60008083831161256857600061255f8486615e39565b91509150611f93565b50600390506000611f93565b600061257e614d83565b60008061258f866000015186613b65565b909250905060008260038111156125b657634e487b7160e01b600052602160045260246000fd5b146125d557506040805160208101909152600081529092509050611f93565b60408051602081019091529081526000969095509350505050565b60007f45b96fe442630264581b197e84bbada861235052c5a1aadfff9ea4e40a969aa084601081111561263357634e487b7160e01b600052602160045260246000fd5b84605081111561265357634e487b7160e01b600052602160045260246000fd5b8460405161266393929190615da3565b60405180910390a1836010811115610bae57634e487b7160e01b600052602160045260246000fd5b600080806126998486615de2565b90508481106126ad57600092509050611f93565b600260009250925050611f93565b6000806000806126cb8787612574565b909250905060008260038111156126f257634e487b7160e01b600052602160045260246000fd5b14612703575091506000905061271c565b61271561270f8261338a565b8661268b565b9350935050505b935093915050565b6005546040517fd02f735100000000000000000000000000000000000000000000000000000000815260009182916001600160a01b039091169063d02f73519061277a9030908a908a908a908a9060040161527e565b602060405180830381600087803b15801561279457600080fd5b505af11580156127a8573d6000803e3d6000fd5b505050506040513d601f19601f820116820180604052508101906127cc9190615215565b905080156127e157611c636003601b836125f0565b846001600160a01b0316846001600160a01b0316141561280757611c636006601c6120a3565b61280f614d96565b6001600160a01b0385166000908152600e60205260409020546128329085612549565b602083018190528282600381111561285a57634e487b7160e01b600052602160045260246000fd5b600381111561287957634e487b7160e01b600052602160045260246000fd5b90525060009050815160038111156128a157634e487b7160e01b600052602160045260246000fd5b146128da576128d16009601a836000015160038111156112c157634e487b7160e01b600052602160045260246000fd5b92505050610bae565b6128f9846040518060200160405280666379da05b60000815250614065565b6080820181905261290b908590614088565b6060820152612918611ad1565b60c083018190528282600381111561294057634e487b7160e01b600052602160045260246000fd5b600381111561295f57634e487b7160e01b600052602160045260246000fd5b905250600090508151600381111561298757634e487b7160e01b600052602160045260246000fd5b146129a45760405162461bcd60e51b81526004016107e890615cd1565b6129c460405180602001604052808360c0015181525082608001516140ca565b60a08201819052600c546129d7916140e2565b60e0820152600d5460808201516129ee9190614088565b6101008201526001600160a01b0386166000908152600e60205260409020546060820151612a1c919061268b565b6040830181905282826003811115612a4457634e487b7160e01b600052602160045260246000fd5b6003811115612a6357634e487b7160e01b600052602160045260246000fd5b9052506000905081516003811115612a8b57634e487b7160e01b600052602160045260246000fd5b14612abb576128d160096019836000015160038111156112c157634e487b7160e01b600052602160045260246000fd5b60e0810151600c55610100810151600d556020808201516001600160a01b038088166000818152600e90945260408085209390935582850151918a1680855293839020919091556060840151915190917fddf252ad1be2c89b69c2b068fc378daa952ba7f163c4a11628f55a4df523b3ef91612b379190615d8c565b60405180910390a3306001600160a01b0316856001600160a01b03167fddf252ad1be2c89b69c2b068fc378daa952ba7f163c4a11628f55a4df523b3ef8360800151604051612b869190615d8c565b60405180910390a360a081015160e08201516040517fa91e67c5ea634cd43a12c5a482724b03de01e85ca68702a53d0c2f45cb7c1dc592612bc89230926153a5565b60405180910390a16000979650505050505050565b6000805460ff16612c005760405162461bcd60e51b81526004016107e8906158fe565b6000805460ff19168155612c126110f1565b90508015612c4457610dcb816010811115612c3d57634e487b7160e01b600052602160045260246000fd5b60086120a3565b610ddc3384614124565b6000805460ff16612c715760405162461bcd60e51b81526004016107e8906158fe565b6000805460ff19168155612c836110f1565b90508015612cae57610dcb8160108111156122ae57634e487b7160e01b600052602160045260246000fd5b610ddc33846000613512565b60008054819060ff16612cdf5760405162461bcd60e51b81526004016107e8906158fe565b6000805460ff19168155612cf16110f1565b90508015612d2f57612d23816010811115612d1c57634e487b7160e01b600052602160045260246000fd5b600f6120a3565b60009250925050612de6565b836001600160a01b031663a6afed956040518163ffffffff1660e01b8152600401602060405180830381600087803b158015612d6a57600080fd5b505af1158015612d7e573d6000803e3d6000fd5b505050506040513d601f19601f82011682018060405250810190612da29190615215565b90508015612dd457612d23816010811115612dcd57634e487b7160e01b600052602160045260246000fd5b60106120a3565b612de0338787876144b2565b92509250505b6000805460ff191660011790559094909350915050565b60035460009061010090046001600160a01b03163314612e2357610bf6600160476120a3565b612e2b61239c565b60095414612e3f57610bf6600a60486120a3565b670de0b6b3a7640000821115612e5b57610bf6600260496120a3565b60088054908390556040517faaa68312e2ea9d50e16af5068410ab56e1a1fd06037b1a35664812c30f82146090610cfc9083908690615d95565b6005546040517f24008a62000000000000000000000000000000000000000000000000000000008152600091829182916001600160a01b0316906324008a6290612ee99030908a908a908a906004016152b1565b602060405180830381600087803b158015612f0357600080fd5b505af1158015612f17573d6000803e3d6000fd5b505050506040513d601f19601f82011682018060405250810190612f3b9190615215565b90508015612f5c57612f5060036038836125f0565b6000925092505061271c565b612f6461239c565b60095414612f7857612f50600a60396120a3565b612f80614de3565b6001600160a01b0386166000908152601060205260409020600101546060820152612faa866122c1565b6080830181905260208301826003811115612fd557634e487b7160e01b600052602160045260246000fd5b6003811115612ff457634e487b7160e01b600052602160045260246000fd5b905250600090508160200151600381111561301f57634e487b7160e01b600052602160045260246000fd5b1461305c5761304f60096037836020015160038111156112c157634e487b7160e01b600052602160045260246000fd5b600093509350505061271c565b600019851415613075576080810151604082015261307d565b604081018590525b61308b878260400151614956565b60e0820181905260808201516130a091612549565b60a08301819052602083018260038111156130cb57634e487b7160e01b600052602160045260246000fd5b60038111156130ea57634e487b7160e01b600052602160045260246000fd5b905250600090508160200151600381111561311557634e487b7160e01b600052602160045260246000fd5b146131325760405162461bcd60e51b81526004016107e89061596c565b613142600b548260e00151612549565b60c083018190526020830182600381111561316d57634e487b7160e01b600052602160045260246000fd5b600381111561318c57634e487b7160e01b600052602160045260246000fd5b90525060009050816020015160038111156131b757634e487b7160e01b600052602160045260246000fd5b146131d45760405162461bcd60e51b81526004016107e890615a00565b60a0810180516001600160a01b03881660009081526010602052604090819020918255600a5460019092019190915560c0830151600b81905560e0840151925191517f1a2a22cb034d26d1854bdc6666a5b91fe25efbbb5dcad3b0355478d6f5c362a193613245938c938c9361535b565b60405180910390a160e00151600097909650945050505050565b60008060008061326f878761268b565b9092509050600082600381111561329657634e487b7160e01b600052602160045260246000fd5b146132a7575091506000905061271c565b6127158186612549565b60006132bb614d83565b6000806132d086670de0b6b3a7640000613b65565b909250905060008260038111156132f757634e487b7160e01b600052602160045260246000fd5b1461331657506040805160208101909152600081529092509050611f93565b6000806133238388613baf565b9092509050600082600381111561334a57634e487b7160e01b600052602160045260246000fd5b1461336d5781604051806020016040528060008152509550955050505050611f93565b604080516020810190915290815260009890975095505050505050565b805160009061079d90670de0b6b3a764000090615dfa565b6000806000806133b061239c565b600954146133cf576133c4600a604f6120a3565b935091506123979050565b6133d93386614956565b905080600c546133e99190615de2565b9150600c5482101561340d5760405162461bcd60e51b81526004016107e89061563d565b600c8290556040517fa91e67c5ea634cd43a12c5a482724b03de01e85ca68702a53d0c2f45cb7c1dc590613446903390849086906153a5565b60405180910390a160009350915050915091565b60115460405163a9059cbb60e01b81526001600160a01b0390911690819063a9059cbb9061348e908690869060040161538c565b600060405180830381600087803b1580156134a857600080fd5b505af11580156134bc573d6000803e3d6000fd5b5050505060003d600081146134d857602081146134e257600080fd5b60001991506134ee565b60206000803e60005191505b508061350c5760405162461bcd60e51b81526004016107e890615672565b50505050565b600082158061351f575081155b61353b5760405162461bcd60e51b81526004016107e890615c17565b613543614e29565b61354b611ad1565b604083018190526020830182600381111561357657634e487b7160e01b600052602160045260246000fd5b600381111561359557634e487b7160e01b600052602160045260246000fd5b90525060009050816020015160038111156135c057634e487b7160e01b600052602160045260246000fd5b146135f8576135f06009602b836020015160038111156112c157634e487b7160e01b600052602160045260246000fd5b915050610d07565b83156136c957606081018490526040805160208101825290820151815261361f9085611f39565b608083018190526020830182600381111561364a57634e487b7160e01b600052602160045260246000fd5b600381111561366957634e487b7160e01b600052602160045260246000fd5b905250600090508160200151600381111561369457634e487b7160e01b600052602160045260246000fd5b146136c4576135f060096029836020015160038111156112c157634e487b7160e01b600052602160045260246000fd5b613792565b6136e58360405180602001604052808460400151815250614b5d565b606083018190526020830182600381111561371057634e487b7160e01b600052602160045260246000fd5b600381111561372f57634e487b7160e01b600052602160045260246000fd5b905250600090508160200151600381111561375a57634e487b7160e01b600052602160045260246000fd5b1461378a576135f06009602a836020015160038111156112c157634e487b7160e01b600052602160045260246000fd5b608081018390525b60055460608201516040517feabe7d910000000000000000000000000000000000000000000000000000000081526000926001600160a01b03169163eabe7d91916137e49130918b91906004016152db565b602060405180830381600087803b1580156137fe57600080fd5b505af1158015613812573d6000803e3d6000fd5b505050506040513d601f19601f820116820180604052508101906138369190615215565b905080156138545761384b60036028836125f0565b92505050610d07565b61385c61239c565b600954146138705761384b600a602c6120a3565b613880600d548360600151612549565b60a08401819052602084018260038111156138ab57634e487b7160e01b600052602160045260246000fd5b60038111156138ca57634e487b7160e01b600052602160045260246000fd5b90525060009050826020015160038111156138f557634e487b7160e01b600052602160045260246000fd5b146139255761384b6009602e846020015160038111156112c157634e487b7160e01b600052602160045260246000fd5b6001600160a01b0386166000908152600e6020526040902054606083015161394d9190612549565b60c084018190526020840182600381111561397857634e487b7160e01b600052602160045260246000fd5b600381111561399757634e487b7160e01b600052602160045260246000fd5b90525060009050826020015160038111156139c257634e487b7160e01b600052602160045260246000fd5b146139f25761384b6009602d846020015160038111156112c157634e487b7160e01b600052602160045260246000fd5b81608001516139ff611f9a565b1015613a115761384b600e602f6120a3565b613a1f86836080015161345a565b60a0820151600d5560c08201516001600160a01b0387166000818152600e602052604090819020929092556060840151915130927fddf252ad1be2c89b69c2b068fc378daa952ba7f163c4a11628f55a4df523b3ef91613a7f9190615d8c565b60405180910390a3608082015160608301516040517fe5b754fb1abb7f01b499791d0b820ae3b6af3424ac1c59768edb53f4ec31a92992613ac1928a926153a5565b60405180910390a1600554608083015160608401516040517f51dff9890000000000000000000000000000000000000000000000000000000081526001600160a01b03909316926351dff98992613b209230928c929190600401615332565b600060405180830381600087803b158015613b3a57600080fd5b505af1158015613b4e573d6000803e3d6000fd5b5060009250613b5b915050565b9695505050505050565b60008083613b7857506000905080611f93565b6000613b848486615e1a565b905083613b918683615dfa565b14613ba457600260009250925050611f93565b600092509050611f93565b60008082613bc35750600190506000611f93565b6000613bcf8486615dfa565b915091509250929050565b6005546040517f4ef4c3e1000000000000000000000000000000000000000000000000000000008152600091829182916001600160a01b031690634ef4c3e190613c2c903090899089906004016152db565b602060405180830381600087803b158015613c4657600080fd5b505af1158015613c5a573d6000803e3d6000fd5b505050506040513d601f19601f82011682018060405250810190613c7e9190615215565b90508015613c9f57613c936003601f836125f0565b60009250925050611f93565b613ca761239c565b60095414613cbb57613c93600a60226120a3565b613cc3614e29565b613ccb611ad1565b6040830181905260208301826003811115613cf657634e487b7160e01b600052602160045260246000fd5b6003811115613d1557634e487b7160e01b600052602160045260246000fd5b9052506000905081602001516003811115613d4057634e487b7160e01b600052602160045260246000fd5b14613d7d57613d7060096021836020015160038111156112c157634e487b7160e01b600052602160045260246000fd5b6000935093505050611f93565b613d878686614956565b60c0820181905260408051602081018252908301518152613da89190614b5d565b6060830181905260208301826003811115613dd357634e487b7160e01b600052602160045260246000fd5b6003811115613df257634e487b7160e01b600052602160045260246000fd5b9052506000905081602001516003811115613e1d57634e487b7160e01b600052602160045260246000fd5b14613e3a5760405162461bcd60e51b81526004016107e890615b28565b613e4a600d54826060015161268b565b6080830181905260208301826003811115613e7557634e487b7160e01b600052602160045260246000fd5b6003811115613e9457634e487b7160e01b600052602160045260246000fd5b9052506000905081602001516003811115613ebf57634e487b7160e01b600052602160045260246000fd5b14613edc5760405162461bcd60e51b81526004016107e890615bba565b6001600160a01b0386166000908152600e60205260409020546060820151613f04919061268b565b60a0830181905260208301826003811115613f2f57634e487b7160e01b600052602160045260246000fd5b6003811115613f4e57634e487b7160e01b600052602160045260246000fd5b9052506000905081602001516003811115613f7957634e487b7160e01b600052602160045260246000fd5b14613f965760405162461bcd60e51b81526004016107e890615844565b6080810151600d5560a08101516001600160a01b0387166000908152600e6020526040908190209190915560c0820151606083015191517f4c209b5fc8ad50758f13e2e1088ba56a560dff690a1c6fef26394f4c03821c4f92613ffd928a929091906153a5565b60405180910390a1856001600160a01b0316306001600160a01b03167fddf252ad1be2c89b69c2b068fc378daa952ba7f163c4a11628f55a4df523b3ef836060015160405161404c9190615d8c565b60405180910390a360c001516000969095509350505050565b6000670de0b6b3a764000061407e848460000151614b6d565b610d079190615dfa565b6000610d0783836040518060400160405280601581526020017f7375627472616374696f6e20756e646572666c6f770000000000000000000000815250614baf565b6000806140d78484614bde565b9050610bae8161338a565b6000610d0783836040518060400160405280601181526020017f6164646974696f6e206f766572666c6f77000000000000000000000000000000815250614c08565b6005546040517fda3d454c00000000000000000000000000000000000000000000000000000000815260009182916001600160a01b039091169063da3d454c90614176903090889088906004016152db565b602060405180830381600087803b15801561419057600080fd5b505af11580156141a4573d6000803e3d6000fd5b505050506040513d601f19601f820116820180604052508101906141c89190615215565b905080156141e5576141dd6003600e836125f0565b91505061079d565b6141ed61239c565b60095414614200576141dd600a806120a3565b82614209611f9a565b101561421b576141dd600e60096120a3565b614223614e67565b61422c856122c1565b602083018190528282600381111561425457634e487b7160e01b600052602160045260246000fd5b600381111561427357634e487b7160e01b600052602160045260246000fd5b905250600090508151600381111561429b57634e487b7160e01b600052602160045260246000fd5b146142d4576142cb60096007836000015160038111156112c157634e487b7160e01b600052602160045260246000fd5b9250505061079d565b6142e281602001518561268b565b604083018190528282600381111561430a57634e487b7160e01b600052602160045260246000fd5b600381111561432957634e487b7160e01b600052602160045260246000fd5b905250600090508151600381111561435157634e487b7160e01b600052602160045260246000fd5b14614381576142cb6009600c836000015160038111156112c157634e487b7160e01b600052602160045260246000fd5b61438d600b548561268b565b60608301819052828260038111156143b557634e487b7160e01b600052602160045260246000fd5b60038111156143d457634e487b7160e01b600052602160045260246000fd5b90525060009050815160038111156143fc57634e487b7160e01b600052602160045260246000fd5b1461442c576142cb6009600b836000015160038111156112c157634e487b7160e01b600052602160045260246000fd5b614436858561345a565b604080820180516001600160a01b03881660009081526010602052839020908155600a546001909101556060830151600b819055905191517f13ed6866d4e1ee6da46f845c46d7e54120883d75c5ea9a2dacc1c4ca8984ab809261449f928992899291906153c6565b60405180910390a1600095945050505050565b6005546040517f5fc7e71e000000000000000000000000000000000000000000000000000000008152600091829182916001600160a01b031690635fc7e71e9061450890309088908c908c908c9060040161527e565b602060405180830381600087803b15801561452257600080fd5b505af1158015614536573d6000803e3d6000fd5b505050506040513d601f19601f8201168201806040525081019061455a9190615215565b9050801561457b5761456f60036012836125f0565b6000925092505061494d565b61458361239c565b600954146145975761456f600a60166120a3565b61459f61239c565b846001600160a01b0316636c540baf6040518163ffffffff1660e01b815260040160206040518083038186803b1580156145d857600080fd5b505afa1580156145ec573d6000803e3d6000fd5b505050506040513d601f19601f820116820180604052508101906146109190615215565b146146215761456f600a60116120a3565b866001600160a01b0316866001600160a01b031614156146475761456f600660176120a3565b846146585761456f600760156120a3565b60001985141561466e5761456f600760146120a3565b60008061467c898989612e95565b909250905081156146bf576146b18260108111156146aa57634e487b7160e01b600052602160045260246000fd5b60186120a3565b60009450945050505061494d565b6005546040517fc488847b00000000000000000000000000000000000000000000000000000000815260009182916001600160a01b039091169063c488847b906147119030908c9088906004016152db565b604080518083038186803b15801561472857600080fd5b505afa15801561473c573d6000803e3d6000fd5b505050506040513d601f19601f82011682018060405250810190614760919061522d565b909250905081156147835760405162461bcd60e51b81526004016107e890615a5d565b6040516370a0823160e01b815281906001600160a01b038a16906370a08231906147b1908e90600401615250565b60206040518083038186803b1580156147c957600080fd5b505afa1580156147dd573d6000803e3d6000fd5b505050506040513d601f19601f820116820180604052508101906148019190615215565b101561481f5760405162461bcd60e51b81526004016107e890615af1565b60006001600160a01b0389163014156148455761483e308d8d85612724565b90506148e3565b6040517fb2a02ff10000000000000000000000000000000000000000000000000000000081526001600160a01b038a169063b2a02ff19061488e908f908f9087906004016152db565b602060405180830381600087803b1580156148a857600080fd5b505af11580156148bc573d6000803e3d6000fd5b505050506040513d601f19601f820116820180604052508101906148e09190615215565b90505b80156149015760405162461bcd60e51b81526004016107e890615d08565b7f298637f684da70674f26509b10f07ec2fbc77a335ab1e7d6215a4b2484d8bb528c8c868c866040516149389594939291906152ff565b60405180910390a16000975092955050505050505b94509492505050565b6011546040516370a0823160e01b81526000916001600160a01b031690829082906370a082319061498b903090600401615250565b60206040518083038186803b1580156149a357600080fd5b505afa1580156149b7573d6000803e3d6000fd5b505050506040513d601f19601f820116820180604052508101906149db9190615215565b6040517f23b872dd0000000000000000000000000000000000000000000000000000000081529091506001600160a01b038316906323b872dd90614a27908890309089906004016152db565b600060405180830381600087803b158015614a4157600080fd5b505af1158015614a55573d6000803e3d6000fd5b5050505060003d60008114614a715760208114614a7b57600080fd5b6000199150614a87565b60206000803e60005191505b5080614aa55760405162461bcd60e51b81526004016107e8906154de565b6011546040516370a0823160e01b81526000916001600160a01b0316906370a0823190614ad6903090600401615250565b60206040518083038186803b158015614aee57600080fd5b505afa158015614b02573d6000803e3d6000fd5b505050506040513d601f19601f82011682018060405250810190614b269190615215565b905082811015614b485760405162461bcd60e51b81526004016107e890615606565b614b528382615e39565b979650505050505050565b600080600080611f498686614c39565b6000610d0783836040518060400160405280601781526020017f6d756c7469706c69636174696f6e206f766572666c6f77000000000000000000815250614cac565b60008184841115614bd35760405162461bcd60e51b81526004016107e891906153f7565b50610bae8385615e39565b614be6614d83565b6040518060200160405280614bff856000015185614b6d565b90529392505050565b600080614c158486615de2565b90508285821015610b075760405162461bcd60e51b81526004016107e891906153f7565b6000614c43614d83565b600080614c58670de0b6b3a764000087613b65565b90925090506000826003811115614c7f57634e487b7160e01b600052602160045260246000fd5b14614c9e57506040805160208101909152600081529092509050611f93565b611f8c8186600001516132b1565b6000831580614cb9575082155b15614cc657506000610d07565b6000614cd28486615e1a565b905083614cdf8683615dfa565b148390610b075760405162461bcd60e51b81526004016107e891906153f7565b828054614d0b90615e50565b90600052602060002090601f016020900481019282614d2d5760008555614d73565b82601f10614d4657805160ff1916838001178555614d73565b82800160010185558215614d73579182015b82811115614d73578251825591602001919060010190614d58565b50614d7f929150614e90565b5090565b6040518060200160405280600081525090565b604080516101208101909152806000815260200160008152602001600081526020016000815260200160008152602001600081526020016000815260200160008152602001600081525090565b6040805161010081019091528060008152602001600081526020016000815260200160008152602001600081526020016000815260200160008152602001600081525090565b6040805160e0810190915280600081526020016000815260200160008152602001600081526020016000815260200160008152602001600081525090565b604080516080810190915280600081526020016000815260200160008152602001600081525090565b5b80821115614d7f5760008155600101614e91565b600067ffffffffffffffff80841115614ec057614ec0615ea1565b604051601f8501601f191681016020018281118282101715614ee457614ee4615ea1565b604052848152915081838501861015614efc57600080fd5b8484602083013760006020868301015250509392505050565b600082601f830112614f25578081fd5b610d0783833560208501614ea5565b803560ff811681146107b457600080fd5b600060208284031215614f56578081fd5b8135610d0781615eb7565b60008060408385031215614f73578081fd5b8235614f7e81615eb7565b91506020830135614f8e81615eb7565b809150509250929050565b600080600060608486031215614fad578081fd5b8335614fb881615eb7565b92506020840135614fc881615eb7565b929592945050506040919091013590565b600080600080600080600060e0888a031215614ff3578283fd5b8735614ffe81615eb7565b9650602088013561500e81615eb7565b9550604088013561501e81615eb7565b945060608801359350608088013567ffffffffffffffff80821115615041578485fd5b61504d8b838c01614f15565b945060a08a0135915080821115615062578384fd5b5061506f8a828b01614f15565b92505061507e60c08901614f34565b905092959891949750929550565b6000806040838503121561509e578182fd5b82356150a981615eb7565b946020939093013593505050565b6000806000606084860312156150cb578283fd5b83356150d681615eb7565b92506020840135915060408401356150ed81615eb7565b809150509250925092565b600060208284031215615109578081fd5b81518015158114610d07578182fd5b600060208284031215615129578081fd5b813567ffffffffffffffff81111561513f578182fd5b8201601f8101841361514f578182fd5b610bae84823560208401614ea5565b60008060008060008060c08789031215615176578182fd5b863561518181615eb7565b9550602087013561519181615eb7565b945060408701359350606087013567ffffffffffffffff808211156151b4578384fd5b6151c08a838b01614f15565b945060808901359150808211156151d5578384fd5b506151e289828a01614f15565b9250506151f160a08801614f34565b90509295509295509295565b60006020828403121561520e578081fd5b5035919050565b600060208284031215615226578081fd5b5051919050565b6000806040838503121561523f578182fd5b505080516020909101519092909150565b6001600160a01b0391909116815260200190565b6001600160a01b0392831681529116602082015260400190565b6001600160a01b039586168152938516602085015291841660408401529092166060820152608081019190915260a00190565b6001600160a01b039485168152928416602084015292166040820152606081019190915260800190565b6001600160a01b039384168152919092166020820152604081019190915260600190565b6001600160a01b039586168152938516602085015260408401929092529092166060820152608081019190915260a00190565b6001600160a01b0394851681529290931660208301526040820152606081019190915260800190565b6001600160a01b03958616815293909416602084015260408301919091526060820152608081019190915260a00190565b6001600160a01b03929092168252602082015260400190565b6001600160a01b039390931683526020830191909152604082015260600190565b6001600160a01b0394909416845260208401929092526040830152606082015260800190565b901515815260200190565b6000602080835283518082850152825b8181101561542357858101830151858201604001528201615407565b818111156154345783604083870101525b50601f01601f1916929092016040019392505050565b60208082526016908201527f61636372756520696e746572657374206661696c656400000000000000000000604082015260600190565b60208082526024908201527f6f6e6c792061646d696e206d617920696e697469616c697a6520746865206d6160408201527f726b657400000000000000000000000000000000000000000000000000000000606082015260800190565b60208082526018908201527f544f4b454e5f5452414e534645525f494e5f4641494c45440000000000000000604082015260600190565b6020808252601f908201527f62616c616e636520636f756c64206e6f742062652063616c63756c6174656400604082015260600190565b60208082526023908201527f6d61726b6574206d6179206f6e6c7920626520696e697469616c697a6564206f60408201527f6e63650000000000000000000000000000000000000000000000000000000000606082015260800190565b60208082526032908201527f4345726332303a3a7377656570546f6b656e3a2063616e206e6f74207377656560408201527f7020756e6465726c79696e6720746f6b656e0000000000000000000000000000606082015260800190565b6020808252601a908201527f544f4b454e5f5452414e534645525f494e5f4f564552464c4f57000000000000604082015260600190565b6020808252818101527f61646420726573657276657320756e6578706563746564206f766572666c6f77604082015260600190565b60208082526019908201527f544f4b454e5f5452414e534645525f4f55545f4641494c454400000000000000604082015260600190565b60208082526030908201527f696e697469616c2065786368616e67652072617465206d75737420626520677260408201527f6561746572207468616e207a65726f2e00000000000000000000000000000000606082015260800190565b6020808252602d908201527f6f6e6c79207468652061646d696e206d6179207365742074686520636f6d702d60408201527f6c696b652064656c656761746500000000000000000000000000000000000000606082015260800190565b60208082526022908201527f73657474696e6720696e7465726573742072617465206d6f64656c206661696c60408201527f6564000000000000000000000000000000000000000000000000000000000000606082015260800190565b6020808252602d908201527f6f6e6c79207468652061646d696e206d61792063616c6c205f72657369676e4960408201526c36b83632b6b2b73a30ba34b7b760991b606082015260800190565b6020808252601c908201527f6d61726b6572206d6574686f642072657475726e65642066616c736500000000604082015260600190565b6020808252602b908201527f4d494e545f4e45575f4143434f554e545f42414c414e43455f43414c43554c4160408201527f54494f4e5f4641494c4544000000000000000000000000000000000000000000606082015260800190565b60208082526037908201527f626f72726f7742616c616e636553746f7265643a20626f72726f7742616c616e60408201527f636553746f726564496e7465726e616c206661696c6564000000000000000000606082015260800190565b6020808252600a908201527f72652d656e746572656400000000000000000000000000000000000000000000604082015260600190565b6020808252601c908201527f626f72726f772072617465206973206162737572646c79206869676800000000604082015260600190565b6020808252603a908201527f52455041595f424f52524f575f4e45575f4143434f554e545f424f52524f575f60408201527f42414c414e43455f43414c43554c4154494f4e5f4641494c4544000000000000606082015260800190565b6020808252601f908201527f636f756c64206e6f742063616c63756c61746520626c6f636b2064656c746100604082015260600190565b60208082526031908201527f52455041595f424f52524f575f4e45575f544f54414c5f42414c414e43455f4360408201527f414c43554c4154494f4e5f4641494c4544000000000000000000000000000000606082015260800190565b60208082526033908201527f4c49515549444154455f434f4d5054524f4c4c45525f43414c43554c4154455f60408201527f414d4f554e545f5345495a455f4641494c454400000000000000000000000000606082015260800190565b6020808252601a908201527f73657474696e6720636f6d7074726f6c6c6572206661696c6564000000000000604082015260600190565b60208082526018908201527f4c49515549444154455f5345495a455f544f4f5f4d5543480000000000000000604082015260600190565b6020808252818101527f4d494e545f45584348414e47455f43414c43554c4154494f4e5f4641494c4544604082015260600190565b60208082526035908201527f65786368616e67655261746553746f7265643a2065786368616e67655261746560408201527f53746f726564496e7465726e616c206661696c65640000000000000000000000606082015260800190565b60208082526028908201527f4d494e545f4e45575f544f54414c5f535550504c595f43414c43554c4154494f60408201527f4e5f4641494c4544000000000000000000000000000000000000000000000000606082015260800190565b60208082526034908201527f6f6e65206f662072656465656d546f6b656e73496e206f722072656465656d4160408201527f6d6f756e74496e206d757374206265207a65726f000000000000000000000000606082015260800190565b60208082526024908201527f72656475636520726573657276657320756e657870656374656420756e64657260408201527f666c6f7700000000000000000000000000000000000000000000000000000000606082015260800190565b60208082526018908201527f65786368616e67652072617465206d617468206572726f720000000000000000604082015260600190565b60208082526014908201527f746f6b656e207365697a757265206661696c6564000000000000000000000000604082015260600190565b6020808252602d908201527f6f6e6c79207468652061646d696e206d61792063616c6c205f6265636f6d654960408201526c36b83632b6b2b73a30ba34b7b760991b606082015260800190565b90815260200190565b918252602082015260400190565b9283526020830191909152604082015260600190565b93845260208401929092526040830152606082015260800190565b60ff91909116815260200190565b60008219821115615df557615df5615e8b565b500190565b600082615e1557634e487b7160e01b81526012600452602481fd5b500490565b6000816000190483118215151615615e3457615e34615e8b565b500290565b600082821015615e4b57615e4b615e8b565b500390565b600281046001821680615e6457607f821691505b60208210811415615e8557634e487b7160e01b600052602260045260246000fd5b50919050565b634e487b7160e01b600052601160045260246000fd5b634e487b7160e01b600052604160045260246000fd5b6001600160a01b0381168114610d4357600080fdfea2646970667358221220c4c1dc924b2d85eefa0d7c2dd80ff859895c729984eb8a1fa9396c20b3f5b7d364736f6c6343000800003360806040523480156200001157600080fd5b506040516200260738038062002607833981016040819052620000349162000377565b60038054610100600160a81b0319163361010002179055604051620000a590839062000071908d908d908d908d908d908d908d90602401620004e7565b60408051601f198184030181529190526020810180516001600160e01b03908116631a31d46560e01b17909152620000ea16565b50620000b48260008362000169565b5050600380546001600160a01b0390921661010002610100600160a81b0319909216919091179055506200061295505050505050565b6060600080846001600160a01b031684604051620001099190620004af565b600060405180830381855af49150503d806000811462000146576040519150601f19603f3d011682016040523d82523d6000602084013e6200014b565b606091505b5091509150600082141562000161573d60208201fd5b949350505050565b60035461010090046001600160a01b03163314620001a45760405162461bcd60e51b81526004016200019b906200056c565b60405180910390fd5b8115620001e6576040805160048152602481019091526020810180516001600160e01b0390811663153ab50560e01b17909152620001e49190620002a116565b505b601280546001600160a01b038581166001600160a01b031983161790925560405191169062000253906200021f90849060240162000550565b60408051601f198184030181529190526020810180516001600160e01b03908116630adccee560e31b17909152620002a116565b506012546040517fd604de94d45953f9138079ec1b82d533cb2160c906d1076d1f7ed54befbca97a91620002939184916001600160a01b031690620004cd565b60405180910390a150505050565b601254606090620002bc906001600160a01b031683620000ea565b90505b919050565b80516001600160a01b0381168114620002bf57600080fd5b600082601f830112620002ed578081fd5b81516001600160401b03808211156200030a576200030a620005fc565b604051601f8301601f191681016020018281118282101715620003315762000331620005fc565b60405282815284830160200186101562000349578384fd5b6200035c836020830160208801620005c9565b95945050505050565b805160ff81168114620002bf57600080fd5b6000806000806000806000806000806101408b8d03121562000397578586fd5b620003a28b620002c4565b9950620003b260208c01620002c4565b9850620003c260408c01620002c4565b60608c015160808d015191995097506001600160401b0380821115620003e6578788fd5b620003f48e838f01620002dc565b975060a08d01519150808211156200040a578687fd5b620004188e838f01620002dc565b96506200042860c08e0162000365565b95506200043860e08e01620002c4565b9450620004496101008e01620002c4565b93506101208d015191508082111562000460578283fd5b506200046f8d828e01620002dc565b9150509295989b9194979a5092959850565b600081518084526200049b816020860160208601620005c9565b601f01601f19169290920160200192915050565b60008251620004c3818460208701620005c9565b9190910192915050565b6001600160a01b0392831681529116602082015260400190565b6001600160a01b0388811682528781166020830152861660408201526060810185905260e060808201819052600090620005249083018662000481565b82810360a084015262000538818662000481565b91505060ff831660c083015298975050505050505050565b60006020825262000565602083018462000481565b9392505050565b60208082526039908201527f43457263323044656c656761746f723a3a5f736574496d706c656d656e74617460408201527f696f6e3a2043616c6c6572206d7573742062652061646d696e00000000000000606082015260800190565b60005b83811015620005e6578181015183820152602001620005cc565b83811115620005f6576000848401525b50505050565b634e487b7160e01b600052604160045260246000fd5b611fe580620006226000396000f3fe60806040526004361061033f5760003560e01c806370a08231116101b0578063bd6d894d116100ec578063f2b3abbd11610095578063f851a4401161006f578063f851a4401461094b578063f8f9da2814610960578063fca7820b14610975578063fe9c44ae146109955761033f565b8063f2b3abbd146108f6578063f3fdb15a14610916578063f5e3c4621461092b5761033f565b8063db006a75116100c6578063db006a75146108a1578063dd62ed3e146108c1578063e9c714f2146108e15761033f565b8063bd6d894d1461083c578063c37f68e214610851578063c5ebeaec146108815761033f565b8063a0712d6811610159578063aa5af0fd11610133578063aa5af0fd146107d2578063ae9d70b0146107e7578063b2a02ff1146107fc578063b71d1a0c1461081c5761033f565b8063a0712d681461077d578063a6afed951461079d578063a9059cbb146107b25761033f565b80638f840ddd1161018a5780638f840ddd1461073357806395d89b411461074857806395dd91931461075d5761033f565b806370a08231146106de57806373acee98146106fe578063852a12e3146107135761033f565b80633af9e6691161027f578063555bcc4011610228578063601a0bf111610202578063601a0bf11461067f5780636752e7021461069f5780636c540baf146106b45780636f307dc3146106c95761033f565b8063555bcc40146106355780635c60da1b146106555780635fe3b5671461066a5761033f565b80634487152f116102595780634487152f146105e05780634576b5db1461060057806347bd3718146106205761033f565b80633af9e6691461058b5780633b1d21a2146105ab5780633e941010146105c05761033f565b806318160ddd116102ec57806323b872dd116102c657806323b872dd146105075780632608f818146105275780632678224714610547578063313ce567146105695761033f565b806318160ddd146104bb578063182df0f5146104d05780631be19560146104e55761033f565b80630e7527021161031d5780630e75270214610459578063173b99041461048657806317bfdfbc1461049b5761033f565b806306fdde03146103e15780630933c1ed1461040c578063095ea7b31461042c575b34156103665760405162461bcd60e51b815260040161035d90611dca565b60405180910390fd5b6012546040516000916001600160a01b0316906103869083903690611cf2565b600060405180830381855af49150503d80600081146103c1576040519150601f19603f3d011682016040523d82523d6000602084013e6103c6565b606091505b505090506040513d6000823e8180156103dd573d82f35b3d82fd5b3480156103ed57600080fd5b506103f66109aa565b6040516104039190611db7565b60405180910390f35b34801561041857600080fd5b506103f6610427366004611bc4565b610a38565b34801561043857600080fd5b5061044c610447366004611b3c565b610a57565b6040516104039190611dac565b34801561046557600080fd5b50610479610474366004611c61565b610ad6565b6040516104039190611e84565b34801561049257600080fd5b50610479610b52565b3480156104a757600080fd5b506104796104b6366004611a48565b610b58565b3480156104c757600080fd5b50610479610bb7565b3480156104dc57600080fd5b50610479610bbd565b3480156104f157600080fd5b50610505610500366004611a48565b610c29565b005b34801561051357600080fd5b5061044c610522366004611a9c565b610c89565b34801561053357600080fd5b50610479610542366004611b3c565b610d0b565b34801561055357600080fd5b5061055c610d82565b6040516104039190611d1e565b34801561057557600080fd5b5061057e610d91565b6040516104039190611ea8565b34801561059757600080fd5b506104796105a6366004611a48565b610d9a565b3480156105b757600080fd5b50610479610df9565b3480156105cc57600080fd5b506104796105db366004611c61565b610e49565b3480156105ec57600080fd5b506103f66105fb366004611bc4565b610ea8565b34801561060c57600080fd5b5061047961061b366004611a48565b610f7f565b34801561062c57600080fd5b50610479610fde565b34801561064157600080fd5b50610505610650366004611adc565b610fe4565b34801561066157600080fd5b5061055c611148565b34801561067657600080fd5b5061055c611157565b34801561068b57600080fd5b5061047961069a366004611c61565b611166565b3480156106ab57600080fd5b506104796111c5565b3480156106c057600080fd5b506104796111d0565b3480156106d557600080fd5b5061055c6111d6565b3480156106ea57600080fd5b506104796106f9366004611a48565b6111e5565b34801561070a57600080fd5b50610479611244565b34801561071f57600080fd5b5061047961072e366004611c61565b611294565b34801561073f57600080fd5b506104796112f3565b34801561075457600080fd5b506103f66112f9565b34801561076957600080fd5b50610479610778366004611a48565b611306565b34801561078957600080fd5b50610479610798366004611c61565b611365565b3480156107a957600080fd5b506104796113c4565b3480156107be57600080fd5b5061044c6107cd366004611b3c565b611414565b3480156107de57600080fd5b50610479611475565b3480156107f357600080fd5b5061047961147b565b34801561080857600080fd5b50610479610817366004611a9c565b6114cb565b34801561082857600080fd5b50610479610837366004611a48565b611544565b34801561084857600080fd5b506104796115a3565b34801561085d57600080fd5b5061087161086c366004611a48565b6115f3565b6040516104039493929190611e8d565b34801561088d57600080fd5b5061047961089c366004611c61565b61167d565b3480156108ad57600080fd5b506104796108bc366004611c61565b6116dc565b3480156108cd57600080fd5b506104796108dc366004611a64565b61173b565b3480156108ed57600080fd5b5061047961179c565b34801561090257600080fd5b50610479610911366004611a48565b6117ec565b34801561092257600080fd5b5061055c61184b565b34801561093757600080fd5b50610479610946366004611b67565b61185a565b34801561095757600080fd5b5061055c6118bd565b34801561096c57600080fd5b506104796118d1565b34801561098157600080fd5b50610479610990366004611c61565b611921565b3480156109a157600080fd5b5061044c611980565b600180546109b790611f38565b80601f01602080910402602001604051908101604052809291908181526020018280546109e390611f38565b8015610a305780601f10610a0557610100808354040283529160200191610a30565b820191906000526020600020905b815481529060010190602001808311610a1357829003601f168201915b505050505081565b601254606090610a51906001600160a01b031683611985565b92915050565b600080610ab88484604051602401610a70929190611d70565b60408051601f198184030181529190526020810180516001600160e01b03167f095ea7b300000000000000000000000000000000000000000000000000000000179052610a38565b905080806020019051810190610ace9190611ba8565b949350505050565b600080610b3583604051602401610aed9190611e84565b60408051601f198184030181529190526020810180516001600160e01b03167f0e75270200000000000000000000000000000000000000000000000000000000179052610a38565b905080806020019051810190610b4b9190611c79565b9392505050565b60085481565b600080610b3583604051602401610b6f9190611d1e565b60408051601f198184030181529190526020810180516001600160e01b03167f17bfdfbc00000000000000000000000000000000000000000000000000000000179052610a38565b600d5481565b6040805160048152602481019091526020810180516001600160e01b03167f182df0f5000000000000000000000000000000000000000000000000000000001790526000908190610c0d90610ea8565b905080806020019051810190610c239190611c79565b91505090565b610c8581604051602401610c3d9190611d1e565b60408051601f198184030181529190526020810180516001600160e01b03167f1be1956000000000000000000000000000000000000000000000000000000000179052610a38565b5050565b600080610cec858585604051602401610ca493929190611d4c565b60408051601f198184030181529190526020810180516001600160e01b03167f23b872dd00000000000000000000000000000000000000000000000000000000179052610a38565b905080806020019051810190610d029190611ba8565b95945050505050565b600080610d6c8484604051602401610d24929190611d70565b60408051601f198184030181529190526020810180516001600160e01b03167f2608f81800000000000000000000000000000000000000000000000000000000179052610a38565b905080806020019051810190610ace9190611c79565b6004546001600160a01b031681565b60035460ff1681565b600080610b3583604051602401610db19190611d1e565b60408051601f198184030181529190526020810180516001600160e01b03167f3af9e66900000000000000000000000000000000000000000000000000000000179052610a38565b6040805160048152602481019091526020810180516001600160e01b03167f3b1d21a2000000000000000000000000000000000000000000000000000000001790526000908190610c0d90610ea8565b600080610b3583604051602401610e609190611e84565b60408051601f198184030181529190526020810180516001600160e01b03167f3e94101000000000000000000000000000000000000000000000000000000000179052610a38565b6060600080306001600160a01b031684604051602401610ec89190611db7565b60408051601f198184030181529181526020820180516001600160e01b03167f0933c1ed0000000000000000000000000000000000000000000000000000000017905251610f169190611d02565b600060405180830381855afa9150503d8060008114610f51576040519150601f19603f3d011682016040523d82523d6000602084013e610f56565b606091505b50915091506000821415610f6b573d60208201fd5b80806020019051810190610ace9190611bf7565b600080610b3583604051602401610f969190611d1e565b60408051601f198184030181529190526020810180516001600160e01b03167f4576b5db00000000000000000000000000000000000000000000000000000000179052610a38565b600b5481565b60035461010090046001600160a01b031633146110135760405162461bcd60e51b815260040161035d90611e27565b8115611066576040805160048152602481019091526020810180516001600160e01b03167f153ab5050000000000000000000000000000000000000000000000000000000017905261106490610a38565b505b601280546001600160a01b038581167fffffffffffffffffffffffff00000000000000000000000000000000000000008316179092556040519116906110fc906110b4908490602401611db7565b60408051601f198184030181529190526020810180516001600160e01b03167f56e6772800000000000000000000000000000000000000000000000000000000179052610a38565b506012546040517fd604de94d45953f9138079ec1b82d533cb2160c906d1076d1f7ed54befbca97a9161113a9184916001600160a01b031690611d32565b60405180910390a150505050565b6012546001600160a01b031681565b6005546001600160a01b031681565b600080610b358360405160240161117d9190611e84565b60408051601f198184030181529190526020810180516001600160e01b03167f601a0bf100000000000000000000000000000000000000000000000000000000179052610a38565b666379da05b6000081565b60095481565b6011546001600160a01b031681565b600080610b35836040516024016111fc9190611d1e565b60408051601f198184030181529190526020810180516001600160e01b03167f70a0823100000000000000000000000000000000000000000000000000000000179052610ea8565b6040805160048152602481019091526020810180516001600160e01b03167f73acee98000000000000000000000000000000000000000000000000000000001790526000908190610c0d90610a38565b600080610b35836040516024016112ab9190611e84565b60408051601f198184030181529190526020810180516001600160e01b03167f852a12e300000000000000000000000000000000000000000000000000000000179052610a38565b600c5481565b600280546109b790611f38565b600080610b358360405160240161131d9190611d1e565b60408051601f198184030181529190526020810180516001600160e01b03167f95dd919300000000000000000000000000000000000000000000000000000000179052610ea8565b600080610b358360405160240161137c9190611e84565b60408051601f198184030181529190526020810180516001600160e01b03167fa0712d6800000000000000000000000000000000000000000000000000000000179052610a38565b6040805160048152602481019091526020810180516001600160e01b03167fa6afed95000000000000000000000000000000000000000000000000000000001790526000908190610c0d90610a38565b600080610ab8848460405160240161142d929190611d70565b60408051601f198184030181529190526020810180516001600160e01b03167fa9059cbb00000000000000000000000000000000000000000000000000000000179052610a38565b600a5481565b6040805160048152602481019091526020810180516001600160e01b03167fae9d70b0000000000000000000000000000000000000000000000000000000001790526000908190610c0d90610ea8565b60008061152e8585856040516024016114e693929190611d4c565b60408051601f198184030181529190526020810180516001600160e01b03167fb2a02ff100000000000000000000000000000000000000000000000000000000179052610a38565b905080806020019051810190610d029190611c79565b600080610b358360405160240161155b9190611d1e565b60408051601f198184030181529190526020810180516001600160e01b03167fb71d1a0c00000000000000000000000000000000000000000000000000000000179052610a38565b6040805160048152602481019091526020810180516001600160e01b03167fbd6d894d000000000000000000000000000000000000000000000000000000001790526000908190610c0d90610a38565b60008060008060006116578660405160240161160f9190611d1e565b60408051601f198184030181529190526020810180516001600160e01b03167fc37f68e200000000000000000000000000000000000000000000000000000000179052610ea8565b90508080602001905181019061166d9190611c91565b9450945094509450509193509193565b600080610b35836040516024016116949190611e84565b60408051601f198184030181529190526020810180516001600160e01b03167fc5ebeaec00000000000000000000000000000000000000000000000000000000179052610a38565b600080610b35836040516024016116f39190611e84565b60408051601f198184030181529190526020810180516001600160e01b03167fdb006a7500000000000000000000000000000000000000000000000000000000179052610a38565b600080610d6c8484604051602401611754929190611d32565b60408051601f198184030181529190526020810180516001600160e01b03167fdd62ed3e00000000000000000000000000000000000000000000000000000000179052610ea8565b6040805160048152602481019091526020810180516001600160e01b03167fe9c714f2000000000000000000000000000000000000000000000000000000001790526000908190610c0d90610a38565b600080610b35836040516024016118039190611d1e565b60408051601f198184030181529190526020810180516001600160e01b03167ff2b3abbd00000000000000000000000000000000000000000000000000000000179052610a38565b6006546001600160a01b031681565b60008061152e85858560405160240161187593929190611d89565b60408051601f198184030181529190526020810180516001600160e01b03167ff5e3c46200000000000000000000000000000000000000000000000000000000179052610a38565b60035461010090046001600160a01b031681565b6040805160048152602481019091526020810180516001600160e01b03167ff8f9da28000000000000000000000000000000000000000000000000000000001790526000908190610c0d90610ea8565b600080610b35836040516024016119389190611e84565b60408051601f198184030181529190526020810180516001600160e01b03167ffca7820b00000000000000000000000000000000000000000000000000000000179052610a38565b600181565b6060600080846001600160a01b0316846040516119a29190611d02565b600060405180830381855af49150503d80600081146119dd576040519150601f19603f3d011682016040523d82523d6000602084013e6119e2565b606091505b50915091506000821415610ace573d60208201fd5b600082601f830112611a07578081fd5b8135611a1a611a1582611ee0565b611eb6565b818152846020838601011115611a2e578283fd5b816020850160208301379081016020019190915292915050565b600060208284031215611a59578081fd5b8135610b4b81611f89565b60008060408385031215611a76578081fd5b8235611a8181611f89565b91506020830135611a9181611f89565b809150509250929050565b600080600060608486031215611ab0578081fd5b8335611abb81611f89565b92506020840135611acb81611f89565b929592945050506040919091013590565b600080600060608486031215611af0578283fd5b8335611afb81611f89565b92506020840135611b0b81611fa1565b9150604084013567ffffffffffffffff811115611b26578182fd5b611b32868287016119f7565b9150509250925092565b60008060408385031215611b4e578182fd5b8235611b5981611f89565b946020939093013593505050565b600080600060608486031215611b7b578283fd5b8335611b8681611f89565b9250602084013591506040840135611b9d81611f89565b809150509250925092565b600060208284031215611bb9578081fd5b8151610b4b81611fa1565b600060208284031215611bd5578081fd5b813567ffffffffffffffff811115611beb578182fd5b610ace848285016119f7565b600060208284031215611c08578081fd5b815167ffffffffffffffff811115611c1e578182fd5b8201601f81018413611c2e578182fd5b8051611c3c611a1582611ee0565b818152856020838501011115611c50578384fd5b610d02826020830160208601611f08565b600060208284031215611c72578081fd5b5035919050565b600060208284031215611c8a578081fd5b5051919050565b60008060008060808587031215611ca6578182fd5b505082516020840151604085015160609095015191969095509092509050565b60008151808452611cde816020860160208601611f08565b601f01601f19169290920160200192915050565b6000828483379101908152919050565b60008251611d14818460208701611f08565b9190910192915050565b6001600160a01b0391909116815260200190565b6001600160a01b0392831681529116602082015260400190565b6001600160a01b039384168152919092166020820152604081019190915260600190565b6001600160a01b03929092168252602082015260400190565b6001600160a01b0393841681526020810192909252909116604082015260600190565b901515815260200190565b600060208252610b4b6020830184611cc6565b60208082526037908201527f43457263323044656c656761746f723a66616c6c6261636b3a2063616e6e6f7460408201527f2073656e642076616c756520746f2066616c6c6261636b000000000000000000606082015260800190565b60208082526039908201527f43457263323044656c656761746f723a3a5f736574496d706c656d656e74617460408201527f696f6e3a2043616c6c6572206d7573742062652061646d696e00000000000000606082015260800190565b90815260200190565b93845260208401929092526040830152606082015260800190565b60ff91909116815260200190565b60405181810167ffffffffffffffff81118282101715611ed857611ed8611f73565b604052919050565b600067ffffffffffffffff821115611efa57611efa611f73565b50601f01601f191660200190565b60005b83811015611f23578181015183820152602001611f0b565b83811115611f32576000848401525b50505050565b600281046001821680611f4c57607f821691505b60208210811415611f6d57634e487b7160e01b600052602260045260246000fd5b50919050565b634e487b7160e01b600052604160045260246000fd5b6001600160a01b0381168114611f9e57600080fd5b50565b8015158114611f9e57600080fdfea2646970667358221220bc9ffde83557e60299bd62b53da2813f359093ab27433502e75715a6ee9caf8364736f6c63430008000033",
  "linkReferences": {},
  "deployedLinkReferences": {}
}