{
  "_format": "hh-sol-artifact-1",
  "contractName": "SimplePriceOracle",
  "sourceName": "contracts/Oracle/SimplePriceOracle.sol",
  "abi": [
    {
      "anonymous": false,
      "inputs": [
        {
          "indexed": false,
          "internalType": "address",
          "name": "asset",
          "type": "address"
        },
        {
          "indexed": false,
          "internalType": "uint256",
          "name": "previousPriceMantissa",
          "type": "uint256"
        },
        {
          "indexed": false,
          "internalType": "uint256",
          "name": "requestedPriceMantissa",
          "type": "uint256"
        },
        {
          "indexed": false,
          "internalType": "uint256",
          "name": "newPriceMantissa",
          "type": "uint256"
        }
      ],
      "name": "PricePosted",
      "type": "event"
    },
    {
      "inputs": [
        {
          "internalType": "address",
          "name": "asset",
          "type": "address"
        }
      ],
      "name": "assetPrices",
      "outputs": [
        {
          "internalType": "uint256",
          "name": "",
          "type": "uint256"
        }
      ],
      "stateMutability": "view",
      "type": "function"
    },
    {
      "inputs": [
        {
          "internalType": "contract CToken",
          "name": "cToken",
          "type": "address"
        }
      ],
      "name": "getUnderlyingPrice",
      "outputs": [
        {
          "internalType": "uint256",
          "name": "",
          "type": "uint256"
        }
      ],
      "stateMutability": "view",
      "type": "function"
    },
    {
      "inputs": [],
      "name": "isPriceOracle",
      "outputs": [
        {
          "internalType": "bool",
          "name": "",
          "type": "bool"
        }
      ],
      "stateMutability": "view",
      "type": "function"
    },
    {
      "inputs": [
        {
          "internalType": "address",
          "name": "asset",
          "type": "address"
        },
        {
          "internalType": "uint256",
          "name": "price",
          "type": "uint256"
        }
      ],
      "name": "setDirectPrice",
      "outputs": [],
      "stateMutability": "nonpayable",
      "type": "function"
    },
    {
      "inputs": [
        {
          "internalType": "contract CToken",
          "name": "cToken",
          "type": "address"
        },
        {
          "internalType": "uint256",
          "name": "underlyingPriceMantissa",
          "type": "uint256"
        }
      ],
      "name": "setUnderlyingPrice",
      "outputs": [],
      "stateMutability": "nonpayable",
      "type": "function"
    }
  ],
  "bytecode": "0x608060405234801561001057600080fd5b506105f0806100206000396000f3fe608060405234801561001057600080fd5b50600436106100675760003560e01c80635e9a523c116100505780635e9a523c1461009457806366331bba146100bd578063fc57d4df146100d257610067565b806309a8acb01461006c578063127ffda014610081575b600080fd5b61007f61007a36600461040d565b6100e5565b005b61007f61008f366004610438565b610158565b6100a76100a23660046103ce565b6101d7565b6040516100b4919061053a565b60405180910390f35b6100c56101f2565b6040516100b4919061052f565b6100a76100e03660046103ce565b6101f7565b6001600160a01b038216600090815260208190526040908190205490517fdd71a1d19fcba687442a1d5c58578f1e409af71a79d10fd95a4d66efd8fa9ae7916101349185919085908190610509565b60405180910390a16001600160a01b03909116600090815260208190526040902055565b600061016383610225565b6001600160a01b038116600090815260208190526040908190205490519192507fdd71a1d19fcba687442a1d5c58578f1e409af71a79d10fd95a4d66efd8fa9ae7916101b491849186908190610509565b60405180910390a16001600160a01b031660009081526020819052604090205550565b6001600160a01b031660009081526020819052604090205490565b600181565b600080600061020584610225565b6001600160a01b0316815260208101919091526040016000205492915050565b6000806102db836001600160a01b03166395d89b416040518163ffffffff1660e01b815260040160006040518083038186803b15801561026457600080fd5b505afa158015610278573d6000803e3d6000fd5b505050506040513d6000823e601f3d908101601f191682016040526102a0919081019061044a565b6040518060400160405280600481526020017f6345544800000000000000000000000000000000000000000000000000000000815250610375565b156102fb575073eeeeeeeeeeeeeeeeeeeeeeeeeeeeeeeeeeeeeeee61036f565b826001600160a01b0316636f307dc36040518163ffffffff1660e01b815260040160206040518083038186803b15801561033457600080fd5b505afa158015610348573d6000803e3d6000fd5b505050506040513d601f19601f8201168201806040525081019061036c91906103f1565b90505b92915050565b60008160405160200161038891906104ed565b60405160208183030381529060405280519060200120836040516020016103af91906104ed565b6040516020818303038152906040528051906020012014905092915050565b6000602082840312156103df578081fd5b81356103ea816105a2565b9392505050565b600060208284031215610402578081fd5b81516103ea816105a2565b6000806040838503121561041f578081fd5b823561042a816105a2565b946020939093013593505050565b6000806040838503121561041f578182fd5b60006020828403121561045b578081fd5b815167ffffffffffffffff80821115610472578283fd5b818401915084601f830112610485578283fd5b81518181111561049757610497610573565b604051601f8201601f1916810160200183811182821017156104bb576104bb610573565b6040528181528382016020018710156104d2578485fd5b6104e3826020830160208701610543565b9695505050505050565b600082516104ff818460208701610543565b9190910192915050565b6001600160a01b0394909416845260208401929092526040830152606082015260800190565b901515815260200190565b90815260200190565b60005b8381101561055e578181015183820152602001610546565b8381111561056d576000848401525b50505050565b7f4e487b7100000000000000000000000000000000000000000000000000000000600052604160045260246000fd5b6001600160a01b03811681146105b757600080fd5b5056fea2646970667358221220c581f1faf40fb5e2999fcf56a4bbea3f37c67c9ffaf8d3c9425e3da01a1a4bae64736f6c63430008000033",
  "linkReferences": {},
  "deployedLinkReferences": {}
}