{
  "_format": "hh-sol-artifact-1",
  "contractName": "PriceOracleProxy",
  "sourceName": "contracts/Oracle/PriceOracleProxy.sol",
  "abi": [
    {
      "inputs": [
        {
          "internalType": "address",
          "name": "admin_",
          "type": "address"
        },
        {
          "internalType": "address",
          "name": "v1PriceOracle_",
          "type": "address"
        },
        {
          "internalType": "address",
          "name": "cEthAddress_",
          "type": "address"
        },
        {
          "internalType": "address",
          "name": "registry_",
          "type": "address"
        }
      ],
      "stateMutability": "nonpayable",
      "type": "constructor"
    },
    {
      "anonymous": false,
      "inputs": [
        {
          "indexed": false,
          "internalType": "address",
          "name": "tokenAddress",
          "type": "address"
        },
        {
          "indexed": false,
          "internalType": "address",
          "name": "base",
          "type": "address"
        },
        {
          "indexed": false,
          "internalType": "address",
          "name": "quote",
          "type": "address"
        },
        {
          "indexed": false,
          "internalType": "bool",
          "name": "isUsed",
          "type": "bool"
        }
      ],
      "name": "AggregatorUpdated",
      "type": "event"
    },
    {
      "anonymous": false,
      "inputs": [
        {
          "indexed": false,
          "internalType": "address",
          "name": "admin",
          "type": "address"
        }
      ],
      "name": "SetAdmin",
      "type": "event"
    },
    {
      "anonymous": false,
      "inputs": [
        {
          "indexed": false,
          "internalType": "address",
          "name": "guardian",
          "type": "address"
        }
      ],
      "name": "SetGuardian",
      "type": "event"
    },
    {
      "inputs": [],
      "name": "ARS",
      "outputs": [
        {
          "internalType": "address",
          "name": "",
          "type": "address"
        }
      ],
      "stateMutability": "view",
      "type": "function"
    },
    {
      "inputs": [],
      "name": "AUD",
      "outputs": [
        {
          "internalType": "address",
          "name": "",
          "type": "address"
        }
      ],
      "stateMutability": "view",
      "type": "function"
    },
    {
      "inputs": [],
      "name": "BRL",
      "outputs": [
        {
          "internalType": "address",
          "name": "",
          "type": "address"
        }
      ],
      "stateMutability": "view",
      "type": "function"
    },
    {
      "inputs": [],
      "name": "BTC",
      "outputs": [
        {
          "internalType": "address",
          "name": "",
          "type": "address"
        }
      ],
      "stateMutability": "view",
      "type": "function"
    },
    {
      "inputs": [],
      "name": "CAD",
      "outputs": [
        {
          "internalType": "address",
          "name": "",
          "type": "address"
        }
      ],
      "stateMutability": "view",
      "type": "function"
    },
    {
      "inputs": [],
      "name": "CHF",
      "outputs": [
        {
          "internalType": "address",
          "name": "",
          "type": "address"
        }
      ],
      "stateMutability": "view",
      "type": "function"
    },
    {
      "inputs": [],
      "name": "CNY",
      "outputs": [
        {
          "internalType": "address",
          "name": "",
          "type": "address"
        }
      ],
      "stateMutability": "view",
      "type": "function"
    },
    {
      "inputs": [],
      "name": "ETH",
      "outputs": [
        {
          "internalType": "address",
          "name": "",
          "type": "address"
        }
      ],
      "stateMutability": "view",
      "type": "function"
    },
    {
      "inputs": [],
      "name": "EUR",
      "outputs": [
        {
          "internalType": "address",
          "name": "",
          "type": "address"
        }
      ],
      "stateMutability": "view",
      "type": "function"
    },
    {
      "inputs": [],
      "name": "GBP",
      "outputs": [
        {
          "internalType": "address",
          "name": "",
          "type": "address"
        }
      ],
      "stateMutability": "view",
      "type": "function"
    },
    {
      "inputs": [],
      "name": "INR",
      "outputs": [
        {
          "internalType": "address",
          "name": "",
          "type": "address"
        }
      ],
      "stateMutability": "view",
      "type": "function"
    },
    {
      "inputs": [],
      "name": "JPY",
      "outputs": [
        {
          "internalType": "address",
          "name": "",
          "type": "address"
        }
      ],
      "stateMutability": "view",
      "type": "function"
    },
    {
      "inputs": [],
      "name": "KRW",
      "outputs": [
        {
          "internalType": "address",
          "name": "",
          "type": "address"
        }
      ],
      "stateMutability": "view",
      "type": "function"
    },
    {
      "inputs": [],
      "name": "NGN",
      "outputs": [
        {
          "internalType": "address",
          "name": "",
          "type": "address"
        }
      ],
      "stateMutability": "view",
      "type": "function"
    },
    {
      "inputs": [],
      "name": "NZD",
      "outputs": [
        {
          "internalType": "address",
          "name": "",
          "type": "address"
        }
      ],
      "stateMutability": "view",
      "type": "function"
    },
    {
      "inputs": [],
      "name": "PHP",
      "outputs": [
        {
          "internalType": "address",
          "name": "",
          "type": "address"
        }
      ],
      "stateMutability": "view",
      "type": "function"
    },
    {
      "inputs": [],
      "name": "RUB",
      "outputs": [
        {
          "internalType": "address",
          "name": "",
          "type": "address"
        }
      ],
      "stateMutability": "view",
      "type": "function"
    },
    {
      "inputs": [],
      "name": "SGD",
      "outputs": [
        {
          "internalType": "address",
          "name": "",
          "type": "address"
        }
      ],
      "stateMutability": "view",
      "type": "function"
    },
    {
      "inputs": [],
      "name": "USD",
      "outputs": [
        {
          "internalType": "address",
          "name": "",
          "type": "address"
        }
      ],
      "stateMutability": "view",
      "type": "function"
    },
    {
      "inputs": [],
      "name": "ZAR",
      "outputs": [
        {
          "internalType": "address",
          "name": "",
          "type": "address"
        }
      ],
      "stateMutability": "view",
      "type": "function"
    },
    {
      "inputs": [
        {
          "internalType": "address",
          "name": "_admin",
          "type": "address"
        }
      ],
      "name": "_setAdmin",
      "outputs": [],
      "stateMutability": "nonpayable",
      "type": "function"
    },
    {
      "inputs": [
        {
          "internalType": "address[]",
          "name": "tokenAddresses",
          "type": "address[]"
        },
        {
          "internalType": "address[]",
          "name": "bases",
          "type": "address[]"
        },
        {
          "internalType": "address[]",
          "name": "quotes",
          "type": "address[]"
        }
      ],
      "name": "_setAggregators",
      "outputs": [],
      "stateMutability": "nonpayable",
      "type": "function"
    },
    {
      "inputs": [
        {
          "internalType": "address",
          "name": "_guardian",
          "type": "address"
        }
      ],
      "name": "_setGuardian",
      "outputs": [],
      "stateMutability": "nonpayable",
      "type": "function"
    },
    {
      "inputs": [],
      "name": "admin",
      "outputs": [
        {
          "internalType": "address",
          "name": "",
          "type": "address"
        }
      ],
      "stateMutability": "view",
      "type": "function"
    },
    {
      "inputs": [
        {
          "internalType": "address",
          "name": "",
          "type": "address"
        }
      ],
      "name": "aggregators",
      "outputs": [
        {
          "internalType": "address",
          "name": "base",
          "type": "address"
        },
        {
          "internalType": "address",
          "name": "quote",
          "type": "address"
        },
        {
          "internalType": "bool",
          "name": "isUsed",
          "type": "bool"
        }
      ],
      "stateMutability": "view",
      "type": "function"
    },
    {
      "inputs": [
        {
          "internalType": "uint256",
          "name": "",
          "type": "uint256"
        }
      ],
      "name": "btcAddresses",
      "outputs": [
        {
          "internalType": "address",
          "name": "",
          "type": "address"
        }
      ],
      "stateMutability": "view",
      "type": "function"
    },
    {
      "inputs": [],
      "name": "cEthAddress",
      "outputs": [
        {
          "internalType": "address",
          "name": "",
          "type": "address"
        }
      ],
      "stateMutability": "view",
      "type": "function"
    },
    {
      "inputs": [],
      "name": "crXSushiAddress",
      "outputs": [
        {
          "internalType": "address",
          "name": "",
          "type": "address"
        }
      ],
      "stateMutability": "view",
      "type": "function"
    },
    {
      "inputs": [
        {
          "internalType": "contract CToken",
          "name": "cToken",
          "type": "address"
        }
      ],
      "name": "getUnderlyingPrice",
      "outputs": [
        {
          "internalType": "uint256",
          "name": "",
          "type": "uint256"
        }
      ],
      "stateMutability": "view",
      "type": "function"
    },
    {
      "inputs": [],
      "name": "guardian",
      "outputs": [
        {
          "internalType": "address",
          "name": "",
          "type": "address"
        }
      ],
      "stateMutability": "view",
      "type": "function"
    },
    {
      "inputs": [],
      "name": "isPriceOracle",
      "outputs": [
        {
          "internalType": "bool",
          "name": "",
          "type": "bool"
        }
      ],
      "stateMutability": "view",
      "type": "function"
    },
    {
      "inputs": [],
      "name": "registry",
      "outputs": [
        {
          "internalType": "contract FeedRegistryInterface",
          "name": "",
          "type": "address"
        }
      ],
      "stateMutability": "view",
      "type": "function"
    },
    {
      "inputs": [],
      "name": "sushiAddress",
      "outputs": [
        {
          "internalType": "address",
          "name": "",
          "type": "address"
        }
      ],
      "stateMutability": "view",
      "type": "function"
    },
    {
      "inputs": [],
      "name": "usdcAddress",
      "outputs": [
        {
          "internalType": "address",
          "name": "",
          "type": "address"
        }
      ],
      "stateMutability": "view",
      "type": "function"
    },
    {
      "inputs": [],
      "name": "wethAddress",
      "outputs": [
        {
          "internalType": "address",
          "name": "",
          "type": "address"
        }
      ],
      "stateMutability": "view",
      "type": "function"
    },
    {
      "inputs": [],
      "name": "xSushiExRateAddress",
      "outputs": [
        {
          "internalType": "address",
          "name": "",
          "type": "address"
        }
      ],
      "stateMutability": "view",
      "type": "function"
    }
  ],
  "bytecode": "0x610140604052732260fac5e5542a773aa44fbcfedf7c193bc2c599608090815273eb4c2781e4eba804ce9a9803c67d0893436bb27d60a052739be89d2a4cd102d8fecc6bf9da793be995c2254160c052738daebade922df735c38c80c7ebd708af50815faa60e052730316eb71485b0ab14103307bf65a021042c6d3806101005273c4e15973e6ff2a35cc804c2cf9d2a1b817a8b40f61012052620000a99060049060066200011f565b50348015620000b757600080fd5b50604051620020aa380380620020aa833981016040819052620000da91620001b0565b600080546001600160a01b039586166001600160a01b031991821617909155600a8054938616938216939093179092556002805491909416911617909155506200020c565b82600681019282156200016a579160200282015b828111156200016a57825182546001600160a01b0319166001600160a01b0390911617825560209092019160019091019062000133565b50620001789291506200017c565b5090565b5b808211156200017857600081556001016200017d565b80516001600160a01b0381168114620001ab57600080fd5b919050565b60008060008060808587031215620001c6578384fd5b620001d18562000193565b9350620001e16020860162000193565b9250620001f16040860162000193565b9150620002016060860162000193565b905092959194509250565b611e8e806200021c6000396000f3fe608060405234801561001057600080fd5b506004361061025c5760003560e01c806366331bba11610145578063ca9d1a72116100bd578063efaa41341161008c578063f851a44011610071578063f851a440146103d4578063fc57d4df146103dc578063fd760c49146103fc5761025c565b8063efaa4134146103c4578063f37fcc42146103cc5761025c565b8063ca9d1a7214610399578063d9355bb8146103a1578063e38e8c0f146103a9578063e774928e146103bc5761025c565b8063976d5e7711610114578063a3641360116100f9578063a36413601461036b578063a4a235951461037e578063ae6a04d4146103865761025c565b8063976d5e771461035b5780639db2a472146103635761025c565b806366331bba1461032e5780636b09583c146103435780637b1039991461034b5780638322fff2146103535761025c565b8063294a2bf2116101d8578063452a9320116101a75780634f0e0ef31161018c5780634f0e0ef31461031657806353f7c3671461031e57806356ef4514146103265761025c565b8063452a932014610306578063465bd0a31461030e5761025c565b8063294a2bf2146102d95780632e79477f146102e15780632ed58e15146102e95780633a74a767146102f15761025c565b8063112cdab91161022f57806319342a641161021457806319342a64146102c15780631bf6c21b146102c95780632792949d146102d15761025c565b8063112cdab91461029757806315b102e3146102b95761025c565b806301b8b3391461026157806302d454571461027f57806303d698f2146102875780630c0128341461028f575b600080fd5b610269610404565b6040516102769190611898565b60405180910390f35b61026961040a565b610269610422565b610269610428565b6102aa6102a536600461165d565b61042d565b604051610276939291906118f0565b61026961045f565b610269610477565b61026961047c565b610269610482565b61026961049a565b6102696104a0565b6102696104a6565b6103046102ff36600461165d565b6104b5565b005b610269610551565b610269610560565b610269610566565b61026961057e565b610269610584565b61033661058a565b6040516102769190611914565b61026961058f565b610269610595565b6102696105a4565b6102696105bc565b6102696105c2565b610269610379366004611799565b6105c8565b6102696105e8565b610304610394366004611695565b6105ed565b610269610b86565b610269610b8c565b6103046103b736600461165d565b610ba4565b610269610c2c565b610269610c32565b610269610c4a565b610269610c50565b6103ef6103ea36600461165d565b610c5f565b6040516102769190611c9c565b610269610d13565b61033a81565b73a0b86991c6218b36c1d19d4a2e9eb0ce3606eb4881565b61023681565b602081565b600360205260009081526040902080546001909101546001600160a01b0391821691811690600160a01b900460ff1683565b73851a040fc0dcbb13a272ebc272f2bc2ce1e11c4d81565b607c81565b61034881565b73bbbbbbbbbbbbbbbbbbbbbbbbbbbbbbbbbbbbbbbb81565b6103d281565b6102be81565b600a546001600160a01b031681565b6000546001600160a01b031633146104e85760405162461bcd60e51b81526004016104df906119a9565b60405180910390fd5b6000805473ffffffffffffffffffffffffffffffffffffffff19166001600160a01b0383811691909117918290556040517f5a272403b402d892977df56625f4164ccaf70ca3863991c43ecfe76a6905b0a192610546921690611898565b60405180910390a150565b6001546001600160a01b031681565b61018881565b73c02aaa39b223fe8d0a0e5c4f27ead9083c756cc281565b61026081565b61019a81565b600181565b6103da81565b6002546001600160a01b031681565b73eeeeeeeeeeeeeeeeeeeeeeeeeeeeeeeeeeeeeeee81565b61028381565b6102c681565b600481600681106105d857600080fd5b01546001600160a01b0316905081565b609c81565b6000546001600160a01b031633148061061057506001546001600160a01b031633145b61062c5760405162461bcd60e51b81526004016104df90611a4c565b848314801561063a57508481145b6106565760405162461bcd60e51b81526004016104df906119de565b60005b85811015610b7d5760008086868481811061068457634e487b7160e01b600052603260045260246000fd5b9050602002016020810190610699919061165d565b6001600160a01b031614610931576000546001600160a01b031633146106d15760405162461bcd60e51b81526004016104df90611c3f565b73eeeeeeeeeeeeeeeeeeeeeeeeeeeeeeeeeeeeeeee84848481811061070657634e487b7160e01b600052603260045260246000fd5b905060200201602081019061071b919061165d565b6001600160a01b0316148061076e575061034884848481811061074e57634e487b7160e01b600052603260045260246000fd5b9050602002016020810190610763919061165d565b6001600160a01b0316145b61078a5760405162461bcd60e51b81526004016104df90611b9a565b506002546001906000906001600160a01b031663d2edb6dd8888868181106107c257634e487b7160e01b600052603260045260246000fd5b90506020020160208101906107d7919061165d565b8787878181106107f757634e487b7160e01b600052603260045260246000fd5b905060200201602081019061080c919061165d565b6040518363ffffffff1660e01b81526004016108299291906118ac565b60206040518083038186803b15801561084157600080fd5b505afa158015610855573d6000803e3d6000fd5b505050506040513d601f19601f820116820180604052508101906108799190611679565b6002546040517fb099d43b0000000000000000000000000000000000000000000000000000000081529192506001600160a01b03169063b099d43b906108c3908490600401611898565b60206040518083038186803b1580156108db57600080fd5b505afa1580156108ef573d6000803e3d6000fd5b505050506040513d601f19601f82011682018060405250810190610913919061172b565b61092f5760405162461bcd60e51b81526004016104df90611972565b505b604051806060016040528087878581811061095c57634e487b7160e01b600052603260045260246000fd5b9050602002016020810190610971919061165d565b6001600160a01b0316815260200185858581811061099f57634e487b7160e01b600052603260045260246000fd5b90506020020160208101906109b4919061165d565b6001600160a01b03168152602001821515815250600360008a8a868181106109ec57634e487b7160e01b600052603260045260246000fd5b9050602002016020810190610a01919061165d565b6001600160a01b03908116825260208083019390935260409182016000208451815490831673ffffffffffffffffffffffffffffffffffffffff19918216178255938501516001909101805495909301511515600160a01b027fffffffffffffffffffffff00ffffffffffffffffffffffffffffffffffffffff919092169490931693909317919091169190911790557f1ce411df4a158aa72e588cc62a13841fd7f7e644f81b10b60b90cb97b9017fa7888884818110610ad257634e487b7160e01b600052603260045260246000fd5b9050602002016020810190610ae7919061165d565b878785818110610b0757634e487b7160e01b600052603260045260246000fd5b9050602002016020810190610b1c919061165d565b868686818110610b3c57634e487b7160e01b600052603260045260246000fd5b9050602002016020810190610b51919061165d565b84604051610b6294939291906118c6565b60405180910390a15080610b7581611e0f565b915050610659565b50505050505050565b61022a81565b73228619cca194fbe3ebeb2f835ec1ea5080dafbb281565b6000546001600160a01b03163314610bce5760405162461bcd60e51b81526004016104df90611aa9565b6001805473ffffffffffffffffffffffffffffffffffffffff19166001600160a01b0383811691909117918290556040517f31845eceb9cde510c7e8b37f76301c688feb70bc9653aa4c28a3734999840fd892610546921690611898565b61016481565b736b3595068778dd592e39a122f4f5a5cf09c90fe281565b6102f481565b6000546001600160a01b031681565b600a5460009082906001600160a01b0380831691161415610c8b57670de0b6b3a7640000915050610d0e565b6000816001600160a01b0316636f307dc36040518163ffffffff1660e01b815260040160206040518083038186803b158015610cc657600080fd5b505afa158015610cda573d6000803e3d6000fd5b505050506040513d601f19601f82011682018060405250810190610cfe9190611679565b9050610d0981610d18565b925050505b919050565b602481565b60006001600160a01b03821673c02aaa39b223fe8d0a0e5c4f27ead9083c756cc21415610d4e5750670de0b6b3a7640000610d0e565b6001600160a01b03828116600090815260036020908152604091829020825160608101845281548516815260019091015493841691810191909152600160a01b90920460ff1615801591830191909152610e92576000610db682600001518360200151610ea2565b60208301519091506001600160a01b03166103481415610df157610dee816040518060200160405280610de7611021565b9052611055565b90505b6000846001600160a01b031663313ce5676040518163ffffffff1660e01b815260040160206040518083038186803b158015610e2c57600080fd5b505afa158015610e40573d6000803e3d6000fd5b505050506040513d601f19601f82011682018060405250810190610e649190611800565b60ff169050610e8882610e78836012611df8565b610e8390600a611d0b565b611078565b9350505050610d0e565b610e9b836110ba565b9392505050565b6002546040517fbcfd032d00000000000000000000000000000000000000000000000000000000815260009182916001600160a01b039091169063bcfd032d90610ef290879087906004016118ac565b60a06040518083038186803b158015610f0a57600080fd5b505afa158015610f1e573d6000803e3d6000fd5b505050506040513d601f19601f82011682018060405250810190610f4291906117b1565b50505091505060008113610f685760405162461bcd60e51b81526004016104df90611a15565b6002546040517f58e2d3a80000000000000000000000000000000000000000000000000000000081526110179183916001600160a01b03909116906358e2d3a890610fb990899089906004016118ac565b60206040518083038186803b158015610fd157600080fd5b505afa158015610fe5573d6000803e3d6000fd5b505050506040513d601f19601f820116820180604052508101906110099190611800565b610e789060ff166012611df8565b9150505b92915050565b600064e8d4a5100061104673a0b86991c6218b36c1d19d4a2e9eb0ce3606eb48610d18565b6110509190611ca5565b905090565b6000670de0b6b3a764000061106e848460000151611078565b610e9b9190611ca5565b6000610e9b83836040518060400160405280601781526020017f6d756c7469706c69636174696f6e206f766572666c6f7700000000000000000081525061110a565b60008060006110dd8473c02aaa39b223fe8d0a0e5c4f27ead9083c756cc2611166565b9150915060006110eb611021565b9050611101836110fb848461124b565b9061128d565b95945050505050565b6000831580611117575082155b1561112457506000610e9b565b60006111308486611dd9565b90508361113d8683611ca5565b14839061115d5760405162461bcd60e51b81526004016104df919061191f565b50949350505050565b600080600061117585856112d2565b509050600080611185878761135c565b6001600160a01b0316630902f1ac6040518163ffffffff1660e01b815260040160606040518083038186803b1580156111bd57600080fd5b505afa1580156111d1573d6000803e3d6000fd5b505050506040513d601f19601f820116820180604052508101906111f5919061174b565b506dffffffffffffffffffffffffffff1691506dffffffffffffffffffffffffffff169150826001600160a01b0316876001600160a01b03161461123a57808261123d565b81815b909890975095505050505050565b6000610e9b83836040518060400160405280601a81526020017f536166654d6174683a206469766973696f6e206279207a65726f0000000000008152506113df565b60008261129c5750600061101b565b60006112a88385611dd9565b9050826112b58583611ca5565b14610e9b5760405162461bcd60e51b81526004016104df90611b06565b600080826001600160a01b0316846001600160a01b031614156113075760405162461bcd60e51b81526004016104df90611c08565b826001600160a01b0316846001600160a01b03161061132757828461132a565b83835b90925090506001600160a01b0382166113555760405162461bcd60e51b81526004016104df90611bd1565b9250929050565b600080600061136961140d565b925092505060008061137b87876112d2565b91509150838282604051602001611393929190611821565b60405160208183030381529060405280519060200120846040516020016113bc93929190611848565b60408051601f198184030181529190528051602090910120979650505050505050565b600081836114005760405162461bcd60e51b81526004016104df919061191f565b5060006111018486611ca5565b60008080737a250d5630b4cf539739df2c5dacb4c659f2488d735c69bee701ef814a2b6a3edd4b1652cb9cc5aa6f7f96e8ac4277198ff8b6f785478aa9a39f403cb768dd02cbee326c3e7da348845f7310ed43c718714eb63d5aa57b78b54704e256024e73ca143ce32fe78f1f7019d7d551a6402fc5350c737efb7f630766e6a796048ea87d01acd3068e8ff67d078148a3fa3f4a84f69bd573d99d1c33f9fc3444f8101754abc46c52416550d1736725f303b657a9451d8ba641348b6761a6cc7a177fd0d4c4cd0848c93cb4fd1f498d7013ee6bfb25783ea21593d5834f5d250ece6673a5e0829caced8ffdd4de3c43696c57f7d7a678ff735757371414417b8c6caad45baef941abc7d3ab328846600181148061152c5750806003145b806115375750806004145b1561155557509a9d50989b509699506115de98505050505050505050565b80603814156115775750979d50959b509399506115de98505050505050505050565b80606114156115995750949d50929b509099506115de98505050505050505050565b80608914806115aa57508062013881145b156115c65750919d509b5099506115de98505050505050505050565b60405162461bcd60e51b81526004016104df90611b63565b909192565b60008083601f8401126115f4578182fd5b50813567ffffffffffffffff81111561160b578182fd5b602083019150836020808302850101111561135557600080fd5b80516dffffffffffffffffffffffffffff81168114610d0e57600080fd5b805169ffffffffffffffffffff81168114610d0e57600080fd5b60006020828403121561166e578081fd5b8135610e9b81611e40565b60006020828403121561168a578081fd5b8151610e9b81611e40565b600080600080600080606087890312156116ad578182fd5b863567ffffffffffffffff808211156116c4578384fd5b6116d08a838b016115e3565b909850965060208901359150808211156116e8578384fd5b6116f48a838b016115e3565b9096509450604089013591508082111561170c578384fd5b5061171989828a016115e3565b979a9699509497509295939492505050565b60006020828403121561173c578081fd5b81518015158114610e9b578182fd5b60008060006060848603121561175f578283fd5b61176884611625565b925061177660208501611625565b9150604084015163ffffffff8116811461178e578182fd5b809150509250925092565b6000602082840312156117aa578081fd5b5035919050565b600080600080600060a086880312156117c8578081fd5b6117d186611643565b94506020860151935060408601519250606086015191506117f460808701611643565b90509295509295909350565b600060208284031215611811578081fd5b815160ff81168114610e9b578182fd5b6bffffffffffffffffffffffff19606093841b811682529190921b16601482015260280190565b7fff00000000000000000000000000000000000000000000000000000000000000815260609390931b6bffffffffffffffffffffffff191660018401526015830191909152603582015260550190565b6001600160a01b0391909116815260200190565b6001600160a01b0392831681529116602082015260400190565b6001600160a01b039485168152928416602084015292166040820152901515606082015260800190565b6001600160a01b039384168152919092166020820152901515604082015260600190565b901515815260200190565b6000602080835283518082850152825b8181101561194b5785810183015185820160400152820161192f565b8181111561195c5783604083870101525b50601f01601f1916929092016040019392505050565b60208082526016908201527f61676772656761746f72206e6f7420656e61626c656400000000000000000000604082015260600190565b6020808252818101527f6f6e6c79207468652061646d696e206d617920736574206e65772061646d696e604082015260600190565b6020808252600f908201527f6d69736d61746368656420646174610000000000000000000000000000000000604082015260600190565b6020808252600d908201527f696e76616c696420707269636500000000000000000000000000000000000000604082015260600190565b60208082526032908201527f6f6e6c79207468652061646d696e206f7220677561726469616e206d6179207360408201527f6574207468652061676772656761746f72730000000000000000000000000000606082015260800190565b60208082526023908201527f6f6e6c79207468652061646d696e206d617920736574206e657720677561726460408201527f69616e0000000000000000000000000000000000000000000000000000000000606082015260800190565b60208082526021908201527f536166654d6174683a206d756c7469706c69636174696f6e206f766572666c6f60408201527f7700000000000000000000000000000000000000000000000000000000000000606082015260800190565b60208082526015908201527f4e6f7420537570706f7274656420636861696e49440000000000000000000000604082015260600190565b60208082526018908201527f756e737570706f727465642064656e6f6d696e6174696f6e0000000000000000604082015260600190565b60208082526014908201527f4e50537761703a205a45524f5f41444452455353000000000000000000000000604082015260600190565b6020808252601b908201527f4e50537761703a204944454e544943414c5f4144445245535345530000000000604082015260600190565b60208082526026908201527f677561726469616e206d6179206f6e6c7920636c65617220746865206167677260408201527f656761746f720000000000000000000000000000000000000000000000000000606082015260800190565b90815260200190565b600082611cc057634e487b7160e01b81526012600452602481fd5b500490565b80825b6001808611611cd75750611d02565b818704821115611ce957611ce9611e2a565b80861615611cf657918102915b9490941c938002611cc8565b94509492505050565b6000610e9b6000198484600082611d2457506001610e9b565b81611d3157506000610e9b565b8160018114611d475760028114611d5157611d7e565b6001915050610e9b565b60ff841115611d6257611d62611e2a565b6001841b915084821115611d7857611d78611e2a565b50610e9b565b5060208310610133831016604e8410600b8410161715611db1575081810a83811115611dac57611dac611e2a565b610e9b565b611dbe8484846001611cc5565b808604821115611dd057611dd0611e2a565b02949350505050565b6000816000190483118215151615611df357611df3611e2a565b500290565b600082821015611e0a57611e0a611e2a565b500390565b6000600019821415611e2357611e23611e2a565b5060010190565b634e487b7160e01b600052601160045260246000fd5b6001600160a01b0381168114611e5557600080fd5b5056fea2646970667358221220ac5fc69c7038576f92d15bbd082d0695138aa31aab7ffb4a5ecdc34084bbe3ac64736f6c63430008000033",
  "linkReferences": {},
  "deployedLinkReferences": {}
}