{
  "_format": "hh-sol-artifact-1",
  "contractName": "JumpRateModel",
  "sourceName": "contracts/InterestModel/JumpRateModel.sol",
  "abi": [
    {
      "inputs": [
        {
          "internalType": "uint256",
          "name": "baseRatePerYear",
          "type": "uint256"
        },
        {
          "internalType": "uint256",
          "name": "multiplierPerYear",
          "type": "uint256"
        },
        {
          "internalType": "uint256",
          "name": "jumpMultiplierPerYear",
          "type": "uint256"
        },
        {
          "internalType": "uint256",
          "name": "kink_",
          "type": "uint256"
        }
      ],
      "stateMutability": "nonpayable",
      "type": "constructor"
    },
    {
      "anonymous": false,
      "inputs": [
        {
          "indexed": false,
          "internalType": "uint256",
          "name": "baseRatePerBlock",
          "type": "uint256"
        },
        {
          "indexed": false,
          "internalType": "uint256",
          "name": "multiplierPerBlock",
          "type": "uint256"
        },
        {
          "indexed": false,
          "internalType": "uint256",
          "name": "jumpMultiplierPerBlock",
          "type": "uint256"
        },
        {
          "indexed": false,
          "internalType": "uint256",
          "name": "kink",
          "type": "uint256"
        }
      ],
      "name": "NewInterestParams",
      "type": "event"
    },
    {
      "inputs": [],
      "name": "baseRatePerBlock",
      "outputs": [
        {
          "internalType": "uint256",
          "name": "",
          "type": "uint256"
        }
      ],
      "stateMutability": "view",
      "type": "function"
    },
    {
      "inputs": [],
      "name": "blocksPerYear",
      "outputs": [
        {
          "internalType": "uint256",
          "name": "",
          "type": "uint256"
        }
      ],
      "stateMutability": "view",
      "type": "function"
    },
    {
      "inputs": [
        {
          "internalType": "uint256",
          "name": "cash",
          "type": "uint256"
        },
        {
          "internalType": "uint256",
          "name": "borrows",
          "type": "uint256"
        },
        {
          "internalType": "uint256",
          "name": "reserves",
          "type": "uint256"
        }
      ],
      "name": "getBorrowRate",
      "outputs": [
        {
          "internalType": "uint256",
          "name": "",
          "type": "uint256"
        }
      ],
      "stateMutability": "view",
      "type": "function"
    },
    {
      "inputs": [
        {
          "internalType": "uint256",
          "name": "cash",
          "type": "uint256"
        },
        {
          "internalType": "uint256",
          "name": "borrows",
          "type": "uint256"
        },
        {
          "internalType": "uint256",
          "name": "reserves",
          "type": "uint256"
        },
        {
          "internalType": "uint256",
          "name": "reserveFactorMantissa",
          "type": "uint256"
        }
      ],
      "name": "getSupplyRate",
      "outputs": [
        {
          "internalType": "uint256",
          "name": "",
          "type": "uint256"
        }
      ],
      "stateMutability": "view",
      "type": "function"
    },
    {
      "inputs": [],
      "name": "isInterestRateModel",
      "outputs": [
        {
          "internalType": "bool",
          "name": "",
          "type": "bool"
        }
      ],
      "stateMutability": "view",
      "type": "function"
    },
    {
      "inputs": [],
      "name": "jumpMultiplierPerBlock",
      "outputs": [
        {
          "internalType": "uint256",
          "name": "",
          "type": "uint256"
        }
      ],
      "stateMutability": "view",
      "type": "function"
    },
    {
      "inputs": [],
      "name": "kink",
      "outputs": [
        {
          "internalType": "uint256",
          "name": "",
          "type": "uint256"
        }
      ],
      "stateMutability": "view",
      "type": "function"
    },
    {
      "inputs": [],
      "name": "multiplierPerBlock",
      "outputs": [
        {
          "internalType": "uint256",
          "name": "",
          "type": "uint256"
        }
      ],
      "stateMutability": "view",
      "type": "function"
    },
    {
      "inputs": [
        {
          "internalType": "uint256",
          "name": "cash",
          "type": "uint256"
        },
        {
          "internalType": "uint256",
          "name": "borrows",
          "type": "uint256"
        },
        {
          "internalType": "uint256",
          "name": "reserves",
          "type": "uint256"
        }
      ],
      "name": "utilizationRate",
      "outputs": [
        {
          "internalType": "uint256",
          "name": "",
          "type": "uint256"
        }
      ],
      "stateMutability": "pure",
      "type": "function"
    }
  ],
  "bytecode": "0x608060405234801561001057600080fd5b5060405161088738038061088783398101604081905261002f91610161565b61004962201480856100d260201b6102d11790919060201c565b60015561006483622014806100d2602090811b6102d117901c565b60005561007f82622014806100d2602090811b6102d117901c565b600281905560038290556001546000546040517f6960ab234c7ef4b0c9197100f5393cfcde7c453ac910a27bd2000aa1dd4c068d936100c193929186906101e9565b60405180910390a150505050610224565b600061011a83836040518060400160405280601a81526020017f536166654d6174683a206469766973696f6e206279207a65726f00000000000081525061012160201b60201c565b9392505050565b6000818361014b5760405162461bcd60e51b81526004016101429190610196565b60405180910390fd5b5060006101588486610204565b95945050505050565b60008060008060808587031215610176578384fd5b505082516020840151604085015160609095015191969095509092509050565b6000602080835283518082850152825b818110156101c2578581018301518582016040015282016101a6565b818111156101d35783604083870101525b50601f01601f1916929092016040019392505050565b93845260208401929092526040830152606082015260800190565b60008261021f57634e487b7160e01b81526012600452602481fd5b500490565b610654806102336000396000f3fe608060405234801561001057600080fd5b50600436106100a35760003560e01c8063a385fb9611610076578063b9f9850a1161005b578063b9f9850a1461011c578063f14039de14610124578063fd2da3391461012c576100a3565b8063a385fb9614610101578063b816881614610109576100a3565b806315f24053146100a85780632191f92a146100d15780636e71e2d8146100e65780638726bb89146100f9575b600080fd5b6100bb6100b6366004610443565b610134565b6040516100c89190610591565b60405180910390f35b6100d9610200565b6040516100c8919061049f565b6100bb6100f4366004610443565b610205565b6100bb610245565b6100bb61024b565b6100bb61011736600461046e565b610252565b6100bb6102bf565b6100bb6102c5565b6100bb6102cb565b600080610142858585610205565b905060035481116101885761018060015461017a670de0b6b3a76400006101746000548661031c90919063ffffffff16565b906102d1565b9061036a565b9150506101f9565b60006101b360015461017a670de0b6b3a764000061017460005460035461031c90919063ffffffff16565b905060006101cc6003548461039990919063ffffffff16565b90506101f38261017a670de0b6b3a76400006101746002548661031c90919063ffffffff16565b93505050505b9392505050565b600181565b600082610214575060006101f9565b61023d61022b83610225878761036a565b90610399565b61017485670de0b6b3a764000061031c565b949350505050565b60005481565b6220148081565b600080610267670de0b6b3a764000084610399565b90506000610276878787610134565b90506000610290670de0b6b3a7640000610174848661031c565b90506102b3670de0b6b3a7640000610174836102ad8c8c8c610205565b9061031c565b98975050505050505050565b60025481565b60015481565b60035481565b600061031383836040518060400160405280601a81526020017f536166654d6174683a206469766973696f6e206279207a65726f0000000000008152506103db565b90505b92915050565b60008261032b57506000610316565b600061033783856105d2565b90508261034485836105b2565b146103135760405162461bcd60e51b815260040161036190610534565b60405180910390fd5b600080610377838561059a565b9050838110156103135760405162461bcd60e51b8152600401610361906104fd565b600061031383836040518060400160405280601f81526020017f536166654d6174683a207375627472616374696f6e20756e646572666c6f7700815250610412565b600081836103fc5760405162461bcd60e51b815260040161036191906104aa565b50600061040984866105b2565b95945050505050565b600081848411156104365760405162461bcd60e51b815260040161036191906104aa565b50600061040984866105f1565b600080600060608486031215610457578283fd5b505081359360208301359350604090920135919050565b60008060008060808587031215610483578081fd5b5050823594602084013594506040840135936060013592509050565b901515815260200190565b6000602080835283518082850152825b818110156104d6578581018301518582016040015282016104ba565b818111156104e75783604083870101525b50601f01601f1916929092016040019392505050565b6020808252601b908201527f536166654d6174683a206164646974696f6e206f766572666c6f770000000000604082015260600190565b60208082526021908201527f536166654d6174683a206d756c7469706c69636174696f6e206f766572666c6f60408201527f7700000000000000000000000000000000000000000000000000000000000000606082015260800190565b90815260200190565b600082198211156105ad576105ad610608565b500190565b6000826105cd57634e487b7160e01b81526012600452602481fd5b500490565b60008160001904831182151516156105ec576105ec610608565b500290565b60008282101561060357610603610608565b500390565b634e487b7160e01b600052601160045260246000fdfea26469706673582212205f5c77efcd727412db58f763a16b424ad4028f9ae7824d4cb7fa8017f809c3db64736f6c63430008000033",
  "linkReferences": {},
  "deployedLinkReferences": {}
}