{
  "_format": "hh-sol-artifact-1",
  "contractName": "CErc20Delegator",
  "sourceName": "contracts/CToken/CErc20Delegator.sol",
  "abi": [
    {
      "inputs": [
        {
          "internalType": "address",
          "name": "underlying_",
          "type": "address"
        },
        {
          "internalType": "contract ComptrollerInterface",
          "name": "comptroller_",
          "type": "address"
        },
        {
          "internalType": "contract InterestRateModel",
          "name": "interestRateModel_",
          "type": "address"
        },
        {
          "internalType": "uint256",
          "name": "initialExchangeRateMantissa_",
          "type": "uint256"
        },
        {
          "internalType": "string",
          "name": "name_",
          "type": "string"
        },
        {
          "internalType": "string",
          "name": "symbol_",
          "type": "string"
        },
        {
          "internalType": "uint8",
          "name": "decimals_",
          "type": "uint8"
        },
        {
          "internalType": "address",
          "name": "admin_",
          "type": "address"
        },
        {
          "internalType": "address",
          "name": "implementation_",
          "type": "address"
        },
        {
          "internalType": "bytes",
          "name": "becomeImplementationData",
          "type": "bytes"
        }
      ],
      "stateMutability": "nonpayable",
      "type": "constructor"
    },
    {
      "anonymous": false,
      "inputs": [
        {
          "indexed": false,
          "internalType": "uint256",
          "name": "cashPrior",
          "type": "uint256"
        },
        {
          "indexed": false,
          "internalType": "uint256",
          "name": "interestAccumulated",
          "type": "uint256"
        },
        {
          "indexed": false,
          "internalType": "uint256",
          "name": "borrowIndex",
          "type": "uint256"
        },
        {
          "indexed": false,
          "internalType": "uint256",
          "name": "totalBorrows",
          "type": "uint256"
        }
      ],
      "name": "AccrueInterest",
      "type": "event"
    },
    {
      "anonymous": false,
      "inputs": [
        {
          "indexed": true,
          "internalType": "address",
          "name": "owner",
          "type": "address"
        },
        {
          "indexed": true,
          "internalType": "address",
          "name": "spender",
          "type": "address"
        },
        {
          "indexed": false,
          "internalType": "uint256",
          "name": "amount",
          "type": "uint256"
        }
      ],
      "name": "Approval",
      "type": "event"
    },
    {
      "anonymous": false,
      "inputs": [
        {
          "indexed": false,
          "internalType": "address",
          "name": "borrower",
          "type": "address"
        },
        {
          "indexed": false,
          "internalType": "uint256",
          "name": "borrowAmount",
          "type": "uint256"
        },
        {
          "indexed": false,
          "internalType": "uint256",
          "name": "accountBorrows",
          "type": "uint256"
        },
        {
          "indexed": false,
          "internalType": "uint256",
          "name": "totalBorrows",
          "type": "uint256"
        }
      ],
      "name": "Borrow",
      "type": "event"
    },
    {
      "anonymous": false,
      "inputs": [
        {
          "indexed": false,
          "internalType": "address",
          "name": "liquidator",
          "type": "address"
        },
        {
          "indexed": false,
          "internalType": "address",
          "name": "borrower",
          "type": "address"
        },
        {
          "indexed": false,
          "internalType": "uint256",
          "name": "repayAmount",
          "type": "uint256"
        },
        {
          "indexed": false,
          "internalType": "address",
          "name": "cTokenCollateral",
          "type": "address"
        },
        {
          "indexed": false,
          "internalType": "uint256",
          "name": "seizeTokens",
          "type": "uint256"
        }
      ],
      "name": "LiquidateBorrow",
      "type": "event"
    },
    {
      "anonymous": false,
      "inputs": [
        {
          "indexed": false,
          "internalType": "address",
          "name": "minter",
          "type": "address"
        },
        {
          "indexed": false,
          "internalType": "uint256",
          "name": "mintAmount",
          "type": "uint256"
        },
        {
          "indexed": false,
          "internalType": "uint256",
          "name": "mintTokens",
          "type": "uint256"
        }
      ],
      "name": "Mint",
      "type": "event"
    },
    {
      "anonymous": false,
      "inputs": [
        {
          "indexed": false,
          "internalType": "address",
          "name": "oldAdmin",
          "type": "address"
        },
        {
          "indexed": false,
          "internalType": "address",
          "name": "newAdmin",
          "type": "address"
        }
      ],
      "name": "NewAdmin",
      "type": "event"
    },
    {
      "anonymous": false,
      "inputs": [
        {
          "indexed": false,
          "internalType": "contract ComptrollerInterface",
          "name": "oldComptroller",
          "type": "address"
        },
        {
          "indexed": false,
          "internalType": "contract ComptrollerInterface",
          "name": "newComptroller",
          "type": "address"
        }
      ],
      "name": "NewComptroller",
      "type": "event"
    },
    {
      "anonymous": false,
      "inputs": [
        {
          "indexed": false,
          "internalType": "address",
          "name": "oldImplementation",
          "type": "address"
        },
        {
          "indexed": false,
          "internalType": "address",
          "name": "newImplementation",
          "type": "address"
        }
      ],
      "name": "NewImplementation",
      "type": "event"
    },
    {
      "anonymous": false,
      "inputs": [
        {
          "indexed": false,
          "internalType": "contract InterestRateModel",
          "name": "oldInterestRateModel",
          "type": "address"
        },
        {
          "indexed": false,
          "internalType": "contract InterestRateModel",
          "name": "newInterestRateModel",
          "type": "address"
        }
      ],
      "name": "NewMarketInterestRateModel",
      "type": "event"
    },
    {
      "anonymous": false,
      "inputs": [
        {
          "indexed": false,
          "internalType": "address",
          "name": "oldPendingAdmin",
          "type": "address"
        },
        {
          "indexed": false,
          "internalType": "address",
          "name": "newPendingAdmin",
          "type": "address"
        }
      ],
      "name": "NewPendingAdmin",
      "type": "event"
    },
    {
      "anonymous": false,
      "inputs": [
        {
          "indexed": false,
          "internalType": "uint256",
          "name": "oldReserveFactorMantissa",
          "type": "uint256"
        },
        {
          "indexed": false,
          "internalType": "uint256",
          "name": "newReserveFactorMantissa",
          "type": "uint256"
        }
      ],
      "name": "NewReserveFactor",
      "type": "event"
    },
    {
      "anonymous": false,
      "inputs": [
        {
          "indexed": false,
          "internalType": "address",
          "name": "redeemer",
          "type": "address"
        },
        {
          "indexed": false,
          "internalType": "uint256",
          "name": "redeemAmount",
          "type": "uint256"
        },
        {
          "indexed": false,
          "internalType": "uint256",
          "name": "redeemTokens",
          "type": "uint256"
        }
      ],
      "name": "Redeem",
      "type": "event"
    },
    {
      "anonymous": false,
      "inputs": [
        {
          "indexed": false,
          "internalType": "address",
          "name": "payer",
          "type": "address"
        },
        {
          "indexed": false,
          "internalType": "address",
          "name": "borrower",
          "type": "address"
        },
        {
          "indexed": false,
          "internalType": "uint256",
          "name": "repayAmount",
          "type": "uint256"
        },
        {
          "indexed": false,
          "internalType": "uint256",
          "name": "accountBorrows",
          "type": "uint256"
        },
        {
          "indexed": false,
          "internalType": "uint256",
          "name": "totalBorrows",
          "type": "uint256"
        }
      ],
      "name": "RepayBorrow",
      "type": "event"
    },
    {
      "anonymous": false,
      "inputs": [
        {
          "indexed": false,
          "internalType": "address",
          "name": "benefactor",
          "type": "address"
        },
        {
          "indexed": false,
          "internalType": "uint256",
          "name": "addAmount",
          "type": "uint256"
        },
        {
          "indexed": false,
          "internalType": "uint256",
          "name": "newTotalReserves",
          "type": "uint256"
        }
      ],
      "name": "ReservesAdded",
      "type": "event"
    },
    {
      "anonymous": false,
      "inputs": [
        {
          "indexed": false,
          "internalType": "address",
          "name": "admin",
          "type": "address"
        },
        {
          "indexed": false,
          "internalType": "uint256",
          "name": "reduceAmount",
          "type": "uint256"
        },
        {
          "indexed": false,
          "internalType": "uint256",
          "name": "newTotalReserves",
          "type": "uint256"
        }
      ],
      "name": "ReservesReduced",
      "type": "event"
    },
    {
      "anonymous": false,
      "inputs": [
        {
          "indexed": true,
          "internalType": "address",
          "name": "from",
          "type": "address"
        },
        {
          "indexed": true,
          "internalType": "address",
          "name": "to",
          "type": "address"
        },
        {
          "indexed": false,
          "internalType": "uint256",
          "name": "amount",
          "type": "uint256"
        }
      ],
      "name": "Transfer",
      "type": "event"
    },
    {
      "stateMutability": "payable",
      "type": "fallback"
    },
    {
      "inputs": [],
      "name": "_acceptAdmin",
      "outputs": [
        {
          "internalType": "uint256",
          "name": "",
          "type": "uint256"
        }
      ],
      "stateMutability": "nonpayable",
      "type": "function"
    },
    {
      "inputs": [
        {
          "internalType": "uint256",
          "name": "addAmount",
          "type": "uint256"
        }
      ],
      "name": "_addReserves",
      "outputs": [
        {
          "internalType": "uint256",
          "name": "",
          "type": "uint256"
        }
      ],
      "stateMutability": "nonpayable",
      "type": "function"
    },
    {
      "inputs": [
        {
          "internalType": "uint256",
          "name": "reduceAmount",
          "type": "uint256"
        }
      ],
      "name": "_reduceReserves",
      "outputs": [
        {
          "internalType": "uint256",
          "name": "",
          "type": "uint256"
        }
      ],
      "stateMutability": "nonpayable",
      "type": "function"
    },
    {
      "inputs": [
        {
          "internalType": "contract ComptrollerInterface",
          "name": "newComptroller",
          "type": "address"
        }
      ],
      "name": "_setComptroller",
      "outputs": [
        {
          "internalType": "uint256",
          "name": "",
          "type": "uint256"
        }
      ],
      "stateMutability": "nonpayable",
      "type": "function"
    },
    {
      "inputs": [
        {
          "internalType": "address",
          "name": "implementation_",
          "type": "address"
        },
        {
          "internalType": "bool",
          "name": "allowResign",
          "type": "bool"
        },
        {
          "internalType": "bytes",
          "name": "becomeImplementationData",
          "type": "bytes"
        }
      ],
      "name": "_setImplementation",
      "outputs": [],
      "stateMutability": "nonpayable",
      "type": "function"
    },
    {
      "inputs": [
        {
          "internalType": "contract InterestRateModel",
          "name": "newInterestRateModel",
          "type": "address"
        }
      ],
      "name": "_setInterestRateModel",
      "outputs": [
        {
          "internalType": "uint256",
          "name": "",
          "type": "uint256"
        }
      ],
      "stateMutability": "nonpayable",
      "type": "function"
    },
    {
      "inputs": [
        {
          "internalType": "address",
          "name": "newPendingAdmin",
          "type": "address"
        }
      ],
      "name": "_setPendingAdmin",
      "outputs": [
        {
          "internalType": "uint256",
          "name": "",
          "type": "uint256"
        }
      ],
      "stateMutability": "nonpayable",
      "type": "function"
    },
    {
      "inputs": [
        {
          "internalType": "uint256",
          "name": "newReserveFactorMantissa",
          "type": "uint256"
        }
      ],
      "name": "_setReserveFactor",
      "outputs": [
        {
          "internalType": "uint256",
          "name": "",
          "type": "uint256"
        }
      ],
      "stateMutability": "nonpayable",
      "type": "function"
    },
    {
      "inputs": [],
      "name": "accrualBlockNumber",
      "outputs": [
        {
          "internalType": "uint256",
          "name": "",
          "type": "uint256"
        }
      ],
      "stateMutability": "view",
      "type": "function"
    },
    {
      "inputs": [],
      "name": "accrueInterest",
      "outputs": [
        {
          "internalType": "uint256",
          "name": "",
          "type": "uint256"
        }
      ],
      "stateMutability": "nonpayable",
      "type": "function"
    },
    {
      "inputs": [],
      "name": "admin",
      "outputs": [
        {
          "internalType": "address",
          "name": "",
          "type": "address"
        }
      ],
      "stateMutability": "view",
      "type": "function"
    },
    {
      "inputs": [
        {
          "internalType": "address",
          "name": "owner",
          "type": "address"
        },
        {
          "internalType": "address",
          "name": "spender",
          "type": "address"
        }
      ],
      "name": "allowance",
      "outputs": [
        {
          "internalType": "uint256",
          "name": "",
          "type": "uint256"
        }
      ],
      "stateMutability": "view",
      "type": "function"
    },
    {
      "inputs": [
        {
          "internalType": "address",
          "name": "spender",
          "type": "address"
        },
        {
          "internalType": "uint256",
          "name": "amount",
          "type": "uint256"
        }
      ],
      "name": "approve",
      "outputs": [
        {
          "internalType": "bool",
          "name": "",
          "type": "bool"
        }
      ],
      "stateMutability": "nonpayable",
      "type": "function"
    },
    {
      "inputs": [
        {
          "internalType": "address",
          "name": "owner",
          "type": "address"
        }
      ],
      "name": "balanceOf",
      "outputs": [
        {
          "internalType": "uint256",
          "name": "",
          "type": "uint256"
        }
      ],
      "stateMutability": "view",
      "type": "function"
    },
    {
      "inputs": [
        {
          "internalType": "address",
          "name": "owner",
          "type": "address"
        }
      ],
      "name": "balanceOfUnderlying",
      "outputs": [
        {
          "internalType": "uint256",
          "name": "",
          "type": "uint256"
        }
      ],
      "stateMutability": "nonpayable",
      "type": "function"
    },
    {
      "inputs": [
        {
          "internalType": "uint256",
          "name": "borrowAmount",
          "type": "uint256"
        }
      ],
      "name": "borrow",
      "outputs": [
        {
          "internalType": "uint256",
          "name": "",
          "type": "uint256"
        }
      ],
      "stateMutability": "nonpayable",
      "type": "function"
    },
    {
      "inputs": [
        {
          "internalType": "address",
          "name": "account",
          "type": "address"
        }
      ],
      "name": "borrowBalanceCurrent",
      "outputs": [
        {
          "internalType": "uint256",
          "name": "",
          "type": "uint256"
        }
      ],
      "stateMutability": "nonpayable",
      "type": "function"
    },
    {
      "inputs": [
        {
          "internalType": "address",
          "name": "account",
          "type": "address"
        }
      ],
      "name": "borrowBalanceStored",
      "outputs": [
        {
          "internalType": "uint256",
          "name": "",
          "type": "uint256"
        }
      ],
      "stateMutability": "view",
      "type": "function"
    },
    {
      "inputs": [],
      "name": "borrowIndex",
      "outputs": [
        {
          "internalType": "uint256",
          "name": "",
          "type": "uint256"
        }
      ],
      "stateMutability": "view",
      "type": "function"
    },
    {
      "inputs": [],
      "name": "borrowRatePerBlock",
      "outputs": [
        {
          "internalType": "uint256",
          "name": "",
          "type": "uint256"
        }
      ],
      "stateMutability": "view",
      "type": "function"
    },
    {
      "inputs": [],
      "name": "comptroller",
      "outputs": [
        {
          "internalType": "contract ComptrollerInterface",
          "name": "",
          "type": "address"
        }
      ],
      "stateMutability": "view",
      "type": "function"
    },
    {
      "inputs": [],
      "name": "decimals",
      "outputs": [
        {
          "internalType": "uint8",
          "name": "",
          "type": "uint8"
        }
      ],
      "stateMutability": "view",
      "type": "function"
    },
    {
      "inputs": [
        {
          "internalType": "bytes",
          "name": "data",
          "type": "bytes"
        }
      ],
      "name": "delegateToImplementation",
      "outputs": [
        {
          "internalType": "bytes",
          "name": "",
          "type": "bytes"
        }
      ],
      "stateMutability": "nonpayable",
      "type": "function"
    },
    {
      "inputs": [
        {
          "internalType": "bytes",
          "name": "data",
          "type": "bytes"
        }
      ],
      "name": "delegateToViewImplementation",
      "outputs": [
        {
          "internalType": "bytes",
          "name": "",
          "type": "bytes"
        }
      ],
      "stateMutability": "view",
      "type": "function"
    },
    {
      "inputs": [],
      "name": "exchangeRateCurrent",
      "outputs": [
        {
          "internalType": "uint256",
          "name": "",
          "type": "uint256"
        }
      ],
      "stateMutability": "nonpayable",
      "type": "function"
    },
    {
      "inputs": [],
      "name": "exchangeRateStored",
      "outputs": [
        {
          "internalType": "uint256",
          "name": "",
          "type": "uint256"
        }
      ],
      "stateMutability": "view",
      "type": "function"
    },
    {
      "inputs": [
        {
          "internalType": "address",
          "name": "account",
          "type": "address"
        }
      ],
      "name": "getAccountSnapshot",
      "outputs": [
        {
          "internalType": "uint256",
          "name": "",
          "type": "uint256"
        },
        {
          "internalType": "uint256",
          "name": "",
          "type": "uint256"
        },
        {
          "internalType": "uint256",
          "name": "",
          "type": "uint256"
        },
        {
          "internalType": "uint256",
          "name": "",
          "type": "uint256"
        }
      ],
      "stateMutability": "view",
      "type": "function"
    },
    {
      "inputs": [],
      "name": "getCash",
      "outputs": [
        {
          "internalType": "uint256",
          "name": "",
          "type": "uint256"
        }
      ],
      "stateMutability": "view",
      "type": "function"
    },
    {
      "inputs": [],
      "name": "implementation",
      "outputs": [
        {
          "internalType": "address",
          "name": "",
          "type": "address"
        }
      ],
      "stateMutability": "view",
      "type": "function"
    },
    {
      "inputs": [],
      "name": "interestRateModel",
      "outputs": [
        {
          "internalType": "contract InterestRateModel",
          "name": "",
          "type": "address"
        }
      ],
      "stateMutability": "view",
      "type": "function"
    },
    {
      "inputs": [],
      "name": "isCToken",
      "outputs": [
        {
          "internalType": "bool",
          "name": "",
          "type": "bool"
        }
      ],
      "stateMutability": "view",
      "type": "function"
    },
    {
      "inputs": [
        {
          "internalType": "address",
          "name": "borrower",
          "type": "address"
        },
        {
          "internalType": "uint256",
          "name": "repayAmount",
          "type": "uint256"
        },
        {
          "internalType": "contract CTokenInterface",
          "name": "cTokenCollateral",
          "type": "address"
        }
      ],
      "name": "liquidateBorrow",
      "outputs": [
        {
          "internalType": "uint256",
          "name": "",
          "type": "uint256"
        }
      ],
      "stateMutability": "nonpayable",
      "type": "function"
    },
    {
      "inputs": [
        {
          "internalType": "uint256",
          "name": "mintAmount",
          "type": "uint256"
        }
      ],
      "name": "mint",
      "outputs": [
        {
          "internalType": "uint256",
          "name": "",
          "type": "uint256"
        }
      ],
      "stateMutability": "nonpayable",
      "type": "function"
    },
    {
      "inputs": [],
      "name": "name",
      "outputs": [
        {
          "internalType": "string",
          "name": "",
          "type": "string"
        }
      ],
      "stateMutability": "view",
      "type": "function"
    },
    {
      "inputs": [],
      "name": "pendingAdmin",
      "outputs": [
        {
          "internalType": "address",
          "name": "",
          "type": "address"
        }
      ],
      "stateMutability": "view",
      "type": "function"
    },
    {
      "inputs": [],
      "name": "protocolSeizeShareMantissa",
      "outputs": [
        {
          "internalType": "uint256",
          "name": "",
          "type": "uint256"
        }
      ],
      "stateMutability": "view",
      "type": "function"
    },
    {
      "inputs": [
        {
          "internalType": "uint256",
          "name": "redeemTokens",
          "type": "uint256"
        }
      ],
      "name": "redeem",
      "outputs": [
        {
          "internalType": "uint256",
          "name": "",
          "type": "uint256"
        }
      ],
      "stateMutability": "nonpayable",
      "type": "function"
    },
    {
      "inputs": [
        {
          "internalType": "uint256",
          "name": "redeemAmount",
          "type": "uint256"
        }
      ],
      "name": "redeemUnderlying",
      "outputs": [
        {
          "internalType": "uint256",
          "name": "",
          "type": "uint256"
        }
      ],
      "stateMutability": "nonpayable",
      "type": "function"
    },
    {
      "inputs": [
        {
          "internalType": "uint256",
          "name": "repayAmount",
          "type": "uint256"
        }
      ],
      "name": "repayBorrow",
      "outputs": [
        {
          "internalType": "uint256",
          "name": "",
          "type": "uint256"
        }
      ],
      "stateMutability": "nonpayable",
      "type": "function"
    },
    {
      "inputs": [
        {
          "internalType": "address",
          "name": "borrower",
          "type": "address"
        },
        {
          "internalType": "uint256",
          "name": "repayAmount",
          "type": "uint256"
        }
      ],
      "name": "repayBorrowBehalf",
      "outputs": [
        {
          "internalType": "uint256",
          "name": "",
          "type": "uint256"
        }
      ],
      "stateMutability": "nonpayable",
      "type": "function"
    },
    {
      "inputs": [],
      "name": "reserveFactorMantissa",
      "outputs": [
        {
          "internalType": "uint256",
          "name": "",
          "type": "uint256"
        }
      ],
      "stateMutability": "view",
      "type": "function"
    },
    {
      "inputs": [
        {
          "internalType": "address",
          "name": "liquidator",
          "type": "address"
        },
        {
          "internalType": "address",
          "name": "borrower",
          "type": "address"
        },
        {
          "internalType": "uint256",
          "name": "seizeTokens",
          "type": "uint256"
        }
      ],
      "name": "seize",
      "outputs": [
        {
          "internalType": "uint256",
          "name": "",
          "type": "uint256"
        }
      ],
      "stateMutability": "nonpayable",
      "type": "function"
    },
    {
      "inputs": [],
      "name": "supplyRatePerBlock",
      "outputs": [
        {
          "internalType": "uint256",
          "name": "",
          "type": "uint256"
        }
      ],
      "stateMutability": "view",
      "type": "function"
    },
    {
      "inputs": [
        {
          "internalType": "contract EIP20NonStandardInterface",
          "name": "token",
          "type": "address"
        }
      ],
      "name": "sweepToken",
      "outputs": [],
      "stateMutability": "nonpayable",
      "type": "function"
    },
    {
      "inputs": [],
      "name": "symbol",
      "outputs": [
        {
          "internalType": "string",
          "name": "",
          "type": "string"
        }
      ],
      "stateMutability": "view",
      "type": "function"
    },
    {
      "inputs": [],
      "name": "totalBorrows",
      "outputs": [
        {
          "internalType": "uint256",
          "name": "",
          "type": "uint256"
        }
      ],
      "stateMutability": "view",
      "type": "function"
    },
    {
      "inputs": [],
      "name": "totalBorrowsCurrent",
      "outputs": [
        {
          "internalType": "uint256",
          "name": "",
          "type": "uint256"
        }
      ],
      "stateMutability": "nonpayable",
      "type": "function"
    },
    {
      "inputs": [],
      "name": "totalReserves",
      "outputs": [
        {
          "internalType": "uint256",
          "name": "",
          "type": "uint256"
        }
      ],
      "stateMutability": "view",
      "type": "function"
    },
    {
      "inputs": [],
      "name": "totalSupply",
      "outputs": [
        {
          "internalType": "uint256",
          "name": "",
          "type": "uint256"
        }
      ],
      "stateMutability": "view",
      "type": "function"
    },
    {
      "inputs": [
        {
          "internalType": "address",
          "name": "dst",
          "type": "address"
        },
        {
          "internalType": "uint256",
          "name": "amount",
          "type": "uint256"
        }
      ],
      "name": "transfer",
      "outputs": [
        {
          "internalType": "bool",
          "name": "",
          "type": "bool"
        }
      ],
      "stateMutability": "nonpayable",
      "type": "function"
    },
    {
      "inputs": [
        {
          "internalType": "address",
          "name": "src",
          "type": "address"
        },
        {
          "internalType": "address",
          "name": "dst",
          "type": "address"
        },
        {
          "internalType": "uint256",
          "name": "amount",
          "type": "uint256"
        }
      ],
      "name": "transferFrom",
      "outputs": [
        {
          "internalType": "bool",
          "name": "",
          "type": "bool"
        }
      ],
      "stateMutability": "nonpayable",
      "type": "function"
    },
    {
      "inputs": [],
      "name": "underlying",
      "outputs": [
        {
          "internalType": "address",
          "name": "",
          "type": "address"
        }
      ],
      "stateMutability": "view",
      "type": "function"
    }
  ],
  "bytecode": "0x60806040523480156200001157600080fd5b506040516200260738038062002607833981016040819052620000349162000377565b60038054610100600160a81b0319163361010002179055604051620000a590839062000071908d908d908d908d908d908d908d90602401620004e7565b60408051601f198184030181529190526020810180516001600160e01b03908116631a31d46560e01b17909152620000ea16565b50620000b48260008362000169565b5050600380546001600160a01b0390921661010002610100600160a81b0319909216919091179055506200061295505050505050565b6060600080846001600160a01b031684604051620001099190620004af565b600060405180830381855af49150503d806000811462000146576040519150601f19603f3d011682016040523d82523d6000602084013e6200014b565b606091505b5091509150600082141562000161573d60208201fd5b949350505050565b60035461010090046001600160a01b03163314620001a45760405162461bcd60e51b81526004016200019b906200056c565b60405180910390fd5b8115620001e6576040805160048152602481019091526020810180516001600160e01b0390811663153ab50560e01b17909152620001e49190620002a116565b505b601280546001600160a01b038581166001600160a01b031983161790925560405191169062000253906200021f90849060240162000550565b60408051601f198184030181529190526020810180516001600160e01b03908116630adccee560e31b17909152620002a116565b506012546040517fd604de94d45953f9138079ec1b82d533cb2160c906d1076d1f7ed54befbca97a91620002939184916001600160a01b031690620004cd565b60405180910390a150505050565b601254606090620002bc906001600160a01b031683620000ea565b90505b919050565b80516001600160a01b0381168114620002bf57600080fd5b600082601f830112620002ed578081fd5b81516001600160401b03808211156200030a576200030a620005fc565b604051601f8301601f191681016020018281118282101715620003315762000331620005fc565b60405282815284830160200186101562000349578384fd5b6200035c836020830160208801620005c9565b95945050505050565b805160ff81168114620002bf57600080fd5b6000806000806000806000806000806101408b8d03121562000397578586fd5b620003a28b620002c4565b9950620003b260208c01620002c4565b9850620003c260408c01620002c4565b60608c015160808d015191995097506001600160401b0380821115620003e6578788fd5b620003f48e838f01620002dc565b975060a08d01519150808211156200040a578687fd5b620004188e838f01620002dc565b96506200042860c08e0162000365565b95506200043860e08e01620002c4565b9450620004496101008e01620002c4565b93506101208d015191508082111562000460578283fd5b506200046f8d828e01620002dc565b9150509295989b9194979a5092959850565b600081518084526200049b816020860160208601620005c9565b601f01601f19169290920160200192915050565b60008251620004c3818460208701620005c9565b9190910192915050565b6001600160a01b0392831681529116602082015260400190565b6001600160a01b0388811682528781166020830152861660408201526060810185905260e060808201819052600090620005249083018662000481565b82810360a084015262000538818662000481565b91505060ff831660c083015298975050505050505050565b60006020825262000565602083018462000481565b9392505050565b60208082526039908201527f43457263323044656c656761746f723a3a5f736574496d706c656d656e74617460408201527f696f6e3a2043616c6c6572206d7573742062652061646d696e00000000000000606082015260800190565b60005b83811015620005e6578181015183820152602001620005cc565b83811115620005f6576000848401525b50505050565b634e487b7160e01b600052604160045260246000fd5b611fe580620006226000396000f3fe60806040526004361061033f5760003560e01c806370a08231116101b0578063bd6d894d116100ec578063f2b3abbd11610095578063f851a4401161006f578063f851a4401461094b578063f8f9da2814610960578063fca7820b14610975578063fe9c44ae146109955761033f565b8063f2b3abbd146108f6578063f3fdb15a14610916578063f5e3c4621461092b5761033f565b8063db006a75116100c6578063db006a75146108a1578063dd62ed3e146108c1578063e9c714f2146108e15761033f565b8063bd6d894d1461083c578063c37f68e214610851578063c5ebeaec146108815761033f565b8063a0712d6811610159578063aa5af0fd11610133578063aa5af0fd146107d2578063ae9d70b0146107e7578063b2a02ff1146107fc578063b71d1a0c1461081c5761033f565b8063a0712d681461077d578063a6afed951461079d578063a9059cbb146107b25761033f565b80638f840ddd1161018a5780638f840ddd1461073357806395d89b411461074857806395dd91931461075d5761033f565b806370a08231146106de57806373acee98146106fe578063852a12e3146107135761033f565b80633af9e6691161027f578063555bcc4011610228578063601a0bf111610202578063601a0bf11461067f5780636752e7021461069f5780636c540baf146106b45780636f307dc3146106c95761033f565b8063555bcc40146106355780635c60da1b146106555780635fe3b5671461066a5761033f565b80634487152f116102595780634487152f146105e05780634576b5db1461060057806347bd3718146106205761033f565b80633af9e6691461058b5780633b1d21a2146105ab5780633e941010146105c05761033f565b806318160ddd116102ec57806323b872dd116102c657806323b872dd146105075780632608f818146105275780632678224714610547578063313ce567146105695761033f565b806318160ddd146104bb578063182df0f5146104d05780631be19560146104e55761033f565b80630e7527021161031d5780630e75270214610459578063173b99041461048657806317bfdfbc1461049b5761033f565b806306fdde03146103e15780630933c1ed1461040c578063095ea7b31461042c575b34156103665760405162461bcd60e51b815260040161035d90611dca565b60405180910390fd5b6012546040516000916001600160a01b0316906103869083903690611cf2565b600060405180830381855af49150503d80600081146103c1576040519150601f19603f3d011682016040523d82523d6000602084013e6103c6565b606091505b505090506040513d6000823e8180156103dd573d82f35b3d82fd5b3480156103ed57600080fd5b506103f66109aa565b6040516104039190611db7565b60405180910390f35b34801561041857600080fd5b506103f6610427366004611bc4565b610a38565b34801561043857600080fd5b5061044c610447366004611b3c565b610a57565b6040516104039190611dac565b34801561046557600080fd5b50610479610474366004611c61565b610ad6565b6040516104039190611e84565b34801561049257600080fd5b50610479610b52565b3480156104a757600080fd5b506104796104b6366004611a48565b610b58565b3480156104c757600080fd5b50610479610bb7565b3480156104dc57600080fd5b50610479610bbd565b3480156104f157600080fd5b50610505610500366004611a48565b610c29565b005b34801561051357600080fd5b5061044c610522366004611a9c565b610c89565b34801561053357600080fd5b50610479610542366004611b3c565b610d0b565b34801561055357600080fd5b5061055c610d82565b6040516104039190611d1e565b34801561057557600080fd5b5061057e610d91565b6040516104039190611ea8565b34801561059757600080fd5b506104796105a6366004611a48565b610d9a565b3480156105b757600080fd5b50610479610df9565b3480156105cc57600080fd5b506104796105db366004611c61565b610e49565b3480156105ec57600080fd5b506103f66105fb366004611bc4565b610ea8565b34801561060c57600080fd5b5061047961061b366004611a48565b610f7f565b34801561062c57600080fd5b50610479610fde565b34801561064157600080fd5b50610505610650366004611adc565b610fe4565b34801561066157600080fd5b5061055c611148565b34801561067657600080fd5b5061055c611157565b34801561068b57600080fd5b5061047961069a366004611c61565b611166565b3480156106ab57600080fd5b506104796111c5565b3480156106c057600080fd5b506104796111d0565b3480156106d557600080fd5b5061055c6111d6565b3480156106ea57600080fd5b506104796106f9366004611a48565b6111e5565b34801561070a57600080fd5b50610479611244565b34801561071f57600080fd5b5061047961072e366004611c61565b611294565b34801561073f57600080fd5b506104796112f3565b34801561075457600080fd5b506103f66112f9565b34801561076957600080fd5b50610479610778366004611a48565b611306565b34801561078957600080fd5b50610479610798366004611c61565b611365565b3480156107a957600080fd5b506104796113c4565b3480156107be57600080fd5b5061044c6107cd366004611b3c565b611414565b3480156107de57600080fd5b50610479611475565b3480156107f357600080fd5b5061047961147b565b34801561080857600080fd5b50610479610817366004611a9c565b6114cb565b34801561082857600080fd5b50610479610837366004611a48565b611544565b34801561084857600080fd5b506104796115a3565b34801561085d57600080fd5b5061087161086c366004611a48565b6115f3565b6040516104039493929190611e8d565b34801561088d57600080fd5b5061047961089c366004611c61565b61167d565b3480156108ad57600080fd5b506104796108bc366004611c61565b6116dc565b3480156108cd57600080fd5b506104796108dc366004611a64565b61173b565b3480156108ed57600080fd5b5061047961179c565b34801561090257600080fd5b50610479610911366004611a48565b6117ec565b34801561092257600080fd5b5061055c61184b565b34801561093757600080fd5b50610479610946366004611b67565b61185a565b34801561095757600080fd5b5061055c6118bd565b34801561096c57600080fd5b506104796118d1565b34801561098157600080fd5b50610479610990366004611c61565b611921565b3480156109a157600080fd5b5061044c611980565b600180546109b790611f38565b80601f01602080910402602001604051908101604052809291908181526020018280546109e390611f38565b8015610a305780601f10610a0557610100808354040283529160200191610a30565b820191906000526020600020905b815481529060010190602001808311610a1357829003601f168201915b505050505081565b601254606090610a51906001600160a01b031683611985565b92915050565b600080610ab88484604051602401610a70929190611d70565b60408051601f198184030181529190526020810180516001600160e01b03167f095ea7b300000000000000000000000000000000000000000000000000000000179052610a38565b905080806020019051810190610ace9190611ba8565b949350505050565b600080610b3583604051602401610aed9190611e84565b60408051601f198184030181529190526020810180516001600160e01b03167f0e75270200000000000000000000000000000000000000000000000000000000179052610a38565b905080806020019051810190610b4b9190611c79565b9392505050565b60085481565b600080610b3583604051602401610b6f9190611d1e565b60408051601f198184030181529190526020810180516001600160e01b03167f17bfdfbc00000000000000000000000000000000000000000000000000000000179052610a38565b600d5481565b6040805160048152602481019091526020810180516001600160e01b03167f182df0f5000000000000000000000000000000000000000000000000000000001790526000908190610c0d90610ea8565b905080806020019051810190610c239190611c79565b91505090565b610c8581604051602401610c3d9190611d1e565b60408051601f198184030181529190526020810180516001600160e01b03167f1be1956000000000000000000000000000000000000000000000000000000000179052610a38565b5050565b600080610cec858585604051602401610ca493929190611d4c565b60408051601f198184030181529190526020810180516001600160e01b03167f23b872dd00000000000000000000000000000000000000000000000000000000179052610a38565b905080806020019051810190610d029190611ba8565b95945050505050565b600080610d6c8484604051602401610d24929190611d70565b60408051601f198184030181529190526020810180516001600160e01b03167f2608f81800000000000000000000000000000000000000000000000000000000179052610a38565b905080806020019051810190610ace9190611c79565b6004546001600160a01b031681565b60035460ff1681565b600080610b3583604051602401610db19190611d1e565b60408051601f198184030181529190526020810180516001600160e01b03167f3af9e66900000000000000000000000000000000000000000000000000000000179052610a38565b6040805160048152602481019091526020810180516001600160e01b03167f3b1d21a2000000000000000000000000000000000000000000000000000000001790526000908190610c0d90610ea8565b600080610b3583604051602401610e609190611e84565b60408051601f198184030181529190526020810180516001600160e01b03167f3e94101000000000000000000000000000000000000000000000000000000000179052610a38565b6060600080306001600160a01b031684604051602401610ec89190611db7565b60408051601f198184030181529181526020820180516001600160e01b03167f0933c1ed0000000000000000000000000000000000000000000000000000000017905251610f169190611d02565b600060405180830381855afa9150503d8060008114610f51576040519150601f19603f3d011682016040523d82523d6000602084013e610f56565b606091505b50915091506000821415610f6b573d60208201fd5b80806020019051810190610ace9190611bf7565b600080610b3583604051602401610f969190611d1e565b60408051601f198184030181529190526020810180516001600160e01b03167f4576b5db00000000000000000000000000000000000000000000000000000000179052610a38565b600b5481565b60035461010090046001600160a01b031633146110135760405162461bcd60e51b815260040161035d90611e27565b8115611066576040805160048152602481019091526020810180516001600160e01b03167f153ab5050000000000000000000000000000000000000000000000000000000017905261106490610a38565b505b601280546001600160a01b038581167fffffffffffffffffffffffff00000000000000000000000000000000000000008316179092556040519116906110fc906110b4908490602401611db7565b60408051601f198184030181529190526020810180516001600160e01b03167f56e6772800000000000000000000000000000000000000000000000000000000179052610a38565b506012546040517fd604de94d45953f9138079ec1b82d533cb2160c906d1076d1f7ed54befbca97a9161113a9184916001600160a01b031690611d32565b60405180910390a150505050565b6012546001600160a01b031681565b6005546001600160a01b031681565b600080610b358360405160240161117d9190611e84565b60408051601f198184030181529190526020810180516001600160e01b03167f601a0bf100000000000000000000000000000000000000000000000000000000179052610a38565b666379da05b6000081565b60095481565b6011546001600160a01b031681565b600080610b35836040516024016111fc9190611d1e565b60408051601f198184030181529190526020810180516001600160e01b03167f70a0823100000000000000000000000000000000000000000000000000000000179052610ea8565b6040805160048152602481019091526020810180516001600160e01b03167f73acee98000000000000000000000000000000000000000000000000000000001790526000908190610c0d90610a38565b600080610b35836040516024016112ab9190611e84565b60408051601f198184030181529190526020810180516001600160e01b03167f852a12e300000000000000000000000000000000000000000000000000000000179052610a38565b600c5481565b600280546109b790611f38565b600080610b358360405160240161131d9190611d1e565b60408051601f198184030181529190526020810180516001600160e01b03167f95dd919300000000000000000000000000000000000000000000000000000000179052610ea8565b600080610b358360405160240161137c9190611e84565b60408051601f198184030181529190526020810180516001600160e01b03167fa0712d6800000000000000000000000000000000000000000000000000000000179052610a38565b6040805160048152602481019091526020810180516001600160e01b03167fa6afed95000000000000000000000000000000000000000000000000000000001790526000908190610c0d90610a38565b600080610ab8848460405160240161142d929190611d70565b60408051601f198184030181529190526020810180516001600160e01b03167fa9059cbb00000000000000000000000000000000000000000000000000000000179052610a38565b600a5481565b6040805160048152602481019091526020810180516001600160e01b03167fae9d70b0000000000000000000000000000000000000000000000000000000001790526000908190610c0d90610ea8565b60008061152e8585856040516024016114e693929190611d4c565b60408051601f198184030181529190526020810180516001600160e01b03167fb2a02ff100000000000000000000000000000000000000000000000000000000179052610a38565b905080806020019051810190610d029190611c79565b600080610b358360405160240161155b9190611d1e565b60408051601f198184030181529190526020810180516001600160e01b03167fb71d1a0c00000000000000000000000000000000000000000000000000000000179052610a38565b6040805160048152602481019091526020810180516001600160e01b03167fbd6d894d000000000000000000000000000000000000000000000000000000001790526000908190610c0d90610a38565b60008060008060006116578660405160240161160f9190611d1e565b60408051601f198184030181529190526020810180516001600160e01b03167fc37f68e200000000000000000000000000000000000000000000000000000000179052610ea8565b90508080602001905181019061166d9190611c91565b9450945094509450509193509193565b600080610b35836040516024016116949190611e84565b60408051601f198184030181529190526020810180516001600160e01b03167fc5ebeaec00000000000000000000000000000000000000000000000000000000179052610a38565b600080610b35836040516024016116f39190611e84565b60408051601f198184030181529190526020810180516001600160e01b03167fdb006a7500000000000000000000000000000000000000000000000000000000179052610a38565b600080610d6c8484604051602401611754929190611d32565b60408051601f198184030181529190526020810180516001600160e01b03167fdd62ed3e00000000000000000000000000000000000000000000000000000000179052610ea8565b6040805160048152602481019091526020810180516001600160e01b03167fe9c714f2000000000000000000000000000000000000000000000000000000001790526000908190610c0d90610a38565b600080610b35836040516024016118039190611d1e565b60408051601f198184030181529190526020810180516001600160e01b03167ff2b3abbd00000000000000000000000000000000000000000000000000000000179052610a38565b6006546001600160a01b031681565b60008061152e85858560405160240161187593929190611d89565b60408051601f198184030181529190526020810180516001600160e01b03167ff5e3c46200000000000000000000000000000000000000000000000000000000179052610a38565b60035461010090046001600160a01b031681565b6040805160048152602481019091526020810180516001600160e01b03167ff8f9da28000000000000000000000000000000000000000000000000000000001790526000908190610c0d90610ea8565b600080610b35836040516024016119389190611e84565b60408051601f198184030181529190526020810180516001600160e01b03167ffca7820b00000000000000000000000000000000000000000000000000000000179052610a38565b600181565b6060600080846001600160a01b0316846040516119a29190611d02565b600060405180830381855af49150503d80600081146119dd576040519150601f19603f3d011682016040523d82523d6000602084013e6119e2565b606091505b50915091506000821415610ace573d60208201fd5b600082601f830112611a07578081fd5b8135611a1a611a1582611ee0565b611eb6565b818152846020838601011115611a2e578283fd5b816020850160208301379081016020019190915292915050565b600060208284031215611a59578081fd5b8135610b4b81611f89565b60008060408385031215611a76578081fd5b8235611a8181611f89565b91506020830135611a9181611f89565b809150509250929050565b600080600060608486031215611ab0578081fd5b8335611abb81611f89565b92506020840135611acb81611f89565b929592945050506040919091013590565b600080600060608486031215611af0578283fd5b8335611afb81611f89565b92506020840135611b0b81611fa1565b9150604084013567ffffffffffffffff811115611b26578182fd5b611b32868287016119f7565b9150509250925092565b60008060408385031215611b4e578182fd5b8235611b5981611f89565b946020939093013593505050565b600080600060608486031215611b7b578283fd5b8335611b8681611f89565b9250602084013591506040840135611b9d81611f89565b809150509250925092565b600060208284031215611bb9578081fd5b8151610b4b81611fa1565b600060208284031215611bd5578081fd5b813567ffffffffffffffff811115611beb578182fd5b610ace848285016119f7565b600060208284031215611c08578081fd5b815167ffffffffffffffff811115611c1e578182fd5b8201601f81018413611c2e578182fd5b8051611c3c611a1582611ee0565b818152856020838501011115611c50578384fd5b610d02826020830160208601611f08565b600060208284031215611c72578081fd5b5035919050565b600060208284031215611c8a578081fd5b5051919050565b60008060008060808587031215611ca6578182fd5b505082516020840151604085015160609095015191969095509092509050565b60008151808452611cde816020860160208601611f08565b601f01601f19169290920160200192915050565b6000828483379101908152919050565b60008251611d14818460208701611f08565b9190910192915050565b6001600160a01b0391909116815260200190565b6001600160a01b0392831681529116602082015260400190565b6001600160a01b039384168152919092166020820152604081019190915260600190565b6001600160a01b03929092168252602082015260400190565b6001600160a01b0393841681526020810192909252909116604082015260600190565b901515815260200190565b600060208252610b4b6020830184611cc6565b60208082526037908201527f43457263323044656c656761746f723a66616c6c6261636b3a2063616e6e6f7460408201527f2073656e642076616c756520746f2066616c6c6261636b000000000000000000606082015260800190565b60208082526039908201527f43457263323044656c656761746f723a3a5f736574496d706c656d656e74617460408201527f696f6e3a2043616c6c6572206d7573742062652061646d696e00000000000000606082015260800190565b90815260200190565b93845260208401929092526040830152606082015260800190565b60ff91909116815260200190565b60405181810167ffffffffffffffff81118282101715611ed857611ed8611f73565b604052919050565b600067ffffffffffffffff821115611efa57611efa611f73565b50601f01601f191660200190565b60005b83811015611f23578181015183820152602001611f0b565b83811115611f32576000848401525b50505050565b600281046001821680611f4c57607f821691505b60208210811415611f6d57634e487b7160e01b600052602260045260246000fd5b50919050565b634e487b7160e01b600052604160045260246000fd5b6001600160a01b0381168114611f9e57600080fd5b50565b8015158114611f9e57600080fdfea2646970667358221220bc9ffde83557e60299bd62b53da2813f359093ab27433502e75715a6ee9caf8364736f6c63430008000033",
  "linkReferences": {},
  "deployedLinkReferences": {}
}