{
  "_format": "hh-sol-artifact-1",
  "contractName": "JumpRateModelV2",
  "sourceName": "contracts/InterestModel/JumpRateModelV2.sol",
  "abi": [
    {
      "inputs": [
        {
          "internalType": "uint256",
          "name": "baseRatePerYear",
          "type": "uint256"
        },
        {
          "internalType": "uint256",
          "name": "multiplierPerYear",
          "type": "uint256"
        },
        {
          "internalType": "uint256",
          "name": "jumpMultiplierPerYear",
          "type": "uint256"
        },
        {
          "internalType": "uint256",
          "name": "kink_",
          "type": "uint256"
        },
        {
          "internalType": "address",
          "name": "owner_",
          "type": "address"
        }
      ],
      "stateMutability": "nonpayable",
      "type": "constructor"
    },
    {
      "anonymous": false,
      "inputs": [
        {
          "indexed": false,
          "internalType": "uint256",
          "name": "baseRatePerBlock",
          "type": "uint256"
        },
        {
          "indexed": false,
          "internalType": "uint256",
          "name": "multiplierPerBlock",
          "type": "uint256"
        },
        {
          "indexed": false,
          "internalType": "uint256",
          "name": "jumpMultiplierPerBlock",
          "type": "uint256"
        },
        {
          "indexed": false,
          "internalType": "uint256",
          "name": "kink",
          "type": "uint256"
        }
      ],
      "name": "NewInterestParams",
      "type": "event"
    },
    {
      "inputs": [],
      "name": "baseRatePerBlock",
      "outputs": [
        {
          "internalType": "uint256",
          "name": "",
          "type": "uint256"
        }
      ],
      "stateMutability": "view",
      "type": "function"
    },
    {
      "inputs": [],
      "name": "blocksPerYear",
      "outputs": [
        {
          "internalType": "uint256",
          "name": "",
          "type": "uint256"
        }
      ],
      "stateMutability": "view",
      "type": "function"
    },
    {
      "inputs": [
        {
          "internalType": "uint256",
          "name": "cash",
          "type": "uint256"
        },
        {
          "internalType": "uint256",
          "name": "borrows",
          "type": "uint256"
        },
        {
          "internalType": "uint256",
          "name": "reserves",
          "type": "uint256"
        }
      ],
      "name": "getBorrowRate",
      "outputs": [
        {
          "internalType": "uint256",
          "name": "",
          "type": "uint256"
        }
      ],
      "stateMutability": "view",
      "type": "function"
    },
    {
      "inputs": [
        {
          "internalType": "uint256",
          "name": "cash",
          "type": "uint256"
        },
        {
          "internalType": "uint256",
          "name": "borrows",
          "type": "uint256"
        },
        {
          "internalType": "uint256",
          "name": "reserves",
          "type": "uint256"
        },
        {
          "internalType": "uint256",
          "name": "reserveFactorMantissa",
          "type": "uint256"
        }
      ],
      "name": "getSupplyRate",
      "outputs": [
        {
          "internalType": "uint256",
          "name": "",
          "type": "uint256"
        }
      ],
      "stateMutability": "view",
      "type": "function"
    },
    {
      "inputs": [],
      "name": "isInterestRateModel",
      "outputs": [
        {
          "internalType": "bool",
          "name": "",
          "type": "bool"
        }
      ],
      "stateMutability": "view",
      "type": "function"
    },
    {
      "inputs": [],
      "name": "jumpMultiplierPerBlock",
      "outputs": [
        {
          "internalType": "uint256",
          "name": "",
          "type": "uint256"
        }
      ],
      "stateMutability": "view",
      "type": "function"
    },
    {
      "inputs": [],
      "name": "kink",
      "outputs": [
        {
          "internalType": "uint256",
          "name": "",
          "type": "uint256"
        }
      ],
      "stateMutability": "view",
      "type": "function"
    },
    {
      "inputs": [],
      "name": "multiplierPerBlock",
      "outputs": [
        {
          "internalType": "uint256",
          "name": "",
          "type": "uint256"
        }
      ],
      "stateMutability": "view",
      "type": "function"
    },
    {
      "inputs": [],
      "name": "owner",
      "outputs": [
        {
          "internalType": "address",
          "name": "",
          "type": "address"
        }
      ],
      "stateMutability": "view",
      "type": "function"
    },
    {
      "inputs": [
        {
          "internalType": "uint256",
          "name": "baseRatePerYear",
          "type": "uint256"
        },
        {
          "internalType": "uint256",
          "name": "multiplierPerYear",
          "type": "uint256"
        },
        {
          "internalType": "uint256",
          "name": "jumpMultiplierPerYear",
          "type": "uint256"
        },
        {
          "internalType": "uint256",
          "name": "kink_",
          "type": "uint256"
        }
      ],
      "name": "updateJumpRateModel",
      "outputs": [],
      "stateMutability": "nonpayable",
      "type": "function"
    },
    {
      "inputs": [
        {
          "internalType": "uint256",
          "name": "cash",
          "type": "uint256"
        },
        {
          "internalType": "uint256",
          "name": "borrows",
          "type": "uint256"
        },
        {
          "internalType": "uint256",
          "name": "reserves",
          "type": "uint256"
        }
      ],
      "name": "utilizationRate",
      "outputs": [
        {
          "internalType": "uint256",
          "name": "",
          "type": "uint256"
        }
      ],
      "stateMutability": "pure",
      "type": "function"
    }
  ],
  "bytecode": "0x60806040523480156200001157600080fd5b5060405162000bd538038062000bd583398101604081905262000034916200023d565b600080546001600160a01b0319166001600160a01b0383161790558484848484620000628585858562000072565b5050505050505050505062000397565b6200008f62201480856200015760201b620002d81790919060201c565b600255620000e7620000b16220148083620001aa602090811b6200032317901c565b620000d3670de0b6b3a764000086620001aa60201b620003231790919060201c565b6200015760201b620002d81790919060201c565b60015562000105826220148062000157602090811b620002d817901c565b600381905560048290556002546001546040517f6960ab234c7ef4b0c9197100f5393cfcde7c453ac910a27bd2000aa1dd4c068d936200014993929186906200032f565b60405180910390a150505050565b6000620001a183836040518060400160405280601a81526020017f536166654d6174683a206469766973696f6e206279207a65726f0000000000008152506200020160201b60201c565b90505b92915050565b600082620001bb57506000620001a4565b6000620001c983856200036b565b905082620001d885836200034a565b14620001a15760405162461bcd60e51b8152600401620001f890620002ee565b60405180910390fd5b60008183620002255760405162461bcd60e51b8152600401620001f8919062000298565b5060006200023484866200034a565b95945050505050565b600080600080600060a0868803121562000255578081fd5b855160208701516040880151606089015160808a0151939850919650945092506001600160a01b03811681146200028a578182fd5b809150509295509295909350565b6000602080835283518082850152825b81811015620002c657858101830151858201604001528201620002a8565b81811115620002d85783604083870101525b50601f01601f1916929092016040019392505050565b60208082526021908201527f536166654d6174683a206d756c7469706c69636174696f6e206f766572666c6f6040820152607760f81b606082015260800190565b93845260208401929092526040830152606082015260800190565b6000826200036657634e487b7160e01b81526012600452602481fd5b500490565b60008160001904831182151516156200039257634e487b7160e01b81526011600452602481fd5b500290565b61082e80620003a76000396000f3fe608060405234801561001057600080fd5b50600436106100c95760003560e01c80638da5cb5b11610081578063b9f9850a1161005b578063b9f9850a1461016c578063f14039de14610174578063fd2da3391461017c576100c9565b80638da5cb5b1461013c578063a385fb9614610151578063b816881614610159576100c9565b80632191f92a116100b25780632191f92a1461010c5780636e71e2d8146101215780638726bb8914610134576100c9565b806315f24053146100ce5780632037f3e7146100f7575b600080fd5b6100e16100dc366004610584565b610184565b6040516100ee9190610750565b60405180910390f35b61010a6101053660046105af565b61019b565b005b6101146101ed565b6040516100ee9190610601565b6100e161012f366004610584565b6101f2565b6100e1610230565b610144610236565b6040516100ee91906105e0565b6100e1610252565b6100e16101673660046105af565b610259565b6100e16102c6565b6100e16102cc565b6100e16102d2565b6000610191848484610368565b90505b9392505050565b60005473ffffffffffffffffffffffffffffffffffffffff1633146101db5760405162461bcd60e51b81526004016101d2906106f3565b60405180910390fd5b6101e78484848461042b565b50505050565b600181565b60008261020157506000610194565b6101916102188361021287876104ab565b906104da565b61022a85670de0b6b3a7640000610323565b906102d8565b60015481565b60005473ffffffffffffffffffffffffffffffffffffffff1681565b6220148081565b60008061026e670de0b6b3a7640000846104da565b9050600061027d878787610368565b90506000610297670de0b6b3a764000061022a8486610323565b90506102ba670de0b6b3a764000061022a836102b48c8c8c6101f2565b90610323565b98975050505050505050565b60035481565b60025481565b60045481565b600061031a83836040518060400160405280601a81526020017f536166654d6174683a206469766973696f6e206279207a65726f00000000000081525061051c565b90505b92915050565b6000826103325750600061031d565b600061033e83856107ac565b90508261034b858361078c565b1461031a5760405162461bcd60e51b81526004016101d290610696565b6000806103768585856101f2565b905060045481116103b6576103ae6002546103a8670de0b6b3a764000061022a6001548661032390919063ffffffff16565b906104ab565b915050610194565b60006103e16002546103a8670de0b6b3a764000061022a60015460045461032390919063ffffffff16565b905060006103fa600454846104da90919063ffffffff16565b9050610421826103a8670de0b6b3a764000061022a6003548661032390919063ffffffff16565b9350505050610194565b61043884622014806102d8565b60025561044b6102186220148083610323565b60015561045b82622014806102d8565b600381905560048290556002546001546040517f6960ab234c7ef4b0c9197100f5393cfcde7c453ac910a27bd2000aa1dd4c068d9361049d9392918690610759565b60405180910390a150505050565b6000806104b88385610774565b90508381101561031a5760405162461bcd60e51b81526004016101d29061065f565b600061031a83836040518060400160405280601f81526020017f536166654d6174683a207375627472616374696f6e20756e646572666c6f7700815250610553565b6000818361053d5760405162461bcd60e51b81526004016101d2919061060c565b50600061054a848661078c565b95945050505050565b600081848411156105775760405162461bcd60e51b81526004016101d2919061060c565b50600061054a84866107cb565b600080600060608486031215610598578283fd5b505081359360208301359350604090920135919050565b600080600080608085870312156105c4578081fd5b5050823594602084013594506040840135936060013592509050565b73ffffffffffffffffffffffffffffffffffffffff91909116815260200190565b901515815260200190565b6000602080835283518082850152825b818110156106385785810183015185820160400152820161061c565b818111156106495783604083870101525b50601f01601f1916929092016040019392505050565b6020808252601b908201527f536166654d6174683a206164646974696f6e206f766572666c6f770000000000604082015260600190565b60208082526021908201527f536166654d6174683a206d756c7469706c69636174696f6e206f766572666c6f60408201527f7700000000000000000000000000000000000000000000000000000000000000606082015260800190565b60208082526026908201527f6f6e6c7920746865206f776e6572206d61792063616c6c20746869732066756e60408201527f6374696f6e2e0000000000000000000000000000000000000000000000000000606082015260800190565b90815260200190565b93845260208401929092526040830152606082015260800190565b60008219821115610787576107876107e2565b500190565b6000826107a757634e487b7160e01b81526012600452602481fd5b500490565b60008160001904831182151516156107c6576107c66107e2565b500290565b6000828210156107dd576107dd6107e2565b500390565b634e487b7160e01b600052601160045260246000fdfea2646970667358221220202572e55c7c6d4c7191e348f288ecc54f229eed83224448e7b3f1bda7b266ca64736f6c63430008000033",
  "linkReferences": {},
  "deployedLinkReferences": {}
}