{
  "_format": "hh-sol-artifact-1",
  "contractName": "CDelegationStorage",
  "sourceName": "contracts/Interfaces/CTokenInterfaces.sol",
  "abi": [
    {
      "inputs": [],
      "name": "implementation",
      "outputs": [
        {
          "internalType": "address",
          "name": "",
          "type": "address"
        }
      ],
      "stateMutability": "view",
      "type": "function"
    }
  ],
  "bytecode": "0x6080604052348015600f57600080fd5b5060ba8061001e6000396000f3fe6080604052348015600f57600080fd5b506004361060285760003560e01c80635c60da1b14602d575b600080fd5b60336047565b604051603e91906063565b60405180910390f35b60005473ffffffffffffffffffffffffffffffffffffffff1681565b73ffffffffffffffffffffffffffffffffffffffff9190911681526020019056fea26469706673582212202a0772f7d98267ae86d137e994261911904f4c1425d39948ab16dce1c65093f264736f6c63430008000033",
  "linkReferences": {},
  "deployedLinkReferences": {}
}