{
  "_format": "hh-sol-artifact-1",
  "contractName": "Unitroller",
  "sourceName": "contracts/Comptroller/Unitroller.sol",
  "abi": [
    {
      "inputs": [],
      "stateMutability": "nonpayable",
      "type": "constructor"
    },
    {
      "anonymous": false,
      "inputs": [
        {
          "indexed": false,
          "internalType": "uint256",
          "name": "error",
          "type": "uint256"
        },
        {
          "indexed": false,
          "internalType": "uint256",
          "name": "info",
          "type": "uint256"
        },
        {
          "indexed": false,
          "internalType": "uint256",
          "name": "detail",
          "type": "uint256"
        }
      ],
      "name": "Failure",
      "type": "event"
    },
    {
      "anonymous": false,
      "inputs": [
        {
          "indexed": false,
          "internalType": "address",
          "name": "oldAdmin",
          "type": "address"
        },
        {
          "indexed": false,
          "internalType": "address",
          "name": "newAdmin",
          "type": "address"
        }
      ],
      "name": "NewAdmin",
      "type": "event"
    },
    {
      "anonymous": false,
      "inputs": [
        {
          "indexed": false,
          "internalType": "address",
          "name": "oldImplementation",
          "type": "address"
        },
        {
          "indexed": false,
          "internalType": "address",
          "name": "newImplementation",
          "type": "address"
        }
      ],
      "name": "NewImplementation",
      "type": "event"
    },
    {
      "anonymous": false,
      "inputs": [
        {
          "indexed": false,
          "internalType": "address",
          "name": "oldPendingAdmin",
          "type": "address"
        },
        {
          "indexed": false,
          "internalType": "address",
          "name": "newPendingAdmin",
          "type": "address"
        }
      ],
      "name": "NewPendingAdmin",
      "type": "event"
    },
    {
      "anonymous": false,
      "inputs": [
        {
          "indexed": false,
          "internalType": "address",
          "name": "oldPendingImplementation",
          "type": "address"
        },
        {
          "indexed": false,
          "internalType": "address",
          "name": "newPendingImplementation",
          "type": "address"
        }
      ],
      "name": "NewPendingImplementation",
      "type": "event"
    },
    {
      "stateMutability": "payable",
      "type": "fallback"
    },
    {
      "inputs": [],
      "name": "_acceptAdmin",
      "outputs": [
        {
          "internalType": "uint256",
          "name": "",
          "type": "uint256"
        }
      ],
      "stateMutability": "nonpayable",
      "type": "function"
    },
    {
      "inputs": [],
      "name": "_acceptImplementation",
      "outputs": [
        {
          "internalType": "uint256",
          "name": "",
          "type": "uint256"
        }
      ],
      "stateMutability": "nonpayable",
      "type": "function"
    },
    {
      "inputs": [
        {
          "internalType": "address",
          "name": "newPendingAdmin",
          "type": "address"
        }
      ],
      "name": "_setPendingAdmin",
      "outputs": [
        {
          "internalType": "uint256",
          "name": "",
          "type": "uint256"
        }
      ],
      "stateMutability": "nonpayable",
      "type": "function"
    },
    {
      "inputs": [
        {
          "internalType": "address",
          "name": "newPendingImplementation",
          "type": "address"
        }
      ],
      "name": "_setPendingImplementation",
      "outputs": [
        {
          "internalType": "uint256",
          "name": "",
          "type": "uint256"
        }
      ],
      "stateMutability": "nonpayable",
      "type": "function"
    },
    {
      "inputs": [],
      "name": "admin",
      "outputs": [
        {
          "internalType": "address",
          "name": "",
          "type": "address"
        }
      ],
      "stateMutability": "view",
      "type": "function"
    },
    {
      "inputs": [],
      "name": "compAddress",
      "outputs": [
        {
          "internalType": "address",
          "name": "",
          "type": "address"
        }
      ],
      "stateMutability": "view",
      "type": "function"
    },
    {
      "inputs": [],
      "name": "comptrollerImplementation",
      "outputs": [
        {
          "internalType": "address",
          "name": "",
          "type": "address"
        }
      ],
      "stateMutability": "view",
      "type": "function"
    },
    {
      "inputs": [],
      "name": "pendingAdmin",
      "outputs": [
        {
          "internalType": "address",
          "name": "",
          "type": "address"
        }
      ],
      "stateMutability": "view",
      "type": "function"
    },
    {
      "inputs": [],
      "name": "pendingComptrollerImplementation",
      "outputs": [
        {
          "internalType": "address",
          "name": "",
          "type": "address"
        }
      ],
      "stateMutability": "view",
      "type": "function"
    }
  ],
  "bytecode": "0x608060405234801561001057600080fd5b50600080546001600160a01b031916331790556106b0806100326000396000f3fe6080604052600436106100965760003560e01c8063c1e8033411610069578063e992a0411161004e578063e992a041146101bd578063e9c714f2146101dd578063f851a440146101f257610096565b8063c1e8033414610193578063dcfbc0c7146101a857610096565b806326782247146101115780637d3ab61a1461013c578063b71d1a0c14610151578063bb82aa5e1461017e575b6002546040516000916001600160a01b0316906100b6908390369061061d565b600060405180830381855af49150503d80600081146100f1576040519150601f19603f3d011682016040523d82523d6000602084013e6100f6565b606091505b505090506040513d6000823e81801561010d573d82f35b3d82fd5b34801561011d57600080fd5b50610126610207565b604051610133919061062d565b60405180910390f35b34801561014857600080fd5b50610126610216565b34801561015d57600080fd5b5061017161016c3660046105f6565b610225565b604051610133919061065b565b34801561018a57600080fd5b506101266102be565b34801561019f57600080fd5b506101716102cd565b3480156101b457600080fd5b506101266103d2565b3480156101c957600080fd5b506101716101d83660046105f6565b6103e1565b3480156101e957600080fd5b50610171610462565b3480156101fe57600080fd5b50610126610544565b6001546001600160a01b031681565b6004546001600160a01b031681565b600080546001600160a01b0316331461024b576102446001600e610553565b90506102b9565b600180546001600160a01b0384811673ffffffffffffffffffffffffffffffffffffffff198316179092556040519116907fca4f2f25d0898edd99413412fb94012f9e54ec8142f9b093e7720646a95b16a9906102ab9083908690610641565b60405180910390a160009150505b919050565b6002546001600160a01b031681565b6003546000906001600160a01b0316331415806102f357506003546001600160a01b0316155b1561030a57610303600180610553565b90506103cf565b60028054600380546001600160a01b0380821673ffffffffffffffffffffffffffffffffffffffff198086168217968790559092169092556040519282169390927fd604de94d45953f9138079ec1b82d533cb2160c906d1076d1f7ed54befbca97a9261037b928692911690610641565b60405180910390a16003546040517fe945ccee5d701fc83f9b8aa8ca94ea4219ec1fcbd4f4cab4f0ea57c5c3e1d815916103c09184916001600160a01b031690610641565b60405180910390a16000925050505b90565b6003546001600160a01b031681565b600080546001600160a01b03163314610400576102446001600f610553565b600380546001600160a01b0384811673ffffffffffffffffffffffffffffffffffffffff1983161792839055604051918116927fe945ccee5d701fc83f9b8aa8ca94ea4219ec1fcbd4f4cab4f0ea57c5c3e1d815926102ab9285921690610641565b6001546000906001600160a01b03163314158061047d575033155b1561048e5761030360016000610553565b60008054600180546001600160a01b0380821673ffffffffffffffffffffffffffffffffffffffff198086168217968790559092169092556040519282169390927ff9ffabca9c8276e99321725bcb43fb076a6c66a54b7f21c4e8146d8519b417dc926104ff928692911690610641565b60405180910390a16001546040517fca4f2f25d0898edd99413412fb94012f9e54ec8142f9b093e7720646a95b16a9916103c09184916001600160a01b031690610641565b6000546001600160a01b031681565b60007f45b96fe442630264581b197e84bbada861235052c5a1aadfff9ea4e40a969aa083601181111561059657634e487b7160e01b600052602160045260246000fd5b8360138111156105b657634e487b7160e01b600052602160045260246000fd5b60006040516105c793929190610664565b60405180910390a18260118111156105ef57634e487b7160e01b600052602160045260246000fd5b9392505050565b600060208284031215610607578081fd5b81356001600160a01b03811681146105ef578182fd5b6000828483379101908152919050565b6001600160a01b0391909116815260200190565b6001600160a01b0392831681529116602082015260400190565b90815260200190565b928352602083019190915260408201526060019056fea26469706673582212209d3d3e6ae6fa90c49aad91abfc80d01f4dd25ef528dab0a67fe52761238ad6c564736f6c63430008000033",
  "linkReferences": {},
  "deployedLinkReferences": {}
}