{
  "_format": "hh-sol-artifact-1",
  "contractName": "Votable",
  "sourceName": "contracts/Governance/Votable.sol",
  "abi": [
    {
      "inputs": [],
      "stateMutability": "nonpayable",
      "type": "constructor"
    },
    {
      "anonymous": false,
      "inputs": [
        {
          "indexed": false,
          "internalType": "address",
          "name": "voter",
          "type": "address"
        }
      ],
      "name": "AddVoter",
      "type": "event"
    },
    {
      "anonymous": false,
      "inputs": [
        {
          "indexed": false,
          "internalType": "uint16",
          "name": "pid",
          "type": "uint16"
        }
      ],
      "name": "CloseProposal",
      "type": "event"
    },
    {
      "anonymous": false,
      "inputs": [
        {
          "indexed": false,
          "internalType": "uint16",
          "name": "pid",
          "type": "uint16"
        }
      ],
      "name": "DoneProposal",
      "type": "event"
    },
    {
      "anonymous": false,
      "inputs": [
        {
          "indexed": false,
          "internalType": "uint16",
          "name": "pid",
          "type": "uint16"
        }
      ],
      "name": "OpenProposal",
      "type": "event"
    },
    {
      "anonymous": false,
      "inputs": [
        {
          "indexed": true,
          "internalType": "address",
          "name": "previousOwner",
          "type": "address"
        },
        {
          "indexed": true,
          "internalType": "address",
          "name": "newOwner",
          "type": "address"
        }
      ],
      "name": "OwnershipTransferred",
      "type": "event"
    },
    {
      "anonymous": false,
      "inputs": [
        {
          "indexed": false,
          "internalType": "address",
          "name": "voter",
          "type": "address"
        }
      ],
      "name": "RemoveVoter",
      "type": "event"
    },
    {
      "anonymous": false,
      "inputs": [
        {
          "indexed": false,
          "internalType": "uint16",
          "name": "pid",
          "type": "uint16"
        },
        {
          "indexed": false,
          "internalType": "address",
          "name": "voter",
          "type": "address"
        }
      ],
      "name": "VoteProposal",
      "type": "event"
    },
    {
      "inputs": [
        {
          "internalType": "address",
          "name": "_voter",
          "type": "address"
        }
      ],
      "name": "addVoter",
      "outputs": [],
      "stateMutability": "nonpayable",
      "type": "function"
    },
    {
      "inputs": [
        {
          "internalType": "uint16",
          "name": "_pid",
          "type": "uint16"
        }
      ],
      "name": "closeProposal",
      "outputs": [],
      "stateMutability": "nonpayable",
      "type": "function"
    },
    {
      "inputs": [
        {
          "internalType": "uint16",
          "name": "_pid",
          "type": "uint16"
        }
      ],
      "name": "hasVoted",
      "outputs": [
        {
          "internalType": "bool",
          "name": "",
          "type": "bool"
        }
      ],
      "stateMutability": "view",
      "type": "function"
    },
    {
      "inputs": [],
      "name": "nextPid",
      "outputs": [
        {
          "internalType": "uint16",
          "name": "",
          "type": "uint16"
        }
      ],
      "stateMutability": "view",
      "type": "function"
    },
    {
      "inputs": [
        {
          "internalType": "address",
          "name": "_voter",
          "type": "address"
        }
      ],
      "name": "openAddVoterProposal",
      "outputs": [],
      "stateMutability": "nonpayable",
      "type": "function"
    },
    {
      "inputs": [
        {
          "internalType": "address",
          "name": "_voter",
          "type": "address"
        }
      ],
      "name": "openRemoveVoterProposal",
      "outputs": [],
      "stateMutability": "nonpayable",
      "type": "function"
    },
    {
      "inputs": [],
      "name": "owner",
      "outputs": [
        {
          "internalType": "address",
          "name": "",
          "type": "address"
        }
      ],
      "stateMutability": "view",
      "type": "function"
    },
    {
      "inputs": [
        {
          "internalType": "uint16",
          "name": "",
          "type": "uint16"
        }
      ],
      "name": "proposals",
      "outputs": [
        {
          "internalType": "uint16",
          "name": "pid",
          "type": "uint16"
        },
        {
          "internalType": "uint16",
          "name": "count",
          "type": "uint16"
        },
        {
          "internalType": "bool",
          "name": "done",
          "type": "bool"
        },
        {
          "internalType": "bytes",
          "name": "payload",
          "type": "bytes"
        }
      ],
      "stateMutability": "view",
      "type": "function"
    },
    {
      "inputs": [
        {
          "internalType": "address",
          "name": "_voter",
          "type": "address"
        }
      ],
      "name": "removeVoter",
      "outputs": [],
      "stateMutability": "nonpayable",
      "type": "function"
    },
    {
      "inputs": [],
      "name": "renounceOwnership",
      "outputs": [],
      "stateMutability": "nonpayable",
      "type": "function"
    },
    {
      "inputs": [
        {
          "internalType": "address",
          "name": "newOwner",
          "type": "address"
        }
      ],
      "name": "transferOwnership",
      "outputs": [],
      "stateMutability": "nonpayable",
      "type": "function"
    },
    {
      "inputs": [
        {
          "internalType": "uint16",
          "name": "_pid",
          "type": "uint16"
        }
      ],
      "name": "voteProposal",
      "outputs": [],
      "stateMutability": "nonpayable",
      "type": "function"
    },
    {
      "inputs": [
        {
          "internalType": "address",
          "name": "",
          "type": "address"
        }
      ],
      "name": "voters",
      "outputs": [
        {
          "internalType": "bool",
          "name": "",
          "type": "bool"
        }
      ],
      "stateMutability": "view",
      "type": "function"
    },
    {
      "inputs": [],
      "name": "votersCount",
      "outputs": [
        {
          "internalType": "uint16",
          "name": "",
          "type": "uint16"
        }
      ],
      "stateMutability": "view",
      "type": "function"
    }
  ],
  "bytecode": "0x60806040526002805461ffff19908116909155600480549091166127101790553480156200002c57600080fd5b50620000416200003b620000f8565b620000fc565b6001806000620000506200014c565b6001600160a01b0316815260208101919091526040016000908120805460ff1916921515929092179091556002805461ffff16916200008f836200016f565b91906101000a81548161ffff021916908361ffff160217905550507f0ad2eca75347acd5160276fe4b5dad46987e4ff4af9e574195e3e9bc15d7e0ff620000db6200014c60201b60201c565b604051620000ea91906200015b565b60405180910390a16200019e565b3390565b600080546001600160a01b038381166001600160a01b0319831681178455604051919092169283917f8be0079c531659141344cd1fd0a4f28419497f9722a3daafe3b4186f6b6457e09190a35050565b6000546001600160a01b031690565b6001600160a01b0391909116815260200190565b600061ffff808316818114156200019457634e487b7160e01b83526011600452602483fd5b6001019392505050565b6112e280620001ae6000396000f3fe608060405234801561001057600080fd5b50600436106100ea5760003560e01c8063a3ec138d1161008c578063de38646f11610066578063de38646f146101c3578063de513e3d146101d6578063f2fde38b146101e9578063f4ab9adf146101fc576100ea565b8063a3ec138d1461017a578063c497efa31461018d578063d1dc5a88146101b0576100ea565b8063715018a6116100c8578063715018a61461014257806386c1ff681461014a5780638da5cb5b1461015d57806398c0793814610172576100ea565b80632eda8a9a146100ef57806344d664af146101045780636809712714610122575b600080fd5b6101026100fd366004610d1f565b61020f565b005b61010c6102cb565b6040516101199190611142565b60405180910390f35b610135610130366004610d4d565b6102d5565b6040516101199190610e1e565b610102610340565b610102610158366004610d1f565b61038b565b6101656104b2565b6040516101199190610e0a565b61010c6104c1565b610135610188366004610d1f565b6104cb565b6101a061019b366004610d4d565b6104e0565b604051610119949392919061116e565b6101026101be366004610d4d565b6105a1565b6101026101d1366004610d1f565b61076b565b6101026101e4366004610d4d565b61081b565b6101026101f7366004610d1f565b61092d565b61010261020a366004610d1f565b61099b565b610217610a84565b6001600160a01b03166102286104b2565b6001600160a01b0316146102575760405162461bcd60e51b815260040161024e9061101c565b60405180910390fd5b6102c88160405160240161026b9190610e0a565b60408051601f198184030181529190526020810180517bffffffffffffffffffffffffffffffffffffffffffffffffffffffff167f86c1ff6800000000000000000000000000000000000000000000000000000000179052610a88565b50565b60045461ffff1681565b61ffff808216600081815260036020526040812080549193909291161461030e5760405162461bcd60e51b815260040161024e90610f51565b80600201600061031c610a84565b6001600160a01b0316815260208101919091526040016000205460ff169392505050565b610348610a84565b6001600160a01b03166103596104b2565b6001600160a01b03161461037f5760405162461bcd60e51b815260040161024e9061101c565b6103896000610b2b565b565b30610394610a84565b6001600160a01b0316146103ba5760405162461bcd60e51b815260040161024e90610e29565b6001600160a01b03811660009081526001602052604090205460ff166103f25760405162461bcd60e51b815260040161024e90611088565b6103fa6104b2565b6001600160a01b0316816001600160a01b0316141561042b5760405162461bcd60e51b815260040161024e906110e5565b6001600160a01b0381166000908152600160205260408120805460ff191690556002805461ffff169161045d8361121b565b91906101000a81548161ffff021916908361ffff160217905550507f1c959242c0718835c6a0d1fdc1c02056059ed6025bd0bfb268523cf23825ac4f816040516104a79190610e0a565b60405180910390a150565b6000546001600160a01b031690565b60025461ffff1681565b60016020526000908152604090205460ff1681565b6003602052600090815260409020805460018201805461ffff8084169462010000850490911693640100000000900460ff1692909161051e90611239565b80601f016020809104026020016040519081016040528092919081815260200182805461054a90611239565b80156105975780601f1061056c57610100808354040283529160200191610597565b820191906000526020600020905b81548152906001019060200180831161057a57829003601f168201915b5050505050905084565b600160006105ad610a84565b6001600160a01b0316815260208101919091526040016000205460ff166105e65760405162461bcd60e51b815260040161024e90610f1a565b61ffff8082166000818152600360205260409020548392161461061b5760405162461bcd60e51b815260040161024e90610f51565b61ffff8116600090815260036020526040902054640100000000900460ff16156106575760405162461bcd60e51b815260040161024e90610f88565b61ffff82166000908152600360205260408120906002820190610678610a84565b6001600160a01b0316815260208101919091526040016000205460ff16156106b25760405162461bcd60e51b815260040161024e90610ebd565b60018160020160006106c2610a84565b6001600160a01b031681526020810191909152604001600020805460ff1916911515919091179055805462010000900461ffff1681600261070283611274565b91906101000a81548161ffff021916908361ffff160217905550507f7313139463b6c2096b7200e02a3c6452f21ba9b1fc1a7893f8fea395f96fb1f583610747610a84565b604051610755929190611151565b60405180910390a161076681610b93565b505050565b610773610a84565b6001600160a01b03166107846104b2565b6001600160a01b0316146107aa5760405162461bcd60e51b815260040161024e9061101c565b6102c8816040516024016107be9190610e0a565b60408051601f198184030181529190526020810180517bffffffffffffffffffffffffffffffffffffffffffffffffffffffff167ff4ab9adf00000000000000000000000000000000000000000000000000000000179052610a88565b61ffff808216600081815260036020526040902054839216146108505760405162461bcd60e51b815260040161024e90610f51565b61ffff8116600090815260036020526040902054640100000000900460ff161561088c5760405162461bcd60e51b815260040161024e90610f88565b610894610a84565b6001600160a01b03166108a56104b2565b6001600160a01b0316146108cb5760405162461bcd60e51b815260040161024e9061101c565b61ffff821660009081526003602052604090819020805464ff000000001916640100000000179055517f90e42b47bbe58e6e72598349aa50e83f3c8afe5dba12be98e47fac63c50d3b9f90610921908490611142565b60405180910390a15050565b610935610a84565b6001600160a01b03166109466104b2565b6001600160a01b03161461096c5760405162461bcd60e51b815260040161024e9061101c565b6001600160a01b0381166109925760405162461bcd60e51b815260040161024e90610e60565b6102c881610b2b565b306109a4610a84565b6001600160a01b0316146109ca5760405162461bcd60e51b815260040161024e90610e29565b6001600160a01b03811660009081526001602052604090205460ff1615610a035760405162461bcd60e51b815260040161024e90610fbf565b6001600160a01b03811660009081526001602081905260408220805460ff191690911790556002805461ffff1691610a3a83611274565b91906101000a81548161ffff021916908361ffff160217905550507f0ad2eca75347acd5160276fe4b5dad46987e4ff4af9e574195e3e9bc15d7e0ff816040516104a79190610e0a565b3390565b6004805460009161ffff9091169082610aa083611274565b82546101009290920a61ffff81810219909316918316021790915581166000818152600360209081526040909120805461ffff191690921764ffffff0000191682558451929350610afb926001929092019190850190610c86565b507f51997f8715e3c335ae20eab683f42aa156edf3848416b9187dd726408a25d943816040516109219190611142565b600080546001600160a01b038381167fffffffffffffffffffffffff0000000000000000000000000000000000000000831681178455604051919092169283917f8be0079c531659141344cd1fd0a4f28419497f9722a3daafe3b4186f6b6457e09190a35050565b60028054610ba5919061ffff166111ee565b815461ffff9182166201000090910490911611156102c8576000306001600160a01b031682600101604051610bda9190610d6f565b6000604051808303816000865af19150503d8060008114610c17576040519150601f19603f3d011682016040523d82523d6000602084013e610c1c565b606091505b5050905080610c3d5760405162461bcd60e51b815260040161024e90611051565b815464ff000000001916640100000000178083556040517f33fd8f5edaebafa8acc373f0bef6ca907a131bb5fdcc4d129b0512991f633514916109219161ffff90911690611142565b828054610c9290611239565b90600052602060002090601f016020900481019282610cb45760008555610cfa565b82601f10610ccd57805160ff1916838001178555610cfa565b82800160010185558215610cfa579182015b82811115610cfa578251825591602001919060010190610cdf565b50610d06929150610d0a565b5090565b5b80821115610d065760008155600101610d0b565b600060208284031215610d30578081fd5b81356001600160a01b0381168114610d46578182fd5b9392505050565b600060208284031215610d5e578081fd5b813561ffff81168114610d46578182fd5b8154600090819060028104600180831680610d8b57607f831692505b6020808410821415610dab57634e487b7160e01b87526022600452602487fd5b818015610dbf5760018114610dd057610dfc565b60ff19861689528489019650610dfc565b610dd98a6111e2565b885b86811015610df45781548b820152908501908301610ddb565b505084890196505b509498975050505050505050565b6001600160a01b0391909116815260200190565b901515815260200190565b6020808252601b908201527f566f7461626c653a206f6e6c792073656c662063616e2063616c6c0000000000604082015260600190565b60208082526026908201527f4f776e61626c653a206e6577206f776e657220697320746865207a65726f206160408201527f6464726573730000000000000000000000000000000000000000000000000000606082015260800190565b60208082526028908201527f566f7461626c653a206475706c696361746520766f74696e67206973206e6f7460408201527f20616c6c6f776564000000000000000000000000000000000000000000000000606082015260800190565b6020808252601c908201527f566f7461626c653a206f6e6c7920766f7465722063616e2063616c6c00000000604082015260600190565b6020808252601c908201527f566f7461626c653a2070726f706f73616c206e6f742065786973747300000000604082015260600190565b60208082526019908201527f566f7461626c653a2070726f706f73616c20697320646f6e6500000000000000604082015260600190565b60208082526028908201527f566f7461626c653a2074686973206164647265737320697320616c726561647960408201527f206120766f746572000000000000000000000000000000000000000000000000606082015260800190565b6020808252818101527f4f776e61626c653a2063616c6c6572206973206e6f7420746865206f776e6572604082015260600190565b6020808252601c908201527f566f7461626c653a2063616c6c207061796c6f6164206661696c656400000000604082015260600190565b60208082526024908201527f566f7461626c653a20746869732061646472657373206973206e6f742061207660408201527f6f74657200000000000000000000000000000000000000000000000000000000606082015260800190565b60208082526021908201527f566f7461626c653a206f776e65722063616e206e6f742062652072656d6f766560408201527f6400000000000000000000000000000000000000000000000000000000000000606082015260800190565b61ffff91909116815260200190565b61ffff9290921682526001600160a01b0316602082015260400190565b600061ffff808716835260208187168185015285151560408501526080606085015284519150816080850152825b828110156111b85785810182015185820160a00152810161119c565b828111156111c9578360a084870101525b5050601f01601f19169190910160a00195945050505050565b60009081526020902090565b600061ffff8084168061120f57634e487b7160e01b83526012600452602483fd5b92169190910492915050565b600061ffff82168061122f5761122f611296565b6000190192915050565b60028104600182168061124d57607f821691505b6020821081141561126e57634e487b7160e01b600052602260045260246000fd5b50919050565b600061ffff8083168181141561128c5761128c611296565b6001019392505050565b634e487b7160e01b600052601160045260246000fdfea2646970667358221220ccb128304037ea8a01202f2db14958d07c94f4d003a142a8e4c967c87f8c52d664736f6c63430008000033",
  "linkReferences": {},
  "deployedLinkReferences": {}
}