{
  "_format": "hh-sol-artifact-1",
  "contractName": "BaseJumpRateModelV2",
  "sourceName": "contracts/InterestModel/BaseJumpRateModelV2.sol",
  "abi": [
    {
      "inputs": [
        {
          "internalType": "uint256",
          "name": "baseRatePerYear",
          "type": "uint256"
        },
        {
          "internalType": "uint256",
          "name": "multiplierPerYear",
          "type": "uint256"
        },
        {
          "internalType": "uint256",
          "name": "jumpMultiplierPerYear",
          "type": "uint256"
        },
        {
          "internalType": "uint256",
          "name": "kink_",
          "type": "uint256"
        },
        {
          "internalType": "address",
          "name": "owner_",
          "type": "address"
        }
      ],
      "stateMutability": "nonpayable",
      "type": "constructor"
    },
    {
      "anonymous": false,
      "inputs": [
        {
          "indexed": false,
          "internalType": "uint256",
          "name": "baseRatePerBlock",
          "type": "uint256"
        },
        {
          "indexed": false,
          "internalType": "uint256",
          "name": "multiplierPerBlock",
          "type": "uint256"
        },
        {
          "indexed": false,
          "internalType": "uint256",
          "name": "jumpMultiplierPerBlock",
          "type": "uint256"
        },
        {
          "indexed": false,
          "internalType": "uint256",
          "name": "kink",
          "type": "uint256"
        }
      ],
      "name": "NewInterestParams",
      "type": "event"
    },
    {
      "inputs": [],
      "name": "baseRatePerBlock",
      "outputs": [
        {
          "internalType": "uint256",
          "name": "",
          "type": "uint256"
        }
      ],
      "stateMutability": "view",
      "type": "function"
    },
    {
      "inputs": [],
      "name": "blocksPerYear",
      "outputs": [
        {
          "internalType": "uint256",
          "name": "",
          "type": "uint256"
        }
      ],
      "stateMutability": "view",
      "type": "function"
    },
    {
      "inputs": [
        {
          "internalType": "uint256",
          "name": "cash",
          "type": "uint256"
        },
        {
          "internalType": "uint256",
          "name": "borrows",
          "type": "uint256"
        },
        {
          "internalType": "uint256",
          "name": "reserves",
          "type": "uint256"
        },
        {
          "internalType": "uint256",
          "name": "reserveFactorMantissa",
          "type": "uint256"
        }
      ],
      "name": "getSupplyRate",
      "outputs": [
        {
          "internalType": "uint256",
          "name": "",
          "type": "uint256"
        }
      ],
      "stateMutability": "view",
      "type": "function"
    },
    {
      "inputs": [],
      "name": "jumpMultiplierPerBlock",
      "outputs": [
        {
          "internalType": "uint256",
          "name": "",
          "type": "uint256"
        }
      ],
      "stateMutability": "view",
      "type": "function"
    },
    {
      "inputs": [],
      "name": "kink",
      "outputs": [
        {
          "internalType": "uint256",
          "name": "",
          "type": "uint256"
        }
      ],
      "stateMutability": "view",
      "type": "function"
    },
    {
      "inputs": [],
      "name": "multiplierPerBlock",
      "outputs": [
        {
          "internalType": "uint256",
          "name": "",
          "type": "uint256"
        }
      ],
      "stateMutability": "view",
      "type": "function"
    },
    {
      "inputs": [],
      "name": "owner",
      "outputs": [
        {
          "internalType": "address",
          "name": "",
          "type": "address"
        }
      ],
      "stateMutability": "view",
      "type": "function"
    },
    {
      "inputs": [
        {
          "internalType": "uint256",
          "name": "baseRatePerYear",
          "type": "uint256"
        },
        {
          "internalType": "uint256",
          "name": "multiplierPerYear",
          "type": "uint256"
        },
        {
          "internalType": "uint256",
          "name": "jumpMultiplierPerYear",
          "type": "uint256"
        },
        {
          "internalType": "uint256",
          "name": "kink_",
          "type": "uint256"
        }
      ],
      "name": "updateJumpRateModel",
      "outputs": [],
      "stateMutability": "nonpayable",
      "type": "function"
    },
    {
      "inputs": [
        {
          "internalType": "uint256",
          "name": "cash",
          "type": "uint256"
        },
        {
          "internalType": "uint256",
          "name": "borrows",
          "type": "uint256"
        },
        {
          "internalType": "uint256",
          "name": "reserves",
          "type": "uint256"
        }
      ],
      "name": "utilizationRate",
      "outputs": [
        {
          "internalType": "uint256",
          "name": "",
          "type": "uint256"
        }
      ],
      "stateMutability": "pure",
      "type": "function"
    }
  ],
  "bytecode": "0x60806040523480156200001157600080fd5b5060405162000b6038038062000b60833981016040819052620000349162000233565b600080546001600160a01b0319166001600160a01b0383161790556200005d8585858562000068565b50505050506200038d565b6200008562201480856200014d60201b620002781790919060201c565b600255620000dd620000a76220148083620001a0602090811b620002c317901c565b620000c9670de0b6b3a764000086620001a060201b620002c31790919060201c565b6200014d60201b620002781790919060201c565b600155620000fb82622014806200014d602090811b6200027817901c565b600381905560048290556002546001546040517f6960ab234c7ef4b0c9197100f5393cfcde7c453ac910a27bd2000aa1dd4c068d936200013f939291869062000325565b60405180910390a150505050565b60006200019783836040518060400160405280601a81526020017f536166654d6174683a206469766973696f6e206279207a65726f000000000000815250620001f760201b60201c565b90505b92915050565b600082620001b1575060006200019a565b6000620001bf838562000361565b905082620001ce858362000340565b14620001975760405162461bcd60e51b8152600401620001ee90620002e4565b60405180910390fd5b600081836200021b5760405162461bcd60e51b8152600401620001ee91906200028e565b5060006200022a848662000340565b95945050505050565b600080600080600060a086880312156200024b578081fd5b855160208701516040880151606089015160808a0151939850919650945092506001600160a01b038116811462000280578182fd5b809150509295509295909350565b6000602080835283518082850152825b81811015620002bc578581018301518582016040015282016200029e565b81811115620002ce5783604083870101525b50601f01601f1916929092016040019392505050565b60208082526021908201527f536166654d6174683a206d756c7469706c69636174696f6e206f766572666c6f6040820152607760f81b606082015260800190565b93845260208401929092526040830152606082015260800190565b6000826200035c57634e487b7160e01b81526012600452602481fd5b500490565b60008160001904831182151516156200038857634e487b7160e01b81526011600452602481fd5b500290565b6107c3806200039d6000396000f3fe608060405234801561001057600080fd5b50600436106100a35760003560e01c8063a385fb9611610076578063b9f9850a1161005b578063b9f9850a1461011e578063f14039de14610126578063fd2da3391461012e576100a3565b8063a385fb9614610103578063b81688161461010b576100a3565b80632037f3e7146100a85780636e71e2d8146100bd5780638726bb89146100e65780638da5cb5b146100ee575b600080fd5b6100bb6100b636600461054f565b610136565b005b6100d06100cb366004610524565b610188565b6040516100dd91906106e5565b60405180910390f35b6100d06101d0565b6100f66101d6565b6040516100dd9190610580565b6100d06101f2565b6100d061011936600461054f565b6101f9565b6100d0610266565b6100d061026c565b6100d0610272565b60005473ffffffffffffffffffffffffffffffffffffffff1633146101765760405162461bcd60e51b815260040161016d90610688565b60405180910390fd5b61018284848484610308565b50505050565b600082610197575060006101c9565b6101c66101ae836101a88787610388565b906103b7565b6101c085670de0b6b3a76400006102c3565b90610278565b90505b9392505050565b60015481565b60005473ffffffffffffffffffffffffffffffffffffffff1681565b6220148081565b60008061020e670de0b6b3a7640000846103b7565b9050600061021d8787876103f9565b90506000610237670de0b6b3a76400006101c084866102c3565b905061025a670de0b6b3a76400006101c0836102548c8c8c610188565b906102c3565b98975050505050505050565b60035481565b60025481565b60045481565b60006102ba83836040518060400160405280601a81526020017f536166654d6174683a206469766973696f6e206279207a65726f0000000000008152506104bc565b90505b92915050565b6000826102d2575060006102bd565b60006102de8385610741565b9050826102eb8583610721565b146102ba5760405162461bcd60e51b815260040161016d9061062b565b6103158462201480610278565b6002556103286101ae62201480836102c3565b6001556103388262201480610278565b600381905560048290556002546001546040517f6960ab234c7ef4b0c9197100f5393cfcde7c453ac910a27bd2000aa1dd4c068d9361037a93929186906106ee565b60405180910390a150505050565b6000806103958385610709565b9050838110156102ba5760405162461bcd60e51b815260040161016d906105f4565b60006102ba83836040518060400160405280601f81526020017f536166654d6174683a207375627472616374696f6e20756e646572666c6f77008152506104f3565b600080610407858585610188565b905060045481116104475761043f600254610439670de0b6b3a76400006101c0600154866102c390919063ffffffff16565b90610388565b9150506101c9565b6000610472600254610439670de0b6b3a76400006101c06001546004546102c390919063ffffffff16565b9050600061048b600454846103b790919063ffffffff16565b90506104b282610439670de0b6b3a76400006101c0600354866102c390919063ffffffff16565b93505050506101c9565b600081836104dd5760405162461bcd60e51b815260040161016d91906105a1565b5060006104ea8486610721565b95945050505050565b600081848411156105175760405162461bcd60e51b815260040161016d91906105a1565b5060006104ea8486610760565b600080600060608486031215610538578283fd5b505081359360208301359350604090920135919050565b60008060008060808587031215610564578081fd5b5050823594602084013594506040840135936060013592509050565b73ffffffffffffffffffffffffffffffffffffffff91909116815260200190565b6000602080835283518082850152825b818110156105cd578581018301518582016040015282016105b1565b818111156105de5783604083870101525b50601f01601f1916929092016040019392505050565b6020808252601b908201527f536166654d6174683a206164646974696f6e206f766572666c6f770000000000604082015260600190565b60208082526021908201527f536166654d6174683a206d756c7469706c69636174696f6e206f766572666c6f60408201527f7700000000000000000000000000000000000000000000000000000000000000606082015260800190565b60208082526026908201527f6f6e6c7920746865206f776e6572206d61792063616c6c20746869732066756e60408201527f6374696f6e2e0000000000000000000000000000000000000000000000000000606082015260800190565b90815260200190565b93845260208401929092526040830152606082015260800190565b6000821982111561071c5761071c610777565b500190565b60008261073c57634e487b7160e01b81526012600452602481fd5b500490565b600081600019048311821515161561075b5761075b610777565b500290565b60008282101561077257610772610777565b500390565b634e487b7160e01b600052601160045260246000fdfea264697066735822122067f0e110a3cf2c704003c6fc6ea8b18db72fac6b1f5d07a1f32ae0bf2f21aaaa64736f6c63430008000033",
  "linkReferences": {},
  "deployedLinkReferences": {}
}