{
  "_format": "hh-sol-artifact-1",
  "contractName": "NPSwap",
  "sourceName": "contracts/Utils/NPSwap.sol",
  "abi": [
    {
      "inputs": [
        {
          "internalType": "address",
          "name": "inToken",
          "type": "address"
        },
        {
          "internalType": "address",
          "name": "outToken",
          "type": "address"
        },
        {
          "internalType": "uint256",
          "name": "outAmount",
          "type": "uint256"
        }
      ],
      "name": "getAmountIn",
      "outputs": [
        {
          "internalType": "uint256",
          "name": "inAmount",
          "type": "uint256"
        }
      ],
      "stateMutability": "view",
      "type": "function"
    },
    {
      "inputs": [
        {
          "internalType": "address",
          "name": "inToken",
          "type": "address"
        },
        {
          "internalType": "address",
          "name": "outToken",
          "type": "address"
        },
        {
          "internalType": "uint256",
          "name": "inAmount",
          "type": "uint256"
        }
      ],
      "name": "getAmountOut",
      "outputs": [
        {
          "internalType": "uint256",
          "name": "outAmount",
          "type": "uint256"
        }
      ],
      "stateMutability": "view",
      "type": "function"
    }
  ],
  "bytecode": "0x610fe361003a600b82828239805160001a60731461002d57634e487b7160e01b600052600060045260246000fd5b30600052607381538281f3fe730000000000000000000000000000000000000000301460806040526004361061004b5760003560e01c80634aa066521461005057806353b609b514610079578063df791e501461008c575b600080fd5b61006361005e366004610a4d565b6100ac565b6040516100709190610eb4565b60405180910390f35b610063610087366004610a4d565b610171565b81801561009857600080fd5b506100636100a7366004610a4d565b6101db565b6000806100b7610362565b505090506000806100c88787610541565b6040517f054d50d400000000000000000000000000000000000000000000000000000000815291935091506001600160a01b0384169063054d50d49061011690889086908690600401610f2d565b60206040518083038186803b15801561012e57600080fd5b505afa158015610142573d6000803e3d6000fd5b505050506040513d601f19601f820116820180604052508101906101669190610bb0565b979650505050505050565b60008061017c610362565b5050905060008061018d8787610541565b6040517f85f8c25900000000000000000000000000000000000000000000000000000000815291935091506001600160a01b038416906385f8c2599061011690889086908690600401610f2d565b6000806101e6610362565b5090915061020090506001600160a01b0386168285610626565b604080516002808252606082018352600092602083019080368337019050509050858160008151811061024357634e487b7160e01b600052603260045260246000fd5b60200260200101906001600160a01b031690816001600160a01b031681525050848160018151811061028557634e487b7160e01b600052603260045260246000fd5b6001600160a01b03928316602091820292909201015260009083166338ed1739868385306102b542610258610f43565b6040518663ffffffff1660e01b81526004016102d5959493929190610ebd565b600060405180830381600087803b1580156102ef57600080fd5b505af1158015610303573d6000803e3d6000fd5b505050506040513d6000823e601f3d908101601f1916820160405261032b9190810190610a88565b90508060018151811061034e57634e487b7160e01b600052603260045260246000fd5b602002602001015193505050509392505050565b60008080737a250d5630b4cf539739df2c5dacb4c659f2488d735c69bee701ef814a2b6a3edd4b1652cb9cc5aa6f7f96e8ac4277198ff8b6f785478aa9a39f403cb768dd02cbee326c3e7da348845f7310ed43c718714eb63d5aa57b78b54704e256024e73ca143ce32fe78f1f7019d7d551a6402fc5350c737efb7f630766e6a796048ea87d01acd3068e8ff67d078148a3fa3f4a84f69bd573d99d1c33f9fc3444f8101754abc46c52416550d1736725f303b657a9451d8ba641348b6761a6cc7a177fd0d4c4cd0848c93cb4fd1f498d7013ee6bfb25783ea21593d5834f5d250ece6673a5e0829caced8ffdd4de3c43696c57f7d7a678ff735757371414417b8c6caad45baef941abc7d3ab32884660018114806104815750806003145b8061048c5750806004145b156104aa57509a9d50989b5096995061053c98505050505050505050565b80603814156104cc5750979d50959b5093995061053c98505050505050505050565b80606114156104ee5750949d50929b5090995061053c98505050505050505050565b80608914806104ff57508062013881145b1561051b5750919d509b50995061053c98505050505050505050565b60405162461bcd60e51b815260040161053390610d1e565b60405180910390fd5b909192565b6000806000610550858561076b565b50905060008061056087876107f5565b6001600160a01b0316630902f1ac6040518163ffffffff1660e01b815260040160606040518083038186803b15801561059857600080fd5b505afa1580156105ac573d6000803e3d6000fd5b505050506040513d601f19601f820116820180604052508101906105d09190610b62565b506dffffffffffffffffffffffffffff1691506dffffffffffffffffffffffffffff169150826001600160a01b0316876001600160a01b031614610615578082610618565b81815b909890975095505050505050565b8015806106c757506040517fdd62ed3e0000000000000000000000000000000000000000000000000000000081526001600160a01b0384169063dd62ed3e906106759030908690600401610c5b565b60206040518083038186803b15801561068d57600080fd5b505afa1580156106a1573d6000803e3d6000fd5b505050506040513d601f19601f820116820180604052508101906106c59190610bb0565b155b6106e35760405162461bcd60e51b815260040161053390610e57565b6107668363095ea7b360e01b8484604051602401610702929190610c75565b60408051601f198184030181529190526020810180517bffffffffffffffffffffffffffffffffffffffffffffffffffffffff167fffffffff0000000000000000000000000000000000000000000000000000000090931692909217909152610878565b505050565b600080826001600160a01b0316846001600160a01b031614156107a05760405162461bcd60e51b815260040161053390610e20565b826001600160a01b0316846001600160a01b0316106107c05782846107c3565b83835b90925090506001600160a01b0382166107ee5760405162461bcd60e51b815260040161053390610d55565b9250929050565b6000806000610802610362565b9250925050600080610814878761076b565b9150915083828260405160200161082c929190610bc8565b604051602081830303815290604052805190602001208460405160200161085593929190610c0b565b60408051601f198184030181529190528051602090910120979650505050505050565b60006108cd826040518060400160405280602081526020017f5361666545524332303a206c6f772d6c6576656c2063616c6c206661696c6564815250856001600160a01b03166109079092919063ffffffff16565b80519091501561076657808060200190518101906108eb9190610b42565b6107665760405162461bcd60e51b815260040161053390610dc3565b60606109168484600085610920565b90505b9392505050565b6060824710156109425760405162461bcd60e51b815260040161053390610cc1565b61094b856109d5565b6109675760405162461bcd60e51b815260040161053390610d8c565b600080866001600160a01b031685876040516109839190610bef565b60006040518083038185875af1925050503d80600081146109c0576040519150601f19603f3d011682016040523d82523d6000602084013e6109c5565b606091505b50915091506101668282866109df565b803b15155b919050565b606083156109ee575081610919565b8251156109fe5782518084602001fd5b8160405162461bcd60e51b81526004016105339190610c8e565b80356001600160a01b03811681146109da57600080fd5b80516dffffffffffffffffffffffffffff811681146109da57600080fd5b600080600060608486031215610a61578283fd5b610a6a84610a18565b9250610a7860208501610a18565b9150604084013590509250925092565b60006020808385031215610a9a578182fd5b825167ffffffffffffffff80821115610ab1578384fd5b818501915085601f830112610ac4578384fd5b815181811115610ad657610ad6610f97565b83810260405185828201018181108582111715610af557610af5610f97565b604052828152858101935084860182860187018a1015610b13578788fd5b8795505b83861015610b35578051855260019590950194938601938601610b17565b5098975050505050505050565b600060208284031215610b53578081fd5b81518015158114610919578182fd5b600080600060608486031215610b76578283fd5b610b7f84610a2f565b9250610b8d60208501610a2f565b9150604084015163ffffffff81168114610ba5578182fd5b809150509250925092565b600060208284031215610bc1578081fd5b5051919050565b6bffffffffffffffffffffffff19606093841b811682529190921b16601482015260280190565b60008251610c01818460208701610f67565b9190910192915050565b7fff00000000000000000000000000000000000000000000000000000000000000815260609390931b6bffffffffffffffffffffffff191660018401526015830191909152603582015260550190565b6001600160a01b0392831681529116602082015260400190565b6001600160a01b03929092168252602082015260400190565b6000602082528251806020840152610cad816040850160208701610f67565b601f01601f19169190910160400192915050565b60208082526026908201527f416464726573733a20696e73756666696369656e742062616c616e636520666f60408201527f722063616c6c0000000000000000000000000000000000000000000000000000606082015260800190565b60208082526015908201527f4e6f7420537570706f7274656420636861696e49440000000000000000000000604082015260600190565b60208082526014908201527f4e50537761703a205a45524f5f41444452455353000000000000000000000000604082015260600190565b6020808252601d908201527f416464726573733a2063616c6c20746f206e6f6e2d636f6e7472616374000000604082015260600190565b6020808252602a908201527f5361666545524332303a204552433230206f7065726174696f6e20646964206e60408201527f6f74207375636365656400000000000000000000000000000000000000000000606082015260800190565b6020808252601b908201527f4e50537761703a204944454e544943414c5f4144445245535345530000000000604082015260600190565b60208082526036908201527f5361666545524332303a20617070726f76652066726f6d206e6f6e2d7a65726f60408201527f20746f206e6f6e2d7a65726f20616c6c6f77616e636500000000000000000000606082015260800190565b90815260200190565b600060a082018783526020878185015260a0604085015281875180845260c0860191508289019350845b81811015610f0c5784516001600160a01b031683529383019391830191600101610ee7565b50506001600160a01b03969096166060850152505050608001529392505050565b9283526020830191909152604082015260600190565b60008219821115610f6257634e487b7160e01b81526011600452602481fd5b500190565b60005b83811015610f82578181015183820152602001610f6a565b83811115610f91576000848401525b50505050565b634e487b7160e01b600052604160045260246000fdfea26469706673582212208dad993a38cf2a51f825eea13aae890092b810cbac76a1c991003962bcf6271964736f6c63430008000033",
  "linkReferences": {},
  "deployedLinkReferences": {}
}